:020000040800F2
:10000000205500205D0200083B4B0008B542000867
:10001000394B0008CD0F0008AD5700080000000064
:100020000000000000000000000000009D0100082A
:100030001F1B000800000000F9010008494E0008DD
:1000400077020008770200087702000877020008AC
:10005000770200087702000877020008770200089C
:1000600077020008770200087702000839170008B5
:100070007702000845170008770200087702000899
:10008000511700087702000877020008770200087D
:10009000F90F0008770200087702000877020008CD
:1000A000770200087702000877020008770200084C
:1000B000194F00087702000877020008770200084D
:1000C000770200087702000877020008770200082C
:1000D000770200087D550008D15500087702000816
:1000E000770200087702000877020008770200080C
:1000F00077020008770200087702000877020008FC
:1001000077020008770200087702000877020008EB
:10011000F951000811520008770200087702000820
:1001200077020008770200085D17000877020008D0
:1001300077020008770200087702000877020008BB
:100140009110000877020008770200087702000883
:100150007702000877020008691700087702000894
:10016000770200087702000877020008770200088B
:1001700077020008770200087702000800000000FC
:100180007702000877020008DFF80CD000F038FB97
:100190000048004791820008205500202C4B196828
:1001A0000868B0E8F04F80F30988BFF36F8F4FF015
:1001B000000080F3118870470000000008480068C4
:1001C000006880F308884FF0000080F3148862B65E
:1001D00061B6BFF34F8FBFF36F8F00DF00BF00BF6B
:1001E00008ED00E0DFF80C00016841F470010160E7
:1001F000704700BF88ED00E0EFF30980BFF36F8F19
:10020000134B1A681EF0100F08BF20ED108A20E96A
:10021000F04F106009B44FF0500080F31188BFF325
:100220004F8FBFF36F8F0BF08DF94FF0000080F30D
:10023000118809BC19680868B0E8F04F1EF0100F6B
:1002400008BFB0EC108A80F30988BFF36F8F704746
:1002500050060020EFF305807047000006488047F5
:1002600006480047FEE7FEE7FEE7FEE7FEE7FEE79B
:10027000FEE7FEE7FEE7FEE7FD4E00088901000805
:100280002DE9F05F0546002092469B4688460646CB
:10029000814640241BE0284641464746224600F05E
:1002A000F4F853465A46C01A914110D311461846E5
:1002B000224600F0DBF82D1A67EB01084F46224674
:1002C0000120002100F0D2F817EB00094E41201E5A
:1002D000A4F10104DFDC484631462A464346BDE826
:1002E000F09F40EA01039B0703D009E008C9121FF1
:1002F00008C0042AFAD203E011F8013B00F8013BE0
:10030000521EF9D27047D2B201E000F8012B491E0B
:10031000FBD270470022F6E710B513460A460446A2
:100320001946FFF7F0FF204610BD2DE9FE4F81EA88
:10033000030404F0004421F0004100944FF0000B4E
:1003400023F0004350EA01045ED052EA03045BD07C
:10035000C3F30A54C1F30A552C44A4F2F3340194B4
:10036000A0FB0254C1F3130141F48011C3F3130342
:1003700043F4801301FB024400FB034E840A970AF6
:1003800044EA815447EA8357A4FB076802958D0A23
:1003900005FB07854FEA932C04FB0C542705029DAF
:1003A0004FEA065847EA1637B5EB08056EEB070C1F
:1003B000870E920E47EA811742EA8312A7FB0201D9
:1003C000B6EB0B0164EB00042B0D43EA0C335E1813
:1003D00044EB1C50DA465146E7FB0201C5F3130417
:1003E0004FEA0B3343EA14534FEA0432019C43EAC9
:1003F0000603A4F10C040294009CCDE900B400F0C3
:100400009AF803B0BDE8F08F00200146F9E700F04C
:10041000004230F000400AD0C10D01F56071C0F318
:10042000160042EA0151C2084007114370470020FC
:100430000146704701F0004330B421F0004150EA1A
:10044000010206D00A0DA2F56072C1F31301002A61
:1004500002DC30BC00207047440F44EAC104C100F4
:10046000E01830BC00EBC25000F01FB8202A04DBBB
:10047000203A00FA02F1002070479140C2F12003B7
:1004800020FA03F3194390407047202A04DB203AF6
:1004900021FA02F00021704721FA02F3D040C2F1A4
:1004A000200291400843194670470029A8BF7047B1
:1004B000401C490008BF20F00100704710B4B0FA9A
:1004C00080FC00FA0CF050EA010404BF10BC704735
:1004D00049B1CCF1200421FA04F411FA0CF118BF4F
:1004E000012121430843A3EB0C01CB1D4FEA00611E
:1004F0004FEA102042BF002010BC704700EBC350F1
:1005000010440029A4BF10BC7047401C490008BF1C
:1005100020F0010010BC704710B5141E73F10004E8
:1005200008DA401C41F1000192185B411A4301D1E5
:1005300020F0010010BD2DE9F04D92469B4611B10F
:10054000B1FA81F202E0B0FA80F220329046FFF771
:100550008DFF04460F4640EA0A0041EA0B0153466C
:100560005A46084313D0114653EA010019D0C8F186
:1005700040025046FFF789FF05460E465046594651
:100580004246FFF773FF084305D0012004E02046F0
:100590003946BDE8F08D0020054346EAE0762C435D
:1005A00037430A986305E40AA0EB08000022FD0A1D
:1005B00044EA47540A3002D500200146E9E7010524
:1005C00010196941DDE9084500196941BDE8F04DA0
:1005D000A2E72DE9FE4F804681EA0300C00F0C46DA
:1005E000009021F0004123F00045B8EB0200A94142
:1005F00005D24046214690461C460B46024623F053
:100600000040104347D0270DC7F30A00C3F30A5137
:100610000290401A019040286BDAC3F3130040F4B3
:10062000801B0098924620B10023D2EB030A63EBB3
:100630000B0B01985946C0F140025046FFF716FFD8
:1006400006460D4650465946019A00F0EBF810EB6D
:1006500008006141002487EA115284EAE7731A43D3
:1006600040D0009A62B3019A012A4FEA075215DC82
:10067000001B61EB02014FF0004202EA0752CDE994
:100680000042001C41F5801132462B46FFF753FF14
:1006900003B0BDE8F08F40462146F9E7001B61EB4F
:1006A0000201001C41F5801300185B412018A2F5DF
:1006B000001747EB030140EAD570B6196D4111E010
:1006C0006D084FEA360645EAC0754FEA0752001B2F
:1006D00061EB0201001C41F5801149084FEA30002E
:1006E0000019514132462B4603B0BDE8F04FFFF7E9
:1006F00013BF0098012240000023D0EB020263EBFD
:10070000E073009821464FEAE074B8EB000061EB1B
:100710000401E9E783F000435BE781F0004158E71B
:100720002DE9F04D81EA030404F0004B21F000456F
:1007300014464FF0000A23F0004150EA050220D091
:1007400054EA01021DD0C5F30A570246C5F313034C
:10075000C1F31300C1F30A5640F4801543F480132B
:10076000A7EB0608101BD64608F2FD3873EB050010
:1007700002D308F1010801E092185B41B8F1000FC3
:1007800003DA00200146BDE8F08D00204FF480110F
:10079000064684460EE0171B73EB050705D3121BB4
:1007A00063EB050306434CEA010C49084FEA3000AD
:1007B00092185B4150EA0107EDD152EA030012D0D2
:1007C00082EA040083EA0501084305D0101BAB410F
:1007D00006D20122002306E000224FF0004302E08F
:1007E0006FF0010253101AEB06004CEB085110EBAE
:1007F0000A0041EB0B01BDE8F04DFFF78DBE000094
:10080000064C074D06E0E06840F0010394E807005D
:1008100098471034AC42F6D3FFF7BAFC50DD00081D
:1008200070DD0008202A06DBCB17203A41FA02F0DF
:1008300043EAE07306E041FA02F3D040C2F120023D
:1008400091400843194670472DE9F04D00231A46A0
:100850001B1A8A4103DB00200146BDE8F08DC1F37D
:100860000A52C1F3130141F480154FF0000BD10778
:1008700002D100186D41521E0027044640F2FF11BC
:10088000384601EB620A3E468046024600204FF49D
:100890008011FFF7FAFDC2197141BB1846EB010048
:1008A000B4EB030C75EB000C04D3E41A65EB000504
:1008B00017460E46241908F101006D418046342880
:1008C000E3DDF91946EB0600091BA84103D24FF0FE
:1008D000FF32134601E0002213461BEB070046EBF4
:1008E0000A51BDE8F04DFFF717BE70B58C1810F82F
:1008F000015B15F0070301D110F8013B2A1106D165
:1009000010F8012B03E010F8016B01F8016B5B1E7E
:10091000F9D12B0705D40023521E0DD401F8013B59
:10092000FAE710F8013BCB1A921C03E013F8015BC5
:1009300001F8015B521EF9D5A142D8D3002070BD49
:1009400070470000464910B54A6822F440324A60B8
:100950004A6843681A434A6001684A6822F4807210
:100960004A6001684A68036942EA03224A600168F2
:100970004A6822F040724A6001684A6883681A43F4
:100980004A6001688A6822F400628A6001688A68A5
:10099000C3681A438A60816A6FF07062D14201684D
:1009A0008A6822F070628A6001688A680CD0836A63
:1009B0001A438A6001688A6822F040528A6001689E
:1009C0008A68C36A1A4301E022F040528A600168D3
:1009D0008A6822F002028A6001688A68037E42EA1D
:1009E00043028A6090F82010002901684A680FD0FD
:1009F00042F400624A6001684A6822F460424A6038
:100A000001684A68174C436A04EB43331A4301E018
:100A100022F400624A600168CA6A22F47002CA6263
:100A20000168CA6A838B104C04EB03531A43CA62F1
:100A300001688A6822F400728A6001688A6890F806
:100A4000303042EA43228A6001688A6822F4806278
:100A50008A6001688A68406942EA8020886010BD27
:100A60000023014000E0FFFF0000F0FF2DE9F0410E
:100A700016462DED0A8B0F468046B3F90030DDE9AE
:100A8000131000EE103ADDE91152F8EEC00AFE4CE8
:100A9000DDF840C0C4ED0E0ABCF9003000EE103A9B
:100AA000B8EEC00A84ED0F0AB5F90030032593FBB8
:100AB000F5F31BB203EB430300EE103AB8EEC00AA5
:100AC00084ED100AB2F9002000EE102AB8EEC01A28
:100AD00084ED111AB1F9001000EE101AB8EEC00A38
:100AE00084ED120AB0F9000021EE000A01EE900A2E
:100AF000F8EEE11AC4ED131A20EE210AB5EEC00A91
:100B0000F1EE10FA7DD0E14D297B9FEDE18AFDEEFB
:100B1000E00AB0EE480A10EE900A00B207F08AFB35
:100B200084ED0E0AD4ED0F0A297BB0EE480AFDEEE3
:100B3000E00A10EE900A00B207F07CFB84ED0F0A89
:100B4000D4ED100A297BB0EE480AFDEEE00A10EE63
:100B5000900A00B207F06EFB94ED0E1ADFEDCD0A9D
:100B600021EE201A20EE200A84ED0E1A94ED0F1AC1
:100B700021EE201A84ED0F1A84ED100AD4ED110A2B
:100B8000297BB0EE000AFDEEE00A10EE900A00B2FA
:100B900007F064FB84ED110AD4ED120A297BB0EE54
:100BA000000AFDEEE00A10EE900A00B207F056FBD4
:100BB00084ED120AD4ED130A297BB0EE000AFDEE93
:100BC000E00A10EE900A00B207F048FBF0EE400A8F
:100BD000C4ED130A94ED110A94ED121A20EE000AE6
:100BE00001EE010A00EEA00A07F00EFB84ED070AF1
:100BF000D4ED110A60EE802AC4ED112AD4ED120A58
:100C000000E05CE160EE804AB0EE008AC4ED124A7A
:100C1000D4ED130A20EE803A84ED133A94ED040AE1
:100C2000D4ED060AD4ED031A94ED051A20EE202A1D
:100C300001EEC12A22EE084A21EE802A84ED084AFC
:100C400001EE202A22EE085A21EEA12A84ED095A4B
:100C500000EE402A01EE412A00EEA02A84ED0A2A85
:100C600064EE823A43EE453A23EE043A02EEC23A8B
:100C700062EE852AC4ED0B3A44EEC42A84ED0C3AA8
:100C8000C4ED0D2A94ED142A94ED015A03EE852A41
:100C900084ED142A94ED154A03EE054A84ED154AB5
:100CA000D4ED164A42EE854AC4ED164AD4ED0E5AEA
:100CB00094ED005A45EE235A35EE822A84ED0E2A31
:100CC000D4ED0F3A45EE033A33EE843A20EE424A31
:100CD00084ED0F3AD4ED103A01EE434A61EE835AA7
:100CE00045EE223AB0EE615A73EEA42A61EE824AD2
:100CF000C4ED102AC4ED171A41EE224A84ED180AF9
:100D000000EEE24A84ED191AC4ED1A0AD4ED023A53
:100D100040EEC34A40EE625A04EE235AB0EE404A17
:100D200004EEA34A40EE825A84ED035A84ED044A4D
:100D300061EEA21AF0EE414A45EEA34A40EE031AD4
:100D400025EE050AC4ED054A04EE040A41EE421AF6
:100D500004EEA40A41EEA30AC4ED060A00EEA00ABE
:100D600007F052FA84ED070AD4ED030A20EE80BAA8
:100D700084ED03BAD4ED040A60EE808AC4ED048ADF
:100D8000D4ED050A20EE809A84ED059AD4ED060A8A
:100D900060EE809A2BEE0B0AC4ED069A08EEE80A84
:100DA00009EE490A09EEA90A10EE100AFFF72FFB17
:100DB00029EE080A6BEE080A41EC1A0B20EE290A0C
:100DC00000EEA80A10EE100AFFF721FB41EC100B11
:100DD000B0EE4A1AF0EE6A1A05F02EF89FED2EBB1F
:100DE00051EC100B53EC1B2BFFF79FFAFFF722FB84
:100DF000386094ED040AD4ED060A94ED051A20EE4D
:100E0000080A20EE200AD4ED030A60EE880A00EEFC
:100E1000C10A10EE100AFFF7FAFA41EC100B04F0C9
:100E2000EFFC9FED1F1B51EC100B53EC112BFFF748
:100E30007CFAFFF7FFFAC8F8000094ED03CAD4ED7E
:100E4000048AD4ED05AA2CEE0C0A94ED06AA08EE4D
:100E5000A80A0AEEEA0A0AEE4A0A10EE100AFFF79A
:100E6000D6FA28EEAA0A41EC190B0CEE0A0A20EE7B
:100E7000080A10EE100AFFF7CAFA41EC100BB0EEA8
:100E8000491AF0EE691A0FE04C000020D00800204B
:100E90000000FA44728A8E3C0000006066A64C4056
:100EA0000000006066A64CC004F0C6FF53EC1B2B8C
:100EB00051EC100BFFF739FAFFF7BCFA3060002055
:100EC000BDEC0A8BBDE8F0812DE9F04780469146E4
:100ED0000F46122003F000FB0446132003F0FCFA37
:100EE00044EA0026142003F0F7FA0446152003F024
:100EF000F3FA44EA0025162003F0EEFA0446172020
:100F000003F0EAFAA8F8006044EA00203D80A9F85E
:100F10000000BDE8F0872DE9FE4F1546DDE90C9A8B
:100F20000E4607460C221C466946104603F0FAFAA4
:100F3000BDF80080BDF802C0BDF80430BDF8062041
:100F4000BDF80810BDF80A00A4F80080A9F800C098
:100F5000AAF800303A8031802880BDE8FE8F00007A
:100F600038B5194805F0F6FC05F068F9164805F0A3
:100F700029F9044605F062F924BB01208DF8000030
:100F80000146114A684605F073FD05F057F90E4811
:100F900003F02AFE00208DF800000B4A012168466C
:100FA00005F066FD05F04AF9074803F0F3FD02205D
:100FB0008DF80000044A0121684605F059FD0446F9
:100FC00005F03CF9204638BDD0080020FEE70000BF
:100FD00000B58BB0684600F04FF96946054800F04F
:100FE000C9FF0221034800F04FFF024801F0DAFA7E
:100FF0000BB000BDE00D0020014801F0B6B80000C4
:10100000E00D002070B5174CA0F50072013A14D025
:10101000A0F50072023A16D0A0F50072033A19D07A
:10102000B0F5017F1DD104F15400226E05469047B2
:10103000616E2846BDE870400847E268094890475D
:1010400008482169F6E70748A26A1C300546904720
:10105000E16AEEE70348626C383005469047A16CC0
:10106000E7E770BD5802002000B58BB0684600F07D
:1010700003F96946054800F07DFF0221034800F0AE
:1010800003FF024801F08EFA0BB000BD080E0020ED
:10109000014801F06AB80000080E0020704700887F
:1010A00040BA7047408840BA00B27047808840BA62
:1010B00000B270478079704713B5012201A900F092
:1010C0000FF81CBD08B50A0A8DF800208DF8011034
:1010D0000222694600F004F808BD00F001B80000E3
:1010E0002DE9F0410446407815460E4640B10128EE
:1010F00008D00420A0706068401C6060BDE8F081EA
:10110000124F01E0114F24373846E16800F0C1F872
:1011100018B92146384600F05AF8227C00210DE02B
:101120005318082B05D30521A1706168491C616023
:1011300006E0775C0344491C1F71C9B2A942EFD392
:10114000618A82898A42D9D98181D7E7000000204B
:1011500008B50A0E8DF800200A0C8DF801200A0A45
:101160008DF802208DF8031004226946FFF7B8FFBE
:1011700008BD000070B504004FF000051AD170BD25
:101180004FF0000110D0D4F81010002004EB8002C2
:10119000401C5369C0B213610328F7D3E56194F88A
:1011A0002000401E84F82000084600F065F9012860
:1011B00005D0257094F820000028E1D170BD4FF0D3
:1011C00001002070606800F101006060F2E72DE925
:1011D000F04185680F4604464FF00108002635B3FC
:1011E0000FB924E00546286A0028FBD1242007F027
:1011F000C1FA2862F9680160296A788A8881286AB8
:101200000661286A4661296A002081F81880296AE7
:1012100081F81980011D2A6A401CC0B25654082862
:10122000F8D3286A0662286AC461286A1FE024206D
:1012300007F0A0FAA060F9680160A168788A888147
:10124000A0680661A0684661A168002081F8188046
:10125000A16881F81980011DA268401CC0B25654D3
:101260000828F8D3A0680662A068C461A068217B42
:10127000491C2173BDE8F08100210160416081605B
:10128000C160016101224161C0E90612C0E9082183
:101290007047806803E002688A4202D0006A002832
:1012A000F9D17047AFF3008070B50446407840B183
:1012B000012808D00420A0706068401C60600020F5
:1012C00070BD074D01E0064D24352846E168FFF763
:1012D000E0FF18B921462846FFF779FF007E70BD70
:1012E0000000002070B5054690F821000026012876
:1012F0002AD14DB3287B38B3AC6823E007F02AF835
:101300002169411AA089401E00EB4002C2EBC010C7
:10131000B1EBC00F15D3207E012812D195F8200023
:10132000042808D205EB8000046195F82000401CD9
:1013300085F8200004E0022129706868401C68607C
:101340000126246A002CD9D1304670BD00F06CB85B
:1013500010B5124A016891420DD1114B00211C4673
:10136000A3F11C0200F08DFE0D4821461C380068D8
:10137000FFF748FE10BD0B4A9142FBD1084B0021FC
:1013800024331C46A3F11C0200F07BFE04482146D6
:1013900008300068FFF782FE10BD000000640040C6
:1013A000E006002000680040AFF3008070B50446FE
:1013B00040780E4638B1012807D00420A07060683C
:1013C000401C606070BD074D01E0064D2435284685
:1013D000E168FFF75EFF18B921462846FFF7F7FEE0
:1013E000467670BD00000020AFF3008070B5044663
:1013F00040780E4638B1012807D00420A0706068FC
:10140000401C606070BD074D01E0064D2435284644
:10141000E168FFF73EFF18B921462846FFF7D7FEDF
:10142000067670BD0000002010B5044688B0E26862
:101430000092002201200292039208220492627814
:1014400012B1012A05D00AE00A4606AB69460848EF
:1014500003E00A4606AB6946064800F027FDA07087
:10146000002802D06168491C616008B010BD00000E
:10147000E00D0020080E002070B588B004004FF089
:10148000010529D009F082FF20680026009002960D
:101490000820CDE903601249E069884204D106AB17
:1014A000221D69460F4807E00D492431884206D1C4
:1014B00006AB221D69460C4800F0F8FC054606F014
:1014C00049FF2169401A606106F044FF2061607E97
:1014D00000B9267609F07AFF08B0284670BD0000F2
:1014E00000000020E00D0020080E002010B500F0E4
:1014F00004F8BDE8104000F037B800B500F004F87B
:101500005DF804EB00F0CEB803480178034809B158
:10151000012900D10170704737050020E00200204A
:1015200030B50F480F49046862680A6043685A681A
:101530004A60826855688D60C5686868C86001F156
:101540001000C5600460C0E90132103021680160FC
:1015500019684160116881602968C16030BD000070
:10156000B4040020380900202DE9F04100211A4878
:1015700000F082F80221184800F07EF80121164898
:1015800000F07AF80321144800F076F8134F124E59
:101590000024A7F1100500BF57F82400007E50B1C9
:1015A00055F824000021C2699047641C14F0FF0420
:1015B000F2D0BDE8F08104EB4400C0EB441006EB30
:1015C000800090ED1C0ABDEEC00A10EE100A81B238
:1015D00055F82400C269E7E7E4020020480900202A
:1015E0002DE9F0410E462DED028B074600249FEDBC
:1015F0000B8A0CE004EB4400C0EB441007EB8005C1
:10160000284606F0FDFE641C85ED1C8AE4B2B44257
:10161000F0D3BDEC028BBDE8F081000000000000BB
:101620002DE9F041114D00242DED028B26469FED52
:10163000108A104F04EB4400C0EB441005EB80000F
:10164000314680ED1C8A57F82400C2699047641C1B
:10165000E4B2042CEED304210448FFF7C1FFBDEC33
:10166000028BBDE8F041FFF748BF0000E402002014
:10167000000000003809002010B501EB4102C2EB68
:10168000411100EB8104204694EC020A30EE600A1E
:1016900084ED020A09F0EAFC94ED0A0A84ED1C0AC2
:1016A00010BD704713480168B1F9021000EE101A1E
:1016B0001149B8EEC00A81ED010A4268B2F9022070
:1016C00000EE102AB8EEC00A81ED1E0A8268B2F957
:1016D000022000EE102AB8EEC00A81ED3B0AC06875
:1016E000B0F9020000EE100AB8EEC00A81ED580A07
:1016F0007047000058090020E40200200021014842
:1017000000F0EABF300E002010B50A4C2068816856
:101710008847606881688847A06881688847E06872
:101720008168884720698168884760698168BDE869
:1017300010400847C8020020014801F057B80000D7
:1017400044100020014801F051B80000E40F0020CF
:10175000014801F04BB8000064110020014801F07D
:1017600045B80000A4100020014801F03FB8000077
:10177000041100202DE9F04F85680024099E802D7A
:1017800018D0894DC563894D456490F83450012DBA
:1017900015D0012580F8345090F83550012D10D027
:1017A000002180F834100224002180F834102046F3
:1017B000BDE8F08F4FF4807141650120F8E7022009
:1017C000F6E7022580F835500025456505682F6845
:1017D00047F480272F6005682B6103685E6083688B
:1017E000402B03682AD099600168CA60714D704E21
:1017F000704FDFF8BC81DFF8B891DFF8B8A1DFF8EF
:10180000B4B1EA14DFF8A8E1016818363037930262
:10181000A9F148090AF1600A0BF1180BAEF1300E7C
:101820004FF0006C41452DD9A94205D0494503D060
:10183000514501D0B14205D1202220E09A600268D2
:10184000D160D3E759451AD0714518D0594D783534
:10185000A94214D0564D3035A94210D0B9420BD010
:10186000534A183A914207D0524A9032914203D0DB
:101870004F4A4832914201D11A4600E062464C4933
:101880004C392EE0DFF82C8108F1A80841452AD90F
:10189000A94205D0494503D0514501D0B14201D1FB
:1018A00020221CE059451AD0714518D0414D783599
:1018B000A94214D03E4D3035A94210D0B9420BD0C8
:1018C0003B4A183A914207D03A4A9032914203D0AB
:1018D000374A4832914201D11A4600E06246344903
:1018E00050390A605AE0DFF8CC8008F148084145D9
:1018F0002AD9A94205D0494503D0514501D0B1426A
:1019000001D120221CE059451AD0714518D0294D2B
:101910007835A94214D0264D3035A94210D0B942AD
:101920000BD0234A183A914207D0224A9032914272
:1019300003D01F4A4832914201D11A4600E0624664
:101940001C491039CA6029E0A94205D0494503D095
:10195000514501D0B14201D120221CE059451AD095
:10196000714518D0134D7835A94214D0104D30353B
:10197000A94210D0B9420BD00D4A183A914207D073
:101980000C4A9032914203D0094A4832914201D127
:101990001A4600E06246074910398A6001680A6801
:1019A00042F001020A60FFE695700008AD70000881
:1019B000586402401060024001681823CAB2103A0D
:1019C000B2FBF3F2054B6FF30901032A9B5CC3657D
:1019D00000D9091D816508467047000014DC000825
:1019E00010B5014600208B698A6A4FF0C07453B16C
:1019F000B3F5005F15D072B1012A0CD0022A0AD0CB
:101A0000032A09D104E01AB1012A06D0022A03D11F
:101A1000C96AC90100D5012010BDC96AA142FAD026
:101A200010BD002AF7D0012AF2D0022AF3D0032AEF
:101A3000F3D010BD30B50468256825F480252560F5
:101A4000046863608368402B036803D09960006872
:101A5000C26030BD9A600068C16030BD70B590F85A
:101A600034500024012D0CD0012580F8345090F81A
:101A700035600025012E06D080F83450022420461F
:101A800070BD022070BD022680F83560456505688E
:101A90002E6826F480262E6005686B608368402BD4
:101AA000036808D099600168CA600068016841F065
:101AB00001010160E3E79A600268D160F5E710B5C3
:101AC00003F03CF8FEF73CFFFFF718FE03F062FD61
:101AD00003F08AFD03F0B4FD03F0D0FDFFF778FAC0
:101AE000BDE81040FFF7C0BA01680A68D20604D505
:101AF000C968C90601D509F03BBB704770EE601A92
:101B0000F5EEC01AF1EE10FA01DC70EEC01AF4EE38
:101B1000C11AF1EE10FA01D2B0EE600A70477047B8
:101B200070470000064A136823F44073136013687B
:101B30001360136843F001031360017070470000E5
:101B4000103C0240094910B50C6824F440740C6044
:101B50000C6844F440740C600C6844F001040C60A0
:101B60000260BFF36F8F436010BD0000103C024065
:101B7000074A136823F440731360136843F48073B7
:101B80001360136843F00103136001807047000085
:101B9000103C0240074A136823F440731360136833
:101BA00043F400731360136843F001031360016092
:101BB00070470000103C024017490868C2061748E9
:101BC00005D5C26942F01002C26110220A600A689B
:101BD000920605D5C26942F00802C26120220A605D
:101BE0000A68520605D5C26942F00402C261402269
:101BF0000A600A68120605D5C26942F00202C26193
:101C000080220A600A68920705D5C26942F0200264
:101C1000C2610220086070470C3C02400C12002098
:101C200070B5114904460020C86101F0B5F80646B8
:101C30000E4D09E0601C07D024B101F0ADF8801B07
:101C4000A04201D9032070BD2868C003F2D42868DF
:101C5000C00701D001202860286810F0F200F2D0FF
:101C6000FFF7AAFF012070BD0C1200200C3C0240BF
:101C7000044A00F57A701060101D01F57A71016058
:101C8000704700003404004078B50024009490F8B8
:101C90003C20012A19D0012280F83C200A68072341
:101CA0000568092A13D9EE680A3A02EB420293400A
:101CB0009E43EE600B788A680A3B03EB43039A402D
:101CC0000368DD682A43DA6010E0022078BD2E69DF
:101CD00002EB420293409E432E610B788A6803EB2D
:101CE00043039A4003681D692A431A614A681F2307
:101CF000072A13D205686E6B521E02EB82029340D4
:101D00009E436E630B790A885B1E92B203EB8303DA
:101D10009A4003685D6B2A435A6327E005680D2AE1
:101D200012D22E6BD21F02EB820293409E432E638F
:101D30000B790A88DB1F92B203EB83039A40036896
:101D40001D6B2A431A6311E0EE6A0D3A02EB820220
:101D500093409E43EE620B790A880D3B92B203EBEF
:101D600083039A400368DD6A2A43DA62164B0568EA
:101D7000144A9D4206D10D68122D03D1556845F4D1
:101D80008005556005689D4218D10B68102B01D065
:101D9000112B13D1536843F40003536009681029D1
:101DA0000CD10A490A4A0968B1FBF2F101EB810141
:101DB000490000E0491E00910029FBD180F83C4019
:101DC000002078BD00230140002001404006002093
:101DD00040420F0070B504004FF0000503D0206CA6
:101DE000002610B107E0012070BD204600F01CF86D
:101DF000666484F83C60206CC00610D4206C20F42B
:101E0000885040F0020020642046FEF79BFD666487
:101E1000206C20F0020040F00100206400E0012569
:101E200084F83C60284670BD10B586B00446142185
:101E30006846FEF76FFA1149206888421CD11048A5
:101E40000021026842F480720260006800F4807031
:101E500005900B481438026842F0040202600068E2
:101E600000F004000590012000900320CDE901015D
:101E70006946044800F08AFE06B010BD002001400B
:101E8000443802400008024090F82020012A07D080
:101E9000022A05D0416A41F4802141620120704745
:101EA000006842690A43426100207047F0B590F82B
:101EB00020500468A468012D05D0022D03D0416A8A
:101EC00041F4802153E014F0406F01D1E5004BD57F
:101ED000C4F30164022C03D9416A41F4000146E0D5
:101EE0000125A5401D608D684FF4C0739DB1CE687B
:101EF00035434E6845EAC605066803EB0417F551FD
:101F00004FF4C275076805EB04150E697E51097D13
:101F1000012905D009E00E88CD6845EA4655EBE772
:101F200001684E5946F480764E511179D2F8055029
:101F30004FF4C67641EA0525016806EB04168D517B
:101F40001178D2F801204FF4C47541EA02210268E9
:101F500005EB04155151006803EB0411425842F09F
:101F6000010242500020F0BD416A41F4001141627B
:101F70000120F0BD10B590F82020012A07D0022AD8
:101F800005D0416A41F480214162012010BD3B48E7
:101F9000D0F8002242F00102C0F80022D0F800225E
:101FA00022F47C52C0F80022D0F800224B6A42EAA8
:101FB0000322C0F800220A7D02F01F0301229A408A
:101FC000D0F81C329343C0F81C32CB69B3B9D0F8B7
:101FD0000C329343C0F80C328C894B6864F31F4376
:101FE0004C6900EBC404C4F840320C890B6864F3FC
:101FF0001F434C6900EBC404C4F84432CB69012B85
:1020000016D1D0F80C321343C0F80C320C884B6850
:1020100064F31F434C6900EBC404C4F840320C89DC
:10202000CB6864F31F434C6900EBC404C4F844322A
:102030008B69002BD0F804320ED01343C0F8043261
:102040000B69002BD0F8143208D01343C0F81432B7
:10205000096A012904D008E09343EFE79343F5E7C9
:10206000D0F81C121143C0F81C12D0F8001221F055
:102070000101C0F80012002010BD00000064004003
:10208000704730B590F82040012C05D0022C03D0C9
:10209000416A41F480215DE00468002955D024693B
:1020A000A40754D04FF4D874056804EB01142D59DB
:1020B00015F00405956005682D594ED0ED08556062
:1020C00005682C5904F00204D4604FF4DA740568F2
:1020D00004EB01142D5905F00F05156105682D5904
:1020E000C5F30725956105682C59240C54614FF4FC
:1020F000DC72046802EB0112A4581C700468A45836
:10210000240A5C700468A458240C9C700468A258CB
:10211000120EDA704FF4DE72046802EB0112A4585A
:102120001C710468A458240A5C710468A458240C27
:102130009C710468A258120EDA71006881B10169BD
:1021400041F020010161002030BDE468A8E7416A48
:1021500041F400114162012030BD6D0D1560AFE703
:10216000C16841F02001C160EDE72DE9F05F05464F
:10217000006800244669D0F804908768D0F80CB055
:10218000D0F810A0D0F81880F10748D0F90714D083
:1021900001218160B80703D5284600F030FA0CE031
:1021A000780702D54FF4006407E0380702D54FF4F2
:1021B000805402E0284600F021FAF80516D5296877
:1021C0004FF480708860B80503D5284600F019FAEE
:1021D0000CE0780502D544F4005407E0380502D538
:1021E00044F4804402E0284600F00AFAF80316D5C9
:1021F00029684FF480308860B80303D5284600F082
:1022000002FA0CE0780302D544F4004407E03803F6
:1022100002D544F4803402E0284600F0F3F9300798
:1022200007D55FEACB6004D52968102044F4007418
:10223000C86070074FF0080707D55FEA0B7004D538
:102240002868C760284600F099F9B00706D52868C5
:10225000C068800702D0284600F092F9700607D5C2
:102260005FEACA6004D52968102044F480640861DC
:10227000B00607D55FEA0A7004D5286807612846CA
:1022800000F08CF9F00606D528680069800702D0B6
:10229000284600F084F9B00308D55FEAC96005D587
:1022A000296810204860284600F07AF9F00307D525
:1022B0005FEA097004D528684760284600F0A4F951
:1022C000300446D55FEA497040D5F00504D55FEA91
:1022D000C87001D044F00104B00504D55FEA8870ED
:1022E00001D544F00204700504D55FEA487001D5B9
:1022F00044F00404300529D518F0700F26D008F0FA
:102300007000402815D006DC102809D020280AD0FB
:10231000302816D10AE050280ED0602811D10EE0E6
:1023200044F008040DE044F010040AE044F02004F6
:1023300007E044F0400404E044F0800401E044F489
:1023400080742868816921F0700181612968042006
:102350004860002C05D0686A204368622846FFF771
:102360008FFEBDE8F09F70B5040003D094F8200004
:1023700010B104E0012070BD204600F081F8206813
:10238000016841F00101016000F006FD05460526E7
:1023900004E000F001FD401B0A2811D820684068C5
:1023A000C007F6D02068016821F00201016000F04A
:1023B000F3FC05460BE000F0EFFC401B0A2806D9B1
:1023C000606A40F40030606284F82060D2E72068E0
:1023D00040688007EFD4207E0128206801683DD046
:1023E00021F080010160607E01282068016838D0FA
:1023F00021F040010160A07E01282068016833D0EF
:1024000021F020010160E07E0128206801682ED0C3
:1024100041F010010160207F01282068016829D067
:1024200021F008010160607F01282068016824D044
:1024300021F004010160D4E902010843D4E9041247
:10244000114308436168491E08432168C8610020A0
:102450006062012084F82000002070BD41F08001FE
:10246000C0E741F04001C5E741F02001CAE721F093
:102470001001CFE741F00801D4E741F00401D9E7AA
:10248000F0B587B0044614216846FDF743FF364B8C
:102490003648DFF8D0E01968D4F800C0334A032585
:1024A0000226092710300024491CF44522D1196066
:1024B000012907D1016841F000710160006800F056
:1024C00000700590106840F0080010601068CDE9B9
:1024D000005600F00800CDE9047069462448CDE9B3
:1024E000024500F053FB00220521142000F0F2FC0D
:1024F000142032E0DFF87CE0F44530D1D0F800C0A1
:102500004CF0806CC0F800C0D0F800C001290CF07D
:10251000806CCDF814C0196007D1016841F00071DA
:102520000160006800F000700590106840F0020043
:102530001060106802AB00F0020005906020CDE949
:10254000000683E8B00069460B4800F01FFB00223C
:102550000521402000F0BEFC402000F0ADFC07B09B
:10256000F0BD0000006400403C060020303802400E
:10257000000C024000680040000402407047000068
:10258000044A0168914202D0034A914201D1FEF708
:10259000DFBE70470064004000680040704770472D
:1025A0007047000070B5044690F82000012804D060
:1025B000606A40F40020606218E0022084F8200085
:1025C0002068016821F00101016000F0E5FB05468B
:1025D0000EE000BF00F0E0FB401B0A2808D9606A4B
:1025E00040F400306062052084F82000012070BDB6
:1025F00020684068C007EDD1606270BD70477047C9
:102600007047704770477047704770B54379012B2A
:102610001CD0012646710223037105682B6802F065
:10262000100440F6FE72A2409343D1E900210A4310
:10263000A2401A432A6001680A68C023A3409A4353
:102640000A60067100214171084670BD022070BD0C
:1026500070B5040003D02079002510B105E00120F9
:1026600070BD6571204600F007F8022020712561D9
:1026700001202071002070BD10B586B004461421E1
:102680006846FDF747FE1149206888421CD1104872
:102690000021026842F000520260006800F0005021
:1026A00005900B481038026842F001020260006891
:1026B00000F001000590102000900320CDE90101F9
:1026C0006946044800F062FA06B010BD007400408C
:1026D000403802400000024070B54279012A1ED005
:1026E00001224271022303710468266801F010037D
:1026F00002FA03F52E4326600029016811D00C6808
:1027000004F470153C249C40A54203D14B6843F06F
:1027100002034B60027100214171084670BD022026
:1027200070BD0B68C3F383030F2BF3D14B6843F0E9
:102730000103EEE72DE9F0410446876D00F02CFB24
:10274000064694F835000025022806D080206065F2
:1027500084F834500120BDE8F0812068016821F040
:10276000160101602068416921F080014161206CFF
:1027700008B9A06C20B12068016821F0080101604F
:102780002068016821F0010101600CE000F004FB09
:10279000801B052807D920206065032084F83500B8
:1027A00084F83450D7E720680068C007EED194F869
:1027B0005C103F208840B860012084F8350084F820
:1027C00034500020C7E790F83510022903D080214B
:1027D000416501207047052180F8351000680168C7
:1027E00021F0010101600020704700002DE9F8434D
:1027F00004464FF00009CDF8009063484FF416519D
:10280000A56D0068B0FBF1F72E6894F85C10082005
:1028100000FA01F131420FD021680A6852070BD546
:102820000A6822F004020A6094F85C108840A860EC
:10283000606D40F00100606594F85C104FF0010895
:1028400008FA01F0304208D021684969090604D528
:10285000A860606D40F00200606594F85C10042090
:102860008840304208D021680968890704D5A860EB
:10287000606D40F00400606594F85C1010208840A2
:10288000304218D021680968090714D5A86020686B
:102890000168490304D50068000308D5A16C07E06E
:1028A0000168C90503D4016821F008010160216CA9
:1028B00009B12046884794F85C10202088403042B7
:1028C00031D021680968C9062DD5A86094F8350073
:1028D00005282068016806D0490347D50068000331
:1028E0001DD4616C1CE021F0160101602068416973
:1028F00021F080014161206C08B9A06C20B12068F2
:10290000016821F00801016094F85C103F208840C4
:10291000A86084F8358084F83490216D1FE0E16B65
:1029200009B120468847606D00282BD0606DC00734
:1029300014D0052084F835002068016821F00101D9
:1029400001600098401C0090B84203D820680068DD
:10295000C007F6D184F8358084F83490E16C002902
:1029600010D001B02046BDE8F04308470168C90512
:10297000D5D4016821F01001016084F8358084F815
:102980003490CCE7BDE8F883400600202DE9F04103
:10299000044600F001FA06465CB1022084F83500D6
:1029A000002584F834502068016821F0010101609D
:1029B0000DE00120BDE8F08100F0EEF9801B052854
:1029C00005D920206065032084F83500F2E72068EF
:1029D0000068C007F0D12268116820480140D4E99E
:1029E00001031843D4E9033633431843636918439A
:1029F000A3691843E3691843236A18430843616ACB
:102A0000042903D1D4E90B1319430843106020684B
:102A10004069666A20F0070130460E43012704280A
:102A20000CD1A06A0643E06A40B12046FEF7D8FF09
:102A300020B14020606584F83570BAE720684661AF
:102A40002046FEF7B9FF94F85C203F219140816059
:102A5000656584F835700020ACE700003F8010F019
:102A60002DE9F0410446866D90F8340000250128D8
:102A70000DD0012084F8340094F835700020012F27
:102A800007D084F8340002252846BDE8F0810220F2
:102A9000FBE7022784F8357060652046FEF7CAFF21
:102AA00094F85C103F208840B0602068016841F0D5
:102AB00016010160206C20B12068016841F0080116
:102AC00001602068016841F001010160DCE700005D
:102AD0000348016841F00041016000207047000098
:102AE000103C02402DE9F0471B4E05461446307E4F
:102AF0001F468946012808D0012030764CF2503814
:102B00004046FFF78DF818B114E00220BDE8F087C9
:102B10009DB1012D16D0022D19D022463B464846C4
:102B2000FFF710F84046FFF77BF80C490A6822F0DF
:102B300001020A6000213176E8E7E1B24846FEF77B
:102B4000F1FFEFE7A1B24846FFF712F8EAE72146A6
:102B50004846FFF71FF8E5E70C120020103C024042
:102B6000074900200A68002A09DA054A054B0C3A91
:102B70001360054B13600968002900DA01207047D3
:102B8000103C024023016745AB89EFCD2DE9F84F9A
:102B9000DFF8BCA1002201250AF1040B03264FF047
:102BA0000F090BF1040E00BF0B6805FA02F4234075
:102BB000A34270D10F7907F00307012F01D0022F34
:102BC00016D187684FEA420806FA08FC27EA0C0784
:102BD000D1F80CC00CFA08FC4CEA070CC0F808C08D
:102BE0004768A7430C79C4F3001494403C43446005
:102BF0000C79E443A4070AD0C4684FEA420C06FAF1
:102C00000CF7BC438F6807FA0CF72743C7600C79B1
:102C100004F00304022C12D1D40800EB840CDCF87D
:102C200020405707FF0E09FA07F824EA0804D1F8F4
:102C3000108008FA07F848EA0408CCF820800468F5
:102C40004FEA420C06FA0CF7BC430F7907F0030772
:102C500007FA0CF7274307604C6814F4403F70D024
:102C60003C4C276847F480472760246822F003071C
:102C700004F480440094384C07EB040CDCF808485A
:102C800097074FEA177809FA08F7BC43334FB84261
:102C900002D1002724E054E0314FB84201D101278E
:102CA0001EE0304FB84201D1022719E02E4FB84242
:102CB00001D1032714E02D4FB84201D104270FE0C2
:102CC0002B4FB84201D105270AE02A4FB84201D163
:102CD000062705E0284FB84201D1072700E0082762
:102CE00007FA08F72743CCF80878DAF80040574687
:102CF000D1F804C09C435FEACC3C00D51C433C6047
:102D0000DBF800405F46D1F804C09C435FEA8C3C8E
:102D100000D51C433C60DEF800407746D1F804C083
:102D20009C435FEACC2C00D51C433C60084F0C3719
:102D30003C68D1F804C09C435FEA8C2C00D51C434E
:102D40003C60521C102AFFF42FAFBDE8F88F000042
:102D5000003C014044380240003001400000024085
:102D60000004024000080240000C02400010024033
:102D70000014024000180240001C0240426921EA8F
:102D800002030A4043EA0241816170470AB181614E
:102D900070470904FBE700000148806870470000A5
:102DA0004406002009480168094A1278114401606C
:102DB0004FF08041496A006800EB4002C2EBC0104E
:102DC00001EBC00003490860704700004C0600207A
:102DD00044060020480000200B4810B5016841F46B
:102DE00000710160016841F480610160016841F493
:102DF00080710160032000F08DF8002000F006F8DB
:102E000000F03EF8002010BD003C024010B5014625
:102E100088B000221C2000F05DF81C2000F04CF867
:102E200014480024016841F001010160006805A90F
:102E300000F001000690684600F018F900F036F93D
:102E40000D494000B0FBF1F10C484FF08042491EA3
:102E5000026040F2E732C0E90324C0E9011400F047
:102E6000A1FB10B1012008B010BD044800F0EAFB3E
:102E7000F9E700004038024040420F00C411002032
:102E80000C4882B0016841F480410160006800F4A0
:102E9000804000900748001F016841F080510160A8
:102EA0000068002200F0805000900F21901E02B0B8
:102EB00000F010B844380240002809DB00F01F027F
:102EC000012191404009800000F1E020C0F800118C
:102ED00070470000F0B40E4B1B680C46C3F302238E
:102EE000C3F10705042D00D90425191D072901D2B6
:102EF000002300E0DB1E012606FA05F1491E2140F1
:102F000099409E40761E16403143F0BC02F067BCEB
:102F10000CED00E0064900F0070208684FF6FF03D9
:102F2000184040EA0220034A10430860704700003E
:102F30000CED00E00000FA052DE9F0470E46050013
:102F400065D0DFF81481D8F80000F7B200F0070070
:102F5000B04207D288F80070D8F8000000F00700EF
:102F6000B04254D128683D4C810712D5400703D5A3
:102F7000206840F4E05020602878000703D52068DE
:102F800040F4604020602068A96820F0F000084309
:102F900020602878C0072DD030496868083901289A
:102FA00012D0022813D0032811D0096889070029FC
:102FB0002DDA216821F0030101432160FFF7ECFEC7
:102FC000814641F2883A0EE009688903EFE7096813
:102FD0008901ECE7FFF7E0FEA0EB0901514502D9BA
:102FE0000320BDE8F0872068696800F00C00B0EBB2
:102FF000810FEFD1D8F80010404601F00701B1422F
:1030000007D90770006800F00700B04201D0012026
:10301000E7E72878400705D52068E96820F4E05004
:10302000084320602878000706D52068296920F425
:10303000604040EAC100206000F058F82168084A6A
:10304000C1F30311515CC840064908600648006896
:10305000FFF7DCFE0020C4E7003C024008380240D5
:10306000FCDB000840060020480600200F2202601A
:103070000C4A136803F003034360136803F0F00382
:103080008360136803F4E053C36012684FF4E053A5
:1030900003EAD20202610448006800F007000860F9
:1030A0007047000008380240003C024004480549CF
:1030B00000680968044AC1F38221515CC840704726
:1030C00040060020083802400CDC0008044805498E
:1030D00000680968044AC1F34231515CC840704736
:1030E00040060020083802400CDC0008154810B5E6
:1030F000006810F00C02144813D01449042A0FD0B1
:10310000082A0ED10F4C241F2268236802F03F02C8
:103110005B0207D52068C0F38810A0FB010106E020
:10312000084610BD2168C1F38811A1FB00010023EE
:10313000FDF7A6F82168C1F30141491C4900B0FB25
:10314000F1F010BD083802400024F40040787D0101
:103150002DE9F84F04006ED02078DFF84C93C007BB
:10316000A9F104054AD009F104000168C1F3810105
:10317000012908D00068C0F3810002280AD1D9F8DB
:103180000000400206D52868800337D56068002813
:10319000E1D033E06068B0F5803F10D0B0F5A02FEB
:1031A000286810D020F480302860286820F480201F
:1031B00028606068A8B1FFF7EFFD06460DE02868BB
:1031C00040F48030F4E740F480202860F7E700BF47
:1031D000FFF7E2FD801B642873D828688003F7D5C9
:1031E0000CE0FFF7D9FD064605E000BFFFF7D4FD70
:1031F000801B6428F0D828688003F7D42078DFF893
:10320000AC8280074FF0000A3ED5A748001D016838
:1032100011F00C0F08D00068C0F3810002280BD118
:10322000D9F80000400207D42868800716D5E06866
:10323000012800D112E033E1E068B8B10120C8F8FC
:103240000000FFF7A9FD064605E000BFFFF7A4FD5B
:10325000801B0228C0D828688007F7D52868216914
:1032600020F0F80040EAC10028600DE0C8F800A096
:10327000FFF792FD064604E0FFF78EFD801B022853
:103280001FD828688007F7D42078000722D5864FFA
:1032900087486169703771B101210160FFF77CFDDA
:1032A000064604E0FFF778FD801B022809D838683D
:1032B0008007F7D50EE0C0F800A0FFF76DFD0646C9
:1032C00005E082E0FFF768FD801B02287DD83868A2
:1032D0008007F7D42078400768D5DFF8CCB1002705
:1032E0000BF13C0BDBF80000C0000BD4DBF8001046
:1032F00041F08051CBF80010DBF80000012700F00E
:10330000805000906B4E3068C00510D4306840F497
:1033100080703060FFF740FD009005E0FFF73CFD56
:103320000099401A022850D83068C005F6D55E4E84
:10333000A0686C3601280FD00528306810D020F026
:1033400001003060306820F004003060A068B8B13F
:10335000FFF722FD00900FE0306840F00100F4E735
:1033600040F004003060F7E7FFF716FD0099411ABE
:1033700041F28830814266D830688007F4D50EE08B
:10338000FFF70AFD009007E0FFF706FD0099411ADC
:1033900041F28830814256D830688007F4D42FB18A
:1033A000DBF8001021F08051CBF80010A069C8B301
:1033B0003D49091D0968C1F3810102294AD002284B
:1033C000504607D0C8F8600000E03CE0FFF7E4FC9E
:1033D00004463BE04746C8F86000FFF7DDFC0646C0
:1033E00005E000BFFFF7D8FC801B02282BD8286817
:1033F0008001F7D4D4E907010843A16A2E4A49089D
:1034000002EB0141626A41EA8211084394F82C10F0
:1034100040EA0161C9F8001001203866FFF7BCFCE2
:10342000044606E03EE000BFFFF7B6FC001B0228A2
:1034300009D828688001F7D534E000BFFFF7ACFC5D
:10344000001B022802D90320BDE8F88F28688001FC
:10345000F4D427E00128F7D0D9F80000E26900F49D
:10346000800191421CD1226A00F03F01914217D1A4
:1034700047F6C071626A0140B1EB821F10D1A26AA7
:103480004FF0FF3300F4403103EB5202B1EB024F37
:1034900006D194F82C1000F07060B0EB016F01D0F1
:1034A0000120D1E70020CFE7043802400000474266
:1034B000800E4742007000400000FFFF70477047D9
:1034C00010B590F83C20012A22D0012280F83C203F
:1034D000CA688C6822F4407222434C6822F48062ED
:1034E00022430C6822F4006222430C6922F48052C9
:1034F00022434C6922F400522243C969002322F47A
:1035000080420A4301684A6480F83C30002010BDC4
:10351000022010BD70B590F83C20012A32D0012461
:1035200080F83C40022280F83D2003685A689D687C
:1035300022F070060A6832435A60134B02689A42BE
:1035400014D0B2F1804F11D0104B9A420ED0104BD4
:103550009A420BD00F4B9A4208D00F4B9A4205D09B
:103560000E4B9A4202D00E4B9A4204D1496825F084
:1035700080031943916080F83D40002180F83C10A1
:10358000084670BD022070BD0000014000040040EC
:1035900000080040000C00400004014000400140D1
:1035A0000018004010B5040003D094F83D0010B19D
:1035B00007E0012010BD002084F83C00204600F008
:1035C0001FF8022084F83D00211D206801F0AAFCAC
:1035D000012084F8460084F83E0084F83F0084F817
:1035E000400084F8410084F8420084F8430084F8E5
:1035F000440084F8450084F83D00002010BD000020
:1036000008B500680C49884208D10C48016841F0AF
:1036100001010160006800F001000BE008498842E8
:1036200009D10648001F016841F0020101600068ED
:1036300000F00200009008BD000001404438024044
:103640000004004090F83D10012901D0012070478E
:10365000022180F83D100168CA6842F00102CA6088
:1036600000681149884214D0B0F1804F11D00F4941
:1036700088420ED00E4988420BD00E49884208D0AD
:103680000D49884205D00D49884202D00C49884234
:1036900004D1816801F00701062903D0016841F0D7
:1036A000010101600020704700000140000400405B
:1036B00000080040000C00400004014000400140B0
:1036C0000018004070B5044690F83C000025012821
:1036D00017D0012684F83C60022084F83D00206861
:1036E000826822F0770222F47F42826008685028C4
:1036F00038D00DDC20284FD005DC90B3102811D134
:103700004AE0022070BD302846D040280AD13BE074
:1037100060282FD070280DD0B0F5805F03D0B0F5B1
:10372000005F12D0012584F83D60002084F83C0041
:10373000284670BDCB68D1E90121206801F063FC07
:103740002068816841F0770109E0CB68D1E9012167
:10375000206801F058FC2068816841F48041816054
:10376000E1E719E0CA684968206801F021FD5021AD
:10377000206806E0CA684968206801F02AFD6021D7
:10378000206801F04AFCCEE7CA684968206801F069
:103790000FFD40212068F4E7226801461046F0E75B
:1037A000704770B50446006801694FF00005C943D1
:1037B000890715D4C168C943890711D4E91E01617D
:1037C00001202077206880698007204602D0FFF71B
:1037D000E7FF04E000F0DAF8204600F06CF9257706
:1037E00020680169C943490717D4C168C94349071B
:1037F00013D46FF0040101610220207720688069F2
:1038000010F4407F204602D0FFF7CAFF04E000F02A
:10381000BDF8204600F04FF9257720680169C943BB
:10382000090716D4C168C943090712D46FF008010B
:103830000161042020772068C0698007204602D0FB
:10384000FFF7AEFF04E000F0A1F8204600F033F9E6
:10385000257720680169C943C90617D4C168C943DF
:10386000C90613D46FF01001016108202077206889
:10387000C06910F4407F204602D0FFF791FF04E0BA
:1038800000F084F8204600F016F9257720680169D9
:10389000C943C90708D1C168C943C90704D1891EF2
:1038A0000161204600F06CF920680169C9430906EE
:1038B00009D4C168C943090605D46FF080010161CC
:1038C0002046FFF7FBFD20680169C943490609D47A
:1038D000C168C943490605D46FF040010161204623
:1038E00000F055F920680169C94389060BD4C16805
:1038F000C943890607D46FF0200101612046BDE865
:103900007040FFF7DCBD70BD10B586B004461421D1
:103910006846FCF7FFFC2368174C00211748022279
:10392000A34211D1036843F010030360006800F064
:103930001000059090020090CDE901210120CDE911
:10394000031069460E4812E00E4CA34211D10368E1
:1039500043F001030360006800F001000590C020FF
:103960000090CDE90121CDE9031269460648FFF731
:103970000DF906B010BD00000000014030380240D3
:10398000001002400004004000000240704770B583
:10399000044690F83C0000260D4601280FD0012077
:1039A00084F83C006AB1042A1DD0082A2FD00C2AC2
:1039B0003FD00126002084F83C00304670BD022034
:1039C00070BD206801F032FB2068816941F0080178
:1039D00081612068816921F0040181612068816929
:1039E0002A69114311E0206801F050FB20688169C9
:1039F00041F4006181612068816921F48061816105
:103A0000206881692A6941EA02218161D2E7206840
:103A100001F072FB2068C16941F00801C1612068B2
:103A2000C16921F00401C1612068C1692A6911439B
:103A300011E0206801F094FB2068C16941F4006145
:103A4000C1612068C16921F48061C1612068C169D8
:103A50002A6941EA0221C161ACE710B5040003D034
:103A600094F83D0010B107E0012010BD002084F85B
:103A70003C00204600F01EF8022084F83D00211D85
:103A8000206801F04FFA012084F8460084F83E00D7
:103A900084F83F0084F8400084F8410084F8420034
:103AA00084F8430084F8440084F8450084F83D001D
:103AB000002010BD7047704710B50446022249B17E
:103AC00004290ED0082913D094F84100012816D0FB
:103AD000012010BD94F83E000128F9D184F83E2061
:103AE0000FE094F83F000128F2D184F83F2008E06D
:103AF00094F840000128EBD184F8402001E084F8DC
:103B000041200122206801F071FA16492068164A06
:103B1000884201D0904203D1436C43F40043436494
:103B20002068884213D0B0F1804F10D00F498842EE
:103B30000DD00F4988420AD00E49884207D09042E2
:103B400005D00D49884202D00C49884204D18168D1
:103B500001F00701062903D0016841F0010101606D
:103B6000002010BD0000014000040140000400409E
:103B700000080040000C00400040014000180040D8
:103B80000068B0F1804F01D1FFF70CB97047704762
:103B900070477047F8B5016804460868CA684B6901
:103BA00010F00F0F4FF0000559D003F0010602F49A
:103BB0009077374365D0C10705D0D10503D5216C77
:103BC00041F001012164410705D5D90703D0216CDB
:103BD00041F002012164810705D5D90703D0216C8A
:103BE00041F004012164010707D502F020013143AF
:103BF00003D0216C41F008012164216C00293AD0E6
:103C0000800604D5900602D5204601F095FB206879
:103C10004069216CC0F38010090700D460B32046CE
:103C200001F055FB20684069400621D5206814301A
:103C300050E8001F21F0400140E80012002AF5D1B1
:103C4000A06BA8B16C490165A06BFEF7BCFD002814
:103C500011D0A06B016D01B0BDE8F04008478306AC
:103C60000FD593060DD52046BDE8F84001F064BBA2
:103C70002046FFF78EFFF8BD2046FFF78AFF256438
:103C8000F8BD266B2023012E79D1C60677D5D6063E
:103C900075D50868486800904869400640D5A16B12
:103CA000086840680004000CEAD0A28D8242E7D97F
:103CB000E085C869B0F5807F2DD020680C3050E8D1
:103CC000001F21F4807140E80012002AF5D120681D
:103CD000143050E8001F21F0010140E80012002AD2
:103CE000F5D12068143050E8001F21F0400140E871
:103CF0000012002AF5D184F83E30256320680C308C
:103D000050E8001F21F0100140E80012002AF5D110
:103D1000A06BFEF70FFDA08DE18D401A81B229E066
:103D2000A08DE18D401A81B2E08D0028A8D0002935
:103D3000A6D020680C3050E8002F22F4907240E8A2
:103D40000026002EF5D12068143050E8002F22F014
:103D5000010240E80026002EF5D184F83E302563AC
:103D600020680C3050E8002F22F0100240E80023B9
:103D7000002BF5D12046FFF70BFFF8BDFFE7050646
:103D80002BD5150629D594F83D002128F5D1A0683A
:103D9000B0F5805F01D12069B0B1206A411C216279
:103DA000216800784860E08C401E0004000CE0842C
:103DB000E3D12068C16821F08001C1602068C1683A
:103DC00041F04001C160D8E7206A0088C0F30800D4
:103DD0004860206A801C2062E5E74006CDD5500689
:103DE000CBD5CA68204622F04002CA6084F83D3034
:103DF00000F05EFAC1E700002952000870B5040027
:103E000004D094F83D00002510B106E0012070BDFB
:103E100084F83C50204600F023F8242084F83D002C
:103E20002068C16821F40051C160204601F0E4FA25
:103E30002068016921F4904101612068416921F005
:103E40002A0141612068C16841F40051C1602564C4
:103E5000202084F83D0084F83E00002070BD000062
:103E60002DE9F04F87B0054614216846FCF752FA59
:103E7000B348DFF8C88210380222D5F800C0B04B32
:103E80000321DFF8C0E20024960607154FF0080B67
:103E90004FF480794FF4003AC44539D1D3F800C0CB
:103EA0004CF4002CC3F800C01B6803F400230593F6
:103EB000036843F001030360006800F0010005900F
:103EC0008DE81600CDE9031B69467046FEF75EFEDD
:103ED000DFF878829C49404602C0E0E80264E0E8EE
:103EE000034740F8044C80E810064046C8F82440D8
:103EF000FEF74CFD08B1FDF713FEC5F8388000222F
:103F000005213420C8F83850FEF7E4FF342055E08E
:103F1000DFF83C82C44556D1D3F800C04CF4801C75
:103F2000C3F800C01B6803F480130593036843F0D3
:103F300004030360036803F004030593036843F07C
:103F4000080303600068884600F0080005904FF4FD
:103F50008050009001AA022082E8110969467D483C
:103F6000FEF714FE0420009001AA022082E8110945
:103F700069467948FEF70AFEDFF8D081724908F1F8
:103F800060084046303902C0E0E80264E0E80347D8
:103F900040F8044C80E810064046C8F82440FEF77C
:103FA000F5FC08B1FDF7BCFDC5F8388000220521FD
:103FB0003520C8F83850FEF78DFF3520FEF77CFF1E
:103FC00007B0BDE8F08FDFF89481C44557D15C4B52
:103FD000A3461B1DD3F800C04CF0100CC3F800C062
:103FE0001B6803F010030593036843F001030360AB
:103FF000006800F0010005904FF4C0608DE81500E6
:104000000720CDE9031069467046FEF7BFFD4F4813
:104010005349C030B8460160C0E90164C0E90347B4
:104020004461C0E90649C0E908A45746FEF7AEFC62
:1040300008B1FDF775FD45484A4CC030A86385635B
:1040400047487830C4E900064020A060C4E903B8BE
:10405000C4F814B0C4F818B0C4E907B72046C4F8CF
:1040600024B0FEF793FC08B1FDF75AFD6C63002203
:1040700005212520A563FEF72DFF25209EE7DFF80B
:10408000E880C4459CD1D3F800C04CF4003CC3F890
:1040900000C01B6803F400330593036843F0010379
:1040A0000360036803F001030593036843F008030A
:1040B00003600068CDF800B000F008008A464FF0B9
:1040C0000708CDE90480CDE9024A9346694601928A
:1040D0007046FEF75BFD2020CDE9000BCDE9024ADA
:1040E0006946CDF810801C48FEF750FDDFF874805B
:1040F000154908F1600848314046C8F80010C0E989
:104100000164C0E90347C8F814404FF44031C8F8CF
:104110001840C8E90791C8F82440FEF737FC08B1F9
:10412000FDF7FEFCC5F83880002205212620C8F8DE
:104130003850FEF7CFFE262040E70000004C00403C
:10414000403802400000024040600240E40F00207E
:104150000050004000080240000C024000100140E6
:1041600040640240041100200044004070470000F9
:104170002DE9F843044690F83D001F4616460D46CB
:1041800020284CD1C5B1BEB194F83C00012846D0DE
:10419000012084F83C004FF00008C4F84080212042
:1041A00084F83D00FEF7F8FDA6848146E684A06809
:1041B000B0F5805F03D004E00120BDE8F8832069FA
:1041C00028B12E465FF0000584F83C800EE0002602
:1041D000FAE78021204601F095F9A0B9AEB116F8B2
:1041E000010B21684860E08C401EE084E08C4B4667
:1041F0004FF0000200970028EBD14FF0400120461D
:1042000001F080F930B10320D7E735F8020BC0F395
:104210000800E6E7202084F83D000020CDE70220DA
:10422000CBE7000070B5044690F83D00202836D159
:1042300091B38AB394F83C00012830D0012084F86F
:104240003C002162A284E28400252564212084F8B8
:104250003D00636B1348D863636B13481864636B4A
:104260001248D864606B134605652668606B321D82
:10427000FEF7F6FB21686FF04000086084F83C50C0
:104280002068143050E8001F41F0800140E800121F
:10429000002AF5D1002070BDFFE70120FBE70220D6
:1042A000F9E7000083520008C5520008395200089F
:1042B00070477047FEE7000070B50D4C0025C4F84C
:1042C000B4520C48016821F040410160016841F09E
:1042D00080410160C4F8BC52022004F52D7402F044
:1042E000CDFE01202060022002F0C8FE256070BDD6
:1042F000008040420004024070B50D4C0025C4F817
:10430000B4520C48016821F040410160016841F05D
:10431000804101600126C4F8BC62022004F52D74BE
:1043200002F0ACFE2660022002F0A8FE256070BDFF
:1043300000804042000402402DE9F04781461648C3
:104340000024016821F04041016001680160134EC2
:10435000254627464FF00108C6F8B472022002F045
:104360008DFEC6F8B4826006040ED6F83C0208B191
:10437000641CE4B2012002F081FE6D1CEDB2082D38
:10438000EAD3B9F1000F04D0FFF796FF2046BDE84D
:10439000F087FFF7B1FFF9E70004024000804042D8
:1043A0002DE9F04106461448016821F040410160C2
:1043B000016841F080410160104C0027C4F8B472DC
:1043C0003D464FF00108F009C4F8BC027006060E25
:1043D000022002F053FEC4F8B482022002F04EFE26
:1043E000C4F8B472022002F049FE6D1CEDB2082D33
:1043F000E9D3BDE8F08100000004024000804042A3
:1044000070B50D48016821F040410160016841F03C
:1044100080410160094C0120C4F8BC02C4F8B40218
:10442000042004F52D7402F029FE0025A560042067
:1044300002F024FE256070BD00040240008040426E
:104440000E4810B5016821F040410160016841F05B
:10445000804101600A4C0020C4F8B402C4F8BC02D8
:10446000042004F52D7402F009FE01202060A060F4
:10447000BDE81040042002F001BE0000000402402C
:104480000080404270B512480024016821F040418C
:104490000160016801600F4D0126C5F8BC6230461D
:1044A00002F0ECFDC5F8B462012002F0E7FD07E080
:1044B000641CE4B2FA2C03D9FFF7C2FF012070BDDF
:1044C000D5F83C020028F3D1C5F8B40270BD000055
:1044D000000402400080404270B50546FFF790FF9F
:1044E0000F4C20784006000EFFF75AFFFFF7CAFF77
:1044F0002846FFF755FFFFF7C5FFFFF781FF20783C
:10450000012101EB4000C0B2FFF74AFFFFF7BAFFFD
:104510000020FFF711FF0446FFF792FF204670BD11
:10452000B80000202DE9F04116460D460746FFF77A
:1045300067FF134C20784006000EFFF731FFFFF7AE
:10454000A1FF3846FFF72CFFFFF79CFFFFF758FF4E
:104550002078012101EB4000C0B2FFF721FFFFF7F7
:1045600091FF002406E00120FFF7E6FE641C05F839
:10457000010BE4B2B442F6D3BDE8F041FFF760BFEF
:10458000B80000207FB500241548009401940294DF
:104590001249039401604FF48031C0E901140461B1
:1045A000047680F820400F49C0E90A140125C5614E
:1045B000C46080F830404561FDF70CFC08B1FDF7A0
:1045C000AFFA0A20CDE90005694602940448FDF7D8
:1045D0005BFB002801D0FDF7A3FA7FBD002001405E
:1045E000980D00200100000F104810B50E49016021
:1045F0000321416000214FF400228160C0E90312D1
:104600004FF4401242610176417681760122C276F2
:1046100001774277FDF7A7FE002803D0BDE81040E0
:10462000FDF77EBA10BD000000640040E00D0020E0
:10463000104810B50E4901600321416000214FF47C
:1046400000228160C0E903124FF4401242610176FA
:10465000417681760122C27601774277FDF783FEAB
:10466000002803D0BDE81040FDF75ABA10BD000085
:1046700000680040080E00201CB500240C4900947E
:104680000A48019408600846FDF7E2FF08B1FDF70B
:1046900047FA0220CDE90040002269460448FDF7B0
:1046A000B4FF002801D0FDF73BFA1CBD00740040A8
:1046B000300E00201D4808B5016841F4001101606A
:1046C000016801F400110091016841F4800101606A
:1046D0000068002200F48000009005210B20FEF706
:1046E000F9FB0B20FEF7E8FB002205210D20FEF769
:1046F000F1FB0D20FEF7E0FB002205211020FEF764
:10470000E9FB1020FEF7D8FB002205213A20FEF736
:10471000E1FB3A20FEF7D0FB002205214620FEF700
:10472000D9FBBDE808404620FEF7C6BB3038024042
:1047300010B5A4B01C221C496846FBF7D2FD00212D
:10474000684603F033FE194C17491C2260601C3187
:1047500007A8FBF7C6FD002107A803F027FE1249B2
:10476000A0601C2238310EA8FBF7BBFD00210EA86B
:1047700003F01CFE0C49E0601C22543115A8FBF725
:10478000B0FD002115A803F011FE074920611C228D
:1047900070311CA8FBF7A5FD00211CA803F006FE44
:1047A000206024B010BD000070DB00082806002047
:1047B0002DE9F04F87B014216846FBF7ABFD434865
:1047C0000024016841F004010160016801F0040166
:1047D0000591016841F080010160016801F08001EC
:1047E0000591016841F001010160016801F00101DA
:1047F0000591016841F010010160016801F01001AC
:104800000591016841F002010160016801F00201B7
:104810000591016841F0080101600068DFF8B0907F
:1048200000F008004FF4D84505900122294648467B
:10483000FEF7ACFA002208214846FEF7A7FADFF897
:1048400094A0002224215046FEF7A0FADFF888B099
:104850004FF42047012239465846FEF797FA4FF4A5
:104860000078012241461D48FEF790FA0095012587
:10487000CDE90154694648460394FEF787F90820BC
:104880000326CDE90005CDE9024669464846FEF714
:104890007DF92420CDE90005CDE902466946504660
:1048A000FEF774F900970396CDE90154694658461E
:1048B000FEF76CF9CDF80080CDE901546946074850
:1048C0000394FEF763F907B0BDE8F08F303802407B
:1048D000000802400000024000040240000C0240B8
:1048E00010B596B000240F94109411941294139460
:1048F0001C2108A81494FBF70DFD20216846FBF746
:1049000009FD29482749016040F61F51C0E90114FB
:1049100040F2E731C0E9031444618461FEF742FECE
:1049200008B1FDF7FDF84FF480500F900FA91E4815
:10493000FEF7C8FE08B1FDF7F3F81B48FFF78DF846
:1049400008B1FDF7EDF8139413A917481494FEF776
:10495000E1FD08B1FDF7E4F86020CDE908040A9410
:104960000B940C940D94042208A90F480E94FFF7A1
:104970000EF808B1FDF7D4F800944FF40050CDE9DB
:104980000440029401940394694607480794FEF793
:1049900097FD08B1FDF7C4F80348FEF7B5FF16B060
:1049A00010BD000000000140440E002010B58EB084
:1049B00000240794089409940A940B941C216846D7
:1049C0000C94FBF7A7FC2248204901605321C0E961
:1049D000011440F6C311C0E903148461FEF7E2FD3F
:1049E00008B1FDF79DF84FF48050079007A91848CB
:1049F000FEF768FE08B1FDF793F81548FFF72DF8AC
:104A000008B1FDF78DF80B940BA911480C94FEF733
:104A100081FD08B1FDF784F86020CDE9000402941F
:104A2000002269460A480494FEF7B1FF08B1FDF779
:104A300077F8042269460648FEF7A9FF08B1FDF79A
:104A40006FF80348FEF760FF0EB010BD0004004091
:104A50008C0E00200C4810B50A4901604FF4E1317A
:104A60004160002181600C22C160C0E904128161B3
:104A7000C161FFF7C3F9002803D0BDE81040FDF77E
:104A80004FB810BD004C0040D40E00200C4810B5AB
:104A90000A4901604FF4E1314160002181600C223C
:104AA000C160C0E904128161C161FFF7A7F9002864
:104AB00003D0BDE81040FDF733B810BD00500040F2
:104AC000180F00200C4810B50A4901604FF4E1317D
:104AD0004160002181600C22C160C0E90412816143
:104AE000C161FFF78BF9002803D0BDE81040FDF746
:104AF00017B810BD001001405C0F00200C4810B525
:104B00000A4901600B494160002181600C22C160AB
:104B1000C0E904128161C161FFF770F9002803D078
:104B2000BDE81040FCF7FCBF10BD00000044004091
:104B3000A00F0020A0860100FEE7704710B50021FD
:104B40000948FEF7B9FF04210748FEF7B5FF002129
:104B50000846FDF78DF804210448FEF7ADFF04492F
:104B60000020886310BD00008C0E0020440E002041
:104B700000000140007AC01C8007400F7047806829
:104B8000A0F20120042802D24FF40070704740F2D6
:104B9000FF10704770B58EB00646002502468DF8AE
:104BA00000500121684601F035FC01F047FB324618
:104BB0000121042001F0EEFE044601F03FFB84B920
:104BC0000C208DF8020002208DF8030001208DF8E2
:104BD00005508DF8040001463246684601F0E4FFB6
:104BE00004460EB0204670BD70B58EB00124064656
:104BF00002468DF800402146684601F00BFC01F0AA
:104C00001DFB32460221042001F0C4FE054601F0DE
:104C100015FB95B90C208DF8020000208DF80600D8
:104C200002208DF803008DF807408DF804403246CD
:104C30000121684601F0B8FF05460EB0284670BD58
:104C4000064C20698047064D687828B1606A804725
:104C5000022003F09FFBF7E7E069F8E7D0040020AB
:104C6000370500201E4C4FF4FA781A4D1A4E1B4F90
:104C700004F11C0B04F1380A04F1540906F086FB18
:104C8000F1681548884706F0A1FB2888401C80B2CF
:104C90002880404506D9002028804FF40051114853
:104CA000FEF76CF879690D48884771690A488847AA
:104CB00061690B488847216B58468847E16C50462C
:104CC0008847A16E4846884702F0FCF9012003F0AE
:104CD00061FBD3E73C0500201C010020D40000202C
:104CE00058020020000802400B4D4FF0FF342146CF
:104CF0002346094A002006F06DFE0128F7D12878E6
:104D0000C00702D00548FCF735FA28788007EED5B1
:104D10000348FCF72FFAEAE74805002000000020CE
:104D200024000020224CA0688047224E4FF000084B
:104D3000012706F10109F51C06F028FB2068017E19
:104D4000012913D0E06880472068407EB0B187F326
:104D50001388BFF34F8F18480168184A01F4E061C7
:104D600011430160BFF34F8F00BFFDE7016A884721
:104D70002069804786F800806F7012E0687801280B
:104D80000FD13078022802D2401C307009E089F837
:104D9000007089F8018085F8008085F8018085F829
:104DA000028006F013FB022003F0F4FAC4E70000CF
:104DB000F8040020340500200CED00E00400FA05A2
:104DC00020480027A0F1700460602C30206070380B
:104DD000A0F12008051FA060A06890F8400008B16D
:104DE00004F0EEF895F8A200F8B1002004F026F8DF
:104DF0000646407818B1304604F00EF9777000206E
:104E000004F05CF80646407818B1304604F004F926
:104E10007770002004F032F90646407818B1304629
:104E200004F0FAF8777085F8A27098F80D1021B1A7
:104E30000448D8F8181064388847B5F8A00003F083
:104E4000A9FAC9E7BC05002010B5502080F31188ED
:104E5000BFF34F8FBFF36F8F06F056FD18B10449B3
:104E60004FF080500860002080F3118810BD0000D2
:104E700004ED00E030B593B030216846FBF74AFA04
:104E800014210CA8FBF746FA1A480025016841F0E6
:104E900080510160006800F0805011901648016850
:104EA00041F4804101600068022400F480401190C8
:104EB00001200090000401908001CDE906401920F6
:104EC00008904FF4A870CDE9090404200B906846BF
:104ED000FEF73EF90CA90F2081E831004FF4A050F5
:104EE0000F90E002109005210CA8FEF725F813B0F2
:104EF00030BD0000403802400070004005480168A5
:104F000041F47001016003494FF00060803908608E
:104F10007047000088ED00E00148FEF742BC000049
:104F2000C4110020F0B50268254C264D264E274FAF
:104F3000274B4FF0804CA04209D0604507D0A842D3
:104F400005D0B04203D0B84201D0984204D122F03B
:104F5000700E4A6842EA0E02A0421BD0604519D08A
:104F6000A84217D0B04215D0B84213D0984211D001
:104F7000184DA8420ED0184DA8420BD0174DA8428C
:104F800008D0174DA84205D0164DA84202D0164DA4
:104F9000A84203D122F44075CA682A434D6922F021
:104FA00080022A4302608A68C2620A688262A04262
:104FB00001D0984201D10969016301214161F0BD2D
:104FC000000001400004004000080040000C0040C8
:104FD00000040140004001400044014000480140FD
:104FE00000180040001C00400020004010B501F0F7
:104FF0001F030121046A99408C430462016A9A40AC
:105000001143016210BD10B5846842EA032224F402
:105010007F440A432243826010BD826822F07002FE
:105020000A4342F00701816070470000F0B5026A50
:1050300022F001020262036A42688469124E24F07F
:1050400073050C682C4323F002058B682B430D4D30
:10505000A84201D0B04205D123F00807CB683B43FA
:1050600023F00403A84201D0B04205D14D6922F4D7
:10507000407215438A692A434260846149684163EA
:105080000362F0BD0000014000040140F0B5026A77
:1050900022F010020262026A436884690D6824F4F7
:1050A000E64444EA05248D6822F0200242EA051213
:1050B0000F4D104EA84201D0B04206D1CF6822F069
:1050C000800242EA071222F04002A84201D0B04218
:1050D00007D14D6923F4406343EA85038D6943EAB0
:1050E000850343608461496881630262F0BD00000A
:1050F0000000014000040140F0B5026A22F4807211
:105100000262026A4368C46922F4007224F07305E3
:105110000C68124E2C438D6842EA05220E4DA842BF
:1051200001D0B04206D1CF6822F4006242EA0722E1
:1051300022F48062A84201D0B04207D14D6923F425
:10514000405343EA05138D6943EA05134360C46184
:105150004968C1630262F0BD0000014000040140E3
:1051600030B5026A22F480520262046A4268C3695E
:105170000D6823F4E64343EA05238D6824F40054C4
:1051800044EA0534084DA84202D0084DA84204D193
:105190004D6922F4804242EA85124260C361496847
:1051A0000164046230BD00000000014000040140C1
:1051B00010B5036A046A24F001040462846924F0CF
:1051C000F00444EA021423F00A020A4384610262F2
:1051D00010BD10B5036A23F0100303628369046AEB
:1051E00023F4704343EA023224F0A00343EA01119E
:1051F0008261016210BD000010B50448FCF774FC28
:10520000BDE810400148FEF7C5BC0000D40E0020E8
:1052100010B50448FCF768FCBDE810400148FEF7F3
:10522000B9BC0000180F002010B5806B0021C185AB
:10523000C184FEF7AEFC10BD70B5846B2068406978
:1052400094F83D10C0F3C0100025212904D118B1F5
:10525000E584204600F062F82068406994F83E102A
:10526000C0F38010222904D118B1E585204600F052
:105270002EF8206C40F0100020642046FEF789FCD8
:1052800070BD10B50146806B09680968C90516D460
:105290000021C1840168143151E8002F22F08002FE
:1052A00041E80023002BF5D101680C3151E8002FB3
:1052B00042F0400241E80023002BF5D110BDFEF77B
:1052C000F7FF10BD10B5806BFEF7F3FF10BD01684E
:1052D0000C3151E8002F22F4907241E80023002B9A
:1052E000F5D10168143151E8002F22F0010241E8A4
:1052F0000023002BF5D1016B012909D101680C3184
:1053000051E8002F22F0100241E80023002BF5D1D4
:10531000202180F83E1000210163704701680C31A4
:1053200051E8002F22F0C00241E80023002BF5D104
:10533000202180F83D10704708B590F83E102229D2
:1053400001D0022008BD82684FF480539A4201D1F7
:10535000016921B1816A9A421BD04AB10AE0026810
:10536000816A5268C2F308020A80816A891C08E0D7
:10537000026972B10268526802F07F020A70816AA3
:10538000491C8162C18D491E0904090CC18503D0E5
:1053900019E002685268F1E70168CA6822F0200249
:1053A000CA600168CA6822F48072CA6001684A69EA
:1053B00022F001024A61202180F83E10016B012990
:1053C00003D0FEF7D3FE002008BD00210163016871
:1053D0000C3151E8002F22F0100241E80023002B8D
:1053E000F5D101680A68D20602D50A6849680091B9
:1053F000818DFEF7CDFBE6E770B5044600680169D4
:10540000E26821F44051114301612169A068E26919
:1054100008436169114308432168CA6849F20C6373
:105420009A430243CA6020684169A26921F440712D
:105430001143416131492068884202D03049884295
:1054400002D1FDF743FE01E0FDF730FEE2690023E3
:10545000192164253226B2F5004F626828D0A0FBDE
:105460000101930F9200FAF70BFF0146B0FBF5F034
:105470006FF01802504301EB800006EB0010B0FB08
:10548000F5F000F0F002B1FBF5F002EB0012B1FB19
:10549000F5F06FF01803584301EB800006EB0010A5
:1054A000B0FBF5F000F00F0021681044886070BD7B
:1054B000A0FB010192185B41FAF7E2FE0146B0FB46
:1054C000F5F00201B1FBF5F06FF01803584301EB62
:1054D000800006EBC000B0FBF5F000F0F80002EB36
:1054E0004002B1FBF5F0584301EB800006EBC00031
:1054F000B0FBF5F000F00700D6E700000010014017
:10550000001401402DE9F041984617460E46044626
:10551000069D27E0681C25D02DB1FDF73DFCA0EBD2
:105520000800A8421ED920680C3050E8001F21F462
:10553000D07140E80012002AF5D12068143050E8FC
:10554000001F21F0010140E80012002AF5D12020BF
:1055500084F83D0084F83E00002084F83C000320DD
:10556000BDE8F0812068006836EA000004D0002021
:10557000B842CFD00020F3E70120F9E710B5044886
:10558000FCF7B2FABDE810400148FEF703BB00008B
:105590005C0F00200B4882B001680A684A680092DC
:1055A000CA6842F01002CA6001684A6942F04002CB
:1055B0004A610168806B6423034A091D02B0FCF74D
:1055C0004DBA00005C0F00200C07002003F094BCD3
:1055D00010B50448FCF788FABDE810400148FEF712
:1055E000D9BA0000A00F00200C4808B501680A686D
:1055F0004A680092CA6842F01002CA6001684A69AB
:1056000042F040024A61122100910168044B806B14
:10561000A3F11802091DFCF7ADF808BDA00F00208A
:105620008807002010B5054C01462046E2689047E7
:1056300020462169BDE8104008470000D400002042
:105640000B4882B001680A684A680092CA6842F052
:105650001002CA6001684A6942F040024A6101686A
:10566000806B6423034A091D02B0FCF7F7B9000000
:10567000D40E0020A0070020704700000B4882B025
:1056800001680A684A680092CA6842F01002CA605B
:1056900001684A6942F040024A610168806BC82390
:1056A000034A091D02B0FCF7D9B90000180F002009
:1056B00004080020704770B5154682680446002A29
:1056C0000BD0607B267B4319B34207D810442A468F
:1056D000FAF707FE607B2844607370BD0520A07058
:1056E0006068401C606070BD10B5044640784FF49F
:1056F0007A7338B1012809D0032816D0042818D0AD
:10570000042008E0627B0D48A16802E0627B0C483F
:10571000A168FEF72DFDA07000206073A07800281E
:1057200002D06068401C606010BD627B0548A168C3
:10573000EFE7627B0448A168EBE700005C0F002004
:10574000A00F0020D40E0020180F002010B5044632
:10575000407838B1012809D0032816D0042818D081
:10576000042008E0627B0D48A16802E0627B0C48DF
:10577000A168FEF757FDA07000206073A078002894
:1057800002D06068401C606010BD627B0548A16863
:10579000EFE7627B0448A168EBE700005C0F0020A4
:1057A000A00F0020D40E0020180F0020FEE703B445
:1057B00001984100009850EAC12018BF04204A0D0A
:1057C00018BF40F0010040F2FF72B2EB515F08BF1A
:1057D00040F00200012808BF052002B07047090709
:1057E000090E002804DB00F1E02080F80014704767
:1057F00000F00F0000F1E02080F8141D7047000059
:1058000070B5C1482DED020B2DED0E8B82B0119DB0
:1058100025F000449FEDBEDB9FEDBFEB84423EDBF5
:10582000A4F140511098A1F17F6108430FD0BC480A
:10583000844202DC28D1109830B39DED100B02B0E9
:10584000BDEC0E8B02B0BDE8704000F069BC9DED70
:10585000100B53EC1D2B51EC100BFAF766FD9DED70
:10586000100B41EC180B53EC1E2B51EC100BFAF7FC
:105870005CFD53EC182BFAF7ACFE41EC100B02B0B8
:10588000BDEC0E8B02B070BD012000F08DFC02B0AB
:10589000BDEC0E8B02B0BDE8704000F055BCA148D5
:1058A0009FEDA18B844256DA9DED100BB4F1795F28
:1058B0000ADA51EC100BFFF77AFF042808BF00F05A
:1058C00053FC9DED100BDAE753EC102B51EC100B51
:1058D000FAF72BFD41EC190B95480621B0EE490A69
:1058E000F0EE690A784400F09FFB53EC192B51EC61
:1058F000100BFAF71AFD41EC1A0B8E48B0EE490A6C
:10590000F0EE690A0421784400F08EFB53EC192B69
:1059100051EC100BFAF709FD53EC182BFAF759FE6E
:1059200041EC100B51EC1A0B53EC102BFAF7F8FE6C
:10593000CDE900019DED000B53EC102B9DED100BFC
:1059400051EC100BFAF7F1FC9DED101B53EC112BF1
:10595000FAF73FFED2E09DED100B51EC100B01F079
:10596000F8FB53EC182BFAF7D8FE9FED730BCDE93B
:10597000000153EC102B9DED000B51EC100BFAF7CE
:10598000D4FC41EC190B6E480621B0EE490AF0EE4A
:10599000690A784400F048FB53EC192B51EC100BCA
:1059A000FAF7C3FC41EC1B0B6648B0EE490AF0EE77
:1059B000690A0421784400F037FB53EC192B51ECB1
:1059C000100BFAF7B2FC53EC182BFAF702FE41EC7D
:1059D0001C0B51EC190B05F094FB41EC180B5A48C9
:1059E0009FED5BABA04222DC53EC1C2B51EC1B0B5C
:1059F000FAF796FECDE900019DED000B51EC180B76
:105A000053EC102BFAF791FC53EC182BFAF7E1FD4D
:105A100053EC1A2BFAF789FC53EC1D2BFAF77AFE9C
:105A200053EC1E2BFAF779FE41EC100B5FE08DED85
:105A3000008B002000909DED000B51EC180B53ECF7
:105A4000102BFAF7C6FD9DED000B41EC1E0B53EC3D
:105A5000102B51EC100BFAF768FC53EC192BFAF7EA
:105A60005CFE53EC1E2BFAF75BFE41EC190B53EC7A
:105A70001C2B51EC1B0BFAF753FE41EC1B0B53ECA8
:105A80001A2B51EC190BFAF750FC53EC1D2BFAF7BB
:105A900044FE41EC190B53EC1A2B51EC180BFAF79E
:105AA00044FC53EC1B2BFAF740FC53EC192BFAF790
:105AB00031FE9DED000B41EC180B53EC1A2B51EC11
:105AC000100BFAF732FC9FED249B53EC192BFAF7DD
:105AD00024FE41EC100B51EC180B53EC102BFAF791
:105AE00019FE53EC192BFAF718FE41EC100B002DA0
:105AF0003FF7C5AE51EC100B81F0004141EC100BAB
:105B0000BDE60000000000000000F03F00000000C3
:105B1000075C143326A6913C182D4454FB21F93F11
:105B20000000F07F0000E03F000000000000F03FB8
:105B30003883000046830000000000000000E03FC2
:105B40008A820000988200003333EF3F000000009B
:105B50000000000000000040182D4454FB21E93FE4
:105B600070B59B482DED020B2DED068B079D25F0A2
:105B70000044A04218DC9748844202DC0AD106980F
:105B800040B19DED060BBDEC068B02B0BDE8704048
:105B900000F0C6BA002DCCBF9FED8F0B9FED900B90
:105BA000BDEC068B02B070BD8F48A04215DD8F485A
:105BB000A042D8BF4FF0FF3458DD9DED060B51ECED
:105BC000100BFFF7F4FD042808BF00F0CDFA9DED9F
:105BD000060BBDEC068B02B070BD9DED060B51ECC3
:105BE000100B01F0B6FACDE9060181489FED828BDA
:105BF000A0423CDD8248A0421FDD00249FED82AB25
:105C00009DED060B53EC1A2B51EC100BFAF7E1FC4F
:105C10009DED060B41EC190B53EC1A2B51EC100BBC
:105C2000FAF783FB53EC182BFAF774FD53EC192B9E
:105C3000FAF776FDCDE9060149E09DED060B01245A
:105C400053EC182B51EC100BFAF7C3FC9DED060B2F
:105C500041EC190B53EC182B51EC100BFAF75AFDD1
:105C600053EC192BFAF75CFDCDE906012FE06848EB
:105C7000A0421FDD02249FED689B9DED060B53ECB7
:105C8000192B51EC100BFAF750FB53EC182BFAF7C9
:105C9000A0FC9DED060B41EC180B53EC192B51ECBD
:105CA000100BFAF737FD53EC182BFAF739FDCDE955
:105CB00006010CE09DED060B032453EC102B9FED29
:105CC000580B51EC100BFAF72BFDCDE906019DEDB9
:105CD000060B53EC102B51EC100BFAF726FB41ECA2
:105CE000180B53EC182BFAF720FB41EC190B4E481C
:105CF0000621B0EE490AF0EE690A784400F094F902
:105D000053EC182B51EC100BFAF70FFB41EC180B6E
:105D10004648B0EE490AF0EE690A0521784400F0E1
:105D200083F953EC192B51EC100BFAF7FEFA41EC06
:105D3000100B51EC180B53EC102B002C0EDAFAF769
:105D400048FC9DED061B53EC112BFAF7EEFA9DED86
:105D5000061B53EC112BFAF7E0FC35E0FAF739FC9F
:105D60009DED061B53EC112BFAF7DFFA41EC100BFB
:105D70002F48784400EBC40090ED001B51EC100B51
:105D800053EC112BFAF7C6FC9DED061B53EC112BBF
:105D9000FAF7C0FC41EC100B2648784400EBC40035
:105DA00090ED001B51EC100B53EC112BFAF7B5FCE6
:105DB00041EC100B002DA2BFBDEC068B02B070BDF4
:105DC00051EC100B81F0004141EC100B01E7000099
:105DD000000010440000F07F182D4454FB21F93FCF
:105DE000182D4454FB21F9BF0000DC3F0000203E89
:105DF0000000F33F00000000000000000000F03F42
:105E00000000E63F0000000000000000000000402D
:105E10000080034000000000000000000000F83F88
:105E2000000000000000F0BFDA7F0000907F00005B
:105E30001A7F0000D27E000070B56B4E2DED040B72
:105E40002DED028B82B0DDF81CC0DDE905235C423C
:105E50002CF000411C4341EAD474049D22F0004020
:105E6000B44205D86C422C4340EAD474B4420BD9F6
:105E70009DED061B9DED040B02B0BDEC028B04B042
:105E8000BDE8704000F056B9ACF14054A4F17F6415
:105E90001C430BD0022404EAAC7444EAD2740543D8
:105EA0009FED538B9FED542B07D015E09DED040B18
:105EB00051EC100B00F07EF942E0002C11BF012CD8
:105EC0009DED040B02B0BDEC028B04BF04B070BDAD
:105ED000022C38D0032C3BD00B439FED491B9FED88
:105EE0004A0B0AD0B14218D1B04209D121F0804109
:105EF00020F08040079105900FE0002A15DA10E0AD
:105F0000434B7B44002C08BF93ED000B0DD0012CBC
:105F100010D0022C17D0032C1AD0B0421DD1002A69
:105F200003DAB0EE410AF0EE610A02B0BDEC028B7A
:105F300004B070BD93ED000B51EC100B81F00041EB
:105F400041EC100BF1E7B0EE480AF0EE680AECE71E
:105F5000B0EE420AF0EE620AE7E7401A00153C286C
:105F6000C8BF8DED000B19DCBCF1000FBEBF10F1F6
:105F70003C0F9FED290B8DED000B0FDB9DED060B0C
:105F800053EC102B9DED040B51EC100BFAF7C8FBF2
:105F900001F0DFF800F00EF9CDE90001002C08BF98
:105FA0009DED000BC1D0012C10D0022C9FED1C0BDD
:105FB00053EC102B9DED000B51EC100B0DD0FAF7AC
:105FC000A9FB53EC182BFAF7A5FBB9E7019880F071
:105FD000004001909DED000BA7E7FAF79BFB53EC07
:105FE000182BFAF79AFBABE70000F07F00000000E7
:105FF000182D4454FB210940182D4454FB2109C09D
:10600000182D4454FB21F9BF182D4454FB21F93FAE
:10601000027E000000000000000000000000000000
:10602000075C143326A6A13C70B504462DED028B07
:106030004D1E00EBC500B0EE408AF0EE608A90ED98
:10604000000B35F0060017D053EC182B51EC100B59
:10605000FAF76BF941EC100B6D1E04EBC50090EDE7
:10606000001B51EC100B53EC112BFAF7B2FA41EC78
:10607000100B35F00600E7D1022D36D0042D1CD0D0
:10608000062D1CBFBDEC028B70BD53EC182B51ECE0
:10609000100BFAF74AF994ED0A1B53EC112BFAF79F
:1060A00098FA53EC182BFAF740F994ED081B53ECCF
:1060B000112BFAF78EFA41EC100B53EC182B51EC24
:1060C000100BFAF732F994ED061B53EC112BFAF78B
:1060D00080FA53EC182BFAF728F994ED040B53ECE3
:1060E000102BFAF776FA41EC100B53EC182B51EC0D
:1060F000100BFAF71AF994ED021B53EC112BFAF777
:1061000068FA53EC182BFAF710F994ED001B53ECD6
:10611000112BFAF75EFABDEC028B41EC100B70BD4F
:1061200010B553EC102B51EC100BFAF752FA41EC6E
:10613000100B10BD10B553EC112B51EC100BFAF7EE
:1061400048FA41EC100B10BD9FED050B10B553EC58
:10615000102B51EC100BFAF7E3FA41EC100B10BDC9
:1061600000000000000000009FED050B10B553EC8F
:10617000102B51EC100BFAF7D8F841EC100B10BDB6
:10618000000000000000001002E008C8121F08C153
:10619000002AFAD170477047002001E001C1121FA8
:1061A000002AFBD1704700000149086070470000D9
:1061B000C006002010B541EC100BFFF7D1FC51ECEC
:1061C000100B10BD10B504004FF0FF3030D0A16CA3
:1061D00000292DD0E16C00292AD0216D002927D07B
:1061E000242020704FF40050A4F85A000320A4F893
:1061F0005800607A20B10020E072206910B103E0FD
:106200000120F9E70B482061204600F0FFFB002841
:106210000ED10948E061303020620820207510203E
:1062200060750720A0752046BDE8104000F072B8E8
:1062300010BD00002ABB00082ADB00087047F0B53B
:10624000044600231846557D11E0D66903EB430749
:10625000F65D8E4209D1D06903EB43010844018801
:1062600021808078A0700120F0BD5B1CDBB29D42D4
:10627000EBD8F0BD2DE9F7434FF0000514465FEA77
:1062800001094FF010064FF030082F4626D02CB3EE
:10629000207D9DF80010884239D9134601226946B5
:1062A0002F2000F033FC00281AD1E089102827D2D3
:1062B000C10701D0401EE081E28909EB0701B2422B
:1062C00023460FD8404600F05BF8A17BCA19D7B22D
:1062D00001EB080202F0FF08294408E04FF0FF300C
:1062E000BDE8FE833246404600F04AF8A919CDB217
:1062F000C5F11001CEB20028F2D1002EDCD1EFE7BB
:10630000234610224946302000F03AF8E8E76FF0C3
:106310000900E5E71FB50446002094F858108907E6
:1063200005D5204602F02AF818B14FF0FF3004B02E
:1063300010BD28208DF8000022460121684600F09B
:1063400086F90028F3D1BDF80410A4F85410EEE744
:1063500070B505460C46084602F010F868B965B1FC
:10636000226D44F620606168904723462946BDE8C7
:1063700070400122212000F003B84FF0FF3070BDC3
:106380002DE9F05F824617468B461C4600251846CD
:1063900001F0F4FF060037D1BBF1000F34D0E07AF2
:1063A000384480B2804601F09FFF8146607A08B988
:1063B0004AF0800A94F85700D4F848C0012863686E
:1063C0004246494650460DD0E047A072226D142047
:1063D00061689047A07AA0B16FF00106484600F0CE
:1063E000C5FE13E0E047A0724FF4E170226D6168D2
:1063F000EFE7E17A09EB0500095C0BF805106D1C6D
:10640000ADB2BD42F5D3E9E74FF0FF363046BDE807
:10641000F09F00002DE9F047044686B0884692467A
:10642000104601F0ABFF002875D1002C73D09AF80C
:10643000577000266FF00709F6E000BF06EB8600F4
:1064400000EBC60514F82500042801D2022807D164
:10645000012F05D15146002000F026FB002870D105
:1064600014F825001D286DD2DFE800F00F161D245A
:106470002B32404040474E565D646D747B8289905C
:1064800097A59EACD2646464390004EB8500514644
:10649000801C00F0A3FEC1E004EB85005146801C87
:1064A00001F06DF8BAE004EB85005146801C00F065
:1064B00035FFB3E004EB85005146801C01F026FB5C
:1064C000ACE004EB85005146801C00F0E2FEA5E044
:1064D00004EB85005146801C01F0CDF99EE004EBF1
:1064E00085005146801C01F0B5FB97E004EB850068
:1064F0005146801C01F069FB90E004EB8500514699
:10650000801C01F0A4F889E004EB85005146801C52
:1065100001F02CFC82E095E004EB85005146801CE4
:1065200001F050FC7AE004EB85005146801C00F03D
:10653000FAFF73E004EB85005146801C01F06EFC0D
:106540006CE081E06CE004EB85005146801C01F0BA
:106550006CFA63E004EB85005146801C01F0F0F812
:106560005CE004EB85005146801C01F03BF955E0EE
:1065700004EB85005146801C00F051FF4EE004EB17
:1065800085005146801C00F01EFF47E004EB8500AB
:106590005146801C01F080FC40E004EB8500514630
:1065A000801C01F0F9FC39E004EB85005146801CA9
:1065B00001F0ADFC32E004EB85005146801C01F097
:1065C00032FD2BE0002004EB850500900190029045
:1065D000039004905246172104A8AD1CFFF72FFE2C
:1065E000F0B19DF8110052466946FFF743FEF0B93D
:1065F0009DF812101DF8011001F001022A70C1F37C
:1066000041026A70C1F38012EA70C909297109E078
:1066100004EB85005146801C00F044FF38B901E0CE
:10662000484604E0761CF6B24645FFF407AF012F5A
:106630000AD1002808D106B05146BDE8F047012034
:1066400000F032BA4FF0FF3006B0BDE8F0872DE918
:10665000F74F86B082468B46089801F08FFE040003
:1066600078D1BAF1000F75D0089800276FF00706AF
:1066700090F8579050E10AEB07152878042807D3C3
:10668000B9F1010F04D10020089900F00DFA044679
:10669000002C52D128780F2870D00FDC072871D039
:1066A00005DCE0B101282ED0022869D146E0082897
:1066B0006DD0092877D00E28F7D179E0262873D03D
:1066C00006DC132871D01628FCD02028EDD10FE16C
:1066D00027286BD028286AD02D28E6D10DE105F1B6
:1066E00004080021089D009101910C202B460622F0
:1066F0006946FFF745FE20B96946404600F05EFD59
:1067000017E004460EE105F104080021089D009100
:10671000019112202B4606226946FFF731FE002820
:10672000EFD16946404600F049FD2946404600F059
:1067300029FC2946404601F0BEF9D0E005F10408E5
:106740000025089B00950195D87D2C4618B16FF067
:106750000D00D6E7E4E0082269460420FFF710FEAA
:106760000028CED169460B5D08F80530641C6D1C0D
:10677000EDB2E4B2082DF6D30446B0E03DE001E00E
:1067800089E004E0281D089901F0B9FA56E00020DC
:1067900005F10408089D00900190029003902A469C
:1067A0000821049089E045E04BE07BE04EE09AE070
:1067B0000020DDF82080009001900290039004906A
:1067C00042460E2104A82D1D00F0A8FC002862D02E
:1067D0009DF8110042466946FFF74CFD002890D114
:1067E0009DF812001DF8002002F003022A701DF827
:1067F0000000C0F38000687071E00020DDF82080A8
:106800000090019002900390049042460F2104A84A
:106810002D1D00F083FCF0B39DF81100424669463F
:10682000FFF728FD002894D19DF812001DF8000004
:10683000287054E0281D089900F04EFF040071D123
:106840004DE0281D089901F05BF8F7E70020DDF81E
:1068500020800090019002900390049042462721EE
:1068600004A82D1D00F05AFCA8B19DF81100424665
:106870006946FFF7FFFC0028B1D19DF81200401CCB
:10688000C0B21DF80020C2F340122A701DF800208B
:10689000C2F3801200E035E06A701DF80000C00904
:1068A000A8701CE0002005F10408089D00900190EC
:1068B000029003902A461321049004A800F02EFCB5
:1068C00000B39DF811002A466946FFF7D3FC002863
:1068D00085D19DF812001DF8001088F80010B9F15C
:1068E000010F11D016E0281D089900F077FEA5E7EA
:1068F000281D089900F099FCA0E7281D089901F0CF
:106900003AF89BE734460DE024B90120089900F0DD
:10691000CBF804467F1CFFB25F45FFF4ACAE01E04C
:106920004FF0FF3409B02046BDE8F08F70B5044643
:106930000D46084601F022FD40B93CB12B462146E8
:10694000BDE8704001220320FFF71ABD4FF0FF3071
:1069500070BD0000002188B101220A4B42726922F9
:106960005A70094A8264094AC2645A1C4260084A41
:1069700002650822C2810022026101E04FF0FF316E
:1069800008467047B80000207DB20008A1B2000898
:1069900079B20008F8B504460007060E00200D463F
:1069A00017468DF800001346012269465820FFF76C
:1069B000E7FC002821D1042D24D2200744EA1060EE
:1069C00035B1012D0AD0022D0CD0032D0FD115E0C9
:1069D0009DF8001081438DF8001008E09DF800003C
:1069E000204302E09DF8000030438DF800003B4654
:1069F00001226946582000F089F8F8BD9DF8001082
:106A00000843F2E76FF00B00F8BD00003EB5044606
:106A1000164900208DF80000D1E90001CDE90101FF
:106A2000204601F0ABFC00281BD1204600F0AFF956
:106A3000002816D1234601226946FFF7A1FC002851
:106A40000FD122789DF800108A420BD110212173BA
:106A50000121E1750199C4F83510BDF80810A4F8BA
:106A600039103EBD21706FF002003EBD24BB00080E
:106A70007CB504460020CDE900000E4615461046C0
:106A800001F07CFC68B964B16A463146204602F0E8
:106A900031FB002804D1DDE900012A4602F0D2FBD7
:106AA0007CBD4FF0FF307CBDF8B5064600208DF868
:106AB00000000D46084601F061FC040023D12B467E
:106AC000012269467C20FFF75BFC04001BD19DF886
:106AD00000002B4666F300008DF800000122694695
:106AE0007C2000F013F804462A6D4FF4FA706968B0
:106AF000904714B16FF00C0405E09DF8000000F021
:106B0000010085F857002046F8BD00002DE9F04748
:106B10000746914688461C460025184601F02EFC83
:106B200006003CD1B8F1000F39D0607A08B907F0FF
:106B30007F0794F85700012822D0E56C4A46414669
:106B400038466368A847A072226D14206168904798
:106B50007C2F18D01EE000BF7819D4F84CC008EB89
:106B60000501C0B201226368E047A072226D4FF4B4
:106B7000E17061689047A07A0028E9D16D1CADB240
:106B80004D45E9D3E4E798F80000C00700D00120A4
:106B900084F85700A07A20B16FF0010601E04FF0B1
:106BA000FF363046BDE8F0872DE9F04104460F4638
:106BB0009046104601F0E2FB002873D1002C71D002
:106BC00098F857600025D1E0012E05D141460020FC
:106BD000FFF76AFF002874D105EB850000EBC500C4
:106BE00014F820101D296DD2DFE801F00F161D32B8
:106BF000242B404040474E555D646D747B828990E4
:106C000097A59EACB3646464390004EB80004146F0
:106C1000801C02F0F9FCA2E004EB80004146801CDD
:106C200003F0A8F89BE004EB80004146801C02F0D2
:106C3000F2FD94E004EB80004146801C02F088FDE8
:106C40008DE004EB80004146801C03F0E3FA86E00F
:106C500004EB80004146801C03F049FC7FE004EB1C
:106C600080004146801C03F059FD78E004EB800071
:106C70004146801C03F0F2FC71E004EB80004146C9
:106C8000801C03F025F96AE004EB80004146801C7B
:106C900003F033FE63E004EB80004146801C03F008
:106CA000C9FE5CE06FE004EB80004146801C02F00E
:106CB000EFFF54E004EB80004146801C03F02CFF02
:106CC0004DE062E04DE004EB80004146801C03F0A3
:106CD00004FB44E004EB80004146801C03F076F99D
:106CE0003DE004EB80004146801C03F009FA36E0E9
:106CF00004EB80004146801C02F0EDFE2FE004EB27
:106D000080004146801C02F03FFE28E004EB80003A
:106D10004146801C03F05EFF21E004EB8000414609
:106D2000801C04F097F81AE004EB80004146801CB8
:106D300003F0ABFF13E004EB80004146801C04F03D
:106D400018F90CE004EB80004146801C03F053FB73
:106D500005E004EB80004146801C02F045FF40B98D
:106D600002E06FF0070004E06D1CEDB2BD42FFF4DD
:106D70002BAF012E09D1002807D14146BDE8F041D3
:106D80000120FFF791BE4FF0FF30BDE8F0817CB5E8
:106D90000546B6208DF8000000208DF80400284636
:106DA00001F0ECFA040020D12B46012269467E2036
:106DB000FFF7ACFE04462A6D4FF4FA60696890470D
:106DC000012085F8570084B9687A38B92B4601222A
:106DD00001A90020FFF7D4FA040006D1284600F0EC
:106DE00006F8040001D1C5E9100020467CBD38B585
:106DF000044600208DF80000204601F0BFFAF0B9EB
:106E0000B4F85A00D8B1E089C10701D0401EE08132
:106E100080B2022801D20220E081204604F0C0FBAB
:106E200000280BD121466846FFF792FA9DF8001022
:106E300001F00101014301D16FF0080038BD4FF0AE
:106E4000FF3038BD08B50346012269461B20FFF715
:106E500097FA00280ED19DF80010C1F382018DF839
:106E60000010002906D0012905D0022906D00329E7
:106E700000D1C01F08BD6FF0040008BD6FF0050011
:106E800008BD0068017C29B90121017401880181D4
:106E90000021C1600188028941F6FE73891A09B296
:106EA00001F6FF729A420ED9C268002903DBA1F5F0
:106EB000F851FF3902E041F6FF7319441144C160F3
:106EC000018801817047C268F8E701684A7C521C5A
:106ED0004A744B7C8A7C934202D94A74012103E0B4
:106EE000017E012901D100210176704710B5D0E95A
:106EF0000024917C491C51740122027600214176C4
:106F0000817E022907D0032905D0042903D0052951
:106F100001D0427610BD2046FDF72CFE207420469D
:106F2000FDF72DFEE06010BD70B504680D46084603
:106F3000FAF7B5F820802846FAF7B4F860802846BA
:106F4000FAF7B4F8A0802846FAF7B4F8A071002048
:106F5000607470BD30B5002480B105788D4204D2D4
:106F60000170197A41F0010119720178914207D933
:106F70000270187A40F00200187201E04FF0FF34FE
:106F8000204630BDB1F85410828811FB02F102880E
:106F9000CB1701EBD351A2EB6121018070472DE9A2
:106FA000FC414FF0000805460C460B46CDF800802A
:106FB0008DF804804746022269464B20FFF7E0F92E
:106FC000060032D1E9799DF8000042F2107661F3B3
:106FD00047008DF8000069789DF8010061F3C71043
:106FE0008DF80100A97861F386108DF80100E97829
:106FF00061F383008DF80100297961F301008DF8B8
:107000000100214601A8FFF791FC9DF8041001F052
:10701000040101430CD0226D3046616890477F1C0B
:10702000FFB2142FEDD96FF00E063046BDE8FC819B
:107030002346022269464B20FFF768FD06464FF4BF
:107040007A77226D384661689047002EEDD16878D6
:1070500020B10120E075E8782076E6E784F8178013
:107060002346012205F108014D20FFF74FFD06469A
:10707000226D384661689047D7E7000010B5044696
:1070800001F068F94FEA000301F064F9C01AA04268
:10709000FAD310BD10B50068016841F40021016009
:1070A0000148FEF7BFFA10BD7007002010B5006858
:1070B000016821F4002101600148FEF7B3FA10BD18
:1070C0008807002070B51148FAF70CF9104C18B178
:1070D000A06840F00100A0600E48FAF703F918B16B
:1070E000A06840F00200A060207A10F003050CD0E8
:1070F00001F030F960600848002301222946006849
:1071000004F092FBA068A843A06070BD00000020BE
:107110003C0500202400002038060020F0B504467D
:1071200000231846957D11E0166A03EB4307F65DD0
:107130008E4209D1106A03EB430108440188218083
:107140008078A0700120F0BD5B1CDBB29D42EBD8C3
:10715000F0BD82B0CDE9000121F0004001909DED2D
:10716000000B02B051EC100B7047000010B5002866
:1071700021D0114B0022001F196803E0814203D87F
:107180000A4649680029F9D152B11368841A9C4211
:1071900004D1006818441060104602E0506000E01E
:1071A000186039B102680B1A934203D10B681A4474
:1071B00002604968416010BDB80600200B784A782B
:1071C00043EA022202808B78CA7843EA0222428094
:1071D0000A79497942EA01218180704738B504462D
:1071E000002000900D46084601F0C8F8D0B9CCB197
:1071F0002B46022269464020FFF7C2F8002810D132
:107200009DF80010CA09A270C1F3021161709DF8C7
:10721000001001F00F0121709DF8011001F0030131
:10722000E17038BD4FF0FF3038BD30B585B0044651
:1072300000200D4600900190029003900A460490B1
:10724000202104A8FFF76AFFF0B19DF811002A463B
:107250006946FFF70FF8010018D19DF812001DF8DC
:10726000003003F0010323701DF80030C3F3400326
:1072700063701DF80030C3F38003A3701DF8000095
:10728000C0F3C000E07001E06FF0070105B00846F0
:1072900030BDF0B585B0044600200D460090019049
:1072A000029003900A460490042104A8FEF7C7FF49
:1072B00070B39DF811002A466946FEF7DBFF010016
:1072C00029D19DF812006A461DF80030401CC0B25A
:1072D0001DF80060401C3702C6B23B43C3F30C00EC
:1072E0002080C3F34030A080C3F38030E080D80B0F
:1072F0002081905D761CF3B2D25C40EA0220C0F39C
:107300000A026280C0F3C320608185F8250002E094
:10731000FFE76FF0070105B00846F0BD38B5044639
:107320000D46084601F02AF8E8BBE4B32B460122DB
:1073300069466B20FFF724F8002840D19DF8000033
:107340002B46C0F3401121700020009002226946B4
:107350004B20FFF715F8F8B99DF800004108E171DE
:107360009DF80100C10961709DF80100C0F3801112
:10737000A1709DF80100C0F38101E1709DF801004A
:1073800000F003012171607840B92B46012204F11D
:1073900008014D20FEF7F4FF002810D101222B46F2
:1073A0006946442000E00BE0FEF7EAFF002806D122
:1073B0009DF800100A09A27101F00F01617138BD3A
:1073C0004FF0FF3038BD30B585B0054600200C4683
:1073D00000900190029003900A460490122104A8A4
:1073E000FEF72DFFC0B19DF8110022466946FEF759
:1073F00041FF00280ED19DF812101DF80130491CE4
:10740000C9B21DF8011043EA0123C3F343012980E7
:1074100084F8311005B030BD6FF00700FAE7F0B521
:1074200085B0044600200D46009001900290039024
:107430000A460490112104A8FEF701FF68B39DF8E5
:1074400011002A466946FEF715FF010027D19DF875
:1074500012006A461DF80030401CC0B21DF80060E2
:10746000401C3702C6B23B43C3F345002080C3F340
:10747000C1106080C3F3432323811DF80600761CEE
:10748000F6B2925D40EA022000F03F02A280C0F313
:107490008710E08085F8303001E06FF0070105B01B
:1074A0000846F0BDF0B585B0054600200E460090B8
:1074B0000190029003900A460490182104A8FEF758
:1074C000BEFE58B39DF8110032466946FEF7D2FE63
:1074D000020025D19DF812006B461DF80010401CDB
:1074E000C0B21DF80040401C41EA0421C1F3430131
:1074F000C0B229800024195C401CC0B21F5C401C33
:1075000041EA072105EB4407641CE4B2C0B279806C
:10751000072CF0D3287886F8340001E06FF00702DA
:1075200005B01046F0BD30B585B0054600200C46CC
:1075300000900190029003900A4604900C2104A848
:10754000FEF77DFEC0B19DF8110022466946FEF7A8
:1075500091FE00280ED19DF812101DF80130491C33
:10756000C9B21DF8011043EA0123C3F34301298086
:1075700084F82B1005B030BD6FF00700FAE738B57E
:107580000446002000900D46084600F0F7FE10BBB0
:107590000CB32B46022269464220FEF7F1FE00287A
:1075A00018D19DF80010CA09A270C1F3801262714F
:1075B000C1F3011161709DF8001001F00F012170FD
:1075C0009DF80110C1F3C001E1709DF8011001F0B8
:1075D0000701217138BD4FF0FF3038BD30B587B09D
:1075E000044600200190009002900390069091F8CC
:1075F00058000D4680060DD50B46012204A91E2019
:10760000FEF7BEFE002803D19DF8101018E021807F
:1076100007B030BD0A46282106A8FFF77FFD98B1C4
:107620009DF819002A466946FEF724FE0028EFD18E
:107630009DF81A301DF8031001F07F010DF80310BA
:107640004A06E4D58039E2E76FF00700E0E770B55D
:1076500086B0044600200D460090019002900390F1
:107660000A460490092104A8FEF7E9FD70B39DF8CD
:1076700011002A466946FEF7FDFD030029D19DF859
:10768000120069461DF80020401CC0B21DF80050D1
:10769000401C42EA0522C0B2C2F30A0222801DF851
:1076A0000020401CC0B21DF80050401C2E02C5B284
:1076B0003243C2F30A006080485D6D1CEAB2895C07
:1076C00040EA0120C0F30A00A08002E0FFE76FF06B
:1076D000070306B0184670BD30B585B004460020DB
:1076E0000D4600900190029003900A4604900921F3
:1076F00004A8FFF713FDF0B19DF811002A46694672
:10770000FEF7B8FD010018D19DF812001DF80030F9
:1077100003F0010323701DF80030C3F340036370CE
:107720001DF80030C3F38003A3701DF80000C0F300
:10773000C200E07001E06FF0070105B0084630BDFF
:1077400070B586B0044600200D460090019002906E
:1077500003900A4604900F2104A8FEF770FDD8B3E9
:107760009DF811002A466946FEF784FD010036D1D6
:107770009DF812206B461DF80200521CD2B21DF873
:107780000260521C40EA0620D2B2C0F30E002080F4
:107790001DF80200521CD2B21DF80260521C40EAD1
:1077A0000620C0F30B066680C0F30036A680C0F347
:1077B0004036D2B2E680C0F380302081985C521C03
:1077C000D2B29A5C40EA0220C0F30B026281000B45
:1077D000A08185F82E0002E0FFE76FF0070106B0F8
:1077E000084670BD70B586B0054600200E46009074
:1077F0000190029003900A460490102104A8FEF71D
:107800001EFD90B39DF8110032466946FEF732FD29
:1078100001002DD19DF812206B461DF80200521C6C
:10782000D2B21DF80240521C40EA0420D2B2C0F38A
:107830000E0028801DF80200521CD2B21DF8024032
:10784000521C40EA0420D2B2C0F30B0068809C5C5A
:10785000521CD0B2185C44EA0024C4F30B00A88088
:10786000200BE88086F82F0002E0FFE76FF00701A9
:1078700006B0084670BDF0B585B0044600200D4640
:1078800000900190029003900A460490052104A8FC
:10789000FEF7D5FC70B39DF811002A466946FEF745
:1078A000E9FC010029D19DF812006A461DF800305C
:1078B000401CC0B21DF80060401C3702C6B23B43FA
:1078C000C3F30C002080C3F34030A080C3F38030AA
:1078D000E080D80B2081905D761CF3B2D25C40EA48
:1078E0000220C0F30A026280C0F3C320608185F8E1
:1078F000260002E0FFE76FF0070105B00846F0BD83
:1079000030B585B0044600200D46009001900290ED
:1079100003900A460490262104A8FFF7FFFB28B332
:107920009DF811002A466946FEF7A4FC02001FD10B
:107930009DF81200401CC0B21DF8003003F0010396
:1079400023701DF80030C3F3400363701DF800304E
:10795000C3F38003A3701DF80030C3F3C003E370CA
:107960001DF80000C0F30010207101E06FF0070265
:1079700005B0104630BD30B585B0044600200D4638
:1079800000900190029003900A4604902D2104A8D3
:10799000FFF7C4FBE8B39DF811002A466946FEF7DD
:1079A00069FC00283CD19DF8122069461DF8023080
:1079B000521CD2B21DF80250521CD2B243EA052327
:1079C00023801DF80230521CD2B21DF80250521C06
:1079D000D2B243EA052363808B5C521CD2B28D5C29
:1079E000521CD2B243EA0523A3808B5C521CD2B254
:1079F0008D5C521CD2B243EA0523E3808B5C521C9F
:107A0000D2B28D5C521CD2B243EA052323818B5C37
:107A100000E007E0521CD2B2895C43EA0121618197
:107A200005B030BD6FF00700FAE7F0B585B0044649
:107A300000200D4600900190029003900A460490A9
:107A40000E2104A8FEF7FBFB78B39DF811002A462F
:107A50006946FEF70FFC01002AD19DF812006A4624
:107A60001DF80030401CC0B21DF80060401C3702F9
:107A7000C6B23B43C3F340002080C3F38100608063
:107A8000C3F30110A080C3F38510E080905D761CE5
:107A9000F3B2D25C40EA0220C0F30A022281C0F3B2
:107AA000C320608185F82D0002E0FFE76FF0070139
:107AB00005B00846F0BD1CB5002200920192028874
:107AC000ADF800204288ADF802208288ADF804208D
:107AD00091F8353091F838406A463DF8133004B1DA
:107AE0005B42038091F83930002B91F8363032F840
:107AF000133000D05B42438091F83A3091F8371050
:107B000032F8111003B1494281801CBD70B586B0B6
:107B1000044600200D4600900190029003900A4612
:107B20000490032104A8FEF78AFBE8B39DF8110036
:107B30002A466946FEF79EFB010043D19DF81220BC
:107B40006B461DF80200521CD2B21DF80260521C96
:107B5000D2B240EA062020801DF80200521CD2B2A8
:107B60001DF80260521CD2B240EA06206080985C88
:107B7000521CD2B29E5C521CD2B240EA0620A080B7
:107B8000985C521CD2B29E5C521CD2B240EA0620D3
:107B9000E080985C521CD2B29E5C521CD2B240EA89
:107BA00006202081985C00E00AE0521CD2B29A5C68
:107BB00040EA0220C0F34300608185F8240001E020
:107BC0006FF0070106B0084670BD70B586B0044678
:107BD00000200D4600900190029003900A46049008
:107BE000072104A8FEF72BFB70B39DF811002A466D
:107BF0006946FEF73FFB010029D19DF812301DF8C0
:107C000003005B1CDBB21DF803605B1C40EA06202E
:107C1000C0F30906DBB22680C0F3802060801DF827
:107C200003005B1CDBB21DF8032040EA022000F0D9
:107C30000F02C0F30313A280E380000A207205F84C
:107C4000272FA079687002E0FFE76FF0070106B008
:107C5000084670BD2DE9F34F4FF0000A87B0D146BA
:107C6000CDF80CA0CDF800A0CDF804A0CDF808A068
:107C700010265746CDF810A01C2104A8089AFEF73C
:107C8000DEFAA8B39DF811509DF812B0E81C00F080
:107C9000FF080BF10200C0B22C46059025E06946B2
:107CA0002046089AFEF7E6FA5FEA000A1BD1AC42CA
:107CB00000D98346444500D1059E5846694610E0E8
:107CC0000A5C401CC0B2B04204D20B5C401C4FEABC
:107CD0000329C0B2079B42EA090223F817207F1C40
:107CE000FFB2B042ECD3641CE4B24445D7D902E001
:107CF000FFE76FF0070A09B05046BDE8F08F30B5D6
:107D000085B0044600200D4600900190029003903B
:107D10000A460490072104A8FFF700FA18B39DF85B
:107D200011002A466946FEF7A5FA002819D19DF8E8
:107D300012201DF80230521CD2B223601DF80250EE
:107D4000521C43EA0523D2B223601DF80250521C94
:107D500043EA0543D2B223601DF8021043EA0161F1
:107D6000216005B030BD6FF00700FAE730B585B08F
:107D7000054600200C4600900190029003900A46B0
:107D800004900A2104A8FEF75AFAC0B19DF8110028
:107D900022466946FEF76EFA00280ED19DF81210B1
:107DA0001DF80130491CC9B21DF8011043EA012336
:107DB000C3F34301298084F8291005B030BD6FF06A
:107DC0000700FAE730B585B0054600200C46009064
:107DD0000190029003900A4604900B2104A8FEF73C
:107DE0002EFAC0B19DF8110022466946FEF742FA0C
:107DF00000280ED19DF812101DF80130491CC9B29F
:107E00001DF8011043EA0123C3F34301298084F8DC
:107E10002A1005B030BD6FF00700FAE770B586B0E4
:107E20000024064600940194029403940494087874
:107E30000D46272806D0212809D06FF0070406B088
:107E4000204670BDEA6D304690470446F7E70A4683
:107E50000D2104A8FEF7F3F90028F0D09DF81100D9
:107E60002A466946FEF706FA0400E8D19DF812009A
:107E70001DF80030401CC0B21DF8000043EA00238A
:107E8000C3F342003080C3F300107080C3F343108B
:107E9000308285F82C00D2E770B586B00546002008
:107EA0000E4600900190029003900A4604906C46A2
:107EB000132104A8FEF7C3F930B39DF81100324630
:107EC0006946FEF7D7F900281CD19DF812104B081F
:107ED00014F81310C1F30011298014F813105B1C5F
:107EE00001F00F01698086F8321034F81310A98070
:107EF0005B1CD9B234F81120491CC9B2EA8034F8AD
:107F00001110298106B070BD6FF00700FAE770B557
:107F100086B0044600200E46009001900290039027
:107F20000A4604906D46162104A8FEF788F978B336
:107F30009DF8110032466946FEF79CF9002825D1CC
:107F40009DF812104B0815F813100A09217862F3F6
:107F50000001217015F813205B1C62F344012170AD
:107F6000C1F3430186F8321035F8131061805B1CB1
:107F7000D9B235F81120491CC9B2A28035F81120B8
:107F8000491CC9B2E28035F81110218106B070BDDC
:107F9000FFE76FF00700F9E770B586B005460020EF
:107FA0000E4600900190029003900A4604906C46A1
:107FB000142104A8FEF743F978B39DF81100324666
:107FC0006946FEF757F901002AD19DF812004308CF
:107FD00014F813005B1C00F00F00288086F83300B3
:107FE00034F8130068805B1CD8B234F81020401CB1
:107FF000C0B2AA8034F81020401CC0B2EA8034F825
:108000001020401CC0B22A8134F81020401CC0B29D
:108010006A8134F81000A88102E0FFE76FF00701E1
:1080200006B0084670BD70B586B0054600200E4605
:1080300000900190029003900A4604906C4615212E
:1080400004A8FEF7FCF8B0B39DF81100324669466B
:10805000FEF710F9010031D19DF81200400814F824
:108060001020401C02F00F022A8086F8332034F8DA
:108070001020401CC0B26A8034F81020401CC0B2EE
:10808000AA8014F81020AA7134F81020401C120A9B
:10809000C0B2EA7114F810202A7234F81020401C83
:1080A000120AC0B26A7214F81020AA7234F81000D2
:1080B000000AE87202E0FFE76FF0070106B0084629
:1080C00070BD0068B0F90C10D0ED050A00EE101A72
:1080D000B8EEC00A30EE600ABDEEC00A10EE101A0B
:1080E0008181B0F90E10D0ED060A00EE101AB8EE3C
:1080F000C00A30EE600ABDEEC00A10EE101AC1814F
:108100000021017770470021017670472DE9F04783
:108110000546FAF741FE00202C686876F8F720FF44
:10812000022602E06E76F8F71BFF0028FAD100263F
:1081300004F10C0904F1100804F10E074A46414607
:108140003846F8F7C1FEB4F90E00D4ED060A00EE89
:10815000100A761CB6B2B8EEC00AFA2E30EE800ACB
:1081600084ED060AB4F90C00D4ED050A00EE100AFD
:10817000B8EEC00A30EE800A84ED050ADED3D4EDF5
:10818000060A9FED090A80EE801A84ED061AD4EDE6
:10819000050A80EE801A84ED051AA87E012801D018
:1081A00001206876BDE8F08700007A43F0B5154EEF
:1081B00085B00468B71E331F9A1ECDE900760546C8
:1081C000911E881EF8F7A7FE301F811ECDE9011011
:1081D000001F0090CDE90376831E224604F10801BA
:1081E000201DF8F743FCA6F10A004188E1810188CF
:1081F00021828088A081296905B02846BDE8F04029
:10820000084700002606002010EE100AF6EE000ACD
:10821000074960EE200AA1EB600000EE100A20EE94
:10822000801AF7EE080A41EE400A20EE800A7047F5
:10823000DF59375F01228A4000EE902AB6EE001A1D
:10824000F8EEE00A60EE810A80EE201A00EE100AD5
:10825000B8EEC00A21EE000A7047000001228A40F1
:1082600000EE902AB6EE001ADFED081AF8EEE00AEA
:1082700060EE810A01EE100AB8EEC11A21EE211A51
:1082800021EE001A81EE200A704700000AE81C4126
:10829000FAF7A2FDFCF7EEFDFCF78AFAFCF70AFA02
:1082A000FCF784FBFCF72AFCFCF79EF9FCF7C0F90D
:1082B000FCF716FBFCF766F9FCF7DEF9FCF7CAFBE6
:1082C000FCF7E4FBFCF7FEFBF9F7F9FBF9F71CFA06
:1082D000FCF72EFA00F065F8FEE70146002084293D
:1082E00000D0C81C70470000F0B50B30154D20F0D1
:1082F00007010024144A0FE003688B420BD38B4222
:1083000005D95E1A43184768C3E9006700E043686F
:10831000136002C004E0021D10680028ECD1204662
:10832000002802D1286808B10020F0BD064A07489D
:108330001060074A121A22F00702C0E90024012047
:108340002860D7E7BC060020B8060020244F002094
:10835000205100204FF08040406A0649096801EB37
:108360004102C2EBC11100EBC1010348016000688A
:10837000704700004C06002048000020002128B172
:10838000826C1AB1C26C0AB1006D08B94FF0FF31AE
:108390000846704710B500B9012003F06FF80020BF
:1083A00010BD10B503F090F8002010BD7FB50D464C
:1083B00004464169B0F9080081B1A16971B1FFF7C4
:1083C0008CFFD4E905128DE80700D4E900102B4694
:1083D000226903F0FEF9039004B070BDFFF77DFF42
:1083E00003A9CDE90001208A2B4682B2D4E900100E
:1083F00003F0C2F9012801D00020EDE70398EBE774
:108400009FED080A80ED020A80ED030A80ED0B0A59
:1084100080ED070A80ED080A80ED090A80ED0A0A5E
:1084200070470000000000002DE9F041184C0F4695
:108430000546E6682068001D02F058FF38B920683C
:1084400090F82C1001208840216981432161681C2B
:1084500007D137B12168BDE8F0410E48091D02F08F
:1084600089BF20683544B5424560216805D2A06BBC
:10847000BDE8F041091D02F065BF606B091D02F007
:1084800061FFA06A854200D2A562BDE8F0810000CC
:1084900050060020081300202DE9F041054602F0A7
:1084A00075FF2E4CA068401CA06020682C4F10B1B6
:1084B000606940B32DE02560A068012829D100261D
:1084C00006EB860007EB800002F02EFF761C072EDD
:1084D000F6D323488C3002F027FF2148A03002F069
:1084E00023FF1F48B43002F01FFF1D48C83002F0C0
:1084F0001BFF1B48DC3002F017FF19488C3060630B
:108500001430A06305E02068E96AC06A884200D898
:108510002560606A401C6062E96A01202269884027
:108520001043206101EB810007EB8000291D02F060
:1085300021FF02F04BFF606900280CD02068E96A37
:10854000C06A884207D207494FF080500860BFF3E5
:108550004F8FBFF36F8FBDE8F08100005006002001
:108560002C12002004ED00E010B5044690F85100F4
:1085700058B101280CD002280FD0502080F3118868
:10858000BFF34F8FBFF36F8FFEE7206B02F032FF18
:108590002046BDE8104002F02DBF10BD10484FF43A
:1085A0007051420706D0C01D0D4920F00700411A46
:1085B000C1F570510B4A00230144C2E90003083998
:1085C000183A21F0070111604B600B600B1AC0E9EB
:1085D000001393604FF000405360506170470000FB
:1085E0001C130020A4060020144E154CA6F1C80749
:1085F0004FF08058DFF84C9012E000BF02F0C6FE4A
:10860000F068C568281D02F071FEA068401EA060D9
:108610006068401E606002F0D9FE2846FFF7A4FFA4
:1086200060680028EAD138680128F9D9C9F80080C3
:10863000BFF34F8FBFF36F8FF2E70000F4120020FB
:108640005006002004ED00E02DE9F0479A46DDE9F0
:10865000098481466FF00303206B03EB8202104410
:10866000089E20F00707780707D0502080F3118874
:10867000BFF34F8FBFF36F8FFEE7002561B100207E
:1086800023180A5C83F834200A5C12B1401C1028BD
:10869000F6D384F8435001E084F83450072E00D319
:1086A0000626E662C4E91165201D02F048FE04F1C9
:1086B000180002F044FE2461C6F107006462A06164
:1086C000E56484F8505052464946384600F0C0F8F8
:1086D0002060B8F1000F01D0C8F80040BDE8F08775
:1086E00030B5114900E011460A688242FBD34B685D
:1086F0005C18844203D140681844486008464368C7
:108700001C18944209D1084C183C2468A24209D094
:1087100052681A4442600A6812680260814200D0BE
:10872000086030BD0460F9E7A40600200648416BEC
:10873000096829B1416BC968C96849688162704795
:108740004FF0FF31FAE7000050060020084840686B
:10875000401C4FF0500080F3118804D0BFF34F8FBE
:10876000BFF36F8FFEE7BFF34F8FBFF36F8FFEE74F
:10877000AC0600202DE9F0410546002702F0DAFEA4
:10878000324E306808B9FFF709FF706905424ED1D3
:10879000C5B3083568070ED005F00700C0F1080022
:1087A0000544680707D0502080F31188BFF34F8F2E
:1087B000BFF36F8FFEE72DB37068854237D823482B
:1087C000183001460C6801E020460C466168A94259
:1087D00002D221680029F7D131688C4227D007687E
:1087E0002168016060680837411B10290FD96019A2
:1087F000420708D0502080F31188BFF34F8FBFF39A
:108800006F8FFEE713E041606560FFF769FF616805
:108810007068401A7060B268904200D2B0607069AF
:1088200001430020C4E90001F068401CF06003F03F
:1088300017F9780707D0502080F31188BFF34F8FC6
:10884000BFF36F8FFEE73846BDE8F0818C0600204D
:1088500010B5031F4FF080741C601B1F21F0010135
:108860001960191F044B0B6014390A60091F6FF05F
:10887000020244380A6010BD4D87000810B5034657
:108880000A781C780020944206D0012A01D012B147
:1088900002E0022000E001201A708968996010BD92
:1088A00010B504460A7823780020934216D0012A96
:1088B00004D0032A06D0022A0DD00FE0032B0DD1DD
:1088C00001200BE0012B02D0022B02D006E0032096
:1088D00004E0042002E0032B00D10220227089680A
:1088E000A16010BD0148006900470000F8040020A5
:1088F00010B5444C00214448E26A904742480021A8
:10890000E26A0C30904740480021E26A18309047F4
:108910003D480021E26A243090473B480021E26A4A
:108920003030904738480021E26A3C309047364862
:108930000021E26A4830904733480021E26A54300F
:10894000904731480021E26A603090472E4800216C
:10895000E26A6C3090472C480021E26A78309047F8
:1089600029480021E26A8430904727480021E26AC2
:108970009030904724480021E26A9C30904722487A
:108980000021E26AA83090471F480021E26AB43013
:1089900090471D480021E26AC03090471A480021E4
:1089A000E26ACC30904718480321226B2438904764
:1089B00015480321226B1838904713480021626B39
:1089C0000C38904710480021626B0A3890470E48D7
:1089D0000021626B083890470B480021626B801FB2
:1089E000904709480021A26BD830904706480021E3
:1089F000A26BDA3090470448A26B0021BDE810401A
:108A0000DC301047F80400208C09002001700021A0
:108A10004170816001490968416070474C0600203F
:108A200001807047018070470170002141708160B2
:108A300001490968416070474C06002010B5016883
:108A40004FF4A5630022B1F9004004F525749C425F
:108A500011D8B1F9024004F525749C420BD8B1F944
:108A6000044004F525749C4205D8B1F9064004F58C
:108A700025749C4209D9032343760A804A808A8060
:108A8000CA800B724B728A8210BD427610BD01689B
:108A9000CA8A521C12B2CA82B1F918309A4202DD57
:108AA000CB82012103E0017E012901D10021017661
:108AB0007047000070B500252DED028B04689FED16
:108AC000268ADFED268AB4F90000B0EE481A00EEDF
:108AD000100AF0EE680AB8EEC00AF9F70FF8B5EE22
:108AE000C00AF1EE10FA33D1B4F90200B0EE481A20
:108AF00000EE100AF0EE680AB8EEC00AF8F7FEFFC2
:108B0000B5EEC00AF1EE10FA22D1B4F90400B0EECD
:108B1000481A00EE100AF0EE680AB8EEC00AF8F73C
:108B2000EDFFB5EEC00AF1EE10FA11D1B4F906006E
:108B3000B0EE481A00EE100AF0EE680AB8EEC00A6D
:108B4000F8F7DCFFB5EEC00AF1EE10FA00D101250E
:108B5000BDEC028B284670BD0000484200000000BA
:108B60000268118B491CD18201210176827E02B9F3
:108B70000021417670470068002103220180418076
:108B80008180C1800272427241818181C181017400
:108B900041744182818270470A880068C2F30A02E8
:108BA000A2F5806202804A788B78D20842EA4312AA
:108BB000C2F30A02A2F5806242808A78CB789209D9
:108BC00042EA83020B7942EA8322C2F30A02A2F547
:108BD000806282800A794B79520842EAC312C2F35A
:108BE0000A02A2F58062C2804A79920902724A7929
:108BF000C2F301124272CA8842810A8982814A897B
:108C0000C2810A7B02744A7B4274CA894282098A01
:108C1000C1F30A01A1F5806181820021C182704700
:108C200070B55C4C206862690568A87C00F00101A1
:108C300059489047A87C6269C0F3400156480C30FF
:108C40009047A87C6269C0F3800153481830904770
:108C5000A87C6269C0F3C0014F4824309047A87CCB
:108C60006269C0F300114C4830309047A87C6269BB
:108C7000C0F3401148483C309047A87C6269C0F37B
:108C80008011454848309047A87C6269C0F3C01104
:108C9000414854309047688A6269C0F300213E48D9
:108CA00060309047688A6269C0F340213A486C306E
:108CB0009047688A6269C0F38021374878309047CE
:108CC000688A6269C0F3C021334884309047688A5B
:108CD0006269C0F30031304890309047688A626919
:108CE000C0F340312C489C309047688A6269C0F3D9
:108CF00080312948A8309047688A6269C10B2648AC
:108D0000B4309047287C08B1012100E000212248BE
:108D10006269C0309047687C08B1012100E0002101
:108D20001D486269CC3090471B48A269297A2438D3
:108D300090471948A269697A183890471648E2693D
:108D4000B5F900100C3890471348E269B5F90210E4
:108D50000A3890471048E269B5F90410083890477E
:108D60000D48E269B5F90610801F90470A48226A4B
:108D7000B5F90A10D83090470748226AB5F90C10A7
:108D8000DA309047B5F90E10226ABDE8704002480B
:108D9000DC301047F80400208C09002070B50478FE
:108DA00000220C4B8C4209D000248460012901D0A0
:108DB00011B109E0022207E0012205E0D0E90154E7
:108DC0001E68751B2C4484601B68436001704270F0
:108DD000104670BD4C06002001807047018070472E
:108DE00070B503780022144C8B4219D000258560A1
:108DF000012B04D0032B06D0022B0DD016E0032943
:108E000014D1012212E0012902D0022902D00DE082
:108E100003220BE0042209E0032907D1022205E026
:108E2000D0E901532668751B2B4483602368436097
:108E300001704270104670BD4C06002070B50023D2
:108E4000B0B381780522B1FBF2F21A49896881F842
:108E5000402000220CE000BF02EB820401EBC205BF
:108E60000444521CD4F803602E60E4792C71D2B211
:108E700091F840409442EFD80F4AA520107081200D
:108E8000507000200FE000BF01EBC00400EB800633
:108E900051F8305016445B1D2479C6F80350401C2D
:108EA000F471DBB2C0B291F840408442ECD89370C8
:108EB000014870BD4C0500206C0A002070B50021EF
:108EC000A8B10C4BA5221A7082225A70D0F8032048
:108ED000C479002008E000BF12F8015B5E18491C4D
:108EE000401CF570C9B2C0B2A042F5D399700148D8
:108EF00070BD0000980A0020F8B5304E044696F880
:108F0000A200002859D1A6F12805218868680180AF
:108F1000A27882700178A52949D1E11CC01CF7F71D
:108F2000E0F968680178427811448278114480F849
:108F30002B10002109E000BF431890F82B70DB785C
:108F4000491C3B4480F82B30C9B28A42F4D883785C
:108F5000E11C90F82B20595C8A4228D141780129E4
:108F600006D0022907D0032908D0042916D108E029
:108F7000FFF764FF12E0FFF7A1FF0FE000F07EF8BB
:108F80000CE058B1B0F8030042F20E72811EADF849
:108F90000000914200D90520A6F8A0006868241DB1
:108FA0008078015DA52902D12044FFF7A5FF0020AC
:108FB000A6F8A400012086F8A200F8BD74050020E0
:108FC000F0B4144AA520002113681870802058704E
:108FD0000846956815E000BF05EBC00255F8304023
:108FE0001679002209E000BF14F801CB5F18491C74
:108FF000521C87F803C0C9B2D2B2B242F4D3401CAB
:10900000C0B295F840208242E6D89970F0BC0020AA
:1090100000F002B84C05002070B5174D20B1014694
:109020002C222868F7F75DF92968134C8878C01C52
:109030000C34C2B2236920469847296808784A78D8
:1090400010448A78104481F82B00002009E000BF0A
:109050000B1891F82B50DB78401C2B4481F82B30F7
:10906000C0B28242F4D823690348BDE870400122AF
:109070000C302B31184700004C0500202DE9FC4135
:109080000027CDE900773C4678B3DFF86480A5225D
:1090900000F1080188F80020C279D0F80350164684
:1090A0006846F7F71EF9F9F75BFD50B9DDE90023D3
:1090B00029463046F9F716FD18B9F9F709FD00B948
:1090C00001270020414607E015F8012B0B19641C0D
:1090D000401CDA70E4B2C0B2B042F5D38C700FB16C
:1090E000832000E0C12088F801000148BDE8FC8130
:1090F000C40A002070B50446002003469DE0E55CEC
:10910000232D70D2DFE805F012161B23272B2F33F7
:10911000373B3F43474B5B5F63676B747C80788D65
:10912000914F53579595951F89708400166846F0A6
:10913000010602E0166846F0020616607BE016683B
:1091400046F00406F9E7166846F00046F5E71668AB
:1091500046F00806F1E7166846F01006EDE71668D7
:1091600046F02006E9E7166846F04006E5E716688F
:1091700046F08006E1E7166846F48076DDE716687B
:1091800046F40076D9E7166846F48066D5E7166897
:1091900046F40066D1E7166846F48056CDE71668B7
:1091A00046F40056C9E7166846F00076C5E716682B
:1091B00046F08066C1E7166846F00066BDE71668AF
:1091C00046F48046B9E7166846F40046B5E71668E7
:1091D00046F48036B1E7166846F40036ADE7166807
:1091E00046F48026A9E724E0566846F0020612E01D
:1091F000166846F40026A0E7166846F480069CE749
:10920000166846F4801698E7166846F4001694E748
:10921000566846F0040656600DE0566846F00106B2
:10922000F9E7166846F4000687E7166846F0807688
:1092300083E76FF007005B1CDBB28B42FFF45FAF8C
:1092400070BD00002DE9F04786B0044689461546FA
:109250004FF00008012613468DF81480324605A908
:109260007D20FDF78DF800283BD1E10705D09DF862
:10927000141041F004018DF81410A10705D59DF8D4
:10928000141041F002018DF81410610705D59DF806
:10929000141041F001018DF81410002C05DA9DF82E
:1092A000141041F008018DF81410D6490C4207D073
:1092B0002B46012205A97D20FDF728FC002810D1AE
:1092C000D04B0F3B04EA030252EA090209D095F899
:1092D0005770012F7ED129460020FDF7E5FB0028BD
:1092E00078D006B0BDE8F087210709D529460120CE
:1092F00001F0D0F800286ED12A6C42F008022A64EE
:10930000E10609D52946012000F0F5F90028F2D13F
:109310002A6C42F010022A64A10609D529460120D0
:1093200000F04BFF0028E6D12A6C42F020022A64AC
:10933000610609D52946012001F087FA0028DAD113
:109340002A6C42F040022A64210609D529460120F0
:1093500001F04EFA0028CED12A6C42F080022A6435
:10936000E10509D52946012001F04BF90028C2D1B9
:109370002A6C42F480722A64A10509D5294601208D
:1093800000F079FD0028B6D12A6C42F400722A64FC
:10939000610509D52946012001F084FA0028AAD1E7
:1093A0002A6C42F480622A64210509D529460120ED
:1093B00001F015FB00289ED12A6C42F400622A6459
:1093C000E1040CD52946012000F0A9FC002892D127
:1093D0002A6C01E007E1AEE042F480522A64A10465
:1093E0000CD52978212909D12946012001F069FBF2
:1093F00000288CD12A6C42F400522A64A10109D5BC
:109400002946012001F0D2F800288CD12A6C42F0C4
:1094100000722A64610109D52946012000F05EFA34
:1094200000288CD12A6C42F080622A64210109D57F
:109430002946012001F0A8FA00287CD12A6C42F0CC
:1094400000622A64610409D52946012000F0A8FFC2
:10945000002870D12A6C42F480422A64210409D584
:109460002946012000F085FD002864D12A6C42F4D1
:1094700000422A64E10309D52946012000F013FEC9
:10948000002858D12A6C42F480322A64A10309D5FD
:109490002946012000F0F4FA00284CD12A6C42F44D
:1094A00000322A64610309D52946012000F041FAFF
:1094B000002840D12A6C42F480222A6409F002027A
:1094C00058EA020108D02946012000F0A9FC90BB0F
:1094D0006A6C42F002026A64210308D52946012021
:1094E00001F037FC38BB2A6C42F400222A64E10206
:1094F00008D52946012001F082FCE0B92A6C42F42B
:1095000080122A64610208D52946012001F04CFC32
:1095100088B92A6C42F400222A64A10208D529469F
:10952000012001F0FBFC30B92A6C42F480122A645D
:1095300009F0040200E043E058EA020108D029469D
:10954000012000F0ADF8D8BB6A6C42F004026A64F6
:1095500009F0010258EA020108D02946012000F072
:109560005BFA68BB6A6C42F001026A6421022FD583
:109570004FF0010ACDF80080CDF80480CDF80880C6
:10958000CDF80C802A46172104A8CDF81080FCF7EE
:1095900056FEB0B19DF811002A466946FCF76AFEF6
:1095A00068B99DF81200694610221DF800306AF370
:1095B00000030DF800302B463020FDF7A7FA18B154
:1095C00015E06FF0070012E02A6C42F400022A64F2
:1095D000E10108D52946012000F0DBFA38B92A6CF0
:1095E00042F080722A64761EF6B2BFF47DAE012F7F
:1095F0007FF477AE0028FBD129460120FDF754FA0D
:109600006FE6000007000080F8B5044600200D4614
:109610000B46A61C01460090671C01223046FDF750
:1096200099FC40B930782B4601280FD00722002141
:109630003846FDF78FFC002831D12046E61C2B462A
:109640000C220121FDF786FC10B107E00322EEE7B2
:109650002B46032200213046FDF77CFC00281ED15A
:10966000A1789DF800002B4661F3C71061780222B3
:1096700061F30610217861F303008DF80000E178B2
:109680009DF8010061F301008DF80100694640205A
:10969000FDF73CFA002802D12846FDF7D3FBF8BDC0
:1096A00030B585B0044600200D4600900190029030
:1096B00003900A460490222104A8FCF7C0FDB8B12B
:1096C0009DF811002A466946FCF7D4FD00280DD10B
:1096D0009DF8120069462B461DF8002064F3000235
:1096E0000DF8002010223020FDF710FA05B030BD33
:1096F0006FF00700FAE730B585B0044600200D464C
:1097000000900190029003900A460490042104A85E
:10971000FCF795FDC8B19DF811002A466946FCF793
:10972000A9FD00280FD19DF812006946C01CC0B2E7
:109730002B461DF8002064F3C7120DF800201022FC
:109740003020FDF7E3F905B030BD6FF00700FAE710
:10975000F0B5054685B000200F46009001900290BC
:10976000064603900A4604906C46042104A8FCF7C0
:1097700066FDA8B39DF811003A466946FCF77AFDEC
:10978000002843D19DF812002A88400834F81010B0
:1097900062F30C0124F810102A7962F34D3124F899
:1097A0001010AA7962F38E3124F810102A7A62F32D
:1097B000CF3124F81010401C6A8834F8101062F37E
:1097C0000A0124F81010AA7A62F3CE2124F81010AE
:1097D0009DF81210401CC1EB4000C0B26A4608E080
:1097E00016E0A31902EB060CCB5C761C01F80C30DA
:1097F000F6B28642F5D33B46102269463020FDF78B
:1098000085F9002802D1A97A87F8251005B0F0BDA6
:109810006FF00700FAE7F8B505460C460B460B2239
:109820000121401DFDF796FB00283BD12346012274
:1098300069466B20FCF7A4FD60B929789DF800000B
:10984000234661F345108DF80000012269466B2024
:10985000FDF75CF9002825D121462846FDF79FFB3E
:1098600000281FD126462346012269464420FCF7E2
:1098700087FD040015D1A9799DF80000334661F3F6
:1098800007106979012261F303008DF80000694631
:109890004420FDF73BF90446326D4FF47A7071684D
:1098A00090472046F8BD38B5044600200D468DF897
:1098B00000000B46012269465920FCF761FD002893
:1098C0000BD19DF800002B4664F300008DF80000DA
:1098D000012269465920FDF719F938BD30B585B028
:1098E000044600200D4600900190029003900A4625
:1098F00004901A2104A8FCF7A2FCB8B19DF811004D
:109900002A466946FCF7B6FC00280DD19DF81200E6
:1099100069462B461DF8002064F341020DF8002033
:1099200010223020FDF7F2F805B030BD6FF00700CF
:10993000FAE730B585B0044600200D46009001904E
:10994000029003900A460490122104A8FCF777FCC9
:10995000B8B19DF811002A466946FCF78BFC002837
:109960000DD19DF8120069462B461DF8002064F3C6
:1099700000020DF8002010223020FDF7C7F805B0D6
:1099800030BD6FF00700FAE7F0B5074685B000205C
:109990000E46009001900290044603900A460490FF
:1099A0006D46122104A8FCF74AFC80B39DF8110013
:1099B00032466946FCF75EFC002826D19DF812006D
:1099C0003A78400835F8101062F3440125F8101079
:1099D0009DF81210401CC1EB4000C0B26A4607E07F
:1099E0002B1902EB040CCB5C641C01F80C30E4B2C4
:1099F0008442F5D33346102269463020FDF786F8BD
:109A0000002802D1397886F8311005B0F0BDFFE7A3
:109A10006FF00700F9E7000070B586B00646002039
:109A20000C4600900190029003900A460490202179
:109A300004A8FCF704FCD8B19DF811002246694641
:109A4000FCF718FC050015D19DF812006946234665
:109A50001DF8002066F341020DF80020102230208E
:109A6000FDF754F80546226D04486168904701E00F
:109A70006FF0070506B0284670BD000000710200B7
:109A800030B585B0044600200D460090019002904C
:109A900003900A460490112104A8FCF7D0FBB8B14A
:109AA0009DF811002A466946FCF7E4FB00280DD119
:109AB0009DF8120069462B461DF8002064F3000251
:109AC0000DF8002010223020FDF720F805B030BD41
:109AD0006FF00700FAE7F0B5064685B000200F46A4
:109AE000009001900290054603900A4604906C464F
:109AF000112104A8FCF7A3FB80B39DF811003A469E
:109B00006946FCF7B7FB00283ED19DF81200327879
:109B1000400834F8101062F3460124F81010B278AF
:109B200062F3C81124F81010327A62F34C2124F841
:109B30001010401C327934F8101062F3050124F83B
:109B40001010B27962F38D1124F810109DF81210E4
:109B5000401CC1EB4000C0B26A4608E016E0631941
:109B600002EB050CCB5C6D1C01F80C30EDB28542AC
:109B7000F5D33B46102269463020FCF7C7FF00288A
:109B800002D1317A87F8301005B0F0BD6FF00700D0
:109B9000FAE730B585B0044600200D4600900190EC
:109BA000029003900A460490182104A8FCF747FB92
:109BB000B8B19DF811002A466946FCF75BFB002806
:109BC0000DD19DF8120069462B461DF8002064F364
:109BD00000020DF8002010223020FCF797FF05B09E
:109BE00030BD6FF00700FAE7F0B585B006460020FB
:109BF0000F4600900190029003900A4604906D4633
:109C0000182104A8FCF71BFBF0B39DF811003A469D
:109C10006946FCF72FFB002834D19DF812003178FB
:109C2000440835F8140061F3440025F814000020BE
:109C300014F1010406EB4001401C498825F814107A
:109C4000641CC0B2E4B20728F4D39DF812106B462E
:109C5000C1EB4400C2B2002007E02C1803EB000C5B
:109C60000C5D401C01F80C40C0B29042F5D33B465D
:109C7000102269463020FCF749FF002802D13178D4
:109C800087F8341005B0F0BDFFE76FF00700F9E783
:109C9000F0B5074685B000200E4600900190029076
:109CA000044603900A4604906D460C2104A8FCF774
:109CB000C6FA80B39DF8110032466946FCF7DAFA1D
:109CC000002826D19DF812003A78400835F8101087
:109CD00062F3440125F810109DF81210401CC1EBEE
:109CE0004000C0B26A4607E02B1902EB040CCB5CC3
:109CF000641C01F80C30E4B28442F5D333461022E0
:109D000069463020FCF702FF002802D1397886F836
:109D10002B1005B0F0BDFFE76FF00700F9E730B595
:109D200085B0044600200D460090019002900390FB
:109D30000A4604900C2104A8FCF781FAB8B19DF8FA
:109D400011002A466946FCF795FA00280DD19DF8C6
:109D5000120069462B461DF8002064F300020DF83E
:109D6000002010223020FCF7D1FE05B030BD6FF08E
:109D70000700FAE738B5044600200D460B460146B9
:109D800000900122A01CFDF7E5F808BB2B4603223A
:109D90000021601CFDF7DEF8D0B92B46012200211E
:109DA000601DFDF7D7F898B92B460D2206212046F5
:109DB000FDF7D0F860B92B4601220021E01CFDF729
:109DC000C9F828B92B4604220021201DFDF7C2F84E
:109DD000002824D1A1789DF800002B4661F3C7101C
:109DE0006179022261F38610617861F305102178B0
:109DF00061F303008DF80000E1789DF8010061F344
:109E0000C300217961F302008DF801006946422008
:109E1000FCF77CFE002802D12846FDF713F838BD78
:109E200030B585B0044600200D46009001900290A8
:109E300003900A460490212104A8FCF700FAB8B167
:109E40009DF811002A466946FCF714FA00280DD146
:109E50009DF8120069462B461DF8002064F341026C
:109E60000DF8002010223020FCF750FE05B030BD68
:109E70006FF00700FAE730B585B0044600200D46C4
:109E800000900190029003900A460490092104A8D2
:109E9000FCF7D5F9C8B19DF811002A466946FCF7D0
:109EA000E9F900280FD19DF812006946401DC0B2A3
:109EB0002B461DF8002064F3C3020DF80020102289
:109EC0003020FCF723FE05B030BD6FF00700FAE745
:109ED000F0B5064685B000200F4600900190029034
:109EE000054603900A4604906C46092104A8FCF735
:109EF000A6F9D0B39DF811003A466946FCF7BAF9C5
:109F0000002830D19DF812003288400834F8101033
:109F100062F30A0124F81010401C728834F8101003
:109F200062F30A0124F81010401CC0B2B28834F861
:109F3000101062F30A0124F810109DF81210401C52
:109F4000C1EB4000C0B26A4605E063195619CB5C0C
:109F50006D1C8B55EDB28542F7D33B461022694606
:109F60003020FCF7D3FD05B0F0BDFFE76FF0070030
:109F7000F9E730B585B0044600200D460090019009
:109F8000029003900A4604900F2104A8FCF757F9A9
:109F9000C8B19DF811002A466946FCF76BF9002804
:109FA0000FD19DF812006946C01CC0B22B461DF8A7
:109FB000002064F3C7120DF8002010223020FCF7B7
:109FC000A5FD05B030BD6FF00700FAE7F0B5054616
:109FD00085B000200F460090019002900646039045
:109FE0000A4604906C460F2104A8FCF728F9E8B350
:109FF0009DF811003A466946FCF73CF900284DD11E
:10A000009DF812002A88400834F8101062F30E01FF
:10A0100024F81010401C6A8834F8101062F30B0109
:10A0200024F810102A7962F30C3124F81010AA7960
:10A0300062F34D3124F810102A7A62F38E3124F83D
:10A040001010401CC0B26A8934F8101062F30B0182
:10A0500024F810102A7B62F30F3124F810109DF8B9
:10A060001210401CC1EB4000C0B200E018E06A468C
:10A0700007E0A31902EB060CCB5C761C01F80C3050
:10A08000F6B28642F5D33B46102269463020FCF7F3
:10A090003DFD002802D1297B87F82E1005B0F0BDC8
:10A0A0006FF00700FAE730B585B0044600200D4692
:10A0B00000900190029003900A460490102104A899
:10A0C000FCF7BDF8C8B19DF811002A466946FCF7B7
:10A0D000D1F800280FD19DF812006946C01CC0B20B
:10A0E0002B461DF8002064F304120DF80020102206
:10A0F0003020FCF70BFD05B030BD6FF00700FAE72C
:10A10000F0B5064685B000200F4600900190029001
:10A11000054603900A4604906C46102104A8FCF7FB
:10A120008EF878B39DF811003A466946FCF7A2F81C
:10A1300000283DD19DF812003288400834F81010F4
:10A1400062F30E0124F81010401C728834F81010CD
:10A1500062F30B0124F81010401CC0B2B28834F82E
:10A16000101062F30B0124F81010B27962F30F3172
:10A1700024F810109DF81210401CC1EB4000C0B232
:10A180006A4608E016E0631902EB050CCB5C6D1C17
:10A1900001F80C30EDB28542F5D33B4610226946FA
:10A1A0003020FCF7B3FC002802D1B17987F82F10DA
:10A1B00005B0F0BD6FF00700FAE730B585B0044692
:10A1C00000200D4600900190029003900A460490F2
:10A1D000052104A8FCF733F8C8B19DF811002A4600
:10A1E0006946FCF747F800280FD19DF81200694630
:10A1F000C01CC0B22B461DF8002064F3C7120DF836
:10A20000002010223020FCF781FC05B030BD6FF03B
:10A210000700FAE7F0B5054685B000200F4600902C
:10A2200001900290064603900A4604906C46052170
:10A2300004A8FCF704F8A8B39DF811003A46694653
:10A24000FCF718F8002843D19DF812002A8840082E
:10A2500034F8101062F30C0124F810102A7962F31C
:10A260004D3124F81010AA7962F38E3124F81010C1
:10A270002A7A62F3CF3124F81010401C6A8834F82F
:10A28000101062F30A0124F81010AA7A62F3CE21AA
:10A2900024F810109DF81210401CC1EB4000C0B211
:10A2A0006A4608E016E0A31902EB060CCB5C761CAC
:10A2B00001F80C30F6B28642F5D33B4610226946CF
:10A2C0003020FCF723FC002802D1A97A87F8261059
:10A2D00005B0F0BD6FF00700FAE7F0B5054685B0B0
:10A2E00000200F46009001900290064603900A4617
:10A2F00004906C460E2104A8FBF7A1FFA8B39DF8BB
:10A3000011003A466946FBF7B5FF002843D19DF896
:10A3100012002A78400834F8101062F3410124F842
:10A320001010AA7862F3830124F810102A7962F3DE
:10A33000051124F81010AA7962F38B1124F810107B
:10A34000401C2A8934F8101062F30A0124F8101016
:10A35000AA7A62F3CE2124F810109DF81210401C46
:10A36000C1EB4000C0B26A4608E016E0A31902EB58
:10A37000060CCB5C761C01F80C30F6B28642F5D3A5
:10A380003B46102269463020FCF7C0FB002802D172
:10A39000A97A87F82D1005B0F0BD6FF00700FAE735
:10A3A00030B585B0044600200D4600900190029023
:10A3B00003900A4604900E2104A8FBF740FFB8B1B1
:10A3C0009DF811002A466946FBF754FF00280DD17D
:10A3D0009DF8120069462B461DF8002064F3000228
:10A3E0000DF8002010223020FCF790FB05B030BDA6
:10A3F0006FF00700FAE7F0B5064685B000200F467B
:10A40000009001900290054603900A4604906C4625
:10A41000172104A8FBF713FFC0B39DF811003A46BB
:10A420006946FBF727FF00282ED19DF812003278ED
:10A43000400834F8101062F3000124F8101072780C
:10A4400062F3420124F81010F27862F3861124F8C6
:10A450001010327962F3C71124F810109DF8121011
:10A46000401CC1EB4000C0B26A4605E063195619B2
:10A47000CB5C6D1C8B55EDB28542F7D33B46102269
:10A4800069463020FCF742FB05B0F0BDFFE76FF0F6
:10A490000700F9E730B585B0044600200D4600906E
:10A4A0000190029003900A460490032104A8FBF750
:10A4B000C6FEC8B19DF811002A466946FBF7DAFED0
:10A4C00000280FD19DF8120069460A30C0B22B4611
:10A4D0001DF8002064F300020DF800201022302047
:10A4E000FCF714FB05B030BD6FF00700FAE7F0B5DC
:10A4F000054685B000200F46009001900290064668
:10A5000003900A4604906C46032104A8FBF797FECB
:10A5100088B39DF811003A466946FBF7ABFE002868
:10A520003FD19DF812002988400824F81010401CE3
:10A53000698824F81010401CC0B2A98824F81010B3
:10A54000401CC0B2E98824F81010401CC0B2298910
:10A5500024F81010401CC0B2AA7A34F8101062F32C
:10A56000440124F810109DF81210401CC1EB40006B
:10A57000C0B26A4608E016E0A31902EB060CCB5CF9
:10A58000761C01F80C30F6B28642F5D33B46102219
:10A5900069463020FCF7BAFA002802D1A97A87F878
:10A5A000241005B0F0BD6FF00700FAE730B585B0B4
:10A5B000044600200D4600900190029003900A4648
:10A5C0000490192104A8FBF73AFEB8B19DF81100D8
:10A5D0002A466946FBF74EFE00280DD19DF8120071
:10A5E00069462B461DF8002064F300020DF8002098
:10A5F00010223020FCF78AFA05B030BD6FF007005A
:10A60000FAE730B585B0044600200D460090019071
:10A61000029003900A460490082104A8FBF70FFE5D
:10A62000C8B19DF811002A466946FBF723FE0028B1
:10A630000FD19DF812006946401CC0B22B461DF890
:10A64000002064F345120DF8002010223020FCF7A2
:10A650005DFA05B030BD6FF00700FAE7F0B50546CA
:10A6600085B000200F4600900190029006460390AE
:10A670000A4604906C46072104A8FBF7E0FD80B36E
:10A680009DF811003A466946FBF7F4FD002840D1D9
:10A690009DF812002A88400834F8101062F309016E
:10A6A00024F81010AA7862F38A2124F81010401CB4
:10A6B0002A7934F8101062F3030124F81010AA79F3
:10A6C00062F3071124F810102A7A62F31F2124F88C
:10A6D00010109DF81210401CC1EB4000C0B26A4639
:10A6E00008E018E0A31902EB060CCB5C761C01F81D
:10A6F0000C30F6B28642F5D33B4610226946302034
:10A70000FCF704FA002804D1297907F8271FA97952
:10A71000797005B0F0BD6FF00700FAE72DE9F34F4F
:10A7200087B04FF00008CDF80C80CDF80080CDF850
:10A730000480CDF80880082645466F46CDF8108085
:10A740001C2104A8089AFBF77AFD90B39DF811909C
:10A750009DF812B009F103040BF1020004F0FF0AA6
:10A76000C0B24C4605903AE069462046089AFBF78D
:10A7700081FD5FEA000830D14C4500D9834654453D
:10A7800001D1059846084FEA5B0008E0079931F8C7
:10A79000151027F81010401C6D1CC0B2EDB2B0426D
:10A7A000F4D39DF812106B46C1EB4000C2B20020FA
:10A7B0000AE017E007EB000C03EB000811F80CC0EF
:10A7C000401C01F808C0C0B29042F3D31022694681
:10A7D0003020089BFCF79AF98046641CE4B254458B
:10A7E000C2D901E06FF0070809B04046BDE8F08F1C
:10A7F00030B585B0044600200D46009001900290CF
:10A8000003900A460490072104A8FBF718FDC8B17D
:10A810009DF811002A466946FBF72CFD00280FD150
:10A820009DF812006946401CC0B22B461DF800205E
:10A8300064F304120DF8002010223020FCF766F9B2
:10A8400005B030BD6FF00700FAE730B585B00446BB
:10A8500000200D4600900190029003900A4604905B
:10A86000062104A8FBF7EBFCC8B19DF811002A46AD
:10A870006946FBF7FFFC00280FD19DF812006946DE
:10A88000401CC0B22B461DF8002064F3C3020DF833
:10A89000002010223020FCF739F905B030BD6FF0F0
:10A8A0000700FAE730B585B0044600200D46009059
:10A8B0000190029003900A4604900A2104A8FBF735
:10A8C000BEFCB8B19DF811002A466946FBF7D2FCE0
:10A8D00000280DD19DF8120069462B461DF8002076
:10A8E00064F300020DF8002010223020FCF70EF96E
:10A8F00005B030BD6FF00700FAE7F0B5074685B048
:10A9000000200E46009001900290044603900A46F3
:10A9100004906D460A2104A8FBF791FC80B39DF8D2
:10A92000110032466946FBF7A5FC002826D19DF8A8
:10A9300012003A78400835F8101062F3440125F807
:10A9400010109DF81210401CC1EB4000C0B26A46C6
:10A9500007E02B1902EB040CCB5C641C01F80C30F3
:10A96000E4B28442F5D33346102269463020FCF726
:10A97000CDF8002802D1397886F8291005B0F0BD4D
:10A98000FFE76FF00700F9E730B585B00446002017
:10A990000D4600900190029003900A4604901B21FE
:10A9A00004A8FBF74CFCB8B19DF811002A46694693
:10A9B000FBF760FC00280DD19DF8120069462B467C
:10A9C0001DF8002064F382020DF8002010223020D0
:10A9D000FCF79CF805B030BD6FF00700FAE730B522
:10A9E00085B0044600200D4600900190029003902F
:10A9F0000A4604900B2104A8FBF721FCB8B19DF88E
:10AA000011002A466946FBF735FC00280DD19DF858
:10AA1000120069462B461DF8002064F300020DF871
:10AA2000002010223020FCF771F805B030BD6FF027
:10AA30000700FAE7F0B5074685B000200E46009003
:10AA400001900290044603900A4604906D460B2143
:10AA500004A8FBF7F4FB80B39DF811003246694669
:10AA6000FBF708FC002826D19DF812003A78400830
:10AA700035F8101062F3440125F810109DF81210FB
:10AA8000401CC1EB4000C0B26A4607E02B1902EB44
:10AA9000040CCB5C641C01F80C30E4B28442F5D3A6
:10AAA0003346102269463020FCF730F8002802D1E6
:10AAB000397886F82A1005B0F0BDFFE76FF007007F
:10AAC000F9E730B585B0044600200D4600900190AE
:10AAD000029003900A4604900D2104A8FBF7AFFBF7
:10AAE000B8B19DF811002A466946FBF7C3FB002860
:10AAF0000DD19DF8120069462B461DF8002064F325
:10AB000000020DF8002010223020FBF7FFFF05B0F7
:10AB100030BD6FF00700FAE72DE9F04186B000275D
:10AB2000064600970197029703970497087888468E
:10AB30003C466D46272807D021280CD06FF0070728
:10AB400006B03846BDE8F081D8F86020414630466E
:10AB500090470746F4E742460D2104A8FBF76FFB38
:10AB60000028EDD09DF8110042466946FBF782FBB4
:10AB70000700E5D19DF812003278410835F8110040
:10AB800062F3430025F81100B27862F3041025F84F
:10AB90001100327C62F3481025F811009DF8120074
:10ABA000491CC0EB4101C9B26A4605E02B191719CF
:10ABB000C35C641CC355E4B28C42F7D343461022F5
:10ABC00069463020FBF7A2FF0700B9D1307C88F836
:10ABD0002C00B5E7F0B5064685B000200F46009082
:10ABE00001900290054603900A4604906C4613219A
:10ABF00004A8FBF724FBE8B39DF811003A46694628
:10AC0000FBF738FB00283BD19DF812003278400852
:10AC100034F8101062F3041124F81010B27862F3C3
:10AC2000030124F81010401CB18824F81010401CB7
:10AC3000C0B2F18824F81010401CC0B2318924F849
:10AC400010109DF81210401CC1EB4000C0B26A46C3
:10AC500007E0631902EB050CCB5C6D1C01F80C30AE
:10AC6000EDB28542F5D33B46102269463020FBF712
:10AC70004DFF00E006E0002802D1B17887F83210DD
:10AC800005B0F0BD6FF00700FAE7F0B5054685B0F6
:10AC900000200F46009001900290064603900A465D
:10ACA00004906C46162104A8FBF7C9FAA0B39DF8DE
:10ACB00011003A466946FBF7DDFA002844D19DF8B9
:10ACC00012002A78400834F8101062F3041124F8B6
:10ACD00010102A7821F00F01C2F34302114324F827
:10ACE0001010401C698824F81010401CC0B2A988BC
:10ACF00024F81010401CC0B2E98824F81010401C41
:10AD0000C0B2298924F810109DF81210401CC1EB24
:10AD10004000C0B26A4608E018E0A31902EB060C36
:10AD2000CB5C761C01F80C30F6B28642F5D33B467C
:10AD3000102269463020FBF7E9FE002804D129786B
:10AD4000C1F3430187F8321005B0F0BD6FF0070082
:10AD5000FAE730B585B0044600200D46009001901A
:10AD6000029003900A460490132104A8FBF767FAA7
:10AD7000B8B19DF811002A466946FBF77BFA002816
:10AD80000DD19DF8120069462B461DF8002064F392
:10AD900045120DF8002010223020FBF7B7FE05B059
:10ADA00030BD6FF00700FAE730B585B004460020EB
:10ADB0000D4600900190029003900A4604901621DF
:10ADC00004A8FBF73CFAB8B19DF811002A46694681
:10ADD000FBF750FA00280DD19DF8120069462B466A
:10ADE0001DF8002064F345120DF8002010223020D9
:10ADF000FBF78CFE05B030BD6FF00700FAE730B509
:10AE000085B0044600200D4600900190029003900A
:10AE10000A460490142104A8FBF711FAB8B19DF872
:10AE200011002A466946FBF725FA00280DD19DF846
:10AE3000120069462B461DF8002064F304120DF839
:10AE4000002010223020FBF761FE05B030BD6FF00E
:10AE50000700FAE7F0B5054685B000200F460090E0
:10AE600001900290064603900A4604906C46142115
:10AE700004A8FBF7E4F9B0B39DF811003A4669461F
:10AE8000FBF7F8F9002844D19DF812002A78400811
:10AE900034F8101062F3030124F81010401C698884
:10AEA00024F81010401CC0B2A98824F81010401CCF
:10AEB000C0B2E98824F81010401CC0B2298924F8D7
:10AEC0001010401CC0B2698924F81010401CC0B298
:10AED000A98924F810109DF81210401CC1EB400005
:10AEE000C0B26A4608E016E0A31902EB060CCB5C80
:10AEF000761C01F80C30F6B28642F5D33B461022A0
:10AF000069463020FBF702FE002802D1297887F835
:10AF1000331005B0F0BD6FF00700FAE730B585B02B
:10AF2000044600200D4600900190029003900A46CE
:10AF30000490152104A8FBF782F9B8B19DF811001F
:10AF40002A466946FBF796F900280DD19DF81200B4
:10AF500069462B461DF8002064F304120DF800200A
:10AF600010223020FBF7D2FD05B030BD6FF0070096
:10AF7000FAE7F0B5054685B000200F460090019035
:10AF80000290064603900A4604906C46152104A8D8
:10AF9000FBF755F9002866D09DF811003A4669463E
:10AFA000FBF768F900285CD19DF812002A78400868
:10AFB00034F8101062F3030124F81010401C698863
:10AFC00024F81010401CC0B2A98824F81010401CAE
:10AFD000C0B2AA7934F8101021F0FF01114324F80F
:10AFE0001010EA7962F31F2124F81010401CC0B23F
:10AFF0002A7A34F8101021F0FF01114324F81010C0
:10B000006A7A62F31F2124F81010401CC0B2AA7A99
:10B0100034F8101021F0FF01114324F81010EA7ADF
:10B0200062F31F2124F810109DF81210401CC1EB90
:10B030004000C0B26A4607E0A31902EB060CCB5CE5
:10B04000761C01F80C30F6B28642F5D33B4610224E
:10B0500069463020FBF75AFD002802D1297887F88D
:10B06000331005B0F0BD6FF00700FAE790ED0B0A62
:10B07000D0ED020A30EE200A80ED0B0A90ED0C1A9A
:10B08000B4EEC10AF1EE10FA06DCB1EE411AB4EEEC
:10B09000C10AF1EE10FA01D2B0EE410A80ED0B0ABE
:10B0A00090ED041A61EE201AC0ED071A90ED051A12
:10B0B00021EE001A80ED081A90ED030A90ED062AA1
:10B0C00031EE811A30EEC00A20EE020A80ED090A44
:10B0D00031EE000A80ED0A0A90ED0D1AB4EEC10AB5
:10B0E000F1EE10FA06DCB1EE411AB4EEC10AF1EE4F
:10B0F00010FA01D2B0EE410A80ED0A0AC0ED030A4F
:10B10000704700B52DED048B83B041EC190BF5F7BA
:10B110009BFB41EC180B18EE100A18EE901A8DEDFF
:10B12000008B002818BF0120084320F00040C0F128
:10B130007F6000F1E040C00F14D019EE101A19EE34
:10B14000900A8DED009B002918BF0121084320F0D3
:10B150000040C0F17F6000F1E040C00F04BF01205B
:10B16000FBF722F851EC180B03B0BDEC048B00BDCB
:10B1700038B5044600680168406800902948844258
:10B1800016D1A06B0068016821F001010160A06B7D
:10B1900001684A68062A06D10968090301D5416C8D
:10B1A00000E0C16B8847A16B1820096848600EE079
:10B1B0001D48844212D1A06B0068016821F0010192
:10B1C00001601A48FAF702FA6421184827E0A06BD8
:10B1D0000068016841F00101016038BD14488442F3
:10B1E0000DD1A06B0068016821F0010101600F48DA
:10B1F0009430FAF741FA0D48642194300FE00D487D
:10B200008442EAD1A06B0068016821F0010101606D
:10B210000648F830FAF74EFA0448C821F830F5F736
:10B2200079F8D4E7A00F00205C0F00200C07002065
:10B23000D40E0020180F0020F8B504004FF00000D5
:10B240001D461646009014D0C1F343008DF800004F
:10B2500048098DF80100022269465B20FBF756FC85
:10B26000002805D12B46324621465E20FBF74EFCD6
:10B27000F8BD4FF0FF30F8BDFBF700BF2DE9F041FE
:10B2800016460D460746002405E03846F9F724F92E
:10B2900005F8010B641CB442F7D30020BDE8F0812F
:10B2A00070B50D4606461446F9F7AAF80E48007820
:10B2B0004006000EF9F774F8F9F7E4F818B1F9F759
:10B2C000BFF8012070BD3046F9F76AF803E028782E
:10B2D000F9F766F86D1CF9F7D5F8641EF7D2F9F79F
:10B2E000AFF8002070BD0000B8000020D0E90132A6
:10B2F00001699A60D0E901235A604A68824201D10B
:10B3000082684A60002202610868401E086008687E
:10B3100070470000034B036003F154000860802075
:10B3200010607047440B002000F108014FF0FF321D
:10B33000C0E90112C1600161002101607047002174
:10B340000161704730B50B685A1C02D000F1080249
:10B3500002E0026904E02246546825689D42FAD959
:10B3600053684B6099608A60516008610168491CAC
:10B37000016030BD42684A6093688B609368596091
:10B38000916008610168491C01607047502080F39A
:10B390001188BFF34F8FBFF36F8F0A494868401C75
:10B3A000486001280CD10848006810F0FF0F07D052
:10B3B000502080F31188BFF34F8FBFF36F8FFEE7EC
:10B3C00070470000AC06002004ED00E00849486822
:10B3D00028B1401E486001D180F311887047502089
:10B3E00080F31188BFF34F8FBFF36F8FFEE700002C
:10B3F000AC06002070B500282AD0164DA0F1080434
:10B4000060686969084207D1502080F31188BFF352
:10B410004F8FBFF36F8FFEE722683AB1502080F361
:10B420001188BFF34F8FBFF36F8FFEE788436060D3
:10B4300000F080F860686968084468602046FDF79D
:10B440004FF92869401C2861BDE8704000F008BB36
:10B4500070BD00008C0600204FF0E020002101614B
:10B46000816105494FF47A720968B1FBF2F1491E16
:10B4700041610721016170474006002010B50200BC
:10B4800014D00F48006B38B1502080F31188BFF3FF
:10B490004F8FBFF36F8FFEE700F04CF8002110468E
:10B4A000FCF7C2FF00F0DCFA002807D105494FF095
:10B4B00080500860BFF34F8FBFF36F8F10BD000047
:10B4C0005006002004ED00E010B586B0002403947F
:10B4D00005AA04A903A80494FFF71CFFDDE90301F2
:10B4E0000094CDE9011000230EA11048059A00F048
:10B4F00070F90F490028C86211D0502080F31188DC
:10B50000BFF34F8FBFF36F8F4FF0FF308862012082
:10B510004861CC6006B0BDE8104000F0B3B806B09A
:10B5200010BD000049444C4500000000E9850008BA
:10B53000500600200248016B491C0163704700005F
:10B54000500600201448016B11B10121C161704700
:10B550000021C1610169B1FA81F1C1F11F0101EB63
:10B5600081020E4951F822306BB101EB820101F1E9
:10B5700008034A6852684A609A4201D152684A6098
:10B58000D16801607047502080F31188BFF34F8F5E
:10B59000BFF36F8FFEE70000500600202C12002042
:10B5A0002DE9F0470446B0F85A70C0890026B7FB71
:10B5B000F0F100FB117000F0FF0821463046FBF768
:10B5C00073FA050059D12146FEF76DF9050054D1F3
:10B5D000B8F1000F0FD0A7EB08001FFA80F81AE0AF
:10B5E0002069E289304423463146FFF725FE0546AF
:10B5F000E089304486B2BE422AD2002DF0D03CE031
:10B600002069E289304423463146FFF715FE05469E
:10B61000E089304486B2464502D2002DF0D02CE0BD
:10B620005DBBB4F80E900220E08146460AE0206936
:10B63000E289304423463146FFF7FEFD0546E089A6
:10B64000304486B2BE4201D2002DF0D0A4F80E9054
:10B650009DB921460120FEF726F90546226D0848CE
:10B66000616890474DB921460120FBF71DFA054658
:10B67000226D4FF47A70616890472846BDE8F087E4
:10B68000F04902001CB537480168374A914207D19A
:10B69000502080F31188BFF34F8FBFF36F8FFEE709
:10B6A00000683149491E884207D1502080F3118833
:10B6B000BFF34F8FBFF36F8FFEE72C4908780190DF
:10B6C000FF20087008788DF800009DF800009DF8B4
:10B6D000002000F0F000904207D0502080F3118845
:10B6E000BFF34F8FBFF36F8FFEE79DF80000204C34
:10B6F00000F0500020700720A06005E09DF80020B9
:10B7000052008DF80020401E9DF800201206F5D44E
:10B71000A060032807D0502080F31188BFF34F8F1B
:10B72000BFF36F8FFEE74FF44070A0600198087080
:10B730000C482030016841F470010160016841F05B
:10B7400070410160FFF788FE00206060F4F74AFD59
:10B750000848016841F040410160F4F72FFD0020E6
:10B760001CBD000000ED00E071C20F4100E400E0EC
:10B77000AC06002034EF00E02DE9FF5F8346DDE9F1
:10B780000E87994616468A469000FCF7F3FF05009F
:10B790001CD05420FCF7EEFF040014D000202563D9
:10B7A00084F85100CDE90240CDE900874B4632468E
:10B7B00051465846FCF748FF2046FCF76DFE012035
:10B7C00004B0BDE8F09F2846FFF714FE4FF0FF30AD
:10B7D000F6E7F0B585B0DDE90B640A9DA6B1DCB1F2
:10B7E000542700972663022684F85160002604AF90
:10B7F000CDE90246CDE90057FCF726FF2046FCF7CD
:10B800004BFE049805B0F0BD502080F31188BFF3C3
:10B810004F8FBFF36F8FFEE7502080F31188BFF387
:10B820004F8FBFF36F8FFEE72DE9F0411F46904623
:10B830000D46012690B10446FFF7A8FD0FB1E06C5C
:10B84000386094F85000022184F85010B8F1050FC8
:10B8500019D2DFE808F0230B0E141200502080F3F9
:10B860001188BFF34F8FBFF36F8FFEE7E16C294361
:10B8700001E0E16C491CE16410E0022801D0E564BC
:10B880000CE0002635E0E16C491C07D0502080F325
:10B890001188BFF34F8FBFF36F8FFEE7012828D1C8
:10B8A000201DFFF723FD154DE06A01212A69814023
:10B8B00011432961124900EB800001EB8000211D3A
:10B8C000FFF758FDA06A38B1502080F31188BFF30C
:10B8D0004F8FBFF36F8FFEE7E06A2968C96A88421D
:10B8E00007D908494FF080500860BFF34F8FBFF36E
:10B8F0006F8FFFF76BFD3046BDE8F08150060020EA
:10B900002C12002004ED00E02DE9F0412F4C002620
:10B91000206B28B1A069401CA0613046BDE8F081D1
:10B92000E5686D1CE56013D1606B006838B150208C
:10B9300080F31188BFF34F8FBFF36F8FFEE7606B0B
:10B94000A16B6163A063206A401C2062FCF7EEFEDD
:10B95000A06ADFF87C80854209D3606B0068A0B1E3
:10B96000606BC068C7687868854211D2A0622068A1
:10B97000C06A00EB800158F82100012800D9012697
:10B98000E0690028C9D00126C7E74FF0FF30EDE796
:10B99000381DFFF7ABFCB86A18B107F11800FFF7C4
:10B9A000A5FCF96A0120226988401043206101EB5F
:10B9B000810108EB8100391DFFF7DCFCF86A216882
:10B9C000C96A8842C9D30126C7E700005006002093
:10B9D0002C1200202DE9F0411E46154688460746E8
:10B9E000FFF7D4FC1C4C206890F85000022814D0BB
:10B9F0002068C16CB943C1642168012081F85000FE
:10BA00005EB101213046FCF70FFD14494FF0805024
:10BA10000860BFF34F8FBFF36F8FFFF7D7FCFFF7BF
:10BA2000B5FC15B12068C06C2860206890F8500003
:10BA3000022801D0002505E02068C16C21EA080138
:10BA4000C16401252168002081F85000FFF7BEFC89
:10BA50002846BDE8F08100005006002004ED00E01B
:10BA60002DE9F0472C4D00242746286B38B1FFF70D
:10BA70008DFC286B401E2863286B40B146E05020A7
:10BA800080F31188BFF34F8FBFF36F8FFEE7A96874
:10BA9000224E0120D1B3A6F1B40980463068E8B146
:10BAA000F068C46804F11800FFF720FC201DFFF7C0
:10BAB0001DFCE06A2A6908FA00F11143296100EBD4
:10BAC000800109EB8100211DFFF754FCE06A296821
:10BAD000C96A8842E2D3C5F81C80DFE70CB1FCF7E5
:10BAE00025FEAC6944B14646FFF70EFF00B1EE619A
:10BAF000641EF9D10020A861E86938B1084901271E
:10BB000038070860BFF34F8FBFF36F8FFFF75EFCFE
:10BB10003846BDE8F087000050060020E012002003
:10BB200004ED00E0000102000000C82E002E802E6F
:10BB30003DB1C82E002E802E9103802EBCB0802EE9
:10BB4000A303C82E002E802E00B05030212E59F5B0
:10BB50001030212E6AF5802E3B03000000000819EA
:10BB600001002200750000100010D100B343802EA8
:10BB700000C1802E00C1802E00C1802E00C1802E09
:10BB800000C1802E00C1802E00C1802E00C1802EF9
:10BB900000C1802E00C1802E00C1802E00C1802EE9
:10BBA00000C1802E00C1802E00C1802E00C1802ED9
:10BBB00000C1802E00C1802E00C1802E00C1802EC9
:10BBC00000C1802E00C1802E00C1802E00C1802EB9
:10BBD00000C1802E00C1802E00C1802E00C1802EA9
:10BBE00000C1802E00C1802E00C1802E00C1802E99
:10BBF00000C1802E00C1802E00C1802E00C1802E89
:10BC000000C1802E00C1802E00C1802E00C1802E78
:10BC100000C1802E00C1E05F0000000001000000B4
:10BC20000000000000000000920000000000000082
:10BC3000000000000000000000000819000088005B
:10BC400000000000000005E0AA3805E09030FA008E
:10BC500096004B091100110002002D01D47B3B011D
:10BC6000DB7A04003F7BCD6CC3048509C304ECE69A
:10BC70000C460100270019009600A00001000C00EE
:10BC8000F03C00010100030001000E000000320042
:10BC90000500EE060400C80000000400A805EE063A
:10BCA0000004BC02B3008507000000000000000093
:10BCB000000000000000000000000000B4000100CF
:10BCC000B900010098000000000000000000010021
:10BCD00080000400000000000000000000000000E0
:10BCE0000000000000000000000000000000000054
:10BCF0000000000000000000000000000000000044
:10BD00000000000000000000000000000000000033
:10BD10000000000000000000000000000000000023
:10BD200000000000802E00C1FD2DDE00EB00DA00D7
:10BD3000000CFF0F0004C0005BF5C9011EF280007B
:10BD40003FFF19F458F566F564F5C0F1F000E00026
:10BD5000CD01D301DB01FF7FFF01E40074F7F300A5
:10BD6000FA00FF3FCA036C3856FE44FDBC02F906D8
:10BD700000FC1202AE0158FA9AFD7705BB0296014B
:10BD800095017F0182018901870188018A018C0167
:10BD90008F018D0192019101DD009F017E01DB0089
:10BDA000B601706926D39C071F059D000008BC05DD
:10BDB00037FAA201AA01A101A801A001A805B401B6
:10BDC000B401CE00D000FC00C501FFFBB10000387B
:10BDD0000030FDF5FCF5CD01A0005FFF0040FF0045
:10BDE00000806D0FEB007FFFC2F568F7B3F1670FBE
:10BDF0005B0F610F800F58F75BF7830F8600720FA0
:10BE0000850FC6F17F0F6CF700E000FFD1F5870FBB
:10BE10008A0FFF03F03F8B008E009000B9002DF5D4
:10BE2000CAF5CB0120F20000000000000000000075
:10BE30000000000000000000000000000000000002
:10BE400000000000000000000000000000000000F2
:10BE500000000000000000000000000000000000E2
:10BE600000000000000000000000000000000000D2
:10BE700000000000000000000000000000000000C2
:10BE800000000000000000000000000000000000B2
:10BE900000000000000000000000000000000000A2
:10BEA0000000000000000000000000000000000092
:10BEB0000000000000000000000000000000000082
:10BEC0000000000000000000000000000000000072
:10BED0000000000000000000000000000000000062
:10BEE0000000000000000000000000000000000052
:10BEF0000000000000000000000000000000000042
:10BF000000003050982ED70E5032982EFA03003091
:10BF1000F07F002E002ED02E002E018008A2FB2FD5
:10BF2000982EBA03212E1900012EEE0000B2072F21
:10BF3000012E190000B2032F01500352982E07CC96
:10BF4000012EDD0000B2272F052E8A000552982E03
:10BF5000C7C1032EE90040B2F07F082F012E19005F
:10BF600000B2042F0030212EE900982EB4B1012E2A
:10BF7000180000B2102F0550982E4DC30550982E72
:10BF80005AC7982EF9B4982E54B2982E67B6982EA8
:10BF900017B21030212E7700012EEF0000B2042FCF
:10BFA000982E7AB70030212EEF00012ED40004AE77
:10BFB0000B2F012EDD0000B2072F0552982E8E0E9A
:10BFC00000B2022F1030212E7D00012E7D00009046
:10BFD000902EF102012ED70000B2042F982E2F0EC2
:10BFE0000030212E7B00012E7B0000B2122F012E8B
:10BFF000D4000090022F982E1F0E092D982E810D2F
:10C00000012ED4000490022F5032982EFA030030F3
:10C01000212E7B00012E7C0000B2902E0903012E00
:10C020007C000131010800B2042F982E47CB10305C
:10C03000212E77008130012E7C00010800B2612F93
:10C04000032E8900012ED40098BC98B805B20F5871
:10C05000232F079009540030372F15410441DCBECF
:10C0600044BEDCBA2C0161000F564A0F0C2FD1429E
:10C0700094B8C1421130052E6AF72CBD2FB980B299
:10C080000822982EC3B7212D6130232ED400982E7C
:10C09000C3B70030212E5AF5182DE17F5030982E6D
:10C0A000FA030F520750504270300D5442427E82C4
:10C0B000E26F80B24242052F212ED4001030982E1C
:10C0C000C3B7032D6030212ED400012ED40006907A
:10C0D000182F012E76000B540752E07F982E7AC15C
:10C0E000E16F081A4030082F212ED4002030982EFE
:10C0F000AFB75032982EFA03052D982E380E003027
:10C10000212ED4000030212E7C00182D012ED400C9
:10C1100003AA012F982E450E012ED4003F8003A2C2
:10C12000012F002E022D982E5B0E3030982ECEB7A8
:10C130000030212E7D005032982EFA03012E770018
:10C1400000B2242F982EF5CB032ED5001154010AEE
:10C15000BC848386212EC901E0401352C440824032
:10C16000A8B9524243BE5342040A5042E17FF03123
:10C170004140F26F25BD0808020AD07F982EA8CF53
:10C1800006BCD16FE26F080A8042982E58B7003083
:10C19000212EEE00212E7700212EDD00802EF401CD
:10C1A0001A242200802EEC011050FB7F982EF303FE
:10C1B0005750FB6F013071541142420EFC2FC02EBC
:10C1C0000142F05F802E00C1FD2D01000000000043
:10C1D0000000000000009A0134030000000000008D
:10C1E000000000000000000000000000000000004F
:10C1F000000000000000000000000000000000003F
:10C20000000000000000000000000000000000002E
:10C21000000000000000000000000000000000001E
:10C22000000000000000000000000000000000000E
:10C2300000000000000000000000000000000000FE
:10C240000000000000000000000000002050E77F18
:10C25000F67F06320F2E61F5FE09C0B3042F1730AA
:10C260002F2EEF002D2E61F5F66FE76FE05FC82EE1
:10C270002050E77FF67F46300F2EA4F1BE0980B331
:10C28000062F0D2ED40084AF022F16302D2E7B00EA
:10C2900086302D2E60F5F66FE76FE05FC82E012E19
:10C2A00077F709BC0FB800B21050FB7F10300B2F8E
:10C2B000032E8A0096BC9FB840B2052F032E68F764
:10C2C0009EBC9FB840B2072F032E7E004190012FE5
:10C2D000982EDC03032C0030212E7E00FB6FF05FD4
:10C2E000B82E2050E07FFB7F002E2750982E3BC8B1
:10C2F0002950982EA7C80150982E55CCE16F2B508D
:10C30000982EE0C9FB6F0030E05F212E7E00B82E32
:10C310007350013057541142420EFC2FB82E212E7B
:10C3200059F51030C02E212E4AF19050F77FE67F4C
:10C33000D57FC47FB37FA17F907F827F7B7F982E44
:10C3400035B700B2902E97B0032E8F00072E9100C4
:10C35000052EB1003FBA9FB8012EB100A3BD4C0A13
:10C36000052EB10004BEBFB9CB0A4FBA22BD012EC3
:10C37000B300DC0A2FB9032EB8000ABE9A0ACFB95F
:10C380009BBC012E97009FB8930A0FBC910A0FB86F
:10C39000900A252E1800052EC1F52EBD2EB9012EAE
:10C3A000190031308A040090072F012ED40004A216
:10C3B000032F012E180000B20C2F19500552982E91
:10C3C0004DB7052E780080901030012F212E780077
:10C3D000252EDD00982E3EB700B202300130042F2A
:10C3E000012E190000B2002F2130012EEA00081A98
:10C3F0000E2F232EEA0033301B500B090140175635
:10C4000046BE4B084C0A01420A8015520142002EDA
:10C41000012E180000B21F2F032EC0F5F03048087F
:10C4200047AA7430072E7A0061224B1A052F072E77
:10C4300066F5BFBDBFB9C0900B2F1D562B30D24241
:10C44000DB420104C24204BDFE808184232E7A00B7
:10C4500002420232252E62F5052ED6008184252E59
:10C46000D6000231252E60F5052E8A000B5090086B
:10C4700080B20B2F052ECAF5F03E9008252ECAF586
:10C48000052E59F5E03F9008252E59F5906FA16FC4
:10C49000B36FC46FD56FE66FF76F7B6F826F705F9E
:10C4A000C82EC050907FE57FD47FC37FB17FA27F2D
:10C4B000877FF67F7B7F002E012E60F5607F982EB0
:10C4C00035B70230636F1552507F627F5A2C0232AB
:10C4D0001A0900B3142F00B2032F092E180000917F
:10C4E0000C2F437F982E97B71F50028A02320430D8
:10C4F000252E64F51552506F436F4443252E60F589
:10C50000D908C0B2362F982E3EB700B2062F012EA2
:10C51000190000B2022F506F00900A2F012E7900EF
:10C520000090192F1030212E79000030982EDC0356
:10C53000132D012EC3F50CBC0FB81230100403B03C
:10C54000262521500352982E4DB71030212EEE0093
:10C550000230607F252E7900606F0090052F00303B
:10C56000212EEA001550212E64F51552232E60F578
:10C570000232506F0090022F0330272E7800072ED2
:10C5800060F51A090091A32F19090091A02F906F4F
:10C59000A26FB16FC36FD46FE56F7B6FF66F876F5C
:10C5A000405FC82EC050E77FF67F26300F2E61F522
:10C5B0002F2E7C000F2E7C00BE09A27F807F80B3CF
:10C5C000D57FC47FB37F917F7B7F0B2F23501A25AC
:10C5D0001240427F74821240527F002E0040607FE2
:10C5E000982E6AD68130012E7C00010800B2422FBD
:10C5F000032E8900012E890097BC06BC9FB80FB896
:10C600000090232ED800103001302A2F032ED400A2
:10C6100044B2052F47B200302D2F212E7C002B2D48
:10C62000032EFDF59EBC9FB84090142F032EFCF501
:10C6300099BC9FB840900E2F032E49F125544A080B
:10C640004090082F982E35B700B21030032F50308D
:10C65000212ED400102D982EAFB70030212E7C0053
:10C660000A2D052E69F72DBD2FB980B2012F212E7D
:10C670007D00232E7C00E031212E61F5F66FE76FFF
:10C68000806FA26FB36FC46FD56F7B6F916F405F88
:10C69000C82E60510A253688F47FEB7F0032315274
:10C6A00032301330982E15CB0A253384D27F433095
:10C6B00005502D52982E95C1D26F2752982ED7C76C
:10C6C0002A25B086C07FD37FAF842950F16F982E82
:10C6D0004DC82A25AE8AAA88F26E2B50C16FD36F3F
:10C6E000F47F982EB6C8E06E00B2322F33548386A2
:10C6F000F16FC37F04303030F47FD07FB27FE330FE
:10C70000C56F56404541280803140EB408BC82404A
:10C71000100A2F542605917F4428A37F982ED9C054
:10C7200008B933305309C16FD36FF46F8317474093
:10C730006C15B26FBE09750B90424542510E32BC6A
:10C740000289A16F7E86F47FD07FB27F0430916F23
:10C75000D62FEB6FA05EB82E032E97001BBC605047
:10C760009FBC0CB8F07F40B2EB7F2B2F032E7F00D5
:10C770004140012EC800011A112F3758232EC8003E
:10C780001041A07F38810141D07FB17F982E64CFC6
:10C79000D06F0780A16F1142002EB16F014211309E
:10C7A000012EFC0000A80330CB224A25012E7F0079
:10C7B0003C8935520554982EC4CEC16FF06F982E27
:10C7C00095CF042D0130F06F982E95CFEB6FA05FC1
:10C7D000B82E032EB3000232F030033130508A08F5
:10C7E0000808CB08E07F80B2F37FDB7F252F032E84
:10C7F000CA004190042F0130232ECA00982E3F0317
:10C80000C0B2052F032EDA0000304104232EDA00D7
:10C81000982E92B21025F06F00B2052F012EDA008B
:10C8200002301004212EDA0040B2012F232EC8015D
:10C83000DB6FE06FD05F802E95CF0130E06F982ED8
:10C8400095CF1130232ECA00DB6FD05FB82ED050A9
:10C850000A2533845550D27FE27F038CC07FBB7F93
:10C860000030055A39545141A57F967F807F982E1C
:10C87000D9C00530F57F2025916F3B583D5C3B5674
:10C88000982E67CCC16FD56F52405043C17FD57F82
:10C890001025982EFEC91025982E74C0866F30285A
:10C8A000926F828CA56F6F52690E3954DB2F19A0DD
:10C8B0001530032F0030212E81010A2D012E810118
:10C8C00005284236212E8101020E012F982EF303F6
:10C8D000575012300140982EFEC9516F0B5C8E0EDE
:10C8E0003B6F57580230212E9501456F2A8DD27F1C
:10C8F000CB7F132F02303F50D27FA80E0E2FC06F78
:10C90000535402005154420E103059520230012F3C
:10C91000002E032D504242421230D27F80B2032FAC
:10C920000030212E8001122D012EC9000280052E1B
:10C930008001113091280040252E8001100E052F16
:10C94000012E7F010190012F982EF303002EA041AC
:10C950000190A67F902EE3B4012E950100A8902EA1
:10C96000E3B45B549580824080B202402D8C3F52EC
:10C97000967F902EC2B3290E762F012EC90000405B
:10C9800081284552B330982E0FCA5D54807F002E07
:10C99000A140727F82808240607F982EFEC9102560
:10C9A000982E74C0626F05308740C0910430052F07
:10C9B000052E830180B21430002F0430052EC900EB
:10C9C000736F8140E2406904110FE1401630FE2987
:10C9D000CB40022F836F830F222F4756130F123045
:10C9E000772F4954420E1230732F00910A2F012ED7
:10C9F0008B0119A802306C2F6350002E174205429C
:10CA0000682C12300B25080F5030022F212E830185
:10CA1000032D4030212E83012B2E85015A2C1230FC
:10CA200000912B25042F635002301742172C02422D
:10CA3000982EFEC91025982E74C0052EC900818439
:10CA40005B308240372E8301020E072F5F52403049
:10CA500062404140910E012F212E830105302B2E83
:10CA600085011230362C16301525817F982EFEC98F
:10CA70001025982E74C019A21630152F052E970177
:10CA8000806F820E052F012E86010628212E860139
:10CA90000B2D032E87015F544E289142002E8240B9
:10CAA000900E012F212E88010230132C0530C06F0B
:10CAB000081CA80F163005305B50092F02802D2E60
:10CAC000820105420580002E02423E80002E064271
:10CAD0000230906F3E88014004414C28014207809B
:10CAE00010252440004000A8F522232944427A82E0
:10CAF0007E884340044100ABF523DF284342D9A0A0
:10CB0000142F0090022FD26F81B2052F6354062894
:10CB100090428542092C02305B500380292E7E0111
:10CB20002B2E8201054212302B2E83014582002ECE
:10CB300040407A8202A0082F63503B3015420542E4
:10CB40003780372E7E0105421230012EC900028C3B
:10CB5000404084417A8C040F032F012E8B0119A4CD
:10CB6000042F2B2E8201982EF303123081906152F4
:10CB7000082F6542654243803984828805424542D8
:10CB800085420543002E80410090902EE1B465540B
:10CB9000C16F804000B243586950442F555CB7873D
:10CBA0008C0F0D2E9601C440362F41568B0E2A2F26
:10CBB0000B52A10E0A2F052E8F011425982EFEC9A7
:10CBC0004B54020F695005306554152F032E8E010A
:10CBD0004D5C8E0F3A2F052E8F01982EFEC94F54B3
:10CBE000820F053069506554302F6D521530428CDC
:10CBF000454204302B2C84436B52428C002E8543DB
:10CC00001530242C45428E0F202F0D2E8E01B10E93
:10CC10001C2F232E8E011A2D0E0E172FA10F152F4C
:10CC2000232E8D01132D982E74C04354C20E0A2F4B
:10CC3000655004800B3006820B42798041401230EF
:10CC4000252E8C010142053069506554848243844D
:10CC5000BE8C8440864126299442BE8ED57F19A180
:10CC600043400B2E8C018440C7415D292729454252
:10CC70008442C27F012FC0B31D2F052E940199A0BD
:10CC8000012F80B3132F80B3182FC0B3162F12407B
:10CC90000140927F982E74C0926F100F2030032FA6
:10CCA0001030212E7E010A2D212E7E01072D2030ED
:10CCB000212E7E01032D1030212E7E01C26F012E08
:10CCC000C900BC84028082400040900ED56F022FC4
:10CCD0001530982EF30341910530072F67503D80A2
:10CCE0002B2E8F0105420480002E0542022C0030BD
:10CCF0000030A26F988A864080A7052F982EF303F4
:10CD0000C030212E950106251A25E26F76829640C5
:10CD10005643510EFB2FBB6F305FB82E012EB8006B
:10CD20000131410840B22050F2300208FB7F01304F
:10CD3000102F052ECC008190E07F032F232ECC00F6
:10CD4000982E55B6982E1DB51025FB6FE06FE05F4D
:10CD5000802E95CF982E95CF1030212ECC00FB6FD2
:10CD6000E05FB82E00510558EB7F2A2589526F5A93
:10CD7000895013410640B3011642CB160640F30218
:10CD80001342650EF52F054014302C29044208A1EA
:10CD90000030902E52B6B388B08AB684A47FC47F88
:10CDA000B57FD57F927F73300430554042408A175B
:10CDB000F3086B01900253B84B82ADBE717F450AF8
:10CDC0000954847F982ED9C0A36F7B54D042A37F8F
:10CDD000F27F607F2025716F755A7758795C7556A0
:10CDE000982E67CCB16F626F5042B17FB33010257F
:10CDF000982E0FCA846F2029716F926FA56F76826B
:10CE00006A0E73300030D02FD26FD17FB47F982E4E
:10CE10002BB715BD0BB8020AC26FC07F982E2BB777
:10CE200015BD0BB8420AC06F081741188916E118E2
:10CE3000D018A17F27251625982E79C08B54907F76
:10CE4000B330824080900D2F7D52926F982E0FCA82
:10CE5000B26F900E062F8B501430426F516F1442F8
:10CE600012420142002E316F982E74C0416F807FB4
:10CE7000982E74C0826F10044352010F052ECB0010
:10CE800000300430212F516F43588C0E04301C2F7A
:10CE90008588416F04418C0F0430162F8488002E42
:10CEA000044104058C0E04300F2F8288316F044139
:10CEB00004058C0E0430082F8388002E04418C0F4B
:10CEC0000430022F212EAD0114300091142F032EB7
:10CED000A10141900E2F032EAD0114304C28232EBA
:10CEE000AD0146A0062F81848D5248828240212EBA
:10CEF000A10142425C2C0230052EAA0180B2023010
:10CF0000552F032EA901926FB330982E0FCAB26F1E
:10CF1000900F003002304A2FA26F87529100855245
:10CF2000510E022F002E432C0230C26F7F52910E01
:10CF300002303C2F516F8154982EFEC91025B3301A
:10CF40002125982E0FCA326FC07FB3301225982E3C
:10CF50000FCA426FB07FB3301225982E0FCAB26F3E
:10CF600090288352982EFEC9C26F900F0030023075
:10CF70001D2F052EA10180B212300F2F426F032EFC
:10CF8000AB01910E0230122F526F032EAC01910FA4
:10CF900002300C2F212EAA010A2C1230032ECB00B6
:10CFA0008D580889414011430043252EA101D46FBB
:10CFB0008F5200433A89002E10431043610EFB2F1D
:10CFC000032EA001111A022F0225212EA001EB6FC2
:10CFD000005FB82E915210300230955652424B0EDF
:10CFE000FC2F8D54888293568042534240424286A1
:10CFF0008354C02EC242002EA352005152404740DB
:10D000001A25012E97008FBE7286FB7F0B307CBFE6
:10D01000A5501008DFBA7088F8BFCB42D37F6CBB35
:10D02000FCBBC50A907F1B7F0B43C0B2E57FB77F77
:10D03000A67FC47F902E1CB7072ED200C0B20B2F44
:10D040009752012ECD00827F982EBBCC0B30372E0D
:10D05000D200826F906F1A2500B28B7F142FA6BD6D
:10D0600025BDB6B92FB980B2D4B00C2F99549B56B8
:10D070000B300B2EB100A1589B42DB426C092B2ECA
:10D08000B1008B42CB42867F7384A756C3083952C6
:10D090000550727F637F982EC2C0E16F626FD10A24
:10D0A000012ECD00D56FC46F726F97529D5C982E84
:10D0B00006CD236F906F9952C0B204BD5440AFB9F2
:10D0C0004540E17F0230062FC0B20230032F9B5C47
:10D0D00012309443854303BF6FBB80B3202F066F8C
:10D0E0002601166F6E034542C090292ECE009B523A
:10D0F000142F9B5C002E93418641E304AE0780AB66
:10D10000042F80910A2F866F730F072F836FC0B291
:10D11000042F544245421230042C1130022C11309D
:10D12000113002BC0FB8D27F00B20A2F012EFC00D2
:10D13000052EC701101A022F212EC701032D022C24
:10D1400001300130B06F982E95CFD16FA06F982E1F
:10D1500095CFE26F9F52012ECE00824050420C2CA0
:10D1600042421130232ED2000130B06F982E95CF5D
:10D17000A06F0130982E95CF002EFB6F005FB82E68
:10D18000838601300030944024180600530E4F026D
:10D19000F92FB82EA952002E604041400DBC98BC1A
:10D1A000C02E010A0FB8AB52533C524040404B00D6
:10D1B000821626B901B84140100897B80108C02E60
:10D1C00011300108438625400440D8BE2C0B2211A3
:10D1D000544203804B0EF62FB82E9F501050AD5284
:10D1E000052ED300FB7F002E13409342410EFB2FF0
:10D1F000982EA5B7982E87CF012ED90000B2FB6FCD
:10D200000B2F012E69F7B13F01080130F05F232E8B
:10D21000D900212E69F7802E7AB7F05FB82E012E43
:10D22000C0F8032EFCF51554AF5682080B2E69F793
:10D23000CB0AB1588090DDBE4C085FB9592280906E
:10D24000072F0334C308F23A0A080235C0904A0A8D
:10D250004822C02E232EFCF51050FB7F982E56C777
:10D26000982E49C31030FB6FF05F212ECC00212E89
:10D27000CA00B82E032ED30016B802344A0C212E51
:10D280002DF5C02E232ED30003BC212ED500032E56
:10D29000D50040B21030212E77000130052F052E29
:10D2A000D8008090012F232E6FF5C02E212ED9009B
:10D2B00011308108012E6AF7713F23BD0108020A6F
:10D2C000C02E212E6AF730250030212E5AF510503D
:10D2D000212E7B00212E7C00FB7F982EC3B740308F
:10D2E000212ED400FB6FF05F0325802EAFB7802E78
:10D2F00000C1802E00C1802E00C1802E00C1802E72
:10D3000000C1802E00C1802E00C1802E00C1802E61
:10D3100000C1802E00C1802E00C1802E00C1802E51
:10D3200000C1802E00C1802E00C1012E5DF708BC17
:10D3300080AC0EBB022F003041048206C0A4003036
:10D34000112F40A9032F40910D2F00A70B2F80B361
:10D35000B358022F90A12613202380901030012F64
:10D36000CC0E002F0030B82EB550180808BC88B677
:10D370000D17C6BD56BCB758DABA04011D0A1050C5
:10D38000053032254503FB7FF6302125982E37CA1C
:10D3900016B59ABC06B880A8410A0E2F8090022FBD
:10D3A0002D50480F092FBFA0042FBF90062FB75450
:10D3B000CA0F032F002E022CB7522D52F233982E93
:10D3C000D9C0FB6FF137C02E0108F05FBF56B954CA
:10D3D000D040C4400B2EFDF3BF5290429442954280
:10D3E0000530C1500F88064004419642C54248BEF0
:10D3F00073300D2ED8004FBA8442034281B3022FFE
:10D400002B2E6FF5062D052E77F7BD569308252E8A
:10D4100077F7BB54252EC2F5072EFDF34230B43307
:10D42000DA0A4C00272EFDF34340D43FDC08434288
:10D43000002E002E43402430DC0A43420480032E99
:10D44000FDF34A0A232EFDF36134C02E0142002E63
:10D4500060501A257A86E07FF37F0325C35241840A
:10D46000DB7F3330982E16C21A257D82F06FE26F73
:10D47000322516409440260185408E17C4426E0323
:10D480009542410EF42FDB6FA05FB82EB051FB7FA9
:10D49000982EE80D5A25982E0F0ECB583287C47F50
:10D4A00065896B8DC55A657FE17F837FA67F747F19
:10D4B000D07FB67F947F1730C752C954517F002E5A
:10D4C000856F427F002E51414581424113403B8A86
:10D4D00000404B04D006C0AC857F022F02305104BF
:10D4E000D306418405305D02C916DF08D3008D02E2
:10D4F000AFBCB1B9590A656F1143A1B45241534150
:10D500000143347F657F2631E56FD46F982E37CA8B
:10D51000326F756F83404241237F127FF630402582
:10D520005125982E37CA146F2005706F256F690733
:10D53000A26F316F0B3004429B428B425542327FC7
:10D5400040A9C36F717F0230D040C37F032F409149
:10D55000152F00A7132F00A4112F84BD982E79CA70
:10D56000556FB75454418200F33F4541CB02F6302A
:10D57000982E37CA356FA46F4143032C0043A46F24
:10D58000356F1730426F516F934042820041C300A4
:10D590000343517F002E944041414C02C46FD15649
:10D5A000630E746F5143A57F8A2F092ED80001B3F3
:10D5B000212FCB58906F1341B66FE47F002E91411D
:10D5C000144092411540172E6FF5B67FD07FCB7F68
:10D5D000982E000C0715C26F140B292E6FF5C3A3EC
:10D5E000C18FE46FD06FE62F1430052E6FF5140B4A
:10D5F000292E6FF5182DCD560432B56F1C015141FF
:10D600005241C340B57FE47F982E1F0CE46F218701
:10D6100000430432CF545A0EEF2F1554092E77F7DA
:10D62000220B292E77F7FB6F505EB82E1050012E7B
:10D63000D40000B2FB7F512F01B2482F02B2422F1B
:10D640000390562FD7527980424081840040424255
:10D65000982E930CD954D750A14098BD82403E8259
:10D66000DA0A44408B16E3005342002E43409A02EC
:10D670005242002E414015544A0E3A2F3A82003051
:10D680004140212E850F40B20A2F982EB10C982EC2
:10D69000450E982E5B0EFB6FF05F0030802ECEB7EC
:10D6A000DD52D35442424F847330DB5283421B30ED
:10D6B0006B422330272ED700372ED400212ED600E0
:10D6C0007A84172C42423030212ED400122D213082
:10D6D0000030232ED400212E7BF70B2D1730982EEF
:10D6E000510CD5500C8272302F2ED400252E7BF792
:10D6F0004042002EFB6FF05FB82E70500A2539862D
:10D70000FB7FE1326230982EC2C4B556A56FAB08DC
:10D71000916F4B08DF56C46F23094DBA93BC8C0B35
:10D72000D16F0B09CB52E15E5642AF094DBA23BD12
:10D73000940AE56F68BBEB08BDB963BEFB6F52424C
:10D74000E30AC02E4342905FD150032E25F31340CD
:10D7500000409BBC9BB408BDB8B998BCDA0A08B6B7
:10D760008916C02E190062021050FB7F982E810D81
:10D77000012ED40031300804FB6F0130F05F232EFE
:10D78000D600212ED700B82E012ED700032ED600AA
:10D79000480E012F802E1F0EB82EE3502134014277
:10D7A0008230C132252E62F50100223001404A0A42
:10D7B0000142B82EE354F03B8340D808E55283423F
:10D7C000003083305042C432272E64F5940050421A
:10D7D0004042D33F84407D82E30840428342B82EDA
:10D7E000DD52003040427C86B952092E700FBF5482
:10D7F000C442D3865440554094428542212ED700DE
:10D800004240252EFDF3C0427E82052E7D0080B26F
:10D81000142F052E890027BD2FB98090022F212EAD
:10D820006FF50C2D072E710F14301C09052E77F79C
:10D83000BD5647BE9308940A252E77F7E754504209
:10D840004A0EFC2FB82E505002304386E550FB7F25
:10D85000E37FD27FC07FB17F002E4140004048046B
:10D86000982E74C01EAAD36F1430B16FE322C06F1C
:10D870005240E46F4C0E1242D37FEB2F032E860FE3
:10D8800040901130032F232E860F022C0030D06FD2
:10D89000FB6FB05FB82E4050F17F0A253C86EB7FCE
:10D8A00041332230982EC2C4D36FF430DC0947587C
:10D8B000C26F9409EB586ABBDC08B4B9B1BDE95A30
:10D8C000950821BDF6BF770B51BEF16FEB6F524249
:10D8D0005442C02E4342C05F5050F5503130114287
:10D8E000FB7F7B300B421130028023330142030067
:10D8F000072E8003052ED3002352E27FD37FC07F03
:10D90000982EB60ED16F080A1A257B86D07F013378
:10D910001230982EC2C4D16F080A00B20D2FE36FE7
:10D92000012E80035130C786232E21F208BCC0424D
:10D93000982EA5B7002E002ED02EB06F0BB8032E58
:10D940001B00081AB07F7030042F212E21F2002E08
:10D95000002ED02E982E6DC0982E5DC0ED50982EC2
:10D9600044CBEF50982E46C3F150982E53C73550F4
:10D97000982E64CF1030982EDC032026C06F023121
:10D980001242AB330B42378001300142F337F7527A
:10D99000FB504440A20A42428B31092E5EF7F954F3
:10D9A000E30883421B4223334B00BC840B403330DB
:10D9B00083420B42E07FD17F982E58B7D16F8030E1
:10D9C00040420330E06FF3540430002E002E0189F2
:10D9D000620EFA2F43421130FB6FC02E0142B05F3E
:10D9E000C14A00006D570000778E0000E0FFFFFF86
:10D9F000D3FFFFFFE5FFFFFFEEE1FFFF7C13000019
:10DA000046E6FFFF000000000000000000000000EC
:10DA10000000000000000000000000000000000006
:10DA200000000000000000000000000000000000F6
:10DA30000000000000000000000000000000802E38
:10DA400000C1802E00C1802E00C1802E00C1802E1A
:10DA500000C1802E00C1802E00C1802E00C1802E0A
:10DA600000C1802E00C1802E00C1802E00C1802EFA
:10DA700000C1802E00C1802E00C1802E00C1802EEA
:10DA800000C1802E00C1802E00C1802E00C1802EDA
:10DA900000C1802E00C1802E00C1802E00C1802ECA
:10DAA00000C1802E00C1802E00C1802E00C1802EBA
:10DAB00000C1802E00C1802E00C1802E00C1802EAA
:10DAC00000C1802E00C1802E00C1802E00C1802E9A
:10DAD00000C1802E00C1802E00C1802E00C1802E8A
:10DAE00000C1802E00C1802E00C1802E00C1802E7A
:10DAF00000C1802E00C1802E00C1802E00C1802E6A
:10DB000000C1802E00C1802E00C1802E00C1802E59
:10DB100000C1802E00C1802E00C1802E00C1802E49
:10DB200000C1802E00C1802E00C123010229010303
:10DB30002A01032501042101052B01050901060421
:10DB4000010C0502000302041C030006060207067E
:10DB50000208060213060614070007000008000466
:10DB600013000609000828000C26000E27000E00EE
:10DB700044DD0008654C00080000000000000000C3
:10DB80000001000000000000000000001CDD000893
:10DB9000414C000800000000000000008000000070
:10DBA000000000000000000028DD0008254D0008EE
:10DBB00000000000000000008000000000000000E5
:10DBC0000000000010DD0008E94C0008FFFF000025
:10DBD0000000000000010000000000000000000044
:10DBE00034DD0008C14D0008000000000000000006
:10DBF0000001000000000000000000000000000024
:10DC000000000000010203040607080900000000EC
:10DC100001020304000610160006101600000000A2
:10DC2000555555555555C53F7D6FEB0312D6D4BF9D
:10DC30005544880E55C1C93F3B8F68B52882A4BFA3
:10DC400088B20175E0EF493F09F7FD0DE13D023F64
:10DC50004B2D8A1C273A03C0C88A599CE52A0040EC
:10DC600059018D1B6C06E6BF82922EB1C5B8B33F39
:10DC70004FBB610567ACDD3F182D4454FB21E93FE4
:10DC80009BF681D20B73EF3F182D4454FB21F93FD3
:10DC9000E2652F227F2B7A3C075C143326A6813C59
:10DCA000BDCBF07A8807703C075C143326A6913C04
:10DCB000C4EB98999999C9BF711623FEC671BCBF70
:10DCC0006D9A74AFF2B0B3BF9AFDDE522DDEADBFD8
:10DCD0002F6C6A2C44B4A2BF0D5555555555D53FF0
:10DCE000FF8300922449C23F6E204CC5CD45B73F0B
:10DCF000513DD0A0660DB13FEB0D76244B7BA93F83
:10DD000011DA22E33AAD903F00000000000000006D
:10DD100053656E645461736B00000000436F6E7452
:10DD2000726F6C5461736B0053797374656D5461D9
:10DD3000736B000072704D6F6E69746F7254617313
:10DD40006B0000004D6F6E69746F725461736B00ED
:10DD500070DD000800000020C4060000EA0800088A
:10DD6000F0DE0008C40600205C4E00009861000848
:10DD700001210223017924432041256F12033A0334
:10DD80005C803F021969123C1ABA894113618B1BEE
:10DD9000089904133D8A1B088F0429A71AB5081A8D
:10DDA000771402200222321AFC481AF804130D815B
:10DDB0001B08AD0413C3801B08070899F1117A01F1
:10DDC00049120213DB101B08B9041AC504135111C0
:10DDD0001408A5121408E9131B08A9041A4D0479A4
:10DDE0002A0931340A3103340A310434A1021332CE
:10DDF000092814130802142038011420ED6E1408A9
:10DE0000296F1B0883081ACB041A018C1A1C1C0AE0
:10DE1000136C1C12031A301C0A13A01C12041A449F
:10DE20001C0A13D41C120522D41B201C1C1A5824B3
:10DE30001A74041A90041AAC04011607193841FC2C
:10DE4000A9F13E14A08C460410401C4645CDCC0CD4
:10DE50003F0D186F12033C3CFA0C3809FD74094F52
:10DE6000741358021B2074041A90041AAC04131C77
:10DE7000012320D41B20E40C13CC041B20B4041A6F
:10DE8000E00C41132115420813A3164C08ED140CA5
:10DE90001A210C29301368091420E5881408218CF4
:10DEA0001B08F108139D8D1B08E1041ADD041AD923
:10DEB000041A7D141AA104130D8A1B0829041A25BB
:10DEC000041A210441021F01720313F00A33205483
:10DED00013B7561B08E9041B4D5744029E81520597
:10DEE0000226141324F432010267101AAA01011049
:040000050800018965
:00000001FF
