Component: ARM Compiler 5.06 update 6 (build 750) Tool: armlink [4d35ed]

==============================================================================

Section Cross References

    startup_stm32f407xx.o(RESET) refers to startup_stm32f407xx.o(STACK) for __initial_sp
    startup_stm32f407xx.o(RESET) refers to startup_stm32f407xx.o(.text) for Reset_Handler
    startup_stm32f407xx.o(RESET) refers to stm32f4xx_it.o(i.NMI_Handler) for NMI_Handler
    startup_stm32f407xx.o(RESET) refers to stm32f4xx_it.o(i.HardFault_Handler) for HardFault_Handler
    startup_stm32f407xx.o(RESET) refers to stm32f4xx_it.o(i.MemManage_Handler) for MemManage_Handler
    startup_stm32f407xx.o(RESET) refers to stm32f4xx_it.o(i.BusFault_Handler) for BusFault_Handler
    startup_stm32f407xx.o(RESET) refers to stm32f4xx_it.o(i.UsageFault_Handler) for UsageFault_Handler
    startup_stm32f407xx.o(RESET) refers to port.o(.emb_text) for SVC_Handler
    startup_stm32f407xx.o(RESET) refers to stm32f4xx_it.o(i.DebugMon_Handler) for DebugMon_Handler
    startup_stm32f407xx.o(RESET) refers to port.o(i.SysTick_Handler) for SysTick_Handler
    startup_stm32f407xx.o(RESET) refers to stm32f4xx_it.o(i.DMA1_Stream0_IRQHandler) for DMA1_Stream0_IRQHandler
    startup_stm32f407xx.o(RESET) refers to stm32f4xx_it.o(i.DMA1_Stream2_IRQHandler) for DMA1_Stream2_IRQHandler
    startup_stm32f407xx.o(RESET) refers to stm32f4xx_it.o(i.DMA1_Stream5_IRQHandler) for DMA1_Stream5_IRQHandler
    startup_stm32f407xx.o(RESET) refers to stm32f4xx_it.o(i.CAN1_RX0_IRQHandler) for CAN1_RX0_IRQHandler
    startup_stm32f407xx.o(RESET) refers to stm32f4xx_it.o(i.TIM2_IRQHandler) for TIM2_IRQHandler
    startup_stm32f407xx.o(RESET) refers to stm32f4xx_it.o(i.USART1_IRQHandler) for USART1_IRQHandler
    startup_stm32f407xx.o(RESET) refers to stm32f4xx_it.o(i.USART2_IRQHandler) for USART2_IRQHandler
    startup_stm32f407xx.o(RESET) refers to stm32f4xx_it.o(i.UART4_IRQHandler) for UART4_IRQHandler
==============================================================================

Removing Unused input sections from the image.

    Removing drv_io.o(.rev16_text), (4 bytes).
    Removing drv_io.o(.revsh_text), (4 bytes).
    Removing drv_io.o(.rrx_text), (6 bytes).
    Removing drv_can.o(.rev16_text), (4 bytes).
    Removing drv_can.o(.revsh_text), (4 bytes).
    Removing drv_can.o(.rrx_text), (6 bytes).
    Removing drv_can.o(i.CAN1_rxDataHandler), (2 bytes).
    Removing drv_can.o(i.CAN2_rxDataHandler), (2 bytes).
    Removing drv_can.o(.bss), (32 bytes).
    Removing drv_can.o(.bss), (32 bytes).
    Removing drv_tim.o(.rev16_text), (4 bytes).
    Removing drv_tim.o(.revsh_text), (4 bytes).
    Removing drv_tim.o(.rrx_text), (6 bytes).
    Removing drv_tim.o(i.COVER_PwmOut), (12 bytes).
    Removing drv_uart.o(.rev16_text), (4 bytes).
    Removing drv_uart.o(.revsh_text), (4 bytes).
    Removing drv_uart.o(.rrx_text), (6 bytes).
    Removing drv_uart.o(i.USART1_rxDataHandler), (2 bytes).
==============================================================================

Image Symbol Table

    Local Symbols

    Symbol Name                              Value     Ov Type        Size  Object(Section)

    ../Core/Src/adc.c                        0x00000000   Number         0  adc.o ABSOLUTE
    ../Core/Src/can.c                        0x00000000   Number         0  can.o ABSOLUTE
    ../Core/Src/dac.c                        0x00000000   Number         0  dac.o ABSOLUTE
    ../Core/Src/dma.c                        0x00000000   Number         0  dma.o ABSOLUTE
    ../Core/Src/freertos.c                   0x00000000   Number         0  freertos.o ABSOLUTE
    ../Core/Src/gpio.c                       0x00000000   Number         0  gpio.o ABSOLUTE
    ../Core/Src/main.c                       0x00000000   Number         0  main.o ABSOLUTE
    ../Core/Src/stm32f4xx_hal_msp.c          0x00000000   Number         0  stm32f4xx_hal_msp.o ABSOLUTE
    ../Core/Src/stm32f4xx_hal_timebase_tim.c 0x00000000   Number         0  stm32f4xx_hal_timebase_tim.o ABSOLUTE
    ../Core/Src/stm32f4xx_it.c               0x00000000   Number         0  stm32f4xx_it.o ABSOLUTE
    ../Core/Src/system_stm32f4xx.c           0x00000000   Number         0  system_stm32f4xx.o ABSOLUTE
    ../Core/Src/tim.c                        0x00000000   Number         0  tim.o ABSOLUTE
    ../Core/Src/usart.c                      0x00000000   Number         0  usart.o ABSOLUTE
    ../Drivers/STM32F4xx_HAL_Driver/Src/stm32f4xx_hal.c 0x00000000   Number         0  stm32f4xx_hal.o ABSOLUTE
    ../Drivers/STM32F4xx_HAL_Driver/Src/stm32f4xx_hal_adc.c 0x00000000   Number         0  stm32f4xx_hal_adc.o ABSOLUTE
    ../Drivers/STM32F4xx_HAL_Driver/Src/stm32f4xx_hal_adc_ex.c 0x00000000   Number         0  stm32f4xx_hal_adc_ex.o ABSOLUTE
    ../Drivers/STM32F4xx_HAL_Driver/Src/stm32f4xx_hal_can.c 0x00000000   Number         0  stm32f4xx_hal_can.o ABSOLUTE
    ../Drivers/STM32F4xx_HAL_Driver/Src/stm32f4xx_hal_cortex.c 0x00000000   Number         0  stm32f4xx_hal_cortex.o ABSOLUTE
    ../Drivers/STM32F4xx_HAL_Driver/Src/stm32f4xx_hal_dac.c 0x00000000   Number         0  stm32f4xx_hal_dac.o ABSOLUTE
    ../Drivers/STM32F4xx_HAL_Driver/Src/stm32f4xx_hal_dac_ex.c 0x00000000   Number         0  stm32f4xx_hal_dac_ex.o ABSOLUTE
    ../Drivers/STM32F4xx_HAL_Driver/Src/stm32f4xx_hal_dma.c 0x00000000   Number         0  stm32f4xx_hal_dma.o ABSOLUTE
    ../Drivers/STM32F4xx_HAL_Driver/Src/stm32f4xx_hal_dma_ex.c 0x00000000   Number         0  stm32f4xx_hal_dma_ex.o ABSOLUTE
    ../Drivers/STM32F4xx_HAL_Driver/Src/stm32f4xx_hal_exti.c 0x00000000   Number         0  stm32f4xx_hal_exti.o ABSOLUTE
    ../Drivers/STM32F4xx_HAL_Driver/Src/stm32f4xx_hal_flash.c 0x00000000   Number         0  stm32f4xx_hal_flash.o ABSOLUTE
    ../Drivers/STM32F4xx_HAL_Driver/Src/stm32f4xx_hal_flash_ex.c 0x00000000   Number         0  stm32f4xx_hal_flash_ex.o ABSOLUTE
    ../Drivers/STM32F4xx_HAL_Driver/Src/stm32f4xx_hal_flash_ramfunc.c 0x00000000   Number         0  stm32f4xx_hal_flash_ramfunc.o ABSOLUTE
    ../Drivers/STM32F4xx_HAL_Driver/Src/stm32f4xx_hal_gpio.c 0x00000000   Number         0  stm32f4xx_hal_gpio.o ABSOLUTE
    ../Drivers/STM32F4xx_HAL_Driver/Src/stm32f4xx_hal_pwr.c 0x00000000   Number         0  stm32f4xx_hal_pwr.o ABSOLUTE
    ../Drivers/STM32F4xx_HAL_Driver/Src/stm32f4xx_hal_pwr_ex.c 0x00000000   Number         0  stm32f4xx_hal_pwr_ex.o ABSOLUTE
    ../Drivers/STM32F4xx_HAL_Driver/Src/stm32f4xx_hal_rcc.c 0x00000000   Number         0  stm32f4xx_hal_rcc.o ABSOLUTE
    ../Drivers/STM32F4xx_HAL_Driver/Src/stm32f4xx_hal_rcc_ex.c 0x00000000   Number         0  stm32f4xx_hal_rcc_ex.o ABSOLUTE
    ../Drivers/STM32F4xx_HAL_Driver/Src/stm32f4xx_hal_tim.c 0x00000000   Number         0  stm32f4xx_hal_tim.o ABSOLUTE
    ../Drivers/STM32F4xx_HAL_Driver/Src/stm32f4xx_hal_tim_ex.c 0x00000000   Number         0  stm32f4xx_hal_tim_ex.o ABSOLUTE
    ../Drivers/STM32F4xx_HAL_Driver/Src/stm32f4xx_hal_uart.c 0x00000000   Number         0  stm32f4xx_hal_uart.o ABSOLUTE
    ../Drivers/STM32F4xx_HAL_Driver/Src/stm32f4xx_ll_adc.c 0x00000000   Number         0  stm32f4xx_ll_adc.o ABSOLUTE
    ../Middlewares/Third_Party/FreeRTOS/Source/CMSIS_RTOS/cmsis_os.c 0x00000000   Number         0  cmsis_os.o ABSOLUTE
    ../Middlewares/Third_Party/FreeRTOS/Source/croutine.c 0x00000000   Number         0  croutine.o ABSOLUTE
    ../Middlewares/Third_Party/FreeRTOS/Source/event_groups.c 0x00000000   Number         0  event_groups.o ABSOLUTE
    ../Middlewares/Third_Party/FreeRTOS/Source/list.c 0x00000000   Number         0  list.o ABSOLUTE
    ../Middlewares/Third_Party/FreeRTOS/Source/portable/MemMang/heap_4.c 0x00000000   Number         0  heap_4.o ABSOLUTE
    ../Middlewares/Third_Party/FreeRTOS/Source/portable/RVDS/ARM_CM4F/port.c 0x00000000   Number         0  port.o ABSOLUTE
    ../Middlewares/Third_Party/FreeRTOS/Source/queue.c 0x00000000   Number         0  queue.o ABSOLUTE
    ../Middlewares/Third_Party/FreeRTOS/Source/stream_buffer.c 0x00000000   Number         0  stream_buffer.o ABSOLUTE
    ../Middlewares/Third_Party/FreeRTOS/Source/tasks.c 0x00000000   Number         0  tasks.o ABSOLUTE
    ../Middlewares/Third_Party/FreeRTOS/Source/timers.c 0x00000000   Number         0  timers.o ABSOLUTE
    ../clib/../cmprslib/zerorunl2.c          0x00000000   Number         0  __dczerorl2.o ABSOLUTE
    ../clib/microlib/division.c              0x00000000   Number         0  uldiv.o ABSOLUTE
    ../clib/microlib/errno.c                 0x00000000   Number         0  errno.o ABSOLUTE
    ../clib/microlib/init/entry.s            0x00000000   Number         0  entry2.o ABSOLUTE
    ../clib/microlib/init/entry.s            0x00000000   Number         0  entry5.o ABSOLUTE
    ../clib/microlib/init/entry.s            0x00000000   Number         0  entry7a.o ABSOLUTE
    ../clib/microlib/init/entry.s            0x00000000   Number         0  entry7b.o ABSOLUTE
    ../clib/microlib/init/entry.s            0x00000000   Number         0  entry8a.o ABSOLUTE
    ../clib/microlib/init/entry.s            0x00000000   Number         0  entry8b.o ABSOLUTE
    ../clib/microlib/init/entry.s            0x00000000   Number         0  entry9a.o ABSOLUTE
    ../clib/microlib/init/entry.s            0x00000000   Number         0  entry9b.o ABSOLUTE
    ../clib/microlib/init/entry.s            0x00000000   Number         0  entry10a.o ABSOLUTE
    ../clib/microlib/init/entry.s            0x00000000   Number         0  entry10b.o ABSOLUTE
    ../clib/microlib/init/entry.s            0x00000000   Number         0  entry11a.o ABSOLUTE
    ../clib/microlib/init/entry.s            0x00000000   Number         0  entry11b.o ABSOLUTE
    ../clib/microlib/init/entry.s            0x00000000   Number         0  entry.o ABSOLUTE
    ../clib/microlib/longlong.c              0x00000000   Number         0  llshl.o ABSOLUTE
    ../clib/microlib/longlong.c              0x00000000   Number         0  llsshr.o ABSOLUTE
    ../clib/microlib/longlong.c              0x00000000   Number         0  llushr.o ABSOLUTE
    ../clib/microlib/malloc/malloc.c         0x00000000   Number         0  mallocr.o ABSOLUTE
    ../clib/microlib/malloc/malloc.c         0x00000000   Number         0  malloca.o ABSOLUTE
    ../clib/microlib/malloc/malloc.c         0x00000000   Number         0  mallocra.o ABSOLUTE
    ../clib/microlib/malloc/malloc.c         0x00000000   Number         0  malloc.o ABSOLUTE
    ../clib/microlib/malloc/mvars.c          0x00000000   Number         0  mvars.o ABSOLUTE
    ../clib/microlib/string/memcpy.c         0x00000000   Number         0  memcpya.o ABSOLUTE
    ../clib/microlib/string/memcpy.c         0x00000000   Number         0  memcpyb.o ABSOLUTE
    ../clib/microlib/string/memset.c         0x00000000   Number         0  memseta.o ABSOLUTE
    ../clib/microlib/string/memset.c         0x00000000   Number         0  memset.o ABSOLUTE
    ../clib/microlib/stubs.s                 0x00000000   Number         0  iusefp.o ABSOLUTE
    ../fplib/microlib/d2f.c                  0x00000000   Number         0  d2f.o ABSOLUTE
    ../fplib/microlib/f2d.c                  0x00000000   Number         0  f2d.o ABSOLUTE
    ../fplib/microlib/fpadd.c                0x00000000   Number         0  dadd.o ABSOLUTE
    ../fplib/microlib/fpdiv.c                0x00000000   Number         0  ddiv.o ABSOLUTE
    ../fplib/microlib/fpepilogue.c           0x00000000   Number         0  fepilogue.o ABSOLUTE
    ../fplib/microlib/fpepilogue.c           0x00000000   Number         0  depilogue.o ABSOLUTE
    ../fplib/microlib/fpmul.c                0x00000000   Number         0  dmul.o ABSOLUTE
    ../fplib/microlib/fpneg.c                0x00000000   Number         0  dneg.o ABSOLUTE
    ../fplib/microlib/fpsqrt.c               0x00000000   Number         0  dsqrt.o ABSOLUTE
    ../mathlib/asin.c                        0x00000000   Number         0  asin_x.o ABSOLUTE
    ../mathlib/asin.c                        0x00000000   Number         0  asin.o ABSOLUTE
    ../mathlib/atan.c                        0x00000000   Number         0  atan.o ABSOLUTE
    ../mathlib/atan.c                        0x00000000   Number         0  atan_x.o ABSOLUTE
    ../mathlib/atan2.c                       0x00000000   Number         0  atan2_x.o ABSOLUTE
    ../mathlib/atan2.c                       0x00000000   Number         0  atan2.o ABSOLUTE
    ../mathlib/dunder.c                      0x00000000   Number         0  dunder.o ABSOLUTE
    ../mathlib/fabs.c                        0x00000000   Number         0  fabs.o ABSOLUTE
    ../mathlib/fpclassify.c                  0x00000000   Number         0  fpclassify.o ABSOLUTE
    ../mathlib/poly.c                        0x00000000   Number         0  poly.o ABSOLUTE
    ../mathlib/qnan.c                        0x00000000   Number         0  qnan.o ABSOLUTE
    ../mathlib/sqrt.c                        0x00000000   Number         0  sqrt.o ABSOLUTE
    ../mathlib/sqrt.c                        0x00000000   Number         0  sqrt_x.o ABSOLUTE
    ..\Application\AlgorithmLayer\crc.c      0x00000000   Number         0  crc.o ABSOLUTE
    ..\Application\AlgorithmLayer\kalman.c   0x00000000   Number         0  kalman.o ABSOLUTE
    ..\Application\AlgorithmLayer\pid.c      0x00000000   Number         0  pid.o ABSOLUTE
    ..\Application\AlgorithmLayer\rp_math.c  0x00000000   Number         0  rp_math.o ABSOLUTE
    ..\Application\ConfigLayer\rp_config.c   0x00000000   Number         0  rp_config.o ABSOLUTE
    ..\Application\DeviceLayer\Imu\bmi.c     0x00000000   Number         0  bmi.o ABSOLUTE
    ..\Application\DeviceLayer\Imu\bmi2.c    0x00000000   Number         0  bmi2.o ABSOLUTE
    ..\Application\DeviceLayer\Imu\bmi270.c  0x00000000   Number         0  bmi270.o ABSOLUTE
    ..\Application\DeviceLayer\Imu\bmi270_context.c 0x00000000   Number         0  bmi270_context.o ABSOLUTE
    ..\Application\DeviceLayer\Imu\bmi2_common.c 0x00000000   Number         0  bmi2_common.o ABSOLUTE
    ..\Application\DeviceLayer\Imu\bmi2_ois.c 0x00000000   Number         0  bmi2_ois.o ABSOLUTE
    ..\Application\DeviceLayer\Imu\soft_iic.c 0x00000000   Number         0  soft_iic.o ABSOLUTE
    ..\Application\DeviceLayer\Motor\chassis_motor.c 0x00000000   Number         0  chassis_motor.o ABSOLUTE
    ..\Application\DeviceLayer\Sensor\imu_sensor.c 0x00000000   Number         0  imu_sensor.o ABSOLUTE
    ..\Application\DeviceLayer\Sensor\rc_sensor.c 0x00000000   Number         0  rc_sensor.o ABSOLUTE
    ..\Application\DeviceLayer\device.c      0x00000000   Number         0  device.o ABSOLUTE
    ..\Application\DriverLayer\driver.c      0x00000000   Number         0  driver.o ABSOLUTE
    ..\Application\DriverLayer\drv_adda.c    0x00000000   Number         0  drv_adda.o ABSOLUTE
    ..\Application\DriverLayer\drv_can.c     0x00000000   Number         0  drv_can.o ABSOLUTE
    ..\Application\DriverLayer\drv_haltick.c 0x00000000   Number         0  drv_haltick.o ABSOLUTE
    ..\Application\DriverLayer\drv_io.c      0x00000000   Number         0  drv_io.o ABSOLUTE
    ..\Application\DriverLayer\drv_tim.c     0x00000000   Number         0  drv_tim.o ABSOLUTE
    ..\Application\DriverLayer\drv_uart.c    0x00000000   Number         0  drv_uart.o ABSOLUTE
    ..\Application\ModuleLayer\chassis.c     0x00000000   Number         0  chassis.o ABSOLUTE
    ..\Application\ModuleLayer\rc.c          0x00000000   Number         0  rc.o ABSOLUTE
    ..\Application\ProtocolLayer\can_protocol.c 0x00000000   Number         0  can_protocol.o ABSOLUTE
    ..\Application\ProtocolLayer\imu_protocol.c 0x00000000   Number         0  imu_protocol.o ABSOLUTE
    ..\Application\ProtocolLayer\rc_protocol.c 0x00000000   Number         0  rc_protocol.o ABSOLUTE
    ..\Application\ProtocolLayer\rm_protocol.c 0x00000000   Number         0  rm_protocol.o ABSOLUTE
    ..\Application\TaskLayer\control_task.c  0x00000000   Number         0  control_task.o ABSOLUTE
    ..\Application\TaskLayer\monitor_task.c  0x00000000   Number         0  monitor_task.o ABSOLUTE
    ..\Application\TaskLayer\rp_monitor.c    0x00000000   Number         0  rp_monitor.o ABSOLUTE
    ..\Application\TaskLayer\send_task.c     0x00000000   Number         0  send_task.o ABSOLUTE
    ..\Application\TaskLayer\system_task.c   0x00000000   Number         0  system_task.o ABSOLUTE
    ..\Core\Src\adc.c                        0x00000000   Number         0  adc.o ABSOLUTE
    ..\Core\Src\can.c                        0x00000000   Number         0  can.o ABSOLUTE
    ..\Core\Src\dac.c                        0x00000000   Number         0  dac.o ABSOLUTE
    ..\Core\Src\dma.c                        0x00000000   Number         0  dma.o ABSOLUTE
    ..\Core\Src\freertos.c                   0x00000000   Number         0  freertos.o ABSOLUTE
    ..\Core\Src\gpio.c                       0x00000000   Number         0  gpio.o ABSOLUTE
    ..\Core\Src\main.c                       0x00000000   Number         0  main.o ABSOLUTE
    ..\Core\Src\stm32f4xx_hal_msp.c          0x00000000   Number         0  stm32f4xx_hal_msp.o ABSOLUTE
    ..\Core\Src\stm32f4xx_hal_timebase_tim.c 0x00000000   Number         0  stm32f4xx_hal_timebase_tim.o ABSOLUTE
    ..\Core\Src\stm32f4xx_it.c               0x00000000   Number         0  stm32f4xx_it.o ABSOLUTE
    ..\Core\Src\system_stm32f4xx.c           0x00000000   Number         0  system_stm32f4xx.o ABSOLUTE
    ..\Core\Src\tim.c                        0x00000000   Number         0  tim.o ABSOLUTE
    ..\Core\Src\usart.c                      0x00000000   Number         0  usart.o ABSOLUTE
    ..\Drivers\CMSIS\DSP\Source\MatrixFunctions\arm_mat_add_f32.c 0x00000000   Number         0  arm_mat_add_f32.o ABSOLUTE
    ..\Drivers\CMSIS\DSP\Source\MatrixFunctions\arm_mat_init_f32.c 0x00000000   Number         0  arm_mat_init_f32.o ABSOLUTE
    ..\Drivers\CMSIS\DSP\Source\MatrixFunctions\arm_mat_inverse_f32.c 0x00000000   Number         0  arm_mat_inverse_f32.o ABSOLUTE
    ..\Drivers\CMSIS\DSP\Source\MatrixFunctions\arm_mat_mult_f32.c 0x00000000   Number         0  arm_mat_mult_f32.o ABSOLUTE
    ..\Drivers\CMSIS\DSP\Source\MatrixFunctions\arm_mat_sub_f32.c 0x00000000   Number         0  arm_mat_sub_f32.o ABSOLUTE
    ..\Drivers\CMSIS\DSP\Source\MatrixFunctions\arm_mat_trans_f32.c 0x00000000   Number         0  arm_mat_trans_f32.o ABSOLUTE
    ..\Drivers\STM32F4xx_HAL_Driver\Src\stm32f4xx_hal.c 0x00000000   Number         0  stm32f4xx_hal.o ABSOLUTE
    ..\Drivers\STM32F4xx_HAL_Driver\Src\stm32f4xx_hal_adc.c 0x00000000   Number         0  stm32f4xx_hal_adc.o ABSOLUTE
    ..\Drivers\STM32F4xx_HAL_Driver\Src\stm32f4xx_hal_adc_ex.c 0x00000000   Number         0  stm32f4xx_hal_adc_ex.o ABSOLUTE
    ..\Drivers\STM32F4xx_HAL_Driver\Src\stm32f4xx_hal_can.c 0x00000000   Number         0  stm32f4xx_hal_can.o ABSOLUTE
    ..\Drivers\STM32F4xx_HAL_Driver\Src\stm32f4xx_hal_cortex.c 0x00000000   Number         0  stm32f4xx_hal_cortex.o ABSOLUTE
    ..\Drivers\STM32F4xx_HAL_Driver\Src\stm32f4xx_hal_dac.c 0x00000000   Number         0  stm32f4xx_hal_dac.o ABSOLUTE
    ..\Drivers\STM32F4xx_HAL_Driver\Src\stm32f4xx_hal_dac_ex.c 0x00000000   Number         0  stm32f4xx_hal_dac_ex.o ABSOLUTE
    ..\Drivers\STM32F4xx_HAL_Driver\Src\stm32f4xx_hal_dma.c 0x00000000   Number         0  stm32f4xx_hal_dma.o ABSOLUTE
    ..\Drivers\STM32F4xx_HAL_Driver\Src\stm32f4xx_hal_dma_ex.c 0x00000000   Number         0  stm32f4xx_hal_dma_ex.o ABSOLUTE
    ..\Drivers\STM32F4xx_HAL_Driver\Src\stm32f4xx_hal_exti.c 0x00000000   Number         0  stm32f4xx_hal_exti.o ABSOLUTE
    ..\Drivers\STM32F4xx_HAL_Driver\Src\stm32f4xx_hal_flash.c 0x00000000   Number         0  stm32f4xx_hal_flash.o ABSOLUTE
    ..\Drivers\STM32F4xx_HAL_Driver\Src\stm32f4xx_hal_flash_ex.c 0x00000000   Number         0  stm32f4xx_hal_flash_ex.o ABSOLUTE
    ..\Drivers\STM32F4xx_HAL_Driver\Src\stm32f4xx_hal_flash_ramfunc.c 0x00000000   Number         0  stm32f4xx_hal_flash_ramfunc.o ABSOLUTE
    ..\Drivers\STM32F4xx_HAL_Driver\Src\stm32f4xx_hal_gpio.c 0x00000000   Number         0  stm32f4xx_hal_gpio.o ABSOLUTE
    ..\Drivers\STM32F4xx_HAL_Driver\Src\stm32f4xx_hal_pwr.c 0x00000000   Number         0  stm32f4xx_hal_pwr.o ABSOLUTE
    ..\Drivers\STM32F4xx_HAL_Driver\Src\stm32f4xx_hal_pwr_ex.c 0x00000000   Number         0  stm32f4xx_hal_pwr_ex.o ABSOLUTE
    ..\Drivers\STM32F4xx_HAL_Driver\Src\stm32f4xx_hal_rcc.c 0x00000000   Number         0  stm32f4xx_hal_rcc.o ABSOLUTE
    ..\Drivers\STM32F4xx_HAL_Driver\Src\stm32f4xx_hal_rcc_ex.c 0x00000000   Number         0  stm32f4xx_hal_rcc_ex.o ABSOLUTE
    ..\Drivers\STM32F4xx_HAL_Driver\Src\stm32f4xx_hal_tim.c 0x00000000   Number         0  stm32f4xx_hal_tim.o ABSOLUTE
    ..\Drivers\STM32F4xx_HAL_Driver\Src\stm32f4xx_hal_tim_ex.c 0x00000000   Number         0  stm32f4xx_hal_tim_ex.o ABSOLUTE
    ..\Drivers\STM32F4xx_HAL_Driver\Src\stm32f4xx_hal_uart.c 0x00000000   Number         0  stm32f4xx_hal_uart.o ABSOLUTE
    ..\Middlewares\Third_Party\FreeRTOS\Source\CMSIS_RTOS\cmsis_os.c 0x00000000   Number         0  cmsis_os.o ABSOLUTE
    ..\Middlewares\Third_Party\FreeRTOS\Source\portable\RVDS\ARM_CM4F\port.c 0x00000000   Number         0  port.o ABSOLUTE
    ..\\Application\\AlgorithmLayer\\crc.c   0x00000000   Number         0  crc.o ABSOLUTE
    ..\\Application\\AlgorithmLayer\\kalman.c 0x00000000   Number         0  kalman.o ABSOLUTE
    ..\\Application\\AlgorithmLayer\\pid.c   0x00000000   Number         0  pid.o ABSOLUTE
    ..\\Application\\AlgorithmLayer\\rp_math.c 0x00000000   Number         0  rp_math.o ABSOLUTE
    ..\\Application\\ConfigLayer\\rp_config.c 0x00000000   Number         0  rp_config.o ABSOLUTE
    ..\\Application\\DeviceLayer\\Imu\\bmi.c 0x00000000   Number         0  bmi.o ABSOLUTE
    ..\\Application\\DeviceLayer\\Imu\\bmi2_common.c 0x00000000   Number         0  bmi2_common.o ABSOLUTE
    ..\\Application\\DeviceLayer\\Imu\\soft_iic.c 0x00000000   Number         0  soft_iic.o ABSOLUTE
    ..\\Application\\DeviceLayer\\Motor\\chassis_motor.c 0x00000000   Number         0  chassis_motor.o ABSOLUTE
    ..\\Application\\DeviceLayer\\Sensor\\imu_sensor.c 0x00000000   Number         0  imu_sensor.o ABSOLUTE
    ..\\Application\\DeviceLayer\\Sensor\\rc_sensor.c 0x00000000   Number         0  rc_sensor.o ABSOLUTE
    ..\\Application\\DeviceLayer\\device.c   0x00000000   Number         0  device.o ABSOLUTE
    ..\\Application\\DriverLayer\\driver.c   0x00000000   Number         0  driver.o ABSOLUTE
    ..\\Application\\DriverLayer\\drv_adda.c 0x00000000   Number         0  drv_adda.o ABSOLUTE
    ..\\Application\\DriverLayer\\drv_can.c  0x00000000   Number         0  drv_can.o ABSOLUTE
    ..\\Application\\DriverLayer\\drv_haltick.c 0x00000000   Number         0  drv_haltick.o ABSOLUTE
    ..\\Application\\DriverLayer\\drv_io.c   0x00000000   Number         0  drv_io.o ABSOLUTE
    ..\\Application\\DriverLayer\\drv_tim.c  0x00000000   Number         0  drv_tim.o ABSOLUTE
    ..\\Application\\DriverLayer\\drv_uart.c 0x00000000   Number         0  drv_uart.o ABSOLUTE
    ..\\Application\\ModuleLayer\\chassis.c  0x00000000   Number         0  chassis.o ABSOLUTE
    ..\\Application\\ModuleLayer\\rc.c       0x00000000   Number         0  rc.o ABSOLUTE
    ..\\Application\\ProtocolLayer\\can_protocol.c 0x00000000   Number         0  can_protocol.o ABSOLUTE
    ..\\Application\\ProtocolLayer\\imu_protocol.c 0x00000000   Number         0  imu_protocol.o ABSOLUTE
    ..\\Application\\ProtocolLayer\\rc_protocol.c 0x00000000   Number         0  rc_protocol.o ABSOLUTE
    ..\\Application\\ProtocolLayer\\rm_protocol.c 0x00000000   Number         0  rm_protocol.o ABSOLUTE
    ..\\Application\\TaskLayer\\control_task.c 0x00000000   Number         0  control_task.o ABSOLUTE
    ..\\Application\\TaskLayer\\monitor_task.c 0x00000000   Number         0  monitor_task.o ABSOLUTE
    ..\\Application\\TaskLayer\\rp_monitor.c 0x00000000   Number         0  rp_monitor.o ABSOLUTE
    ..\\Application\\TaskLayer\\send_task.c  0x00000000   Number         0  send_task.o ABSOLUTE
    ..\\Application\\TaskLayer\\system_task.c 0x00000000   Number         0  system_task.o ABSOLUTE
    ..\\Drivers\\CMSIS\\DSP\\Source\\MatrixFunctions\\arm_mat_add_f32.c 0x00000000   Number         0  arm_mat_add_f32.o ABSOLUTE
    ..\\Drivers\\CMSIS\\DSP\\Source\\MatrixFunctions\\arm_mat_init_f32.c 0x00000000   Number         0  arm_mat_init_f32.o ABSOLUTE
    ..\\Drivers\\CMSIS\\DSP\\Source\\MatrixFunctions\\arm_mat_inverse_f32.c 0x00000000   Number         0  arm_mat_inverse_f32.o ABSOLUTE
    ..\\Drivers\\CMSIS\\DSP\\Source\\MatrixFunctions\\arm_mat_mult_f32.c 0x00000000   Number         0  arm_mat_mult_f32.o ABSOLUTE
    ..\\Drivers\\CMSIS\\DSP\\Source\\MatrixFunctions\\arm_mat_sub_f32.c 0x00000000   Number         0  arm_mat_sub_f32.o ABSOLUTE
    ..\\Drivers\\CMSIS\\DSP\\Source\\MatrixFunctions\\arm_mat_trans_f32.c 0x00000000   Number         0  arm_mat_trans_f32.o ABSOLUTE
    cdcmple.s                                0x00000000   Number         0  cdcmple.o ABSOLUTE
    dc.s                                     0x00000000   Number         0  dc.o ABSOLUTE
    handlers.s                               0x00000000   Number         0  handlers.o ABSOLUTE
    init.s                                   0x00000000   Number         0  init.o ABSOLUTE
    startup_stm32f407xx.s                    0x00000000   Number         0  startup_stm32f407xx.o ABSOLUTE
    RESET                                    0x08000000   Section      392  startup_stm32f407xx.o(RESET)
    .ARM.Collect$$$$00000000                 0x08000188   Section        0  entry.o(.ARM.Collect$$$$00000000)
    .ARM.Collect$$$$00000001                 0x08000188   Section        4  entry2.o(.ARM.Collect$$$$00000001)
    .ARM.Collect$$$$00000004                 0x0800018c   Section        4  entry5.o(.ARM.Collect$$$$00000004)
    .ARM.Collect$$$$00000008                 0x08000190   Section        0  entry7b.o(.ARM.Collect$$$$00000008)
    .ARM.Collect$$$$0000000A                 0x08000190   Section        0  entry8b.o(.ARM.Collect$$$$0000000A)
    .ARM.Collect$$$$0000000B                 0x08000190   Section        8  entry9a.o(.ARM.Collect$$$$0000000B)
    .ARM.Collect$$$$0000000D                 0x08000198   Section        0  entry10a.o(.ARM.Collect$$$$0000000D)
    .ARM.Collect$$$$0000000F                 0x08000198   Section        0  entry11a.o(.ARM.Collect$$$$0000000F)
    .ARM.Collect$$$$00002712                 0x08000198   Section        4  entry2.o(.ARM.Collect$$$$00002712)
    __lit__00000000                          0x08000198   Data           4  entry2.o(.ARM.Collect$$$$00002712)
    .emb_text                                0x0800019c   Section      190  port.o(.emb_text)
    $v0                                      0x0800019c   Number         0  port.o(.emb_text)
    .text                                    0x0800025c   Section       36  startup_stm32f407xx.o(.text)
    $v0                                      0x0800025c   Number         0  startup_stm32f407xx.o(.text)
    .text                                    0x08000280   Section        0  uldiv.o(.text)
    .text                                    0x080002e2   Section        0  memcpya.o(.text)
    .text                                    0x08000306   Section        0  memseta.o(.text)
    .text                                    0x0800032a   Section        0  dmul.o(.text)
    .text                                    0x0800040e   Section        0  f2d.o(.text)
    .text                                    0x08000434   Section        0  d2f.o(.text)
    .text                                    0x0800046c   Section        0  llshl.o(.text)
    .text                                    0x0800048a   Section        0  llushr.o(.text)
    .text                                    0x080004aa   Section        0  fepilogue.o(.text)
    .text                                    0x080004aa   Section        0  iusefp.o(.text)
    .text                                    0x08000518   Section        0  depilogue.o(.text)
    .text                                    0x080005d2   Section        0  dadd.o(.text)
    .text                                    0x08000720   Section        0  ddiv.o(.text)
    .text                                    0x08000800   Section       36  init.o(.text)
    .text                                    0x08000824   Section        0  llsshr.o(.text)
    .text                                    0x08000848   Section        0  dsqrt.o(.text)
    .text                                    0x080008ea   Section        0  __dczerorl2.o(.text)
    i.ADC_Init                               0x08000940   Section        0  drv_adda.o(i.ADC_Init)
    i.ADC_Init                               0x08000944   Section        0  stm32f4xx_hal_adc.o(i.ADC_Init)
    ADC_Init                                 0x08000945   Thumb Code   284  stm32f4xx_hal_adc.o(i.ADC_Init)
    i.BMI_Get_EulerAngle                     0x08000a6c   Section        0  bmi.o(i.BMI_Get_EulerAngle)
    i.BMI_Get_GRO                            0x08000ec8   Section        0  bmi.o(i.BMI_Get_GRO)
    i.BMI_Get_RawData                        0x08000f16   Section        0  bmi.o(i.BMI_Get_RawData)
    i.BMI_Init                               0x08000f60   Section        0  bmi.o(i.BMI_Init)
    i.BusFault_Handler                       0x08000fcc   Section        0  stm32f4xx_it.o(i.BusFault_Handler)
    i.CAN1_Init                              0x08000fd0   Section        0  drv_can.o(i.CAN1_Init)
    i.CAN1_RX0_IRQHandler                    0x08000ff8   Section        0  stm32f4xx_it.o(i.CAN1_RX0_IRQHandler)
    i.CAN1_rxDataHandler                     0x08001004   Section        0  can_protocol.o(i.CAN1_rxDataHandler)
    i.CAN2_Init                              0x08001068   Section        0  drv_can.o(i.CAN2_Init)
    i.CAN2_RX0_IRQHandler                    0x08001090   Section        0  stm32f4xx_it.o(i.CAN2_RX0_IRQHandler)
    i.CAN2_rxDataHandler                     0x0800109c   Section        0  can_protocol.o(i.CAN2_rxDataHandler)
    i.CAN_01_GetMotorAngle                   0x0800109e   Section        0  rm_protocol.o(i.CAN_01_GetMotorAngle)
    i.CAN_23_GetMotorSpeed                   0x080010a4   Section        0  rm_protocol.o(i.CAN_23_GetMotorSpeed)
    i.CAN_45_GetMotorCurrent                 0x080010ac   Section        0  rm_protocol.o(i.CAN_45_GetMotorCurrent)
    i.CAN_6_GetMotorTemperature              0x080010b4   Section        0  rm_protocol.o(i.CAN_6_GetMotorTemperature)
    i.CAN_AddByte                            0x080010b8   Section        0  can_protocol.o(i.CAN_AddByte)
    i.CAN_AddHalfWord                        0x080010c4   Section        0  can_protocol.o(i.CAN_AddHalfWord)
    i.CAN_AddMsg                             0x080010da   Section        0  can_protocol.o(i.CAN_AddMsg)
    i.CAN_AddMsgByDriver                     0x080010e0   Section        0  drv_can.o(i.CAN_AddMsgByDriver)
    i.CAN_AddWord                            0x08001150   Section        0  can_protocol.o(i.CAN_AddWord)
    i.CAN_AutoTx                             0x08001174   Section        0  drv_can.o(i.CAN_AutoTx)
    i.CAN_CreateTxPort                       0x080011ce   Section        0  drv_can.o(i.CAN_CreateTxPort)
    CAN_CreateTxPort                         0x080011cf   Thumb Code   170  drv_can.o(i.CAN_CreateTxPort)
    i.CAN_Filter_ParamsInit                  0x08001278   Section        0  drv_can.o(i.CAN_Filter_ParamsInit)
    CAN_Filter_ParamsInit                    0x08001279   Thumb Code    26  drv_can.o(i.CAN_Filter_ParamsInit)
    i.CAN_GetTxPort                          0x08001292   Section        0  drv_can.o(i.CAN_GetTxPort)
    CAN_GetTxPort                            0x08001293   Thumb Code    18  drv_can.o(i.CAN_GetTxPort)
    i.CAN_GetTxState                         0x080012a4   Section        0  can_protocol.o(i.CAN_GetTxState)
    i.CAN_GetTxStateByDriver                 0x080012a8   Section        0  drv_can.o(i.CAN_GetTxStateByDriver)
    i.CAN_MailboxReadyForTx                  0x080012e4   Section        0  drv_can.o(i.CAN_MailboxReadyForTx)
    i.CAN_ManualTx                           0x0800134c   Section        0  can_protocol.o(i.CAN_ManualTx)
    i.CAN_Rx_Callback                        0x08001350   Section        0  drv_can.o(i.CAN_Rx_Callback)
    CAN_Rx_Callback                          0x08001351   Thumb Code    74  drv_can.o(i.CAN_Rx_Callback)
    i.CAN_SetTxMode                          0x080013a8   Section        0  can_protocol.o(i.CAN_SetTxMode)
    i.CAN_SetTxModeByDriver                  0x080013ac   Section        0  drv_can.o(i.CAN_SetTxModeByDriver)
    i.CAN_SetTxState                         0x080013e8   Section        0  can_protocol.o(i.CAN_SetTxState)
    i.CAN_SetTxStateByDriver                 0x080013ec   Section        0  drv_can.o(i.CAN_SetTxStateByDriver)
    i.CAN_StartTxByDriver                    0x08001428   Section        0  drv_can.o(i.CAN_StartTxByDriver)
    i.CAN_StartTxByTxPort                    0x08001478   Section        0  drv_can.o(i.CAN_StartTxByTxPort)
    i.CHASSIS_Ctrl                           0x080014ec   Section        0  chassis.o(i.CHASSIS_Ctrl)
    i.CHASSIS_GetInfo                        0x080014fa   Section        0  chassis.o(i.CHASSIS_GetInfo)
    i.CHASSIS_GetSysInfo                     0x08001508   Section        0  chassis.o(i.CHASSIS_GetSysInfo)
    i.CHASSIS_Init                           0x08001520   Section        0  chassis.o(i.CHASSIS_Init)
    i.CHASSIS_PidCtrl                        0x08001568   Section        0  chassis.o(i.CHASSIS_PidCtrl)
    i.CHASSIS_PidParamsInit                  0x080015e0   Section        0  chassis.o(i.CHASSIS_PidParamsInit)
    i.CHASSIS_SelfProtect                    0x08001620   Section        0  chassis.o(i.CHASSIS_SelfProtect)
    i.CHASSIS_Speed_PidCalc                  0x08001678   Section        0  chassis.o(i.CHASSIS_Speed_PidCalc)
    CHASSIS_Speed_PidCalc                    0x08001679   Thumb Code    42  chassis.o(i.CHASSIS_Speed_PidCalc)
    i.CHASSIS_Test                           0x080016a2   Section        0  chassis.o(i.CHASSIS_Test)
    i.CHASSIS_UpdateController               0x080016a4   Section        0  chassis.o(i.CHASSIS_UpdateController)
    i.DAC_Init                               0x080016fc   Section        0  drv_adda.o(i.DAC_Init)
    i.DEV_Init                               0x08001708   Section        0  device.o(i.DEV_Init)
    i.DMA1_Stream0_IRQHandler                0x08001738   Section        0  stm32f4xx_it.o(i.DMA1_Stream0_IRQHandler)
    i.DMA1_Stream2_IRQHandler                0x08001744   Section        0  stm32f4xx_it.o(i.DMA1_Stream2_IRQHandler)
    i.DMA1_Stream5_IRQHandler                0x08001750   Section        0  stm32f4xx_it.o(i.DMA1_Stream5_IRQHandler)
    i.DMA2_Stream2_IRQHandler                0x0800175c   Section        0  stm32f4xx_it.o(i.DMA2_Stream2_IRQHandler)
    i.DMA2_Stream7_IRQHandler                0x08001768   Section        0  stm32f4xx_it.o(i.DMA2_Stream7_IRQHandler)
    i.DMAEx_MultiBufferStart_NoIT            0x08001774   Section        0  drv_uart.o(i.DMAEx_MultiBufferStart_NoIT)
    DMAEx_MultiBufferStart_NoIT              0x08001775   Thumb Code   564  drv_uart.o(i.DMAEx_MultiBufferStart_NoIT)
    i.DMA_CalcBaseAndBitshift                0x080019b8   Section        0  stm32f4xx_hal_dma.o(i.DMA_CalcBaseAndBitshift)
    DMA_CalcBaseAndBitshift                  0x080019b9   Thumb Code    34  stm32f4xx_hal_dma.o(i.DMA_CalcBaseAndBitshift)
    i.DMA_CheckFifoParam                     0x080019e0   Section        0  stm32f4xx_hal_dma.o(i.DMA_CheckFifoParam)
    DMA_CheckFifoParam                       0x080019e1   Thumb Code    84  stm32f4xx_hal_dma.o(i.DMA_CheckFifoParam)
    i.DMA_SetConfig                          0x08001a34   Section        0  stm32f4xx_hal_dma.o(i.DMA_SetConfig)
    DMA_SetConfig                            0x08001a35   Thumb Code    40  stm32f4xx_hal_dma.o(i.DMA_SetConfig)
    i.DMA_Start                              0x08001a5c   Section        0  drv_uart.o(i.DMA_Start)
    DMA_Start                                0x08001a5d   Thumb Code    98  drv_uart.o(i.DMA_Start)
    i.DRIVER_Init                            0x08001abe   Section        0  driver.o(i.DRIVER_Init)
    i.DRV_UART_IRQHandler                    0x08001ae8   Section        0  drv_uart.o(i.DRV_UART_IRQHandler)
    i.DeathZoom                              0x08001afc   Section        0  rp_math.o(i.DeathZoom)
    i.DebugMon_Handler                       0x08001b1e   Section        0  stm32f4xx_it.o(i.DebugMon_Handler)
    i.Error_Handler                          0x08001b20   Section        0  main.o(i.Error_Handler)
    i.FLASH_Program_Byte                     0x08001b24   Section        0  stm32f4xx_hal_flash.o(i.FLASH_Program_Byte)
    FLASH_Program_Byte                       0x08001b25   Thumb Code    26  stm32f4xx_hal_flash.o(i.FLASH_Program_Byte)
    i.FLASH_Program_DoubleWord               0x08001b44   Section        0  stm32f4xx_hal_flash.o(i.FLASH_Program_DoubleWord)
    FLASH_Program_DoubleWord                 0x08001b45   Thumb Code    38  stm32f4xx_hal_flash.o(i.FLASH_Program_DoubleWord)
    i.FLASH_Program_HalfWord                 0x08001b70   Section        0  stm32f4xx_hal_flash.o(i.FLASH_Program_HalfWord)
    FLASH_Program_HalfWord                   0x08001b71   Thumb Code    30  stm32f4xx_hal_flash.o(i.FLASH_Program_HalfWord)
    i.FLASH_Program_Word                     0x08001b94   Section        0  stm32f4xx_hal_flash.o(i.FLASH_Program_Word)
    FLASH_Program_Word                       0x08001b95   Thumb Code    30  stm32f4xx_hal_flash.o(i.FLASH_Program_Word)
    i.FLASH_SetErrorCode                     0x08001bb8   Section        0  stm32f4xx_hal_flash.o(i.FLASH_SetErrorCode)
    FLASH_SetErrorCode                       0x08001bb9   Thumb Code    96  stm32f4xx_hal_flash.o(i.FLASH_SetErrorCode)
    i.FLASH_WaitForLastOperation             0x08001c20   Section        0  stm32f4xx_hal_flash.o(i.FLASH_WaitForLastOperation)
    i.FRICTION_PwmOut                        0x08001c70   Section        0  drv_tim.o(i.FRICTION_PwmOut)
    i.HAL_ADC_ConfigChannel                  0x08001c88   Section        0  stm32f4xx_hal_adc.o(i.HAL_ADC_ConfigChannel)
    i.HAL_ADC_Init                           0x08001dd4   Section        0  stm32f4xx_hal_adc.o(i.HAL_ADC_Init)
    i.HAL_ADC_MspInit                        0x08001e28   Section        0  adc.o(i.HAL_ADC_MspInit)
    i.HAL_CAN_ActivateNotification           0x08001e88   Section        0  stm32f4xx_hal_can.o(i.HAL_CAN_ActivateNotification)
    i.HAL_CAN_AddTxMessage                   0x08001eac   Section        0  stm32f4xx_hal_can.o(i.HAL_CAN_AddTxMessage)
    i.HAL_CAN_ConfigFilter                   0x08001f74   Section        0  stm32f4xx_hal_can.o(i.HAL_CAN_ConfigFilter)
    i.HAL_CAN_ErrorCallback                  0x08002080   Section        0  stm32f4xx_hal_can.o(i.HAL_CAN_ErrorCallback)
    i.HAL_CAN_GetRxMessage                   0x08002082   Section        0  stm32f4xx_hal_can.o(i.HAL_CAN_GetRxMessage)
    i.HAL_CAN_IRQHandler                     0x0800216a   Section        0  stm32f4xx_hal_can.o(i.HAL_CAN_IRQHandler)
    i.HAL_CAN_Init                           0x08002366   Section        0  stm32f4xx_hal_can.o(i.HAL_CAN_Init)
    i.HAL_CAN_MspInit                        0x08002480   Section        0  can.o(i.HAL_CAN_MspInit)
    i.HAL_CAN_RxFifo0FullCallback            0x0800257c   Section        0  stm32f4xx_hal_can.o(i.HAL_CAN_RxFifo0FullCallback)
    i.HAL_CAN_RxFifo0MsgPendingCallback      0x08002580   Section        0  drv_can.o(i.HAL_CAN_RxFifo0MsgPendingCallback)
    i.HAL_CAN_RxFifo1FullCallback            0x0800259c   Section        0  stm32f4xx_hal_can.o(i.HAL_CAN_RxFifo1FullCallback)
    i.HAL_CAN_RxFifo1MsgPendingCallback      0x0800259e   Section        0  stm32f4xx_hal_can.o(i.HAL_CAN_RxFifo1MsgPendingCallback)
    i.HAL_CAN_SleepCallback                  0x080025a0   Section        0  stm32f4xx_hal_can.o(i.HAL_CAN_SleepCallback)
    i.HAL_CAN_Start                          0x080025a4   Section        0  stm32f4xx_hal_can.o(i.HAL_CAN_Start)
    i.HAL_CAN_TxMailbox0AbortCallback        0x080025fc   Section        0  stm32f4xx_hal_can.o(i.HAL_CAN_TxMailbox0AbortCallback)
    i.HAL_CAN_TxMailbox0CompleteCallback     0x080025fe   Section        0  stm32f4xx_hal_can.o(i.HAL_CAN_TxMailbox0CompleteCallback)
    i.HAL_CAN_TxMailbox1AbortCallback        0x08002600   Section        0  stm32f4xx_hal_can.o(i.HAL_CAN_TxMailbox1AbortCallback)
    i.HAL_CAN_TxMailbox1CompleteCallback     0x08002602   Section        0  stm32f4xx_hal_can.o(i.HAL_CAN_TxMailbox1CompleteCallback)
    i.HAL_CAN_TxMailbox2AbortCallback        0x08002604   Section        0  stm32f4xx_hal_can.o(i.HAL_CAN_TxMailbox2AbortCallback)
    i.HAL_CAN_TxMailbox2CompleteCallback     0x08002606   Section        0  stm32f4xx_hal_can.o(i.HAL_CAN_TxMailbox2CompleteCallback)
    i.HAL_CAN_WakeUpFromRxMsgCallback        0x08002608   Section        0  stm32f4xx_hal_can.o(i.HAL_CAN_WakeUpFromRxMsgCallback)
    i.HAL_DAC_ConfigChannel                  0x0800260a   Section        0  stm32f4xx_hal_dac.o(i.HAL_DAC_ConfigChannel)
    i.HAL_DAC_Init                           0x08002650   Section        0  stm32f4xx_hal_dac.o(i.HAL_DAC_Init)
    i.HAL_DAC_MspInit                        0x08002678   Section        0  dac.o(i.HAL_DAC_MspInit)
    i.HAL_DAC_Start                          0x080026d8   Section        0  stm32f4xx_hal_dac.o(i.HAL_DAC_Start)
    i.HAL_DMA_Abort                          0x08002734   Section        0  stm32f4xx_hal_dma.o(i.HAL_DMA_Abort)
    i.HAL_DMA_Abort_IT                       0x080027c6   Section        0  stm32f4xx_hal_dma.o(i.HAL_DMA_Abort_IT)
    i.HAL_DMA_IRQHandler                     0x080027ec   Section        0  stm32f4xx_hal_dma.o(i.HAL_DMA_IRQHandler)
    i.HAL_DMA_Init                           0x0800298c   Section        0  stm32f4xx_hal_dma.o(i.HAL_DMA_Init)
    i.HAL_DMA_Start_IT                       0x08002a60   Section        0  stm32f4xx_hal_dma.o(i.HAL_DMA_Start_IT)
    i.HAL_FLASH_Lock                         0x08002ad0   Section        0  stm32f4xx_hal_flash.o(i.HAL_FLASH_Lock)
    i.HAL_FLASH_Program                      0x08002ae4   Section        0  stm32f4xx_hal_flash.o(i.HAL_FLASH_Program)
    i.HAL_FLASH_Unlock                       0x08002b60   Section        0  stm32f4xx_hal_flash.o(i.HAL_FLASH_Unlock)
    i.HAL_GPIO_Init                          0x08002b8c   Section        0  stm32f4xx_hal_gpio.o(i.HAL_GPIO_Init)
    i.HAL_GPIO_TogglePin                     0x08002d7c   Section        0  stm32f4xx_hal_gpio.o(i.HAL_GPIO_TogglePin)
    i.HAL_GPIO_WritePin                      0x08002d8c   Section        0  stm32f4xx_hal_gpio.o(i.HAL_GPIO_WritePin)
    i.HAL_GetTick                            0x08002d98   Section        0  stm32f4xx_hal.o(i.HAL_GetTick)
    i.HAL_IncTick                            0x08002da4   Section        0  drv_haltick.o(i.HAL_IncTick)
    i.HAL_Init                               0x08002dd8   Section        0  stm32f4xx_hal.o(i.HAL_Init)
    i.HAL_InitTick                           0x08002e0c   Section        0  stm32f4xx_hal_timebase_tim.o(i.HAL_InitTick)
    i.HAL_MspInit                            0x08002e80   Section        0  stm32f4xx_hal_msp.o(i.HAL_MspInit)
    i.HAL_NVIC_EnableIRQ                     0x08002eb8   Section        0  stm32f4xx_hal_cortex.o(i.HAL_NVIC_EnableIRQ)
    i.HAL_NVIC_SetPriority                   0x08002ed4   Section        0  stm32f4xx_hal_cortex.o(i.HAL_NVIC_SetPriority)
    i.HAL_NVIC_SetPriorityGrouping           0x08002f14   Section        0  stm32f4xx_hal_cortex.o(i.HAL_NVIC_SetPriorityGrouping)
    i.HAL_RCC_ClockConfig                    0x08002f38   Section        0  stm32f4xx_hal_rcc.o(i.HAL_RCC_ClockConfig)
    i.HAL_RCC_GetClockConfig                 0x0800306c   Section        0  stm32f4xx_hal_rcc.o(i.HAL_RCC_GetClockConfig)
    i.HAL_RCC_GetPCLK1Freq                   0x080030ac   Section        0  stm32f4xx_hal_rcc.o(i.HAL_RCC_GetPCLK1Freq)
    i.HAL_RCC_GetPCLK2Freq                   0x080030cc   Section        0  stm32f4xx_hal_rcc.o(i.HAL_RCC_GetPCLK2Freq)
    i.HAL_RCC_GetSysClockFreq                0x080030ec   Section        0  stm32f4xx_hal_rcc.o(i.HAL_RCC_GetSysClockFreq)
    i.HAL_RCC_OscConfig                      0x08003150   Section        0  stm32f4xx_hal_rcc.o(i.HAL_RCC_OscConfig)
    i.HAL_TIMEx_BreakCallback                0x080034bc   Section        0  stm32f4xx_hal_tim_ex.o(i.HAL_TIMEx_BreakCallback)
    i.HAL_TIMEx_CommutCallback               0x080034be   Section        0  stm32f4xx_hal_tim_ex.o(i.HAL_TIMEx_CommutCallback)
    i.HAL_TIMEx_ConfigBreakDeadTime          0x080034c0   Section        0  stm32f4xx_hal_tim_ex.o(i.HAL_TIMEx_ConfigBreakDeadTime)
    i.HAL_TIMEx_MasterConfigSynchronization  0x08003514   Section        0  stm32f4xx_hal_tim_ex.o(i.HAL_TIMEx_MasterConfigSynchronization)
    i.HAL_TIM_Base_Init                      0x080035a4   Section        0  stm32f4xx_hal_tim.o(i.HAL_TIM_Base_Init)
    i.HAL_TIM_Base_MspInit                   0x08003600   Section        0  tim.o(i.HAL_TIM_Base_MspInit)
    i.HAL_TIM_Base_Start_IT                  0x08003644   Section        0  stm32f4xx_hal_tim.o(i.HAL_TIM_Base_Start_IT)
    i.HAL_TIM_ConfigClockSource              0x080036c4   Section        0  stm32f4xx_hal_tim.o(i.HAL_TIM_ConfigClockSource)
    i.HAL_TIM_IC_CaptureCallback             0x080037a0   Section        0  stm32f4xx_hal_tim.o(i.HAL_TIM_IC_CaptureCallback)
    i.HAL_TIM_IRQHandler                     0x080037a2   Section        0  stm32f4xx_hal_tim.o(i.HAL_TIM_IRQHandler)
    i.HAL_TIM_MspPostInit                    0x08003908   Section        0  tim.o(i.HAL_TIM_MspPostInit)
    i.HAL_TIM_OC_DelayElapsedCallback        0x0800398c   Section        0  stm32f4xx_hal_tim.o(i.HAL_TIM_OC_DelayElapsedCallback)
    i.HAL_TIM_PWM_ConfigChannel              0x0800398e   Section        0  stm32f4xx_hal_tim.o(i.HAL_TIM_PWM_ConfigChannel)
    i.HAL_TIM_PWM_Init                       0x08003a5a   Section        0  stm32f4xx_hal_tim.o(i.HAL_TIM_PWM_Init)
    i.HAL_TIM_PWM_MspInit                    0x08003ab4   Section        0  stm32f4xx_hal_tim.o(i.HAL_TIM_PWM_MspInit)
    i.HAL_TIM_PWM_PulseFinishedCallback      0x08003ab6   Section        0  stm32f4xx_hal_tim.o(i.HAL_TIM_PWM_PulseFinishedCallback)
    i.HAL_TIM_PWM_Start                      0x08003ab8   Section        0  stm32f4xx_hal_tim.o(i.HAL_TIM_PWM_Start)
    i.HAL_TIM_PeriodElapsedCallback          0x08003b80   Section        0  main.o(i.HAL_TIM_PeriodElapsedCallback)
    i.HAL_TIM_TriggerCallback                0x08003b8e   Section        0  stm32f4xx_hal_tim.o(i.HAL_TIM_TriggerCallback)
    i.HAL_UARTEx_RxEventCallback             0x08003b90   Section        0  stm32f4xx_hal_uart.o(i.HAL_UARTEx_RxEventCallback)
    i.HAL_UART_ErrorCallback                 0x08003b92   Section        0  stm32f4xx_hal_uart.o(i.HAL_UART_ErrorCallback)
    i.HAL_UART_IRQHandler                    0x08003b94   Section        0  stm32f4xx_hal_uart.o(i.HAL_UART_IRQHandler)
    i.HAL_UART_Init                          0x08003dfc   Section        0  stm32f4xx_hal_uart.o(i.HAL_UART_Init)
    i.HAL_UART_MspInit                       0x08003e60   Section        0  usart.o(i.HAL_UART_MspInit)
    i.HAL_UART_RxCpltCallback                0x0800416c   Section        0  stm32f4xx_hal_uart.o(i.HAL_UART_RxCpltCallback)
    i.HAL_UART_Transmit                      0x08004170   Section        0  stm32f4xx_hal_uart.o(i.HAL_UART_Transmit)
    i.HAL_UART_Transmit_DMA                  0x08004224   Section        0  stm32f4xx_hal_uart.o(i.HAL_UART_Transmit_DMA)
    i.HAL_UART_TxCpltCallback                0x080042b0   Section        0  stm32f4xx_hal_uart.o(i.HAL_UART_TxCpltCallback)
    i.HAL_UART_TxHalfCpltCallback            0x080042b2   Section        0  stm32f4xx_hal_uart.o(i.HAL_UART_TxHalfCpltCallback)
    i.HardFault_Handler                      0x080042b4   Section        0  stm32f4xx_it.o(i.HardFault_Handler)
    i.IIC_Ack                                0x080042b8   Section        0  soft_iic.o(i.IIC_Ack)
    i.IIC_NAck                               0x080042f8   Section        0  soft_iic.o(i.IIC_NAck)
    i.IIC_Read_Byte                          0x08004338   Section        0  soft_iic.o(i.IIC_Read_Byte)
    i.IIC_Send_Byte                          0x080043a0   Section        0  soft_iic.o(i.IIC_Send_Byte)
    i.IIC_Start                              0x08004400   Section        0  soft_iic.o(i.IIC_Start)
    i.IIC_Stop                               0x08004440   Section        0  soft_iic.o(i.IIC_Stop)
    i.IIC_Wait_Ack                           0x08004484   Section        0  soft_iic.o(i.IIC_Wait_Ack)
    i.MPU_Read_Byte                          0x080044d8   Section        0  bmi2_common.o(i.MPU_Read_Byte)
    i.MPU_Read_all                           0x08004524   Section        0  bmi2_common.o(i.MPU_Read_all)
    i.MX_ADC1_Init                           0x08004584   Section        0  adc.o(i.MX_ADC1_Init)
    i.MX_CAN1_Init                           0x080045e8   Section        0  can.o(i.MX_CAN1_Init)
    i.MX_CAN2_Init                           0x08004630   Section        0  can.o(i.MX_CAN2_Init)
    i.MX_DAC_Init                            0x08004678   Section        0  dac.o(i.MX_DAC_Init)
    i.MX_DMA_Init                            0x080046b4   Section        0  dma.o(i.MX_DMA_Init)
    i.MX_FREERTOS_Init                       0x08004730   Section        0  freertos.o(i.MX_FREERTOS_Init)
    i.MX_GPIO_Init                           0x080047b0   Section        0  gpio.o(i.MX_GPIO_Init)
    i.MX_TIM1_Init                           0x080048e0   Section        0  tim.o(i.MX_TIM1_Init)
    i.MX_TIM3_Init                           0x080049ac   Section        0  tim.o(i.MX_TIM3_Init)
    i.MX_UART4_Init                          0x08004a54   Section        0  usart.o(i.MX_UART4_Init)
    i.MX_UART5_Init                          0x08004a8c   Section        0  usart.o(i.MX_UART5_Init)
    i.MX_USART1_UART_Init                    0x08004ac4   Section        0  usart.o(i.MX_USART1_UART_Init)
    i.MX_USART2_UART_Init                    0x08004afc   Section        0  usart.o(i.MX_USART2_UART_Init)
    i.MemManage_Handler                      0x08004b38   Section        0  stm32f4xx_it.o(i.MemManage_Handler)
    i.NMI_Handler                            0x08004b3a   Section        0  stm32f4xx_it.o(i.NMI_Handler)
    i.PWM_Init                               0x08004b3c   Section        0  drv_tim.o(i.PWM_Init)
    i.RM3508_GetDataId                       0x08004b74   Section        0  rm_protocol.o(i.RM3508_GetDataId)
    i.RM3508_GetTxId                         0x08004b7e   Section        0  rm_protocol.o(i.RM3508_GetTxId)
    i.Set_accel                              0x08004b94   Section        0  bmi.o(i.Set_accel)
    i.Set_gyro                               0x08004be8   Section        0  bmi.o(i.Set_gyro)
    i.StartControlTask                       0x08004c40   Section        0  control_task.o(i.StartControlTask)
    i.StartMonitorTask                       0x08004c64   Section        0  monitor_task.o(i.StartMonitorTask)
    i.StartSendTask                          0x08004ce8   Section        0  send_task.o(i.StartSendTask)
    i.StartSystemTask                        0x08004d24   Section        0  system_task.o(i.StartSystemTask)
    i.StartrpMonitorTask                     0x08004dc0   Section        0  rp_monitor.o(i.StartrpMonitorTask)
    i.SysTick_Handler                        0x08004e48   Section        0  port.o(i.SysTick_Handler)
    i.SystemClock_Config                     0x08004e74   Section        0  main.o(i.SystemClock_Config)
    i.SystemInit                             0x08004efc   Section        0  system_stm32f4xx.o(i.SystemInit)
    i.TIM2_IRQHandler                        0x08004f18   Section        0  stm32f4xx_it.o(i.TIM2_IRQHandler)
    i.TIM_Base_SetConfig                     0x08004f24   Section        0  stm32f4xx_hal_tim.o(i.TIM_Base_SetConfig)
    i.TIM_CCxChannelCmd                      0x08004fec   Section        0  stm32f4xx_hal_tim.o(i.TIM_CCxChannelCmd)
    i.TIM_ETR_SetConfig                      0x08005006   Section        0  stm32f4xx_hal_tim.o(i.TIM_ETR_SetConfig)
    i.TIM_ITRx_SetConfig                     0x0800501a   Section        0  stm32f4xx_hal_tim.o(i.TIM_ITRx_SetConfig)
    TIM_ITRx_SetConfig                       0x0800501b   Thumb Code    16  stm32f4xx_hal_tim.o(i.TIM_ITRx_SetConfig)
    i.TIM_OC1_SetConfig                      0x0800502c   Section        0  stm32f4xx_hal_tim.o(i.TIM_OC1_SetConfig)
    TIM_OC1_SetConfig                        0x0800502d   Thumb Code    88  stm32f4xx_hal_tim.o(i.TIM_OC1_SetConfig)
    i.TIM_OC2_SetConfig                      0x0800508c   Section        0  stm32f4xx_hal_tim.o(i.TIM_OC2_SetConfig)
    i.TIM_OC3_SetConfig                      0x080050f8   Section        0  stm32f4xx_hal_tim.o(i.TIM_OC3_SetConfig)
    TIM_OC3_SetConfig                        0x080050f9   Thumb Code    96  stm32f4xx_hal_tim.o(i.TIM_OC3_SetConfig)
    i.TIM_OC4_SetConfig                      0x08005160   Section        0  stm32f4xx_hal_tim.o(i.TIM_OC4_SetConfig)
    TIM_OC4_SetConfig                        0x08005161   Thumb Code    70  stm32f4xx_hal_tim.o(i.TIM_OC4_SetConfig)
    i.TIM_TI1_ConfigInputStage               0x080051b0   Section        0  stm32f4xx_hal_tim.o(i.TIM_TI1_ConfigInputStage)
    TIM_TI1_ConfigInputStage                 0x080051b1   Thumb Code    34  stm32f4xx_hal_tim.o(i.TIM_TI1_ConfigInputStage)
    i.TIM_TI2_ConfigInputStage               0x080051d2   Section        0  stm32f4xx_hal_tim.o(i.TIM_TI2_ConfigInputStage)
    TIM_TI2_ConfigInputStage                 0x080051d3   Thumb Code    36  stm32f4xx_hal_tim.o(i.TIM_TI2_ConfigInputStage)
    i.UART4_IRQHandler                       0x080051f8   Section        0  stm32f4xx_it.o(i.UART4_IRQHandler)
    i.UART5_IRQHandler                       0x08005210   Section        0  stm32f4xx_it.o(i.UART5_IRQHandler)
    i.UART_DMAAbortOnError                   0x08005228   Section        0  stm32f4xx_hal_uart.o(i.UART_DMAAbortOnError)
    UART_DMAAbortOnError                     0x08005229   Thumb Code    16  stm32f4xx_hal_uart.o(i.UART_DMAAbortOnError)
    i.UART_DMAError                          0x08005238   Section        0  stm32f4xx_hal_uart.o(i.UART_DMAError)
    UART_DMAError                            0x08005239   Thumb Code    74  stm32f4xx_hal_uart.o(i.UART_DMAError)
    i.UART_DMATransmitCplt                   0x08005282   Section        0  stm32f4xx_hal_uart.o(i.UART_DMATransmitCplt)
    UART_DMATransmitCplt                     0x08005283   Thumb Code    66  stm32f4xx_hal_uart.o(i.UART_DMATransmitCplt)
    i.UART_DMATxHalfCplt                     0x080052c4   Section        0  stm32f4xx_hal_uart.o(i.UART_DMATxHalfCplt)
    UART_DMATxHalfCplt                       0x080052c5   Thumb Code    10  stm32f4xx_hal_uart.o(i.UART_DMATxHalfCplt)
    i.UART_EndRxTransfer                     0x080052ce   Section        0  stm32f4xx_hal_uart.o(i.UART_EndRxTransfer)
    UART_EndRxTransfer                       0x080052cf   Thumb Code    78  stm32f4xx_hal_uart.o(i.UART_EndRxTransfer)
    i.UART_EndTxTransfer                     0x0800531c   Section        0  stm32f4xx_hal_uart.o(i.UART_EndTxTransfer)
    UART_EndTxTransfer                       0x0800531d   Thumb Code    28  stm32f4xx_hal_uart.o(i.UART_EndTxTransfer)
    i.UART_Receive_IT                        0x08005338   Section        0  stm32f4xx_hal_uart.o(i.UART_Receive_IT)
    UART_Receive_IT                          0x08005339   Thumb Code   192  stm32f4xx_hal_uart.o(i.UART_Receive_IT)
    i.UART_SetConfig                         0x080053f8   Section        0  stm32f4xx_hal_uart.o(i.UART_SetConfig)
    UART_SetConfig                           0x080053f9   Thumb Code   258  stm32f4xx_hal_uart.o(i.UART_SetConfig)
    i.UART_WaitOnFlagUntilTimeout            0x08005504   Section        0  stm32f4xx_hal_uart.o(i.UART_WaitOnFlagUntilTimeout)
    UART_WaitOnFlagUntilTimeout              0x08005505   Thumb Code   120  stm32f4xx_hal_uart.o(i.UART_WaitOnFlagUntilTimeout)
    i.USART1_IRQHandler                      0x0800557c   Section        0  stm32f4xx_it.o(i.USART1_IRQHandler)
    i.USART1_Init                            0x08005594   Section        0  drv_uart.o(i.USART1_Init)
    i.USART1_rxDataHandler                   0x080055cc   Section        0  rp_monitor.o(i.USART1_rxDataHandler)
    i.USART2_IRQHandler                      0x080055d0   Section        0  stm32f4xx_it.o(i.USART2_IRQHandler)
    i.USART2_Init                            0x080055e8   Section        0  drv_uart.o(i.USART2_Init)
    i.USART2_rxDataHandler                   0x08005624   Section        0  rc_protocol.o(i.USART2_rxDataHandler)
    i.USART4_Init                            0x08005640   Section        0  drv_uart.o(i.USART4_Init)
    i.USART4_rxDataHandler                   0x08005678   Section        0  drv_uart.o(i.USART4_rxDataHandler)
    i.USART5_Init                            0x0800567c   Section        0  drv_uart.o(i.USART5_Init)
    i.USART5_rxDataHandler                   0x080056b4   Section        0  drv_uart.o(i.USART5_rxDataHandler)
    i.USART_AddMsg                           0x080056b6   Section        0  drv_uart.o(i.USART_AddMsg)
    i.USART_StartTx                          0x080056e8   Section        0  drv_uart.o(i.USART_StartTx)
    i.USART_StartTxDma                       0x0800574c   Section        0  drv_uart.o(i.USART_StartTxDma)
    i.UsageFault_Handler                     0x080057ac   Section        0  stm32f4xx_it.o(i.UsageFault_Handler)
    i.__ARM_fpclassify                       0x080057ae   Section        0  fpclassify.o(i.__ARM_fpclassify)
    i.__NVIC_SetPriority                     0x080057de   Section        0  stm32f4xx_hal_cortex.o(i.__NVIC_SetPriority)
    __NVIC_SetPriority                       0x080057df   Thumb Code    32  stm32f4xx_hal_cortex.o(i.__NVIC_SetPriority)
    i.__hardfp_asin                          0x08005800   Section        0  asin.o(i.__hardfp_asin)
    i.__hardfp_atan                          0x08005b60   Section        0  atan.o(i.__hardfp_atan)
    i.__hardfp_atan2                         0x08005e38   Section        0  atan2.o(i.__hardfp_atan2)
    i.__kernel_poly                          0x08006028   Section        0  poly.o(i.__kernel_poly)
    i.__mathlib_dbl_infnan                   0x08006120   Section        0  dunder.o(i.__mathlib_dbl_infnan)
    i.__mathlib_dbl_infnan2                  0x08006134   Section        0  dunder.o(i.__mathlib_dbl_infnan2)
    i.__mathlib_dbl_invalid                  0x08006148   Section        0  dunder.o(i.__mathlib_dbl_invalid)
    i.__mathlib_dbl_underflow                0x08006168   Section        0  dunder.o(i.__mathlib_dbl_underflow)
    i.__scatterload_copy                     0x08006188   Section       14  handlers.o(i.__scatterload_copy)
    i.__scatterload_null                     0x08006196   Section        2  handlers.o(i.__scatterload_null)
    i.__scatterload_zeroinit                 0x08006198   Section       14  handlers.o(i.__scatterload_zeroinit)
    i.__set_errno                            0x080061a8   Section        0  errno.o(i.__set_errno)
    i.atan                                   0x080061b4   Section        0  atan.o(i.atan)
    i.bmi270_init                            0x080061c4   Section        0  bmi270.o(i.bmi270_init)
    i.bmi2_error_codes_print_result          0x0800623c   Section        0  bmi2_common.o(i.bmi2_error_codes_print_result)
    i.bmi2_extract_input_feat_config         0x0800623e   Section        0  bmi2.o(i.bmi2_extract_input_feat_config)
    i.bmi2_get_feat_config                   0x08006274   Section        0  bmi2.o(i.bmi2_get_feat_config)
    i.bmi2_get_gyro_cross_sense              0x08006314   Section        0  bmi2.o(i.bmi2_get_gyro_cross_sense)
    i.bmi2_get_internal_status               0x08006350   Section        0  bmi2.o(i.bmi2_get_internal_status)
    i.bmi2_get_regs                          0x08006380   Section        0  bmi2.o(i.bmi2_get_regs)
    i.bmi2_get_sensor_config                 0x08006414   Section        0  bmi2.o(i.bmi2_get_sensor_config)
    i.bmi2_get_sensor_data                   0x0800664e   Section        0  bmi2.o(i.bmi2_get_sensor_data)
    i.bmi2_get_status                        0x0800692c   Section        0  bmi2.o(i.bmi2_get_status)
    i.bmi2_interface_selection               0x08006954   Section        0  bmi2_common.o(i.bmi2_interface_selection)
    i.bmi2_map_data_int                      0x08006994   Section        0  bmi2.o(i.bmi2_map_data_int)
    i.bmi2_sec_init                          0x08006a0c   Section        0  bmi2.o(i.bmi2_sec_init)
    i.bmi2_sensor_enable                     0x08006a70   Section        0  bmi2.o(i.bmi2_sensor_enable)
    i.bmi2_set_adv_power_save                0x08006aa8   Section        0  bmi2.o(i.bmi2_set_adv_power_save)
    i.bmi2_set_regs                          0x08006b0c   Section        0  bmi2.o(i.bmi2_set_regs)
    i.bmi2_set_sensor_config                 0x08006ba8   Section        0  bmi2.o(i.bmi2_set_sensor_config)
    i.bmi2_soft_reset                        0x08006d8e   Section        0  bmi2.o(i.bmi2_soft_reset)
    i.bmi2_write_config_file                 0x08006dee   Section        0  bmi2.o(i.bmi2_write_config_file)
    i.cfg_error_status                       0x08006e44   Section        0  bmi2.o(i.cfg_error_status)
    cfg_error_status                         0x08006e45   Thumb Code    62  bmi2.o(i.cfg_error_status)
    i.chassis_motor_check                    0x08006e82   Section        0  chassis_motor.o(i.chassis_motor_check)
    chassis_motor_check                      0x08006e83   Thumb Code    72  chassis_motor.o(i.chassis_motor_check)
    i.chassis_motor_heart_beat               0x08006eca   Section        0  chassis_motor.o(i.chassis_motor_heart_beat)
    chassis_motor_heart_beat                 0x08006ecb   Thumb Code    34  chassis_motor.o(i.chassis_motor_heart_beat)
    i.chassis_motor_init                     0x08006eec   Section        0  chassis_motor.o(i.chassis_motor_init)
    chassis_motor_init                       0x08006eed   Thumb Code    60  chassis_motor.o(i.chassis_motor_init)
    i.chassis_motor_update                   0x08006f28   Section        0  chassis_motor.o(i.chassis_motor_update)
    chassis_motor_update                     0x08006f29   Thumb Code    44  chassis_motor.o(i.chassis_motor_update)
    i.check_boundary_val                     0x08006f54   Section        0  bmi2.o(i.check_boundary_val)
    check_boundary_val                       0x08006f55   Thumb Code    48  bmi2.o(i.check_boundary_val)
    i.comp_gyro_cross_axis_sensitivity       0x08006f84   Section        0  bmi2.o(i.comp_gyro_cross_axis_sensitivity)
    comp_gyro_cross_axis_sensitivity         0x08006f85   Thumb Code    26  bmi2.o(i.comp_gyro_cross_axis_sensitivity)
    i.config_aux_interface                   0x08006f9e   Section        0  bmi2.o(i.config_aux_interface)
    config_aux_interface                     0x08006f9f   Thumb Code   220  bmi2.o(i.config_aux_interface)
    i.delay_us                               0x0800707c   Section        0  drv_haltick.o(i.delay_us)
    i.dma_m0_rxcplt_callback                 0x08007094   Section        0  drv_uart.o(i.dma_m0_rxcplt_callback)
    dma_m0_rxcplt_callback                   0x08007095   Thumb Code    20  drv_uart.o(i.dma_m0_rxcplt_callback)
    i.dma_m1_rxcplt_callback                 0x080070ac   Section        0  drv_uart.o(i.dma_m1_rxcplt_callback)
    dma_m1_rxcplt_callback                   0x080070ad   Thumb Code    20  drv_uart.o(i.dma_m1_rxcplt_callback)
    i.event_notify                           0x080070c4   Section        0  monitor_task.o(i.event_notify)
    event_notify                             0x080070c5   Thumb Code    72  monitor_task.o(i.event_notify)
    i.extract_output_feat_config             0x0800711c   Section        0  bmi2.o(i.extract_output_feat_config)
    extract_output_feat_config               0x0800711d   Thumb Code    54  bmi2.o(i.extract_output_feat_config)
    i.fabs                                   0x08007152   Section        0  fabs.o(i.fabs)
    i.free                                   0x0800716c   Section        0  malloc.o(i.free)
    i.get_acc_gyr_data                       0x080071bc   Section        0  bmi2.o(i.get_acc_gyr_data)
    get_acc_gyr_data                         0x080071bd   Thumb Code    32  bmi2.o(i.get_acc_gyr_data)
    i.get_accel_config                       0x080071dc   Section        0  bmi2.o(i.get_accel_config)
    get_accel_config                         0x080071dd   Thumb Code    78  bmi2.o(i.get_accel_config)
    i.get_accel_self_test_status             0x0800722a   Section        0  bmi2.o(i.get_accel_self_test_status)
    get_accel_self_test_status               0x0800722b   Thumb Code   104  bmi2.o(i.get_accel_self_test_status)
    i.get_any_motion_config                  0x08007292   Section        0  bmi2.o(i.get_any_motion_config)
    get_any_motion_config                    0x08007293   Thumb Code   138  bmi2.o(i.get_any_motion_config)
    i.get_aux_config                         0x0800731c   Section        0  bmi2.o(i.get_aux_config)
    get_aux_config                           0x0800731d   Thumb Code   170  bmi2.o(i.get_aux_config)
    i.get_ext_sens_sync_config               0x080073c6   Section        0  bmi2.o(i.get_ext_sens_sync_config)
    get_ext_sens_sync_config                 0x080073c7   Thumb Code    88  bmi2.o(i.get_ext_sens_sync_config)
    i.get_flat_config                        0x0800741e   Section        0  bmi2.o(i.get_flat_config)
    get_flat_config                          0x0800741f   Thumb Code   134  bmi2.o(i.get_flat_config)
    i.get_free_fall_det_config               0x080074a4   Section        0  bmi2.o(i.get_free_fall_det_config)
    get_free_fall_det_config                 0x080074a5   Thumb Code   130  bmi2.o(i.get_free_fall_det_config)
    i.get_glance_detect_config               0x08007526   Section        0  bmi2.o(i.get_glance_detect_config)
    get_glance_detect_config                 0x08007527   Thumb Code    88  bmi2.o(i.get_glance_detect_config)
    i.get_gyro_config                        0x0800757e   Section        0  bmi2.o(i.get_gyro_config)
    get_gyro_config                          0x0800757f   Thumb Code    94  bmi2.o(i.get_gyro_config)
    i.get_gyro_cross_sense                   0x080075dc   Section        0  bmi2.o(i.get_gyro_cross_sense)
    get_gyro_cross_sense                     0x080075dd   Thumb Code   114  bmi2.o(i.get_gyro_cross_sense)
    i.get_gyro_gain_update_config            0x0800764e   Section        0  bmi2.o(i.get_gyro_gain_update_config)
    get_gyro_gain_update_config              0x0800764f   Thumb Code   138  bmi2.o(i.get_gyro_gain_update_config)
    i.get_gyro_gain_update_status            0x080076d8   Section        0  bmi2.o(i.get_gyro_gain_update_status)
    get_gyro_gain_update_status              0x080076d9   Thumb Code   104  bmi2.o(i.get_gyro_gain_update_status)
    i.get_high_g_config                      0x08007740   Section        0  bmi2.o(i.get_high_g_config)
    get_high_g_config                        0x08007741   Thumb Code   164  bmi2.o(i.get_high_g_config)
    i.get_low_g_config                       0x080077e4   Section        0  bmi2.o(i.get_low_g_config)
    get_low_g_config                         0x080077e5   Thumb Code   146  bmi2.o(i.get_low_g_config)
    i.get_no_motion_config                   0x08007876   Section        0  bmi2.o(i.get_no_motion_config)
    get_no_motion_config                     0x08007877   Thumb Code   138  bmi2.o(i.get_no_motion_config)
    i.get_nvm_error_status                   0x08007900   Section        0  bmi2.o(i.get_nvm_error_status)
    get_nvm_error_status                     0x08007901   Thumb Code   118  bmi2.o(i.get_nvm_error_status)
    i.get_ois_output                         0x08007976   Section        0  bmi2.o(i.get_ois_output)
    get_ois_output                           0x08007977   Thumb Code   180  bmi2.o(i.get_ois_output)
    i.get_orient_config                      0x08007a2a   Section        0  bmi2.o(i.get_orient_config)
    get_orient_config                        0x08007a2b   Thumb Code   140  bmi2.o(i.get_orient_config)
    i.get_remapped_data                      0x08007ab6   Section        0  bmi2.o(i.get_remapped_data)
    get_remapped_data                        0x08007ab7   Thumb Code    86  bmi2.o(i.get_remapped_data)
    i.get_sig_motion_config                  0x08007b0c   Section        0  bmi2.o(i.get_sig_motion_config)
    get_sig_motion_config                    0x08007b0d   Thumb Code   190  bmi2.o(i.get_sig_motion_config)
    i.get_step_config                        0x08007bca   Section        0  bmi2.o(i.get_step_config)
    get_step_config                          0x08007bcb   Thumb Code   138  bmi2.o(i.get_step_config)
    i.get_step_count_params_config           0x08007c54   Section        0  bmi2.o(i.get_step_count_params_config)
    get_step_count_params_config             0x08007c55   Thumb Code   170  bmi2.o(i.get_step_count_params_config)
    i.get_step_counter_output                0x08007cfe   Section        0  bmi2.o(i.get_step_counter_output)
    get_step_counter_output                  0x08007cff   Thumb Code   110  bmi2.o(i.get_step_counter_output)
    i.get_tilt_config                        0x08007d6c   Section        0  bmi2.o(i.get_tilt_config)
    get_tilt_config                          0x08007d6d   Thumb Code    88  bmi2.o(i.get_tilt_config)
    i.get_up_hold_to_wake_config             0x08007dc4   Section        0  bmi2.o(i.get_up_hold_to_wake_config)
    get_up_hold_to_wake_config               0x08007dc5   Thumb Code    88  bmi2.o(i.get_up_hold_to_wake_config)
    i.get_wake_up_config                     0x08007e1c   Section        0  bmi2.o(i.get_wake_up_config)
    get_wake_up_config                       0x08007e1d   Thumb Code   124  bmi2.o(i.get_wake_up_config)
    i.get_wrist_gest_config                  0x08007e98   Section        0  bmi2.o(i.get_wrist_gest_config)
    get_wrist_gest_config                    0x08007e99   Thumb Code   118  bmi2.o(i.get_wrist_gest_config)
    i.get_wrist_gest_w_config                0x08007f0e   Section        0  bmi2.o(i.get_wrist_gest_w_config)
    get_wrist_gest_w_config                  0x08007f0f   Thumb Code   138  bmi2.o(i.get_wrist_gest_w_config)
    i.get_wrist_wear_wake_up_config          0x08007f98   Section        0  bmi2.o(i.get_wrist_wear_wake_up_config)
    get_wrist_wear_wake_up_config            0x08007f99   Thumb Code   142  bmi2.o(i.get_wrist_wear_wake_up_config)
    i.get_wrist_wear_wake_up_wh_config       0x08008026   Section        0  bmi2.o(i.get_wrist_wear_wake_up_wh_config)
    get_wrist_wear_wake_up_wh_config         0x08008027   Thumb Code   156  bmi2.o(i.get_wrist_wear_wake_up_wh_config)
    i.imu_sensor_check                       0x080080c2   Section        0  imu_sensor.o(i.imu_sensor_check)
    imu_sensor_check                         0x080080c3   Thumb Code    68  imu_sensor.o(i.imu_sensor_check)
    i.imu_sensor_heart_beat                  0x08008106   Section        0  imu_sensor.o(i.imu_sensor_heart_beat)
    imu_sensor_heart_beat                    0x08008107   Thumb Code     6  imu_sensor.o(i.imu_sensor_heart_beat)
    i.imu_sensor_init                        0x0800810c   Section        0  imu_protocol.o(i.imu_sensor_init)
    i.imu_sensor_update                      0x080081ac   Section        0  imu_protocol.o(i.imu_sensor_update)
    i.inVSqrt                                0x08008208   Section        0  bmi.o(i.inVSqrt)
    i.lsb_to_dps                             0x08008234   Section        0  bmi.o(i.lsb_to_dps)
    lsb_to_dps                               0x08008235   Thumb Code    38  bmi.o(i.lsb_to_dps)
    i.lsb_to_mps2                            0x0800825c   Section        0  bmi.o(i.lsb_to_mps2)
    lsb_to_mps2                              0x0800825d   Thumb Code    46  bmi.o(i.lsb_to_mps2)
    i.main                                   0x08008290   Section        0  main.o(i.main)
    i.makeFreeRtosPriority                   0x080082da   Section        0  cmsis_os.o(i.makeFreeRtosPriority)
    makeFreeRtosPriority                     0x080082db   Thumb Code    12  cmsis_os.o(i.makeFreeRtosPriority)
    i.malloc                                 0x080082e8   Section        0  malloc.o(i.malloc)
    i.micros                                 0x08008354   Section        0  drv_haltick.o(i.micros)
    i.null_ptr_check                         0x0800837c   Section        0  bmi2.o(i.null_ptr_check)
    null_ptr_check                           0x0800837d   Thumb Code    24  bmi2.o(i.null_ptr_check)
    i.osDelay                                0x08008394   Section        0  cmsis_os.o(i.osDelay)
    i.osKernelStart                          0x080083a2   Section        0  cmsis_os.o(i.osKernelStart)
    i.osThreadCreate                         0x080083ac   Section        0  cmsis_os.o(i.osThreadCreate)
    i.pid_val_init                           0x08008400   Section        0  pid.o(i.pid_val_init)
    i.prvAddCurrentTaskToDelayedList         0x08008428   Section        0  tasks.o(i.prvAddCurrentTaskToDelayedList)
    prvAddCurrentTaskToDelayedList           0x08008429   Thumb Code   102  tasks.o(i.prvAddCurrentTaskToDelayedList)
    i.prvAddNewTaskToReadyList               0x08008498   Section        0  tasks.o(i.prvAddNewTaskToReadyList)
    prvAddNewTaskToReadyList                 0x08008499   Thumb Code   194  tasks.o(i.prvAddNewTaskToReadyList)
    i.prvDeleteTCB                           0x08008568   Section        0  tasks.o(i.prvDeleteTCB)
    prvDeleteTCB                             0x08008569   Thumb Code    52  tasks.o(i.prvDeleteTCB)
    i.prvHeapInit                            0x0800859c   Section        0  heap_4.o(i.prvHeapInit)
    prvHeapInit                              0x0800859d   Thumb Code    66  heap_4.o(i.prvHeapInit)
    i.prvIdleTask                            0x080085e8   Section        0  tasks.o(i.prvIdleTask)
    prvIdleTask                              0x080085e9   Thumb Code    82  tasks.o(i.prvIdleTask)
    i.prvInitialiseNewTask                   0x08008648   Section        0  tasks.o(i.prvInitialiseNewTask)
    prvInitialiseNewTask                     0x08008649   Thumb Code   152  tasks.o(i.prvInitialiseNewTask)
    i.prvInsertBlockIntoFreeList             0x080086e0   Section        0  heap_4.o(i.prvInsertBlockIntoFreeList)
    prvInsertBlockIntoFreeList               0x080086e1   Thumb Code    72  heap_4.o(i.prvInsertBlockIntoFreeList)
    i.prvResetNextTaskUnblockTime            0x0800872c   Section        0  tasks.o(i.prvResetNextTaskUnblockTime)
    prvResetNextTaskUnblockTime              0x0800872d   Thumb Code    26  tasks.o(i.prvResetNextTaskUnblockTime)
    i.prvTaskExitError                       0x0800874c   Section        0  port.o(i.prvTaskExitError)
    prvTaskExitError                         0x0800874d   Thumb Code    36  port.o(i.prvTaskExitError)
    i.pvPortMalloc                           0x08008774   Section        0  heap_4.o(i.pvPortMalloc)
    i.pxPortInitialiseStack                  0x08008850   Section        0  port.o(i.pxPortInitialiseStack)
    i.rc_copy_button                         0x0800887c   Section        0  rc.o(i.rc_copy_button)
    rc_copy_button                           0x0800887d   Thumb Code    36  rc.o(i.rc_copy_button)
    i.rc_copy_switch                         0x080088a0   Section        0  rc.o(i.rc_copy_switch)
    rc_copy_switch                           0x080088a1   Thumb Code    68  rc.o(i.rc_copy_switch)
    i.rc_init                                0x080088e4   Section        0  rc.o(i.rc_init)
    i.rc_reset                               0x080088f0   Section        0  rc.o(i.rc_reset)
    i.rc_reset_button                        0x08008a0c   Section        0  rc.o(i.rc_reset_button)
    rc_reset_button                          0x08008a0d   Thumb Code    16  rc.o(i.rc_reset_button)
    i.rc_reset_mouse                         0x08008a20   Section        0  rc.o(i.rc_reset_mouse)
    rc_reset_mouse                           0x08008a21   Thumb Code     4  rc.o(i.rc_reset_mouse)
    i.rc_reset_stick                         0x08008a24   Section        0  rc.o(i.rc_reset_stick)
    rc_reset_stick                           0x08008a25   Thumb Code     4  rc.o(i.rc_reset_stick)
    i.rc_reset_switch                        0x08008a28   Section        0  rc.o(i.rc_reset_switch)
    rc_reset_switch                          0x08008a29   Thumb Code    16  rc.o(i.rc_reset_switch)
    i.rc_sensor_check                        0x08008a3c   Section        0  rc_sensor.o(i.rc_sensor_check)
    rc_sensor_check                          0x08008a3d   Thumb Code    82  rc_sensor.o(i.rc_sensor_check)
    i.rc_sensor_heart_beat                   0x08008a8e   Section        0  rc_sensor.o(i.rc_sensor_heart_beat)
    rc_sensor_heart_beat                     0x08008a8f   Thumb Code    36  rc_sensor.o(i.rc_sensor_heart_beat)
    i.rc_sensor_if_channel_reset             0x08008ab4   Section        0  rc_sensor.o(i.rc_sensor_if_channel_reset)
    rc_sensor_if_channel_reset               0x08008ab5   Thumb Code   164  rc_sensor.o(i.rc_sensor_if_channel_reset)
    i.rc_sensor_init                         0x08008b60   Section        0  rc_sensor.o(i.rc_sensor_init)
    rc_sensor_init                           0x08008b61   Thumb Code    22  rc_sensor.o(i.rc_sensor_init)
    i.rc_sensor_reset                        0x08008b76   Section        0  rc_sensor.o(i.rc_sensor_reset)
    rc_sensor_reset                          0x08008b77   Thumb Code    34  rc_sensor.o(i.rc_sensor_reset)
    i.rc_sensor_update                       0x08008b98   Section        0  rc_protocol.o(i.rc_sensor_update)
    i.rc_update                              0x08008c20   Section        0  rc.o(i.rc_update)
    i.rc_update_button                       0x08008d9c   Section        0  rc.o(i.rc_update_button)
    rc_update_button                         0x08008d9d   Thumb Code    56  rc.o(i.rc_update_button)
    i.rc_update_mouse                        0x08008dd8   Section        0  rc.o(i.rc_update_mouse)
    rc_update_mouse                          0x08008dd9   Thumb Code     4  rc.o(i.rc_update_mouse)
    i.rc_update_stick                        0x08008ddc   Section        0  rc.o(i.rc_update_stick)
    rc_update_stick                          0x08008ddd   Thumb Code     4  rc.o(i.rc_update_stick)
    i.rc_update_switch                       0x08008de0   Section        0  rc.o(i.rc_update_switch)
    rc_update_switch                         0x08008de1   Thumb Code    88  rc.o(i.rc_update_switch)
    i.rpMonitor_ConfirmSubscribe             0x08008e3c   Section        0  rp_monitor.o(i.rpMonitor_ConfirmSubscribe)
    rpMonitor_ConfirmSubscribe               0x08008e3d   Thumb Code   120  rp_monitor.o(i.rpMonitor_ConfirmSubscribe)
    i.rpMonitor_ReadFlash                    0x08008ebc   Section        0  rp_monitor.o(i.rpMonitor_ReadFlash)
    rpMonitor_ReadFlash                      0x08008ebd   Thumb Code    54  rp_monitor.o(i.rpMonitor_ReadFlash)
    i.rpMonitor_Rx                           0x08008ef8   Section        0  rp_monitor.o(i.rpMonitor_Rx)
    rpMonitor_Rx                             0x08008ef9   Thumb Code   196  rp_monitor.o(i.rpMonitor_Rx)
    i.rpMonitor_SubscribeFlash               0x08008fc0   Section        0  rp_monitor.o(i.rpMonitor_SubscribeFlash)
    rpMonitor_SubscribeFlash                 0x08008fc1   Thumb Code    84  rp_monitor.o(i.rpMonitor_SubscribeFlash)
    i.rpMonitor_Tx                           0x08009018   Section        0  rp_monitor.o(i.rpMonitor_Tx)
    rpMonitor_Tx                             0x08009019   Thumb Code    94  rp_monitor.o(i.rpMonitor_Tx)
    i.rpMonitor_WriteFlash                   0x0800907c   Section        0  rp_monitor.o(i.rpMonitor_WriteFlash)
    rpMonitor_WriteFlash                     0x0800907d   Thumb Code   116  rp_monitor.o(i.rpMonitor_WriteFlash)
    i.select_sensor                          0x080090f4   Section        0  bmi2.o(i.select_sensor)
    select_sensor                            0x080090f5   Thumb Code   334  bmi2.o(i.select_sensor)
    i.sensor_enable                          0x08009244   Section        0  bmi2.o(i.sensor_enable)
    sensor_enable                            0x08009245   Thumb Code   958  bmi2.o(i.sensor_enable)
    i.set_accel_config                       0x08009608   Section        0  bmi2.o(i.set_accel_config)
    set_accel_config                         0x08009609   Thumb Code   152  bmi2.o(i.set_accel_config)
    i.set_act_recog                          0x080096a0   Section        0  bmi2.o(i.set_act_recog)
    set_act_recog                            0x080096a1   Thumb Code    86  bmi2.o(i.set_act_recog)
    i.set_any_motion                         0x080096f6   Section        0  bmi2.o(i.set_any_motion)
    set_any_motion                           0x080096f7   Thumb Code    90  bmi2.o(i.set_any_motion)
    i.set_any_motion_config                  0x08009750   Section        0  bmi2.o(i.set_any_motion_config)
    set_any_motion_config                    0x08009751   Thumb Code   198  bmi2.o(i.set_any_motion_config)
    i.set_aux_config                         0x08009816   Section        0  bmi2.o(i.set_aux_config)
    set_aux_config                           0x08009817   Thumb Code   144  bmi2.o(i.set_aux_config)
    i.set_config_load                        0x080098a6   Section        0  bmi2.o(i.set_config_load)
    set_config_load                          0x080098a7   Thumb Code    54  bmi2.o(i.set_config_load)
    i.set_double_tap                         0x080098dc   Section        0  bmi2.o(i.set_double_tap)
    set_double_tap                           0x080098dd   Thumb Code    86  bmi2.o(i.set_double_tap)
    i.set_ext_sens_sync                      0x08009932   Section        0  bmi2.o(i.set_ext_sens_sync)
    set_ext_sens_sync                        0x08009933   Thumb Code    86  bmi2.o(i.set_ext_sens_sync)
    i.set_ext_sens_sync_config               0x08009988   Section        0  bmi2.o(i.set_ext_sens_sync_config)
    set_ext_sens_sync_config                 0x08009989   Thumb Code   142  bmi2.o(i.set_ext_sens_sync_config)
    i.set_feat_accel_self_test               0x08009a18   Section        0  bmi2.o(i.set_feat_accel_self_test)
    set_feat_accel_self_test                 0x08009a19   Thumb Code    98  bmi2.o(i.set_feat_accel_self_test)
    i.set_flat                               0x08009a80   Section        0  bmi2.o(i.set_flat)
    set_flat                                 0x08009a81   Thumb Code    86  bmi2.o(i.set_flat)
    i.set_flat_config                        0x08009ad6   Section        0  bmi2.o(i.set_flat_config)
    set_flat_config                          0x08009ad7   Thumb Code   188  bmi2.o(i.set_flat_config)
    i.set_free_fall_det                      0x08009b92   Section        0  bmi2.o(i.set_free_fall_det)
    set_free_fall_det                        0x08009b93   Thumb Code    86  bmi2.o(i.set_free_fall_det)
    i.set_free_fall_det_config               0x08009be8   Section        0  bmi2.o(i.set_free_fall_det_config)
    set_free_fall_det_config                 0x08009be9   Thumb Code   168  bmi2.o(i.set_free_fall_det_config)
    i.set_glance_detect_config               0x08009c90   Section        0  bmi2.o(i.set_glance_detect_config)
    set_glance_detect_config                 0x08009c91   Thumb Code   142  bmi2.o(i.set_glance_detect_config)
    i.set_glance_detector                    0x08009d1e   Section        0  bmi2.o(i.set_glance_detector)
    set_glance_detector                      0x08009d1f   Thumb Code    86  bmi2.o(i.set_glance_detector)
    i.set_gyro_config                        0x08009d74   Section        0  bmi2.o(i.set_gyro_config)
    set_gyro_config                          0x08009d75   Thumb Code   172  bmi2.o(i.set_gyro_config)
    i.set_gyro_self_offset_corr              0x08009e20   Section        0  bmi2.o(i.set_gyro_self_offset_corr)
    set_gyro_self_offset_corr                0x08009e21   Thumb Code    86  bmi2.o(i.set_gyro_self_offset_corr)
    i.set_gyro_user_gain                     0x08009e76   Section        0  bmi2.o(i.set_gyro_user_gain)
    set_gyro_user_gain                       0x08009e77   Thumb Code    90  bmi2.o(i.set_gyro_user_gain)
    i.set_gyro_user_gain_config              0x08009ed0   Section        0  bmi2.o(i.set_gyro_user_gain_config)
    set_gyro_user_gain_config                0x08009ed1   Thumb Code   162  bmi2.o(i.set_gyro_user_gain_config)
    i.set_high_g                             0x08009f72   Section        0  bmi2.o(i.set_high_g)
    set_high_g                               0x08009f73   Thumb Code    90  bmi2.o(i.set_high_g)
    i.set_high_g_config                      0x08009fcc   Section        0  bmi2.o(i.set_high_g_config)
    set_high_g_config                        0x08009fcd   Thumb Code   218  bmi2.o(i.set_high_g_config)
    i.set_low_g                              0x0800a0a6   Section        0  bmi2.o(i.set_low_g)
    set_low_g                                0x0800a0a7   Thumb Code    90  bmi2.o(i.set_low_g)
    i.set_low_g_config                       0x0800a100   Section        0  bmi2.o(i.set_low_g_config)
    set_low_g_config                         0x0800a101   Thumb Code   186  bmi2.o(i.set_low_g_config)
    i.set_no_motion                          0x0800a1ba   Section        0  bmi2.o(i.set_no_motion)
    set_no_motion                            0x0800a1bb   Thumb Code    90  bmi2.o(i.set_no_motion)
    i.set_no_motion_config                   0x0800a214   Section        0  bmi2.o(i.set_no_motion_config)
    set_no_motion_config                     0x0800a215   Thumb Code   198  bmi2.o(i.set_no_motion_config)
    i.set_orient_config                      0x0800a2da   Section        0  bmi2.o(i.set_orient_config)
    set_orient_config                        0x0800a2db   Thumb Code   198  bmi2.o(i.set_orient_config)
    i.set_orientation                        0x0800a3a0   Section        0  bmi2.o(i.set_orientation)
    set_orientation                          0x0800a3a1   Thumb Code    86  bmi2.o(i.set_orientation)
    i.set_primary_ois_config                 0x0800a3f6   Section        0  bmi2.o(i.set_primary_ois_config)
    set_primary_ois_config                   0x0800a3f7   Thumb Code   158  bmi2.o(i.set_primary_ois_config)
    i.set_sig_motion                         0x0800a494   Section        0  bmi2.o(i.set_sig_motion)
    set_sig_motion                           0x0800a495   Thumb Code    90  bmi2.o(i.set_sig_motion)
    i.set_sig_motion_config                  0x0800a4ee   Section        0  bmi2.o(i.set_sig_motion_config)
    set_sig_motion_config                    0x0800a4ef   Thumb Code   190  bmi2.o(i.set_sig_motion_config)
    i.set_single_tap                         0x0800a5ac   Section        0  bmi2.o(i.set_single_tap)
    set_single_tap                           0x0800a5ad   Thumb Code    86  bmi2.o(i.set_single_tap)
    i.set_step_activity                      0x0800a602   Section        0  bmi2.o(i.set_step_activity)
    set_step_activity                        0x0800a603   Thumb Code    90  bmi2.o(i.set_step_activity)
    i.set_step_config                        0x0800a65c   Section        0  bmi2.o(i.set_step_config)
    set_step_config                          0x0800a65d   Thumb Code   192  bmi2.o(i.set_step_config)
    i.set_step_count_params_config           0x0800a71c   Section        0  bmi2.o(i.set_step_count_params_config)
    set_step_count_params_config             0x0800a71d   Thumb Code   212  bmi2.o(i.set_step_count_params_config)
    i.set_step_counter                       0x0800a7f0   Section        0  bmi2.o(i.set_step_counter)
    set_step_counter                         0x0800a7f1   Thumb Code    90  bmi2.o(i.set_step_counter)
    i.set_step_detector                      0x0800a84a   Section        0  bmi2.o(i.set_step_detector)
    set_step_detector                        0x0800a84b   Thumb Code    90  bmi2.o(i.set_step_detector)
    i.set_tilt                               0x0800a8a4   Section        0  bmi2.o(i.set_tilt)
    set_tilt                                 0x0800a8a5   Thumb Code    86  bmi2.o(i.set_tilt)
    i.set_tilt_config                        0x0800a8fa   Section        0  bmi2.o(i.set_tilt_config)
    set_tilt_config                          0x0800a8fb   Thumb Code   142  bmi2.o(i.set_tilt_config)
    i.set_triple_tap                         0x0800a988   Section        0  bmi2.o(i.set_triple_tap)
    set_triple_tap                           0x0800a989   Thumb Code    86  bmi2.o(i.set_triple_tap)
    i.set_up_hold_to_wake                    0x0800a9de   Section        0  bmi2.o(i.set_up_hold_to_wake)
    set_up_hold_to_wake                      0x0800a9df   Thumb Code    86  bmi2.o(i.set_up_hold_to_wake)
    i.set_up_hold_to_wake_config             0x0800aa34   Section        0  bmi2.o(i.set_up_hold_to_wake_config)
    set_up_hold_to_wake_config               0x0800aa35   Thumb Code   142  bmi2.o(i.set_up_hold_to_wake_config)
    i.set_wake_up                            0x0800aac2   Section        0  bmi2.o(i.set_wake_up)
    set_wake_up                              0x0800aac3   Thumb Code    86  bmi2.o(i.set_wake_up)
    i.set_wake_up_config                     0x0800ab18   Section        0  bmi2.o(i.set_wake_up_config)
    set_wake_up_config                       0x0800ab19   Thumb Code   188  bmi2.o(i.set_wake_up_config)
    i.set_wrist_gest_config                  0x0800abd4   Section        0  bmi2.o(i.set_wrist_gest_config)
    set_wrist_gest_config                    0x0800abd5   Thumb Code   182  bmi2.o(i.set_wrist_gest_config)
    i.set_wrist_gest_w_config                0x0800ac8a   Section        0  bmi2.o(i.set_wrist_gest_w_config)
    set_wrist_gest_w_config                  0x0800ac8b   Thumb Code   200  bmi2.o(i.set_wrist_gest_w_config)
    i.set_wrist_gesture                      0x0800ad52   Section        0  bmi2.o(i.set_wrist_gesture)
    set_wrist_gesture                        0x0800ad53   Thumb Code    86  bmi2.o(i.set_wrist_gesture)
    i.set_wrist_gesture_wh                   0x0800ada8   Section        0  bmi2.o(i.set_wrist_gesture_wh)
    set_wrist_gesture_wh                     0x0800ada9   Thumb Code    86  bmi2.o(i.set_wrist_gesture_wh)
    i.set_wrist_wear_wake_up                 0x0800adfe   Section        0  bmi2.o(i.set_wrist_wear_wake_up)
    set_wrist_wear_wake_up                   0x0800adff   Thumb Code    86  bmi2.o(i.set_wrist_wear_wake_up)
    i.set_wrist_wear_wake_up_config          0x0800ae54   Section        0  bmi2.o(i.set_wrist_wear_wake_up_config)
    set_wrist_wear_wake_up_config            0x0800ae55   Thumb Code   200  bmi2.o(i.set_wrist_wear_wake_up_config)
    i.set_wrist_wear_wake_up_wh              0x0800af1c   Section        0  bmi2.o(i.set_wrist_wear_wake_up_wh)
    set_wrist_wear_wake_up_wh                0x0800af1d   Thumb Code    86  bmi2.o(i.set_wrist_wear_wake_up_wh)
    i.set_wrist_wear_wake_up_wh_config       0x0800af72   Section        0  bmi2.o(i.set_wrist_wear_wake_up_wh_config)
    set_wrist_wear_wake_up_wh_config         0x0800af73   Thumb Code   250  bmi2.o(i.set_wrist_wear_wake_up_wh_config)
    i.single_pid_ctrl                        0x0800b06c   Section        0  pid.o(i.single_pid_ctrl)
    i.sqrt                                   0x0800b102   Section        0  sqrt.o(i.sqrt)
    i.uart_rx_idle_callback                  0x0800b170   Section        0  drv_uart.o(i.uart_rx_idle_callback)
    uart_rx_idle_callback                    0x0800b171   Thumb Code   180  drv_uart.o(i.uart_rx_idle_callback)
    i.upload_file                            0x0800b238   Section        0  bmi2.o(i.upload_file)
    upload_file                              0x0800b239   Thumb Code    64  bmi2.o(i.upload_file)
    i.user_delay_us                          0x0800b278   Section        0  bmi2_common.o(i.user_delay_us)
    i.user_i2c_reg_read                      0x0800b27c   Section        0  bmi2_common.o(i.user_i2c_reg_read)
    i.user_i2c_reg_write                     0x0800b2a0   Section        0  bmi2_common.o(i.user_i2c_reg_write)
    i.uxListRemove                           0x0800b2ec   Section        0  list.o(i.uxListRemove)
    i.vApplicationGetIdleTaskMemory          0x0800b314   Section        0  freertos.o(i.vApplicationGetIdleTaskMemory)
    i.vListInitialise                        0x0800b328   Section        0  list.o(i.vListInitialise)
    i.vListInitialiseItem                    0x0800b33e   Section        0  list.o(i.vListInitialiseItem)
    i.vListInsert                            0x0800b344   Section        0  list.o(i.vListInsert)
    i.vListInsertEnd                         0x0800b374   Section        0  list.o(i.vListInsertEnd)
    i.vPortEnterCritical                     0x0800b38c   Section        0  port.o(i.vPortEnterCritical)
    i.vPortExitCritical                      0x0800b3cc   Section        0  port.o(i.vPortExitCritical)
    i.vPortFree                              0x0800b3f4   Section        0  heap_4.o(i.vPortFree)
    i.vPortSetupTimerInterrupt               0x0800b458   Section        0  port.o(i.vPortSetupTimerInterrupt)
    i.vTaskDelay                             0x0800b47c   Section        0  tasks.o(i.vTaskDelay)
    i.vTaskStartScheduler                    0x0800b4c8   Section        0  tasks.o(i.vTaskStartScheduler)
    i.vTaskSuspendAll                        0x0800b534   Section        0  tasks.o(i.vTaskSuspendAll)
    i.vTaskSwitchContext                     0x0800b544   Section        0  tasks.o(i.vTaskSwitchContext)
    i.write_config_file                      0x0800b5a0   Section        0  bmi2.o(i.write_config_file)
    write_config_file                        0x0800b5a1   Thumb Code   224  bmi2.o(i.write_config_file)
    i.xPortStartScheduler                    0x0800b684   Section        0  port.o(i.xPortStartScheduler)
    i.xTaskCreate                            0x0800b778   Section        0  tasks.o(i.xTaskCreate)
    i.xTaskCreateStatic                      0x0800b7d2   Section        0  tasks.o(i.xTaskCreateStatic)
    i.xTaskGenericNotify                     0x0800b828   Section        0  tasks.o(i.xTaskGenericNotify)
    i.xTaskIncrementTick                     0x0800b908   Section        0  tasks.o(i.xTaskIncrementTick)
    i.xTaskNotifyWait                        0x0800b9d4   Section        0  tasks.o(i.xTaskNotifyWait)
    i.xTaskResumeAll                         0x0800ba60   Section        0  tasks.o(i.xTaskResumeAll)
    .constdata                               0x0800bb24   Section        6  bmi2.o(.constdata)
    .constdata                               0x0800bb2a   Section     8261  bmi270.o(.constdata)
    .constdata                               0x0800db70   Section      140  freertos.o(.constdata)
    .constdata                               0x0800dbfc   Section       16  system_stm32f4xx.o(.constdata)
    .constdata                               0x0800dc0c   Section        8  system_stm32f4xx.o(.constdata)
    .constdata                               0x0800dc14   Section        8  stm32f4xx_hal_dma.o(.constdata)
    flagBitshiftOffset                       0x0800dc14   Data           8  stm32f4xx_hal_dma.o(.constdata)
    .constdata                               0x0800dc20   Section       80  asin.o(.constdata)
    pS                                       0x0800dc20   Data          48  asin.o(.constdata)
    qS                                       0x0800dc50   Data          32  asin.o(.constdata)
    .constdata                               0x0800dc70   Section      152  atan.o(.constdata)
    atanhi                                   0x0800dc70   Data          32  atan.o(.constdata)
    atanlo                                   0x0800dc90   Data          32  atan.o(.constdata)
    aTodd                                    0x0800dcb0   Data          40  atan.o(.constdata)
    aTeven                                   0x0800dcd8   Data          48  atan.o(.constdata)
    .constdata                               0x0800dd08   Section        8  qnan.o(.constdata)
    .conststring                             0x0800dd10   Section       64  freertos.o(.conststring)
    .data                                    0x20000000   Section       72  drv_can.o(.data)
    .data                                    0x20000048   Section        4  drv_haltick.o(.data)
    .data                                    0x2000004c   Section      108  bmi.o(.data)
    .data                                    0x200000b8   Section        2  bmi2_common.o(.data)
    dev_addr                                 0x200000b9   Data           1  bmi2_common.o(.data)
    .data                                    0x200000ba   Section       26  rc_sensor.o(.data)
    .data                                    0x200000d4   Section       36  rc_sensor.o(.data)
    .data                                    0x200000f8   Section        2  imu_sensor.o(.data)
    .data                                    0x200000fc   Section       32  imu_sensor.o(.data)
    .data                                    0x2000011c   Section       28  imu_sensor.o(.data)
    .data                                    0x20000138   Section      208  chassis_motor.o(.data)
    .data                                    0x20000208   Section       80  chassis_motor.o(.data)
    .data                                    0x20000258   Section      112  chassis_motor.o(.data)
    .data                                    0x200002c8   Section       24  device.o(.data)
    .data                                    0x200002e0   Section      492  chassis.o(.data)
    .data                                    0x200004cc   Section        4  chassis.o(.data)
    .data                                    0x200004d0   Section       40  chassis.o(.data)
    .data                                    0x200004f8   Section       60  rc.o(.data)
    .data                                    0x20000534   Section        6  system_task.o(.data)
    reconnect_cnt                            0x20000534   Data           1  system_task.o(.data)
    .data                                    0x2000053c   Section       12  monitor_task.o(.data)
    led_blue_flash                           0x2000053c   Data           2  monitor_task.o(.data)
    .data                                    0x20000548   Section        4  send_task.o(.data)
    .data                                    0x2000054c   Section      208  rp_monitor.o(.data)
    rpm_tx_frame                             0x2000054c   Data           4  rp_monitor.o(.data)
    rpm_rx_frame                             0x20000550   Data           4  rp_monitor.o(.data)
    rpm_var_list                             0x20000554   Data           4  rp_monitor.o(.data)
    .data                                    0x2000061c   Section       12  imu_protocol.o(.data)
    .data                                    0x20000628   Section       20  freertos.o(.data)
    .data                                    0x2000063c   Section        4  can.o(.data)
    HAL_RCC_CAN1_CLK_ENABLED                 0x2000063c   Data           4  can.o(.data)
    .data                                    0x20000640   Section        4  system_stm32f4xx.o(.data)
    .data                                    0x20000644   Section       12  stm32f4xx_hal.o(.data)
    .data                                    0x20000650   Section       60  tasks.o(.data)
    uxDeletedTasksWaitingCleanUp             0x20000654   Data           4  tasks.o(.data)
    uxCurrentNumberOfTasks                   0x20000658   Data           4  tasks.o(.data)
    xTickCount                               0x2000065c   Data           4  tasks.o(.data)
    uxTopReadyPriority                       0x20000660   Data           4  tasks.o(.data)
    xSchedulerRunning                        0x20000664   Data           4  tasks.o(.data)
    xPendedTicks                             0x20000668   Data           4  tasks.o(.data)
    xYieldPending                            0x2000066c   Data           4  tasks.o(.data)
    xNumOfOverflows                          0x20000670   Data           4  tasks.o(.data)
    uxTaskNumber                             0x20000674   Data           4  tasks.o(.data)
    xNextTaskUnblockTime                     0x20000678   Data           4  tasks.o(.data)
    xIdleTaskHandle                          0x2000067c   Data           4  tasks.o(.data)
    uxSchedulerSuspended                     0x20000680   Data           4  tasks.o(.data)
    pxDelayedTaskList                        0x20000684   Data           4  tasks.o(.data)
    pxOverflowDelayedTaskList                0x20000688   Data           4  tasks.o(.data)
    .data                                    0x2000068c   Section       32  heap_4.o(.data)
    pxEnd                                    0x2000068c   Data           4  heap_4.o(.data)
    xFreeBytesRemaining                      0x20000690   Data           4  heap_4.o(.data)
    xMinimumEverFreeBytesRemaining           0x20000694   Data           4  heap_4.o(.data)
    xNumberOfSuccessfulAllocations           0x20000698   Data           4  heap_4.o(.data)
    xNumberOfSuccessfulFrees                 0x2000069c   Data           4  heap_4.o(.data)
    xBlockAllocatedBit                       0x200006a0   Data           4  heap_4.o(.data)
    xStart                                   0x200006a4   Data           8  heap_4.o(.data)
    .data                                    0x200006ac   Section       12  port.o(.data)
    ucMaxSysCallPriority                     0x200006ac   Data           1  port.o(.data)
    uxCriticalNesting                        0x200006b0   Data           4  port.o(.data)
    ulMaxPRIGROUPValue                       0x200006b4   Data           4  port.o(.data)
    .data                                    0x200006b8   Section        4  mvars.o(.data)
    .data                                    0x200006bc   Section        4  mvars.o(.data)
    .data                                    0x200006c0   Section        4  errno.o(.data)
    _errno                                   0x200006c0   Data           4  errno.o(.data)
    .bss                                     0x200006c4   Section       72  drv_can.o(.bss)
    .bss                                     0x2000070c   Section      448  drv_uart.o(.bss)
    .bss                                     0x200008d0   Section      104  bmi.o(.bss)
    .bss                                     0x20000938   Section       48  chassis.o(.bss)
    .bss                                     0x20000968   Section      260  rc.o(.bss)
    .bss                                     0x20000a6c   Section      132  rp_monitor.o(.bss)
    tx_frame                                 0x20000a6c   Data          44  rp_monitor.o(.bss)
    tx_frame                                 0x20000a98   Data          44  rp_monitor.o(.bss)
    tx_frame                                 0x20000ac4   Data          44  rp_monitor.o(.bss)
    .bss                                     0x20000af0   Section       84  rp_monitor.o(.bss)
    rpm_tx_buf                               0x20000af0   Data          84  rp_monitor.o(.bss)
    .bss                                     0x20000b44   Section      596  freertos.o(.bss)
    xIdleTaskTCBBuffer                       0x20000b44   Data          84  freertos.o(.bss)
    xIdleStack                               0x20000b98   Data         512  freertos.o(.bss)
    .bss                                     0x20000d98   Section       72  adc.o(.bss)
    .bss                                     0x20000de0   Section       80  can.o(.bss)
    .bss                                     0x20000e30   Section       20  dac.o(.bss)
    .bss                                     0x20000e44   Section      144  tim.o(.bss)
    .bss                                     0x20000ed4   Section      752  usart.o(.bss)
    .bss                                     0x200011c4   Section       72  stm32f4xx_hal_timebase_tim.o(.bss)
    .bss                                     0x2000120c   Section       32  stm32f4xx_hal_flash.o(.bss)
    .bss                                     0x2000122c   Section      240  tasks.o(.bss)
    pxReadyTasksLists                        0x2000122c   Data         140  tasks.o(.bss)
    xDelayedTaskList1                        0x200012b8   Data          20  tasks.o(.bss)
    xDelayedTaskList2                        0x200012cc   Data          20  tasks.o(.bss)
    xPendingReadyList                        0x200012e0   Data          20  tasks.o(.bss)
    xTasksWaitingTermination                 0x200012f4   Data          20  tasks.o(.bss)
    xSuspendedTaskList                       0x20001308   Data          20  tasks.o(.bss)
    .bss                                     0x2000131c   Section    15360  heap_4.o(.bss)
    ucHeap                                   0x2000131c   Data       15360  heap_4.o(.bss)
    HEAP                                     0x20004f20   Section      512  startup_stm32f407xx.o(HEAP)
    STACK                                    0x20005120   Section     1024  startup_stm32f407xx.o(STACK)

    Global Symbols

    Symbol Name                              Value     Ov Type        Size  Object(Section)

    BuildAttributes$$THM_ISAv4$E$P$D$K$B$S$7EM$VFPi3$EXTD16$VFPS$VFMA$PE$A:L22UL41UL21$X:L11$S22US41US21$IEEE1$IW$USESV6$~STKCKD$USESV7$~SHL$OTIME$ROPI$IEEEX$EBA8$MICROLIB$REQ8$PRES8$EABIv2 0x00000000   Number         0  anon$$obj.o ABSOLUTE
    __ARM_use_no_argv                        0x00000000   Number         0  main.o ABSOLUTE
    __cpp_initialize__aeabi_                  - Undefined Weak Reference
    __cxa_finalize                            - Undefined Weak Reference
    _clock_init                               - Undefined Weak Reference
    _microlib_exit                            - Undefined Weak Reference
    __Vectors_Size                           0x00000188   Number         0  startup_stm32f407xx.o ABSOLUTE
    __Vectors                                0x08000000   Data           4  startup_stm32f407xx.o(RESET)
    __Vectors_End                            0x08000188   Data           0  startup_stm32f407xx.o(RESET)
    __main                                   0x08000189   Thumb Code     0  entry.o(.ARM.Collect$$$$00000000)
    _main_stk                                0x08000189   Thumb Code     0  entry2.o(.ARM.Collect$$$$00000001)
    _main_scatterload                        0x0800018d   Thumb Code     0  entry5.o(.ARM.Collect$$$$00000004)
    __main_after_scatterload                 0x08000191   Thumb Code     0  entry5.o(.ARM.Collect$$$$00000004)
    _main_clock                              0x08000191   Thumb Code     0  entry7b.o(.ARM.Collect$$$$00000008)
    _main_cpp_init                           0x08000191   Thumb Code     0  entry8b.o(.ARM.Collect$$$$0000000A)
    _main_init                               0x08000191   Thumb Code     0  entry9a.o(.ARM.Collect$$$$0000000B)
    __rt_final_cpp                           0x08000199   Thumb Code     0  entry10a.o(.ARM.Collect$$$$0000000D)
    __rt_final_exit                          0x08000199   Thumb Code     0  entry11a.o(.ARM.Collect$$$$0000000F)
    SVC_Handler                              0x0800019d   Thumb Code    28  port.o(.emb_text)
    __asm___6_port_c_39a90d8d__prvStartFirstTask 0x080001bd   Thumb Code    36  port.o(.emb_text)
    __asm___6_port_c_39a90d8d__prvEnableVFP  0x080001e5   Thumb Code    16  port.o(.emb_text)
    PendSV_Handler                           0x080001f9   Thumb Code    88  port.o(.emb_text)
    vPortGetIPSR                             0x08000255   Thumb Code     6  port.o(.emb_text)
    Reset_Handler                            0x0800025d   Thumb Code     8  startup_stm32f407xx.o(.text)
    ADC_IRQHandler                           0x08000277   Thumb Code     0  startup_stm32f407xx.o(.text)
    CAN1_RX1_IRQHandler                      0x08000277   Thumb Code     0  startup_stm32f407xx.o(.text)
    CAN1_SCE_IRQHandler                      0x08000277   Thumb Code     0  startup_stm32f407xx.o(.text)
    CAN1_TX_IRQHandler                       0x08000277   Thumb Code     0  startup_stm32f407xx.o(.text)
    CAN2_RX1_IRQHandler                      0x08000277   Thumb Code     0  startup_stm32f407xx.o(.text)
    CAN2_SCE_IRQHandler                      0x08000277   Thumb Code     0  startup_stm32f407xx.o(.text)
    CAN2_TX_IRQHandler                       0x08000277   Thumb Code     0  startup_stm32f407xx.o(.text)
    DCMI_IRQHandler                          0x08000277   Thumb Code     0  startup_stm32f407xx.o(.text)
    DMA1_Stream1_IRQHandler                  0x08000277   Thumb Code     0  startup_stm32f407xx.o(.text)
    DMA1_Stream3_IRQHandler                  0x08000277   Thumb Code     0  startup_stm32f407xx.o(.text)
    DMA1_Stream4_IRQHandler                  0x08000277   Thumb Code     0  startup_stm32f407xx.o(.text)
    DMA1_Stream6_IRQHandler                  0x08000277   Thumb Code     0  startup_stm32f407xx.o(.text)
    DMA1_Stream7_IRQHandler                  0x08000277   Thumb Code     0  startup_stm32f407xx.o(.text)
    DMA2_Stream0_IRQHandler                  0x08000277   Thumb Code     0  startup_stm32f407xx.o(.text)
    DMA2_Stream1_IRQHandler                  0x08000277   Thumb Code     0  startup_stm32f407xx.o(.text)
    DMA2_Stream3_IRQHandler                  0x08000277   Thumb Code     0  startup_stm32f407xx.o(.text)
    DMA2_Stream4_IRQHandler                  0x08000277   Thumb Code     0  startup_stm32f407xx.o(.text)
    DMA2_Stream5_IRQHandler                  0x08000277   Thumb Code     0  startup_stm32f407xx.o(.text)
    DMA2_Stream6_IRQHandler                  0x08000277   Thumb Code     0  startup_stm32f407xx.o(.text)
    ETH_IRQHandler                           0x08000277   Thumb Code     0  startup_stm32f407xx.o(.text)
    ETH_WKUP_IRQHandler                      0x08000277   Thumb Code     0  startup_stm32f407xx.o(.text)
    EXTI0_IRQHandler                         0x08000277   Thumb Code     0  startup_stm32f407xx.o(.text)
    EXTI15_10_IRQHandler                     0x08000277   Thumb Code     0  startup_stm32f407xx.o(.text)
    EXTI1_IRQHandler                         0x08000277   Thumb Code     0  startup_stm32f407xx.o(.text)
    EXTI2_IRQHandler                         0x08000277   Thumb Code     0  startup_stm32f407xx.o(.text)
    EXTI3_IRQHandler                         0x08000277   Thumb Code     0  startup_stm32f407xx.o(.text)
    EXTI4_IRQHandler                         0x08000277   Thumb Code     0  startup_stm32f407xx.o(.text)
    EXTI9_5_IRQHandler                       0x08000277   Thumb Code     0  startup_stm32f407xx.o(.text)
    FLASH_IRQHandler                         0x08000277   Thumb Code     0  startup_stm32f407xx.o(.text)
    FMC_IRQHandler                           0x08000277   Thumb Code     0  startup_stm32f407xx.o(.text)
    FPU_IRQHandler                           0x08000277   Thumb Code     0  startup_stm32f407xx.o(.text)
    HASH_RNG_IRQHandler                      0x08000277   Thumb Code     0  startup_stm32f407xx.o(.text)
    I2C1_ER_IRQHandler                       0x08000277   Thumb Code     0  startup_stm32f407xx.o(.text)
    I2C1_EV_IRQHandler                       0x08000277   Thumb Code     0  startup_stm32f407xx.o(.text)
    I2C2_ER_IRQHandler                       0x08000277   Thumb Code     0  startup_stm32f407xx.o(.text)
    I2C2_EV_IRQHandler                       0x08000277   Thumb Code     0  startup_stm32f407xx.o(.text)
    I2C3_ER_IRQHandler                       0x08000277   Thumb Code     0  startup_stm32f407xx.o(.text)
    I2C3_EV_IRQHandler                       0x08000277   Thumb Code     0  startup_stm32f407xx.o(.text)
    OTG_FS_IRQHandler                        0x08000277   Thumb Code     0  startup_stm32f407xx.o(.text)
    OTG_FS_WKUP_IRQHandler                   0x08000277   Thumb Code     0  startup_stm32f407xx.o(.text)
    OTG_HS_EP1_IN_IRQHandler                 0x08000277   Thumb Code     0  startup_stm32f407xx.o(.text)
    OTG_HS_EP1_OUT_IRQHandler                0x08000277   Thumb Code     0  startup_stm32f407xx.o(.text)
    OTG_HS_IRQHandler                        0x08000277   Thumb Code     0  startup_stm32f407xx.o(.text)
    OTG_HS_WKUP_IRQHandler                   0x08000277   Thumb Code     0  startup_stm32f407xx.o(.text)
    PVD_IRQHandler                           0x08000277   Thumb Code     0  startup_stm32f407xx.o(.text)
    RCC_IRQHandler                           0x08000277   Thumb Code     0  startup_stm32f407xx.o(.text)
    RTC_Alarm_IRQHandler                     0x08000277   Thumb Code     0  startup_stm32f407xx.o(.text)
    RTC_WKUP_IRQHandler                      0x08000277   Thumb Code     0  startup_stm32f407xx.o(.text)
    SDIO_IRQHandler                          0x08000277   Thumb Code     0  startup_stm32f407xx.o(.text)
    SPI1_IRQHandler                          0x08000277   Thumb Code     0  startup_stm32f407xx.o(.text)
    SPI2_IRQHandler                          0x08000277   Thumb Code     0  startup_stm32f407xx.o(.text)
    SPI3_IRQHandler                          0x08000277   Thumb Code     0  startup_stm32f407xx.o(.text)
    TAMP_STAMP_IRQHandler                    0x08000277   Thumb Code     0  startup_stm32f407xx.o(.text)
    TIM1_BRK_TIM9_IRQHandler                 0x08000277   Thumb Code     0  startup_stm32f407xx.o(.text)
    TIM1_CC_IRQHandler                       0x08000277   Thumb Code     0  startup_stm32f407xx.o(.text)
    TIM1_TRG_COM_TIM11_IRQHandler            0x08000277   Thumb Code     0  startup_stm32f407xx.o(.text)
    TIM1_UP_TIM10_IRQHandler                 0x08000277   Thumb Code     0  startup_stm32f407xx.o(.text)
    TIM3_IRQHandler                          0x08000277   Thumb Code     0  startup_stm32f407xx.o(.text)
    TIM4_IRQHandler                          0x08000277   Thumb Code     0  startup_stm32f407xx.o(.text)
    TIM5_IRQHandler                          0x08000277   Thumb Code     0  startup_stm32f407xx.o(.text)
    TIM6_DAC_IRQHandler                      0x08000277   Thumb Code     0  startup_stm32f407xx.o(.text)
    TIM7_IRQHandler                          0x08000277   Thumb Code     0  startup_stm32f407xx.o(.text)
    TIM8_BRK_TIM12_IRQHandler                0x08000277   Thumb Code     0  startup_stm32f407xx.o(.text)
    TIM8_CC_IRQHandler                       0x08000277   Thumb Code     0  startup_stm32f407xx.o(.text)
    TIM8_TRG_COM_TIM14_IRQHandler            0x08000277   Thumb Code     0  startup_stm32f407xx.o(.text)
    TIM8_UP_TIM13_IRQHandler                 0x08000277   Thumb Code     0  startup_stm32f407xx.o(.text)
    USART3_IRQHandler                        0x08000277   Thumb Code     0  startup_stm32f407xx.o(.text)
    USART6_IRQHandler                        0x08000277   Thumb Code     0  startup_stm32f407xx.o(.text)
    WWDG_IRQHandler                          0x08000277   Thumb Code     0  startup_stm32f407xx.o(.text)
    __aeabi_uldivmod                         0x08000281   Thumb Code    98  uldiv.o(.text)
    __aeabi_memcpy                           0x080002e3   Thumb Code    36  memcpya.o(.text)
    __aeabi_memcpy4                          0x080002e3   Thumb Code     0  memcpya.o(.text)
    __aeabi_memcpy8                          0x080002e3   Thumb Code     0  memcpya.o(.text)
    __aeabi_memset                           0x08000307   Thumb Code    14  memseta.o(.text)
    __aeabi_memset4                          0x08000307   Thumb Code     0  memseta.o(.text)
    __aeabi_memset8                          0x08000307   Thumb Code     0  memseta.o(.text)
    __aeabi_memclr                           0x08000315   Thumb Code     4  memseta.o(.text)
    __aeabi_memclr4                          0x08000315   Thumb Code     0  memseta.o(.text)
    __aeabi_memclr8                          0x08000315   Thumb Code     0  memseta.o(.text)
    memset                                   0x08000319   Thumb Code    18  memseta.o(.text)
    __aeabi_dmul                             0x0800032b   Thumb Code   228  dmul.o(.text)
    __aeabi_f2d                              0x0800040f   Thumb Code    38  f2d.o(.text)
    __aeabi_d2f                              0x08000435   Thumb Code    56  d2f.o(.text)
    __aeabi_llsl                             0x0800046d   Thumb Code    30  llshl.o(.text)
    _ll_shift_l                              0x0800046d   Thumb Code     0  llshl.o(.text)
    __aeabi_llsr                             0x0800048b   Thumb Code    32  llushr.o(.text)
    _ll_ushift_r                             0x0800048b   Thumb Code     0  llushr.o(.text)
    __I$use$fp                               0x080004ab   Thumb Code     0  iusefp.o(.text)
    _float_round                             0x080004ab   Thumb Code    18  fepilogue.o(.text)
    _float_epilogue                          0x080004bd   Thumb Code    92  fepilogue.o(.text)
    _double_round                            0x08000519   Thumb Code    30  depilogue.o(.text)
    _double_epilogue                         0x08000537   Thumb Code   156  depilogue.o(.text)
    __aeabi_dadd                             0x080005d3   Thumb Code   322  dadd.o(.text)
    __aeabi_dsub                             0x08000715   Thumb Code     6  dadd.o(.text)
    __aeabi_drsub                            0x0800071b   Thumb Code     6  dadd.o(.text)
    __aeabi_ddiv                             0x08000721   Thumb Code   222  ddiv.o(.text)
    __scatterload                            0x08000801   Thumb Code    28  init.o(.text)
    __scatterload_rt2                        0x08000801   Thumb Code     0  init.o(.text)
    __aeabi_lasr                             0x08000825   Thumb Code    36  llsshr.o(.text)
    _ll_sshift_r                             0x08000825   Thumb Code     0  llsshr.o(.text)
    _dsqrt                                   0x08000849   Thumb Code   162  dsqrt.o(.text)
    __decompress                             0x080008eb   Thumb Code     0  __dczerorl2.o(.text)
    __decompress1                            0x080008eb   Thumb Code    86  __dczerorl2.o(.text)
    ADC_Init                                 0x08000941   Thumb Code     2  drv_adda.o(i.ADC_Init)
    BMI_Get_EulerAngle                       0x08000a6d   Thumb Code  1116  bmi.o(i.BMI_Get_EulerAngle)
    BMI_Get_GRO                              0x08000ec9   Thumb Code    78  bmi.o(i.BMI_Get_GRO)
    BMI_Get_RawData                          0x08000f17   Thumb Code    72  bmi.o(i.BMI_Get_RawData)
    BMI_Init                                 0x08000f61   Thumb Code   104  bmi.o(i.BMI_Init)
    BusFault_Handler                         0x08000fcd   Thumb Code     2  stm32f4xx_it.o(i.BusFault_Handler)
    CAN1_Init                                0x08000fd1   Thumb Code    36  drv_can.o(i.CAN1_Init)
    CAN1_RX0_IRQHandler                      0x08000ff9   Thumb Code     6  stm32f4xx_it.o(i.CAN1_RX0_IRQHandler)
    CAN1_rxDataHandler                       0x08001005   Thumb Code    96  can_protocol.o(i.CAN1_rxDataHandler)
    CAN2_Init                                0x08001069   Thumb Code    36  drv_can.o(i.CAN2_Init)
    CAN2_RX0_IRQHandler                      0x08001091   Thumb Code     6  stm32f4xx_it.o(i.CAN2_RX0_IRQHandler)
    CAN2_rxDataHandler                       0x0800109d   Thumb Code     2  can_protocol.o(i.CAN2_rxDataHandler)
    CAN_01_GetMotorAngle                     0x0800109f   Thumb Code     6  rm_protocol.o(i.CAN_01_GetMotorAngle)
    CAN_23_GetMotorSpeed                     0x080010a5   Thumb Code     8  rm_protocol.o(i.CAN_23_GetMotorSpeed)
    CAN_45_GetMotorCurrent                   0x080010ad   Thumb Code     8  rm_protocol.o(i.CAN_45_GetMotorCurrent)
    CAN_6_GetMotorTemperature                0x080010b5   Thumb Code     4  rm_protocol.o(i.CAN_6_GetMotorTemperature)
    CAN_AddByte                              0x080010b9   Thumb Code    12  can_protocol.o(i.CAN_AddByte)
    CAN_AddHalfWord                          0x080010c5   Thumb Code    22  can_protocol.o(i.CAN_AddHalfWord)
    CAN_AddMsg                               0x080010db   Thumb Code     4  can_protocol.o(i.CAN_AddMsg)
    CAN_AddMsgByDriver                       0x080010e1   Thumb Code   108  drv_can.o(i.CAN_AddMsgByDriver)
    CAN_AddWord                              0x08001151   Thumb Code    34  can_protocol.o(i.CAN_AddWord)
    CAN_AutoTx                               0x08001175   Thumb Code    90  drv_can.o(i.CAN_AutoTx)
    CAN_GetTxState                           0x080012a5   Thumb Code     4  can_protocol.o(i.CAN_GetTxState)
    CAN_GetTxStateByDriver                   0x080012a9   Thumb Code    56  drv_can.o(i.CAN_GetTxStateByDriver)
    CAN_MailboxReadyForTx                    0x080012e5   Thumb Code   104  drv_can.o(i.CAN_MailboxReadyForTx)
    CAN_ManualTx                             0x0800134d   Thumb Code     4  can_protocol.o(i.CAN_ManualTx)
    CAN_SetTxMode                            0x080013a9   Thumb Code     4  can_protocol.o(i.CAN_SetTxMode)
    CAN_SetTxModeByDriver                    0x080013ad   Thumb Code    56  drv_can.o(i.CAN_SetTxModeByDriver)
    CAN_SetTxState                           0x080013e9   Thumb Code     4  can_protocol.o(i.CAN_SetTxState)
    CAN_SetTxStateByDriver                   0x080013ed   Thumb Code    56  drv_can.o(i.CAN_SetTxStateByDriver)
    CAN_StartTxByDriver                      0x08001429   Thumb Code    70  drv_can.o(i.CAN_StartTxByDriver)
    CAN_StartTxByTxPort                      0x08001479   Thumb Code   102  drv_can.o(i.CAN_StartTxByTxPort)
    CHASSIS_Ctrl                             0x080014ed   Thumb Code    14  chassis.o(i.CHASSIS_Ctrl)
    CHASSIS_GetInfo                          0x080014fb   Thumb Code    14  chassis.o(i.CHASSIS_GetInfo)
    CHASSIS_GetSysInfo                       0x08001509   Thumb Code    16  chassis.o(i.CHASSIS_GetSysInfo)
    CHASSIS_Init                             0x08001521   Thumb Code    62  chassis.o(i.CHASSIS_Init)
    CHASSIS_PidCtrl                          0x08001569   Thumb Code   112  chassis.o(i.CHASSIS_PidCtrl)
    CHASSIS_PidParamsInit                    0x080015e1   Thumb Code    58  chassis.o(i.CHASSIS_PidParamsInit)
    CHASSIS_SelfProtect                      0x08001621   Thumb Code    74  chassis.o(i.CHASSIS_SelfProtect)
    CHASSIS_Test                             0x080016a3   Thumb Code     2  chassis.o(i.CHASSIS_Test)
    CHASSIS_UpdateController                 0x080016a5   Thumb Code    78  chassis.o(i.CHASSIS_UpdateController)
    DAC_Init                                 0x080016fd   Thumb Code     8  drv_adda.o(i.DAC_Init)
    DEV_Init                                 0x08001709   Thumb Code    44  device.o(i.DEV_Init)
    DMA1_Stream0_IRQHandler                  0x08001739   Thumb Code     6  stm32f4xx_it.o(i.DMA1_Stream0_IRQHandler)
    DMA1_Stream2_IRQHandler                  0x08001745   Thumb Code     6  stm32f4xx_it.o(i.DMA1_Stream2_IRQHandler)
    DMA1_Stream5_IRQHandler                  0x08001751   Thumb Code     6  stm32f4xx_it.o(i.DMA1_Stream5_IRQHandler)
    DMA2_Stream2_IRQHandler                  0x0800175d   Thumb Code     6  stm32f4xx_it.o(i.DMA2_Stream2_IRQHandler)
    DMA2_Stream7_IRQHandler                  0x08001769   Thumb Code     6  stm32f4xx_it.o(i.DMA2_Stream7_IRQHandler)
    DRIVER_Init                              0x08001abf   Thumb Code    42  driver.o(i.DRIVER_Init)
    DRV_UART_IRQHandler                      0x08001ae9   Thumb Code    20  drv_uart.o(i.DRV_UART_IRQHandler)
    DeathZoom                                0x08001afd   Thumb Code    34  rp_math.o(i.DeathZoom)
    DebugMon_Handler                         0x08001b1f   Thumb Code     2  stm32f4xx_it.o(i.DebugMon_Handler)
    Error_Handler                            0x08001b21   Thumb Code     2  main.o(i.Error_Handler)
    FLASH_WaitForLastOperation               0x08001c21   Thumb Code    72  stm32f4xx_hal_flash.o(i.FLASH_WaitForLastOperation)
    FRICTION_PwmOut                          0x08001c71   Thumb Code    18  drv_tim.o(i.FRICTION_PwmOut)
    HAL_ADC_ConfigChannel                    0x08001c89   Thumb Code   316  stm32f4xx_hal_adc.o(i.HAL_ADC_ConfigChannel)
    HAL_ADC_Init                             0x08001dd5   Thumb Code    84  stm32f4xx_hal_adc.o(i.HAL_ADC_Init)
    HAL_ADC_MspInit                          0x08001e29   Thumb Code    84  adc.o(i.HAL_ADC_MspInit)
    HAL_CAN_ActivateNotification             0x08001e89   Thumb Code    36  stm32f4xx_hal_can.o(i.HAL_CAN_ActivateNotification)
    HAL_CAN_AddTxMessage                     0x08001ead   Thumb Code   200  stm32f4xx_hal_can.o(i.HAL_CAN_AddTxMessage)
    HAL_CAN_ConfigFilter                     0x08001f75   Thumb Code   262  stm32f4xx_hal_can.o(i.HAL_CAN_ConfigFilter)
    HAL_CAN_ErrorCallback                    0x08002081   Thumb Code     2  stm32f4xx_hal_can.o(i.HAL_CAN_ErrorCallback)
    HAL_CAN_GetRxMessage                     0x08002083   Thumb Code   232  stm32f4xx_hal_can.o(i.HAL_CAN_GetRxMessage)
    HAL_CAN_IRQHandler                       0x0800216b   Thumb Code   508  stm32f4xx_hal_can.o(i.HAL_CAN_IRQHandler)
    HAL_CAN_Init                             0x08002367   Thumb Code   282  stm32f4xx_hal_can.o(i.HAL_CAN_Init)
    HAL_CAN_MspInit                          0x08002481   Thumb Code   226  can.o(i.HAL_CAN_MspInit)
    HAL_CAN_RxFifo0FullCallback              0x0800257d   Thumb Code     2  stm32f4xx_hal_can.o(i.HAL_CAN_RxFifo0FullCallback)
    HAL_CAN_RxFifo0MsgPendingCallback        0x08002581   Thumb Code    20  drv_can.o(i.HAL_CAN_RxFifo0MsgPendingCallback)
    HAL_CAN_RxFifo1FullCallback              0x0800259d   Thumb Code     2  stm32f4xx_hal_can.o(i.HAL_CAN_RxFifo1FullCallback)
    HAL_CAN_RxFifo1MsgPendingCallback        0x0800259f   Thumb Code     2  stm32f4xx_hal_can.o(i.HAL_CAN_RxFifo1MsgPendingCallback)
    HAL_CAN_SleepCallback                    0x080025a1   Thumb Code     2  stm32f4xx_hal_can.o(i.HAL_CAN_SleepCallback)
    HAL_CAN_Start                            0x080025a5   Thumb Code    88  stm32f4xx_hal_can.o(i.HAL_CAN_Start)
    HAL_CAN_TxMailbox0AbortCallback          0x080025fd   Thumb Code     2  stm32f4xx_hal_can.o(i.HAL_CAN_TxMailbox0AbortCallback)
    HAL_CAN_TxMailbox0CompleteCallback       0x080025ff   Thumb Code     2  stm32f4xx_hal_can.o(i.HAL_CAN_TxMailbox0CompleteCallback)
    HAL_CAN_TxMailbox1AbortCallback          0x08002601   Thumb Code     2  stm32f4xx_hal_can.o(i.HAL_CAN_TxMailbox1AbortCallback)
    HAL_CAN_TxMailbox1CompleteCallback       0x08002603   Thumb Code     2  stm32f4xx_hal_can.o(i.HAL_CAN_TxMailbox1CompleteCallback)
    HAL_CAN_TxMailbox2AbortCallback          0x08002605   Thumb Code     2  stm32f4xx_hal_can.o(i.HAL_CAN_TxMailbox2AbortCallback)
    HAL_CAN_TxMailbox2CompleteCallback       0x08002607   Thumb Code     2  stm32f4xx_hal_can.o(i.HAL_CAN_TxMailbox2CompleteCallback)
    HAL_CAN_WakeUpFromRxMsgCallback          0x08002609   Thumb Code     2  stm32f4xx_hal_can.o(i.HAL_CAN_WakeUpFromRxMsgCallback)
    HAL_DAC_ConfigChannel                    0x0800260b   Thumb Code    70  stm32f4xx_hal_dac.o(i.HAL_DAC_ConfigChannel)
    HAL_DAC_Init                             0x08002651   Thumb Code    40  stm32f4xx_hal_dac.o(i.HAL_DAC_Init)
    HAL_DAC_MspInit                          0x08002679   Thumb Code    84  dac.o(i.HAL_DAC_MspInit)
    HAL_DAC_Start                            0x080026d9   Thumb Code    92  stm32f4xx_hal_dac.o(i.HAL_DAC_Start)
    HAL_DMA_Abort                            0x08002735   Thumb Code   146  stm32f4xx_hal_dma.o(i.HAL_DMA_Abort)
    HAL_DMA_Abort_IT                         0x080027c7   Thumb Code    36  stm32f4xx_hal_dma.o(i.HAL_DMA_Abort_IT)
    HAL_DMA_IRQHandler                       0x080027ed   Thumb Code   412  stm32f4xx_hal_dma.o(i.HAL_DMA_IRQHandler)
    HAL_DMA_Init                             0x0800298d   Thumb Code   206  stm32f4xx_hal_dma.o(i.HAL_DMA_Init)
    HAL_DMA_Start_IT                         0x08002a61   Thumb Code   110  stm32f4xx_hal_dma.o(i.HAL_DMA_Start_IT)
    HAL_FLASH_Lock                           0x08002ad1   Thumb Code    14  stm32f4xx_hal_flash.o(i.HAL_FLASH_Lock)
    HAL_FLASH_Program                        0x08002ae5   Thumb Code   116  stm32f4xx_hal_flash.o(i.HAL_FLASH_Program)
    HAL_FLASH_Unlock                         0x08002b61   Thumb Code    32  stm32f4xx_hal_flash.o(i.HAL_FLASH_Unlock)
    HAL_GPIO_Init                            0x08002b8d   Thumb Code   450  stm32f4xx_hal_gpio.o(i.HAL_GPIO_Init)
    HAL_GPIO_TogglePin                       0x08002d7d   Thumb Code    16  stm32f4xx_hal_gpio.o(i.HAL_GPIO_TogglePin)
    HAL_GPIO_WritePin                        0x08002d8d   Thumb Code    10  stm32f4xx_hal_gpio.o(i.HAL_GPIO_WritePin)
    HAL_GetTick                              0x08002d99   Thumb Code     6  stm32f4xx_hal.o(i.HAL_GetTick)
    HAL_IncTick                              0x08002da5   Thumb Code    38  drv_haltick.o(i.HAL_IncTick)
    HAL_Init                                 0x08002dd9   Thumb Code    48  stm32f4xx_hal.o(i.HAL_Init)
    HAL_InitTick                             0x08002e0d   Thumb Code   102  stm32f4xx_hal_timebase_tim.o(i.HAL_InitTick)
    HAL_MspInit                              0x08002e81   Thumb Code    52  stm32f4xx_hal_msp.o(i.HAL_MspInit)
    HAL_NVIC_EnableIRQ                       0x08002eb9   Thumb Code    26  stm32f4xx_hal_cortex.o(i.HAL_NVIC_EnableIRQ)
    HAL_NVIC_SetPriority                     0x08002ed5   Thumb Code    60  stm32f4xx_hal_cortex.o(i.HAL_NVIC_SetPriority)
    HAL_NVIC_SetPriorityGrouping             0x08002f15   Thumb Code    26  stm32f4xx_hal_cortex.o(i.HAL_NVIC_SetPriorityGrouping)
    HAL_RCC_ClockConfig                      0x08002f39   Thumb Code   288  stm32f4xx_hal_rcc.o(i.HAL_RCC_ClockConfig)
    HAL_RCC_GetClockConfig                   0x0800306d   Thumb Code    54  stm32f4xx_hal_rcc.o(i.HAL_RCC_GetClockConfig)
    HAL_RCC_GetPCLK1Freq                     0x080030ad   Thumb Code    20  stm32f4xx_hal_rcc.o(i.HAL_RCC_GetPCLK1Freq)
    HAL_RCC_GetPCLK2Freq                     0x080030cd   Thumb Code    20  stm32f4xx_hal_rcc.o(i.HAL_RCC_GetPCLK2Freq)
    HAL_RCC_GetSysClockFreq                  0x080030ed   Thumb Code    88  stm32f4xx_hal_rcc.o(i.HAL_RCC_GetSysClockFreq)
    HAL_RCC_OscConfig                        0x08003151   Thumb Code   856  stm32f4xx_hal_rcc.o(i.HAL_RCC_OscConfig)
    HAL_TIMEx_BreakCallback                  0x080034bd   Thumb Code     2  stm32f4xx_hal_tim_ex.o(i.HAL_TIMEx_BreakCallback)
    HAL_TIMEx_CommutCallback                 0x080034bf   Thumb Code     2  stm32f4xx_hal_tim_ex.o(i.HAL_TIMEx_CommutCallback)
    HAL_TIMEx_ConfigBreakDeadTime            0x080034c1   Thumb Code    84  stm32f4xx_hal_tim_ex.o(i.HAL_TIMEx_ConfigBreakDeadTime)
    HAL_TIMEx_MasterConfigSynchronization    0x08003515   Thumb Code   116  stm32f4xx_hal_tim_ex.o(i.HAL_TIMEx_MasterConfigSynchronization)
    HAL_TIM_Base_Init                        0x080035a5   Thumb Code    90  stm32f4xx_hal_tim.o(i.HAL_TIM_Base_Init)
    HAL_TIM_Base_MspInit                     0x08003601   Thumb Code    56  tim.o(i.HAL_TIM_Base_MspInit)
    HAL_TIM_Base_Start_IT                    0x08003645   Thumb Code   100  stm32f4xx_hal_tim.o(i.HAL_TIM_Base_Start_IT)
    HAL_TIM_ConfigClockSource                0x080036c5   Thumb Code   220  stm32f4xx_hal_tim.o(i.HAL_TIM_ConfigClockSource)
    HAL_TIM_IC_CaptureCallback               0x080037a1   Thumb Code     2  stm32f4xx_hal_tim.o(i.HAL_TIM_IC_CaptureCallback)
    HAL_TIM_IRQHandler                       0x080037a3   Thumb Code   358  stm32f4xx_hal_tim.o(i.HAL_TIM_IRQHandler)
    HAL_TIM_MspPostInit                      0x08003909   Thumb Code   110  tim.o(i.HAL_TIM_MspPostInit)
    HAL_TIM_OC_DelayElapsedCallback          0x0800398d   Thumb Code     2  stm32f4xx_hal_tim.o(i.HAL_TIM_OC_DelayElapsedCallback)
    HAL_TIM_PWM_ConfigChannel                0x0800398f   Thumb Code   204  stm32f4xx_hal_tim.o(i.HAL_TIM_PWM_ConfigChannel)
    HAL_TIM_PWM_Init                         0x08003a5b   Thumb Code    90  stm32f4xx_hal_tim.o(i.HAL_TIM_PWM_Init)
    HAL_TIM_PWM_MspInit                      0x08003ab5   Thumb Code     2  stm32f4xx_hal_tim.o(i.HAL_TIM_PWM_MspInit)
    HAL_TIM_PWM_PulseFinishedCallback        0x08003ab7   Thumb Code     2  stm32f4xx_hal_tim.o(i.HAL_TIM_PWM_PulseFinishedCallback)
    HAL_TIM_PWM_Start                        0x08003ab9   Thumb Code   172  stm32f4xx_hal_tim.o(i.HAL_TIM_PWM_Start)
    HAL_TIM_PeriodElapsedCallback            0x08003b81   Thumb Code    14  main.o(i.HAL_TIM_PeriodElapsedCallback)
    HAL_TIM_TriggerCallback                  0x08003b8f   Thumb Code     2  stm32f4xx_hal_tim.o(i.HAL_TIM_TriggerCallback)
    HAL_UARTEx_RxEventCallback               0x08003b91   Thumb Code     2  stm32f4xx_hal_uart.o(i.HAL_UARTEx_RxEventCallback)
    HAL_UART_ErrorCallback                   0x08003b93   Thumb Code     2  stm32f4xx_hal_uart.o(i.HAL_UART_ErrorCallback)
    HAL_UART_IRQHandler                      0x08003b95   Thumb Code   610  stm32f4xx_hal_uart.o(i.HAL_UART_IRQHandler)
    HAL_UART_Init                            0x08003dfd   Thumb Code    98  stm32f4xx_hal_uart.o(i.HAL_UART_Init)
    HAL_UART_MspInit                         0x08003e61   Thumb Code   730  usart.o(i.HAL_UART_MspInit)
    HAL_UART_RxCpltCallback                  0x0800416d   Thumb Code     2  stm32f4xx_hal_uart.o(i.HAL_UART_RxCpltCallback)
    HAL_UART_Transmit                        0x08004171   Thumb Code   178  stm32f4xx_hal_uart.o(i.HAL_UART_Transmit)
    HAL_UART_Transmit_DMA                    0x08004225   Thumb Code   126  stm32f4xx_hal_uart.o(i.HAL_UART_Transmit_DMA)
    HAL_UART_TxCpltCallback                  0x080042b1   Thumb Code     2  stm32f4xx_hal_uart.o(i.HAL_UART_TxCpltCallback)
    HAL_UART_TxHalfCpltCallback              0x080042b3   Thumb Code     2  stm32f4xx_hal_uart.o(i.HAL_UART_TxHalfCpltCallback)
    HardFault_Handler                        0x080042b5   Thumb Code     2  stm32f4xx_it.o(i.HardFault_Handler)
    IIC_Ack                                  0x080042b9   Thumb Code    56  soft_iic.o(i.IIC_Ack)
    IIC_NAck                                 0x080042f9   Thumb Code    56  soft_iic.o(i.IIC_NAck)
    IIC_Read_Byte                            0x08004339   Thumb Code    96  soft_iic.o(i.IIC_Read_Byte)
    IIC_Send_Byte                            0x080043a1   Thumb Code    86  soft_iic.o(i.IIC_Send_Byte)
    IIC_Start                                0x08004401   Thumb Code    56  soft_iic.o(i.IIC_Start)
    IIC_Stop                                 0x08004441   Thumb Code    58  soft_iic.o(i.IIC_Stop)
    IIC_Wait_Ack                             0x08004485   Thumb Code    74  soft_iic.o(i.IIC_Wait_Ack)
    MPU_Read_Byte                            0x080044d9   Thumb Code    72  bmi2_common.o(i.MPU_Read_Byte)
    MPU_Read_all                             0x08004525   Thumb Code    92  bmi2_common.o(i.MPU_Read_all)
    MX_ADC1_Init                             0x08004585   Thumb Code    88  adc.o(i.MX_ADC1_Init)
    MX_CAN1_Init                             0x080045e9   Thumb Code    62  can.o(i.MX_CAN1_Init)
    MX_CAN2_Init                             0x08004631   Thumb Code    62  can.o(i.MX_CAN2_Init)
    MX_DAC_Init                              0x08004679   Thumb Code    52  dac.o(i.MX_DAC_Init)
    MX_DMA_Init                              0x080046b5   Thumb Code   120  dma.o(i.MX_DMA_Init)
    MX_FREERTOS_Init                         0x08004731   Thumb Code   118  freertos.o(i.MX_FREERTOS_Init)
    MX_GPIO_Init                             0x080047b1   Thumb Code   284  gpio.o(i.MX_GPIO_Init)
    MX_TIM1_Init                             0x080048e1   Thumb Code   194  tim.o(i.MX_TIM1_Init)
    MX_TIM3_Init                             0x080049ad   Thumb Code   160  tim.o(i.MX_TIM3_Init)
    MX_UART4_Init                            0x08004a55   Thumb Code    48  usart.o(i.MX_UART4_Init)
    MX_UART5_Init                            0x08004a8d   Thumb Code    48  usart.o(i.MX_UART5_Init)
    MX_USART1_UART_Init                      0x08004ac5   Thumb Code    48  usart.o(i.MX_USART1_UART_Init)
    MX_USART2_UART_Init                      0x08004afd   Thumb Code    46  usart.o(i.MX_USART2_UART_Init)
    MemManage_Handler                        0x08004b39   Thumb Code     2  stm32f4xx_it.o(i.MemManage_Handler)
    NMI_Handler                              0x08004b3b   Thumb Code     2  stm32f4xx_it.o(i.NMI_Handler)
    PWM_Init                                 0x08004b3d   Thumb Code    42  drv_tim.o(i.PWM_Init)
    RM3508_GetDataId                         0x08004b75   Thumb Code    10  rm_protocol.o(i.RM3508_GetDataId)
    RM3508_GetTxId                           0x08004b7f   Thumb Code    22  rm_protocol.o(i.RM3508_GetTxId)
    Set_accel                                0x08004b95   Thumb Code    84  bmi.o(i.Set_accel)
    Set_gyro                                 0x08004be9   Thumb Code    88  bmi.o(i.Set_gyro)
    StartControlTask                         0x08004c41   Thumb Code    28  control_task.o(i.StartControlTask)
    StartMonitorTask                         0x08004c65   Thumb Code   112  monitor_task.o(i.StartMonitorTask)
    StartSendTask                            0x08004ce9   Thumb Code    48  send_task.o(i.StartSendTask)
    StartSystemTask                          0x08004d25   Thumb Code   138  system_task.o(i.StartSystemTask)
    StartrpMonitorTask                       0x08004dc1   Thumb Code   132  rp_monitor.o(i.StartrpMonitorTask)
    SysTick_Handler                          0x08004e49   Thumb Code    38  port.o(i.SysTick_Handler)
    SystemClock_Config                       0x08004e75   Thumb Code   126  main.o(i.SystemClock_Config)
    SystemInit                               0x08004efd   Thumb Code    22  system_stm32f4xx.o(i.SystemInit)
    TIM2_IRQHandler                          0x08004f19   Thumb Code     6  stm32f4xx_it.o(i.TIM2_IRQHandler)
    TIM_Base_SetConfig                       0x08004f25   Thumb Code   156  stm32f4xx_hal_tim.o(i.TIM_Base_SetConfig)
    TIM_CCxChannelCmd                        0x08004fed   Thumb Code    26  stm32f4xx_hal_tim.o(i.TIM_CCxChannelCmd)
    TIM_ETR_SetConfig                        0x08005007   Thumb Code    20  stm32f4xx_hal_tim.o(i.TIM_ETR_SetConfig)
    TIM_OC2_SetConfig                        0x0800508d   Thumb Code    98  stm32f4xx_hal_tim.o(i.TIM_OC2_SetConfig)
    UART4_IRQHandler                         0x080051f9   Thumb Code    18  stm32f4xx_it.o(i.UART4_IRQHandler)
    UART5_IRQHandler                         0x08005211   Thumb Code    18  stm32f4xx_it.o(i.UART5_IRQHandler)
    USART1_IRQHandler                        0x0800557d   Thumb Code    18  stm32f4xx_it.o(i.USART1_IRQHandler)
    USART1_Init                              0x08005595   Thumb Code    46  drv_uart.o(i.USART1_Init)
    USART1_rxDataHandler                     0x080055cd   Thumb Code     4  rp_monitor.o(i.USART1_rxDataHandler)
    USART2_IRQHandler                        0x080055d1   Thumb Code    18  stm32f4xx_it.o(i.USART2_IRQHandler)
    USART2_Init                              0x080055e9   Thumb Code    52  drv_uart.o(i.USART2_Init)
    USART2_rxDataHandler                     0x08005625   Thumb Code    22  rc_protocol.o(i.USART2_rxDataHandler)
    USART4_Init                              0x08005641   Thumb Code    46  drv_uart.o(i.USART4_Init)
    USART4_rxDataHandler                     0x08005679   Thumb Code     2  drv_uart.o(i.USART4_rxDataHandler)
    USART5_Init                              0x0800567d   Thumb Code    46  drv_uart.o(i.USART5_Init)
    USART5_rxDataHandler                     0x080056b5   Thumb Code     2  drv_uart.o(i.USART5_rxDataHandler)
    USART_AddMsg                             0x080056b7   Thumb Code    50  drv_uart.o(i.USART_AddMsg)
    USART_StartTx                            0x080056e9   Thumb Code    82  drv_uart.o(i.USART_StartTx)
    USART_StartTxDma                         0x0800574d   Thumb Code    78  drv_uart.o(i.USART_StartTxDma)
    UsageFault_Handler                       0x080057ad   Thumb Code     2  stm32f4xx_it.o(i.UsageFault_Handler)
    __ARM_fpclassify                         0x080057af   Thumb Code    48  fpclassify.o(i.__ARM_fpclassify)
    __hardfp_asin                            0x08005801   Thumb Code   770  asin.o(i.__hardfp_asin)
    __hardfp_atan                            0x08005b61   Thumb Code   622  atan.o(i.__hardfp_atan)
    __hardfp_atan2                           0x08005e39   Thumb Code   432  atan2.o(i.__hardfp_atan2)
    __kernel_poly                            0x08006029   Thumb Code   248  poly.o(i.__kernel_poly)
    __mathlib_dbl_infnan                     0x08006121   Thumb Code    20  dunder.o(i.__mathlib_dbl_infnan)
    __mathlib_dbl_infnan2                    0x08006135   Thumb Code    20  dunder.o(i.__mathlib_dbl_infnan2)
    __mathlib_dbl_invalid                    0x08006149   Thumb Code    24  dunder.o(i.__mathlib_dbl_invalid)
    __mathlib_dbl_underflow                  0x08006169   Thumb Code    24  dunder.o(i.__mathlib_dbl_underflow)
    __scatterload_copy                       0x08006189   Thumb Code    14  handlers.o(i.__scatterload_copy)
    __scatterload_null                       0x08006197   Thumb Code     2  handlers.o(i.__scatterload_null)
    __scatterload_zeroinit                   0x08006199   Thumb Code    14  handlers.o(i.__scatterload_zeroinit)
    __set_errno                              0x080061a9   Thumb Code     6  errno.o(i.__set_errno)
    atan                                     0x080061b5   Thumb Code    16  atan.o(i.atan)
    bmi270_init                              0x080061c5   Thumb Code   110  bmi270.o(i.bmi270_init)
    bmi2_error_codes_print_result            0x0800623d   Thumb Code     2  bmi2_common.o(i.bmi2_error_codes_print_result)
    bmi2_extract_input_feat_config           0x0800623f   Thumb Code    54  bmi2.o(i.bmi2_extract_input_feat_config)
    bmi2_get_feat_config                     0x08006275   Thumb Code   160  bmi2.o(i.bmi2_get_feat_config)
    bmi2_get_gyro_cross_sense                0x08006315   Thumb Code    60  bmi2.o(i.bmi2_get_gyro_cross_sense)
    bmi2_get_internal_status                 0x08006351   Thumb Code    48  bmi2.o(i.bmi2_get_internal_status)
    bmi2_get_regs                            0x08006381   Thumb Code   146  bmi2.o(i.bmi2_get_regs)
    bmi2_get_sensor_config                   0x08006415   Thumb Code   570  bmi2.o(i.bmi2_get_sensor_config)
    bmi2_get_sensor_data                     0x0800664f   Thumb Code   734  bmi2.o(i.bmi2_get_sensor_data)
    bmi2_get_status                          0x0800692d   Thumb Code    38  bmi2.o(i.bmi2_get_status)
    bmi2_interface_selection                 0x08006955   Thumb Code    48  bmi2_common.o(i.bmi2_interface_selection)
    bmi2_map_data_int                        0x08006995   Thumb Code   118  bmi2.o(i.bmi2_map_data_int)
    bmi2_sec_init                            0x08006a0d   Thumb Code    96  bmi2.o(i.bmi2_sec_init)
    bmi2_sensor_enable                       0x08006a71   Thumb Code    56  bmi2.o(i.bmi2_sensor_enable)
    bmi2_set_adv_power_save                  0x08006aa9   Thumb Code    98  bmi2.o(i.bmi2_set_adv_power_save)
    bmi2_set_regs                            0x08006b0d   Thumb Code   156  bmi2.o(i.bmi2_set_regs)
    bmi2_set_sensor_config                   0x08006ba9   Thumb Code   486  bmi2.o(i.bmi2_set_sensor_config)
    bmi2_soft_reset                          0x08006d8f   Thumb Code    96  bmi2.o(i.bmi2_soft_reset)
    bmi2_write_config_file                   0x08006def   Thumb Code    86  bmi2.o(i.bmi2_write_config_file)
    delay_us                                 0x0800707d   Thumb Code    24  drv_haltick.o(i.delay_us)
    fabs                                     0x08007153   Thumb Code    24  fabs.o(i.fabs)
    free                                     0x0800716d   Thumb Code    76  malloc.o(i.free)
    imu_sensor_init                          0x0800810d   Thumb Code   156  imu_protocol.o(i.imu_sensor_init)
    imu_sensor_update                        0x080081ad   Thumb Code    86  imu_protocol.o(i.imu_sensor_update)
    inVSqrt                                  0x08008209   Thumb Code    40  bmi.o(i.inVSqrt)
    main                                     0x08008291   Thumb Code    74  main.o(i.main)
    malloc                                   0x080082e9   Thumb Code    92  malloc.o(i.malloc)
    micros                                   0x08008355   Thumb Code    30  drv_haltick.o(i.micros)
    osDelay                                  0x08008395   Thumb Code    14  cmsis_os.o(i.osDelay)
    osKernelStart                            0x080083a3   Thumb Code    10  cmsis_os.o(i.osKernelStart)
    osThreadCreate                           0x080083ad   Thumb Code    84  cmsis_os.o(i.osThreadCreate)
    pid_val_init                             0x08008401   Thumb Code    34  pid.o(i.pid_val_init)
    pvPortMalloc                             0x08008775   Thumb Code   216  heap_4.o(i.pvPortMalloc)
    pxPortInitialiseStack                    0x08008851   Thumb Code    40  port.o(i.pxPortInitialiseStack)
    rc_init                                  0x080088e5   Thumb Code     6  rc.o(i.rc_init)
    rc_reset                                 0x080088f1   Thumb Code   276  rc.o(i.rc_reset)
    rc_sensor_update                         0x08008b99   Thumb Code   136  rc_protocol.o(i.rc_sensor_update)
    rc_update                                0x08008c21   Thumb Code   372  rc.o(i.rc_update)
    single_pid_ctrl                          0x0800b06d   Thumb Code   150  pid.o(i.single_pid_ctrl)
    sqrt                                     0x0800b103   Thumb Code   110  sqrt.o(i.sqrt)
    user_delay_us                            0x0800b279   Thumb Code     4  bmi2_common.o(i.user_delay_us)
    user_i2c_reg_read                        0x0800b27d   Thumb Code    36  bmi2_common.o(i.user_i2c_reg_read)
    user_i2c_reg_write                       0x0800b2a1   Thumb Code    70  bmi2_common.o(i.user_i2c_reg_write)
    uxListRemove                             0x0800b2ed   Thumb Code    38  list.o(i.uxListRemove)
    vApplicationGetIdleTaskMemory            0x0800b315   Thumb Code    16  freertos.o(i.vApplicationGetIdleTaskMemory)
    vListInitialise                          0x0800b329   Thumb Code    22  list.o(i.vListInitialise)
    vListInitialiseItem                      0x0800b33f   Thumb Code     6  list.o(i.vListInitialiseItem)
    vListInsert                              0x0800b345   Thumb Code    48  list.o(i.vListInsert)
    vListInsertEnd                           0x0800b375   Thumb Code    24  list.o(i.vListInsertEnd)
    vPortEnterCritical                       0x0800b38d   Thumb Code    54  port.o(i.vPortEnterCritical)
    vPortExitCritical                        0x0800b3cd   Thumb Code    34  port.o(i.vPortExitCritical)
    vPortFree                                0x0800b3f5   Thumb Code    94  heap_4.o(i.vPortFree)
    vPortSetupTimerInterrupt                 0x0800b459   Thumb Code    32  port.o(i.vPortSetupTimerInterrupt)
    vTaskDelay                               0x0800b47d   Thumb Code    66  tasks.o(i.vTaskDelay)
    vTaskStartScheduler                      0x0800b4c9   Thumb Code    90  tasks.o(i.vTaskStartScheduler)
    vTaskSuspendAll                          0x0800b535   Thumb Code    10  tasks.o(i.vTaskSuspendAll)
    vTaskSwitchContext                       0x0800b545   Thumb Code    82  tasks.o(i.vTaskSwitchContext)
    xPortStartScheduler                      0x0800b685   Thumb Code   222  port.o(i.xPortStartScheduler)
    xTaskCreate                              0x0800b779   Thumb Code    90  tasks.o(i.xTaskCreate)
    xTaskCreateStatic                        0x0800b7d3   Thumb Code    86  tasks.o(i.xTaskCreateStatic)
    xTaskGenericNotify                       0x0800b829   Thumb Code   212  tasks.o(i.xTaskGenericNotify)
    xTaskIncrementTick                       0x0800b909   Thumb Code   194  tasks.o(i.xTaskIncrementTick)
    xTaskNotifyWait                          0x0800b9d5   Thumb Code   130  tasks.o(i.xTaskNotifyWait)
    xTaskResumeAll                           0x0800ba61   Thumb Code   182  tasks.o(i.xTaskResumeAll)
    bmi270_config_file                       0x0800bb2a   Data        8192  bmi270.o(.constdata)
    bmi270_feat_in                           0x0800db2a   Data          48  bmi270.o(.constdata)
    bmi270_feat_out                          0x0800db5a   Data          21  bmi270.o(.constdata)
    AHBPrescTable                            0x0800dbfc   Data          16  system_stm32f4xx.o(.constdata)
    APBPrescTable                            0x0800dc0c   Data           8  system_stm32f4xx.o(.constdata)
    __mathlib_zero                           0x0800dd08   Data           8  qnan.o(.constdata)
    Region$$Table$$Base                      0x0800dd50   Number         0  anon$$obj.o(Region$$Table)
    Region$$Table$$Limit                     0x0800dd70   Number         0  anon$$obj.o(Region$$Table)
    hcan1Mailbox                             0x20000000   Data          36  drv_can.o(.data)
    hcan2Mailbox                             0x20000024   Data          36  drv_can.o(.data)
    HalTick                                  0x20000048   Data           4  drv_haltick.o(.data)
    Kp                                       0x2000004c   Data           4  bmi.o(.data)
    Ki                                       0x20000050   Data           4  bmi.o(.data)
    halfT                                    0x20000054   Data           4  bmi.o(.data)
    q0                                       0x20000058   Data           4  bmi.o(.data)
    q1                                       0x2000005c   Data           4  bmi.o(.data)
    q2                                       0x20000060   Data           4  bmi.o(.data)
    q3                                       0x20000064   Data           4  bmi.o(.data)
    norm                                     0x20000068   Data           4  bmi.o(.data)
    vx                                       0x2000006c   Data           4  bmi.o(.data)
    vy                                       0x20000070   Data           4  bmi.o(.data)
    vz                                       0x20000074   Data           4  bmi.o(.data)
    ex                                       0x20000078   Data           4  bmi.o(.data)
    ey                                       0x2000007c   Data           4  bmi.o(.data)
    ez                                       0x20000080   Data           4  bmi.o(.data)
    gx                                       0x20000084   Data           4  bmi.o(.data)
    gy                                       0x20000088   Data           4  bmi.o(.data)
    gz                                       0x2000008c   Data           4  bmi.o(.data)
    ax                                       0x20000090   Data           4  bmi.o(.data)
    ay                                       0x20000094   Data           4  bmi.o(.data)
    az                                       0x20000098   Data           4  bmi.o(.data)
    exInt                                    0x2000009c   Data           4  bmi.o(.data)
    eyInt                                    0x200000a0   Data           4  bmi.o(.data)
    ezInt                                    0x200000a4   Data           4  bmi.o(.data)
    q0temp                                   0x200000a8   Data           4  bmi.o(.data)
    q1temp                                   0x200000ac   Data           4  bmi.o(.data)
    q2temp                                   0x200000b0   Data           4  bmi.o(.data)
    q3temp                                   0x200000b4   Data           4  bmi.o(.data)
    MPU_ADDR                                 0x200000b8   Data           1  bmi2_common.o(.data)
    rc_sensor_info                           0x200000ba   Data          26  rc_sensor.o(.data)
    rc_sensor                                0x200000d4   Data          36  rc_sensor.o(.data)
    imu_sensor_driver                        0x200000f8   Data           2  imu_sensor.o(.data)
    imu_sensor_info                          0x200000fc   Data          32  imu_sensor.o(.data)
    imu_sensor                               0x2000011c   Data          28  imu_sensor.o(.data)
    chassis_motor_driver                     0x20000138   Data         208  chassis_motor.o(.data)
    chassis_motor_info                       0x20000208   Data          80  chassis_motor.o(.data)
    chassis_motor                            0x20000258   Data         112  chassis_motor.o(.data)
    dev_list                                 0x200002c8   Data          24  device.o(.data)
    chas_info                                0x200002e0   Data           2  chassis.o(.data)
    chas_motor_pid                           0x200002e4   Data         464  chassis.o(.data)
    chas_dev                                 0x200004b4   Data          24  chassis.o(.data)
    chas_ctrl                                0x200004cc   Data           4  chassis.o(.data)
    chassis                                  0x200004d0   Data          40  chassis.o(.data)
    rc                                       0x200004f8   Data          60  rc.o(.data)
    flag                                     0x20000535   Data           2  system_task.o(.data)
    sys                                      0x20000537   Data           3  system_task.o(.data)
    send_control_time                        0x20000540   Data           4  monitor_task.o(.data)
    event                                    0x20000544   Data           4  monitor_task.o(.data)
    SendFlag                                 0x20000548   Data           4  send_task.o(.data)
    rpm_drv                                  0x20000558   Data          28  rp_monitor.o(.data)
    rpMonitor                                0x20000574   Data         168  rp_monitor.o(.data)
    gyrox                                    0x2000061c   Data           2  imu_protocol.o(.data)
    gyroy                                    0x2000061e   Data           2  imu_protocol.o(.data)
    gyroz                                    0x20000620   Data           2  imu_protocol.o(.data)
    accx                                     0x20000622   Data           2  imu_protocol.o(.data)
    accy                                     0x20000624   Data           2  imu_protocol.o(.data)
    accz                                     0x20000626   Data           2  imu_protocol.o(.data)
    rpMonitorTaskHandle                      0x20000628   Data           4  freertos.o(.data)
    MonitorTaskHandle                        0x2000062c   Data           4  freertos.o(.data)
    ControlTaskHandle                        0x20000630   Data           4  freertos.o(.data)
    SystemTaskHandle                         0x20000634   Data           4  freertos.o(.data)
    SendTaskHandle                           0x20000638   Data           4  freertos.o(.data)
    SystemCoreClock                          0x20000640   Data           4  system_stm32f4xx.o(.data)
    uwTickFreq                               0x20000644   Data           1  stm32f4xx_hal.o(.data)
    uwTickPrio                               0x20000648   Data           4  stm32f4xx_hal.o(.data)
    uwTick                                   0x2000064c   Data           4  stm32f4xx_hal.o(.data)
    pxCurrentTCB                             0x20000650   Data           4  tasks.o(.data)
    __microlib_freelist                      0x200006b8   Data           4  mvars.o(.data)
    __microlib_freelist_initialised          0x200006bc   Data           4  mvars.o(.data)
    hcan1RxFrame                             0x200006c4   Data          36  drv_can.o(.bss)
    hcan2RxFrame                             0x200006e8   Data          36  drv_can.o(.bss)
    usart1_dma_rxbuf                         0x2000070c   Data         100  drv_uart.o(.bss)
    usart2_dma_rxbuf                         0x20000770   Data          48  drv_uart.o(.bss)
    usart4_dma_rxbuf                         0x200007a0   Data         100  drv_uart.o(.bss)
    usart5_dma_rxbuf                         0x20000804   Data         200  drv_uart.o(.bss)
    bmi2_dev                                 0x200008d0   Data         104  bmi.o(.bss)
    chas_drv                                 0x20000938   Data          16  chassis.o(.bss)
    chas_motor                               0x20000948   Data          16  chassis.o(.bss)
    chas_motor_info                          0x20000958   Data          16  chassis.o(.bss)
    rc_info                                  0x20000968   Data         260  rc.o(.bss)
    hadc1                                    0x20000d98   Data          72  adc.o(.bss)
    hcan1                                    0x20000de0   Data          40  can.o(.bss)
    hcan2                                    0x20000e08   Data          40  can.o(.bss)
    hdac                                     0x20000e30   Data          20  dac.o(.bss)
    htim1                                    0x20000e44   Data          72  tim.o(.bss)
    htim3                                    0x20000e8c   Data          72  tim.o(.bss)
    huart4                                   0x20000ed4   Data          68  usart.o(.bss)
    huart5                                   0x20000f18   Data          68  usart.o(.bss)
    huart1                                   0x20000f5c   Data          68  usart.o(.bss)
    huart2                                   0x20000fa0   Data          68  usart.o(.bss)
    hdma_uart4_rx                            0x20000fe4   Data          96  usart.o(.bss)
    hdma_uart5_rx                            0x20001044   Data          96  usart.o(.bss)
    hdma_usart1_rx                           0x200010a4   Data          96  usart.o(.bss)
    hdma_usart1_tx                           0x20001104   Data          96  usart.o(.bss)
    hdma_usart2_rx                           0x20001164   Data          96  usart.o(.bss)
    htim2                                    0x200011c4   Data          72  stm32f4xx_hal_timebase_tim.o(.bss)
    pFlash                                   0x2000120c   Data          32  stm32f4xx_hal_flash.o(.bss)
    __heap_base                              0x20004f20   Data           0  startup_stm32f407xx.o(HEAP)
    __heap_limit                             0x20005120   Data           0  startup_stm32f407xx.o(HEAP)
    __initial_sp                             0x20005520   Data           0  startup_stm32f407xx.o(STACK)



==============================================================================

Memory Map of the image

  Image Entry point : 0x08000189

  Load Region LR_IROM1 (Base: 0x08000000, Size: 0x0000e434, Max: 0x00080000, ABSOLUTE, COMPRESSED[0x0000def0])

    Execution Region ER_IROM1 (Exec base: 0x08000000, Load base: 0x08000000, Size: 0x0000dd70, Max: 0x00080000, ABSOLUTE)

    Exec Addr    Load Addr    Size         Type   Attr      Idx    E Section Name        Object

    0x08000000   0x08000000   0x00000188   Data   RO            3    RESET               startup_stm32f407xx.o
    0x08000188   0x08000188   0x00000000   Code   RO         8466  * .ARM.Collect$$$$00000000  mc_w.l(entry.o)
    0x08000188   0x08000188   0x00000004   Code   RO         8564    .ARM.Collect$$$$00000001  mc_w.l(entry2.o)
    0x0800018c   0x0800018c   0x00000004   Code   RO         8567    .ARM.Collect$$$$00000004  mc_w.l(entry5.o)
    0x08000190   0x08000190   0x00000000   Code   RO         8569    .ARM.Collect$$$$00000008  mc_w.l(entry7b.o)
    0x08000190   0x08000190   0x00000000   Code   RO         8571    .ARM.Collect$$$$0000000A  mc_w.l(entry8b.o)
    0x08000190   0x08000190   0x00000008   Code   RO         8572    .ARM.Collect$$$$0000000B  mc_w.l(entry9a.o)
    0x08000198   0x08000198   0x00000000   Code   RO         8574    .ARM.Collect$$$$0000000D  mc_w.l(entry10a.o)
    0x08000198   0x08000198   0x00000000   Code   RO         8576    .ARM.Collect$$$$0000000F  mc_w.l(entry11a.o)
    0x08000198   0x08000198   0x00000004   Code   RO         8565    .ARM.Collect$$$$00002712  mc_w.l(entry2.o)
    0x0800019c   0x0800019c   0x000000be   Code   RO         8363    .emb_text           port.o
    0x0800025a   0x0800025a   0x00000002   PAD
    0x0800025c   0x0800025c   0x00000024   Code   RO            4    .text               startup_stm32f407xx.o
    0x08000280   0x08000280   0x00000062   Code   RO         8469    .text               mc_w.l(uldiv.o)
    0x080002e2   0x080002e2   0x00000024   Code   RO         8471    .text               mc_w.l(memcpya.o)
    0x08000306   0x08000306   0x00000024   Code   RO         8475    .text               mc_w.l(memseta.o)
    0x0800032a   0x0800032a   0x000000e4   Code   RO         8507    .text               mf_w.l(dmul.o)
    0x0800040e   0x0800040e   0x00000026   Code   RO         8509    .text               mf_w.l(f2d.o)
    0x08000434   0x08000434   0x00000038   Code   RO         8511    .text               mf_w.l(d2f.o)
    0x0800046c   0x0800046c   0x0000001e   Code   RO         8578    .text               mc_w.l(llshl.o)
    0x0800048a   0x0800048a   0x00000020   Code   RO         8580    .text               mc_w.l(llushr.o)
    0x080004aa   0x080004aa   0x00000000   Code   RO         8591    .text               mc_w.l(iusefp.o)
    0x080004aa   0x080004aa   0x0000006e   Code   RO         8592    .text               mf_w.l(fepilogue.o)
    0x08000518   0x08000518   0x000000ba   Code   RO         8594    .text               mf_w.l(depilogue.o)
    0x080005d2   0x080005d2   0x0000014e   Code   RO         8596    .text               mf_w.l(dadd.o)
    0x08000720   0x08000720   0x000000de   Code   RO         8598    .text               mf_w.l(ddiv.o)
    0x080007fe   0x080007fe   0x00000002   PAD
    0x08000800   0x08000800   0x00000024   Code   RO         8602    .text               mc_w.l(init.o)
    0x08000824   0x08000824   0x00000024   Code   RO         8604    .text               mc_w.l(llsshr.o)
    0x08000848   0x08000848   0x000000a2   Code   RO         8606    .text               mf_w.l(dsqrt.o)
    0x080008ea   0x080008ea   0x00000056   Code   RO         8618    .text               mc_w.l(__dczerorl2.o)
    0x08000940   0x08000940   0x00000002   Code   RO          494    i.ADC_Init          drv_adda.o
    0x08000942   0x08000942   0x00000002   PAD
    0x08000944   0x08000944   0x00000128   Code   RO         3938    i.ADC_Init          stm32f4xx_hal_adc.o
    0x08000a6c   0x08000a6c   0x0000045c   Code   RO          676    i.BMI_Get_EulerAngle  bmi.o
    0x08000ec8   0x08000ec8   0x0000004e   Code   RO          677    i.BMI_Get_GRO       bmi.o
    0x08000f16   0x08000f16   0x00000048   Code   RO          678    i.BMI_Get_RawData   bmi.o
    0x08000f5e   0x08000f5e   0x00000002   PAD
    0x08000f60   0x08000f60   0x0000006c   Code   RO          679    i.BMI_Init          bmi.o
    0x08000fcc   0x08000fcc   0x00000002   Code   RO         3554    i.BusFault_Handler  stm32f4xx_it.o
    0x08000fce   0x08000fce   0x00000002   PAD
    0x08000fd0   0x08000fd0   0x00000028   Code   RO          149    i.CAN1_Init         drv_can.o
    0x08000ff8   0x08000ff8   0x0000000c   Code   RO         3555    i.CAN1_RX0_IRQHandler  stm32f4xx_it.o
    0x08001004   0x08001004   0x00000064   Code   RO         2934    i.CAN1_rxDataHandler  can_protocol.o
    0x08001068   0x08001068   0x00000028   Code   RO          151    i.CAN2_Init         drv_can.o
    0x08001090   0x08001090   0x0000000c   Code   RO         3556    i.CAN2_RX0_IRQHandler  stm32f4xx_it.o
    0x0800109c   0x0800109c   0x00000002   Code   RO         2935    i.CAN2_rxDataHandler  can_protocol.o
    0x0800109e   0x0800109e   0x00000006   Code   RO         3012    i.CAN_01_GetMotorAngle  rm_protocol.o
    0x080010a4   0x080010a4   0x00000008   Code   RO         3013    i.CAN_23_GetMotorSpeed  rm_protocol.o
    0x080010ac   0x080010ac   0x00000008   Code   RO         3015    i.CAN_45_GetMotorCurrent  rm_protocol.o
    0x080010b4   0x080010b4   0x00000004   Code   RO         3017    i.CAN_6_GetMotorTemperature  rm_protocol.o
    0x080010b8   0x080010b8   0x0000000c   Code   RO         2936    i.CAN_AddByte       can_protocol.o
    0x080010c4   0x080010c4   0x00000016   Code   RO         2937    i.CAN_AddHalfWord   can_protocol.o
    0x080010da   0x080010da   0x00000004   Code   RO         2938    i.CAN_AddMsg        can_protocol.o
    0x080010de   0x080010de   0x00000002   PAD
    0x080010e0   0x080010e0   0x00000070   Code   RO          153    i.CAN_AddMsgByDriver  drv_can.o
    0x08001150   0x08001150   0x00000022   Code   RO         2939    i.CAN_AddWord       can_protocol.o
    0x08001172   0x08001172   0x00000002   PAD
    0x08001174   0x08001174   0x0000005a   Code   RO          154    i.CAN_AutoTx        drv_can.o
    0x080011ce   0x080011ce   0x000000aa   Code   RO          155    i.CAN_CreateTxPort  drv_can.o
    0x08001278   0x08001278   0x0000001a   Code   RO          156    i.CAN_Filter_ParamsInit  drv_can.o
    0x08001292   0x08001292   0x00000012   Code   RO          157    i.CAN_GetTxPort     drv_can.o
    0x080012a4   0x080012a4   0x00000004   Code   RO         2940    i.CAN_GetTxState    can_protocol.o
    0x080012a8   0x080012a8   0x0000003c   Code   RO          158    i.CAN_GetTxStateByDriver  drv_can.o
    0x080012e4   0x080012e4   0x00000068   Code   RO          159    i.CAN_MailboxReadyForTx  drv_can.o
    0x0800134c   0x0800134c   0x00000004   Code   RO         2941    i.CAN_ManualTx      can_protocol.o
    0x08001350   0x08001350   0x00000058   Code   RO          160    i.CAN_Rx_Callback   drv_can.o
    0x080013a8   0x080013a8   0x00000004   Code   RO         2942    i.CAN_SetTxMode     can_protocol.o
    0x080013ac   0x080013ac   0x0000003c   Code   RO          161    i.CAN_SetTxModeByDriver  drv_can.o
    0x080013e8   0x080013e8   0x00000004   Code   RO         2943    i.CAN_SetTxState    can_protocol.o
    0x080013ec   0x080013ec   0x0000003c   Code   RO          162    i.CAN_SetTxStateByDriver  drv_can.o
    0x08001428   0x08001428   0x00000050   Code   RO          163    i.CAN_StartTxByDriver  drv_can.o
    0x08001478   0x08001478   0x00000074   Code   RO          164    i.CAN_StartTxByTxPort  drv_can.o
    0x080014ec   0x080014ec   0x0000000e   Code   RO         2266    i.CHASSIS_Ctrl      chassis.o
    0x080014fa   0x080014fa   0x0000000e   Code   RO         2267    i.CHASSIS_GetInfo   chassis.o
    0x08001508   0x08001508   0x00000018   Code   RO         2269    i.CHASSIS_GetSysInfo  chassis.o
    0x08001520   0x08001520   0x00000048   Code   RO         2270    i.CHASSIS_Init      chassis.o
    0x08001568   0x08001568   0x00000078   Code   RO         2272    i.CHASSIS_PidCtrl   chassis.o
    0x080015e0   0x080015e0   0x00000040   Code   RO         2273    i.CHASSIS_PidParamsInit  chassis.o
    0x08001620   0x08001620   0x00000058   Code   RO         2275    i.CHASSIS_SelfProtect  chassis.o
    0x08001678   0x08001678   0x0000002a   Code   RO         2276    i.CHASSIS_Speed_PidCalc  chassis.o
    0x080016a2   0x080016a2   0x00000002   Code   RO         2277    i.CHASSIS_Test      chassis.o
    0x080016a4   0x080016a4   0x00000058   Code   RO         2278    i.CHASSIS_UpdateController  chassis.o
    0x080016fc   0x080016fc   0x0000000c   Code   RO          495    i.DAC_Init          drv_adda.o
    0x08001708   0x08001708   0x00000030   Code   RO         2224    i.DEV_Init          device.o
    0x08001738   0x08001738   0x0000000c   Code   RO         3557    i.DMA1_Stream0_IRQHandler  stm32f4xx_it.o
    0x08001744   0x08001744   0x0000000c   Code   RO         3558    i.DMA1_Stream2_IRQHandler  stm32f4xx_it.o
    0x08001750   0x08001750   0x0000000c   Code   RO         3559    i.DMA1_Stream5_IRQHandler  stm32f4xx_it.o
    0x0800175c   0x0800175c   0x0000000c   Code   RO         3560    i.DMA2_Stream2_IRQHandler  stm32f4xx_it.o
    0x08001768   0x08001768   0x0000000c   Code   RO         3561    i.DMA2_Stream7_IRQHandler  stm32f4xx_it.o
    0x08001774   0x08001774   0x00000244   Code   RO          368    i.DMAEx_MultiBufferStart_NoIT  drv_uart.o
    0x080019b8   0x080019b8   0x00000028   Code   RO         4672    i.DMA_CalcBaseAndBitshift  stm32f4xx_hal_dma.o
    0x080019e0   0x080019e0   0x00000054   Code   RO         4673    i.DMA_CheckFifoParam  stm32f4xx_hal_dma.o
    0x08001a34   0x08001a34   0x00000028   Code   RO         4674    i.DMA_SetConfig     stm32f4xx_hal_dma.o
    0x08001a5c   0x08001a5c   0x00000062   Code   RO          369    i.DMA_Start         drv_uart.o
    0x08001abe   0x08001abe   0x0000002a   Code   RO          580    i.DRIVER_Init       driver.o
    0x08001ae8   0x08001ae8   0x00000014   Code   RO          370    i.DRV_UART_IRQHandler  drv_uart.o
    0x08001afc   0x08001afc   0x00000022   Code   RO         2813    i.DeathZoom         rp_math.o
    0x08001b1e   0x08001b1e   0x00000002   Code   RO         3562    i.DebugMon_Handler  stm32f4xx_it.o
    0x08001b20   0x08001b20   0x00000002   Code   RO         3141    i.Error_Handler     main.o
    0x08001b22   0x08001b22   0x00000002   PAD
    0x08001b24   0x08001b24   0x00000020   Code   RO         4369    i.FLASH_Program_Byte  stm32f4xx_hal_flash.o
    0x08001b44   0x08001b44   0x0000002c   Code   RO         4370    i.FLASH_Program_DoubleWord  stm32f4xx_hal_flash.o
    0x08001b70   0x08001b70   0x00000024   Code   RO         4371    i.FLASH_Program_HalfWord  stm32f4xx_hal_flash.o
    0x08001b94   0x08001b94   0x00000024   Code   RO         4372    i.FLASH_Program_Word  stm32f4xx_hal_flash.o
    0x08001bb8   0x08001bb8   0x00000068   Code   RO         4373    i.FLASH_SetErrorCode  stm32f4xx_hal_flash.o
    0x08001c20   0x08001c20   0x00000050   Code   RO         4374    i.FLASH_WaitForLastOperation  stm32f4xx_hal_flash.o
    0x08001c70   0x08001c70   0x00000018   Code   RO          331    i.FRICTION_PwmOut   drv_tim.o
    0x08001c88   0x08001c88   0x0000014c   Code   RO         3940    i.HAL_ADC_ConfigChannel  stm32f4xx_hal_adc.o
    0x08001dd4   0x08001dd4   0x00000054   Code   RO         3949    i.HAL_ADC_Init      stm32f4xx_hal_adc.o
    0x08001e28   0x08001e28   0x00000060   Code   RO         3284    i.HAL_ADC_MspInit   adc.o
    0x08001e88   0x08001e88   0x00000024   Code   RO         5346    i.HAL_CAN_ActivateNotification  stm32f4xx_hal_can.o
    0x08001eac   0x08001eac   0x000000c8   Code   RO         5347    i.HAL_CAN_AddTxMessage  stm32f4xx_hal_can.o
    0x08001f74   0x08001f74   0x0000010c   Code   RO         5348    i.HAL_CAN_ConfigFilter  stm32f4xx_hal_can.o
    0x08002080   0x08002080   0x00000002   Code   RO         5351    i.HAL_CAN_ErrorCallback  stm32f4xx_hal_can.o
    0x08002082   0x08002082   0x000000e8   Code   RO         5354    i.HAL_CAN_GetRxMessage  stm32f4xx_hal_can.o
    0x0800216a   0x0800216a   0x000001fc   Code   RO         5358    i.HAL_CAN_IRQHandler  stm32f4xx_hal_can.o
    0x08002366   0x08002366   0x0000011a   Code   RO         5359    i.HAL_CAN_Init      stm32f4xx_hal_can.o
    0x08002480   0x08002480   0x000000fc   Code   RO         3326    i.HAL_CAN_MspInit   can.o
    0x0800257c   0x0800257c   0x00000002   Code   RO         5366    i.HAL_CAN_RxFifo0FullCallback  stm32f4xx_hal_can.o
    0x0800257e   0x0800257e   0x00000002   PAD
    0x08002580   0x08002580   0x0000001c   Code   RO          165    i.HAL_CAN_RxFifo0MsgPendingCallback  drv_can.o
    0x0800259c   0x0800259c   0x00000002   Code   RO         5368    i.HAL_CAN_RxFifo1FullCallback  stm32f4xx_hal_can.o
    0x0800259e   0x0800259e   0x00000002   Code   RO         5369    i.HAL_CAN_RxFifo1MsgPendingCallback  stm32f4xx_hal_can.o
    0x080025a0   0x080025a0   0x00000002   Code   RO         5370    i.HAL_CAN_SleepCallback  stm32f4xx_hal_can.o
    0x080025a2   0x080025a2   0x00000002   PAD
    0x080025a4   0x080025a4   0x00000058   Code   RO         5371    i.HAL_CAN_Start     stm32f4xx_hal_can.o
    0x080025fc   0x080025fc   0x00000002   Code   RO         5373    i.HAL_CAN_TxMailbox0AbortCallback  stm32f4xx_hal_can.o
    0x080025fe   0x080025fe   0x00000002   Code   RO         5374    i.HAL_CAN_TxMailbox0CompleteCallback  stm32f4xx_hal_can.o
    0x08002600   0x08002600   0x00000002   Code   RO         5375    i.HAL_CAN_TxMailbox1AbortCallback  stm32f4xx_hal_can.o
    0x08002602   0x08002602   0x00000002   Code   RO         5376    i.HAL_CAN_TxMailbox1CompleteCallback  stm32f4xx_hal_can.o
    0x08002604   0x08002604   0x00000002   Code   RO         5377    i.HAL_CAN_TxMailbox2AbortCallback  stm32f4xx_hal_can.o
    0x08002606   0x08002606   0x00000002   Code   RO         5378    i.HAL_CAN_TxMailbox2CompleteCallback  stm32f4xx_hal_can.o
    0x08002608   0x08002608   0x00000002   Code   RO         5380    i.HAL_CAN_WakeUpFromRxMsgCallback  stm32f4xx_hal_can.o
    0x0800260a   0x0800260a   0x00000046   Code   RO         5582    i.HAL_DAC_ConfigChannel  stm32f4xx_hal_dac.o
    0x08002650   0x08002650   0x00000028   Code   RO         5592    i.HAL_DAC_Init      stm32f4xx_hal_dac.o
    0x08002678   0x08002678   0x00000060   Code   RO         3375    i.HAL_DAC_MspInit   dac.o
    0x080026d8   0x080026d8   0x0000005c   Code   RO         5596    i.HAL_DAC_Start     stm32f4xx_hal_dac.o
    0x08002734   0x08002734   0x00000092   Code   RO         4675    i.HAL_DMA_Abort     stm32f4xx_hal_dma.o
    0x080027c6   0x080027c6   0x00000024   Code   RO         4676    i.HAL_DMA_Abort_IT  stm32f4xx_hal_dma.o
    0x080027ea   0x080027ea   0x00000002   PAD
    0x080027ec   0x080027ec   0x000001a0   Code   RO         4680    i.HAL_DMA_IRQHandler  stm32f4xx_hal_dma.o
    0x0800298c   0x0800298c   0x000000d4   Code   RO         4681    i.HAL_DMA_Init      stm32f4xx_hal_dma.o
    0x08002a60   0x08002a60   0x0000006e   Code   RO         4685    i.HAL_DMA_Start_IT  stm32f4xx_hal_dma.o
    0x08002ace   0x08002ace   0x00000002   PAD
    0x08002ad0   0x08002ad0   0x00000014   Code   RO         4378    i.HAL_FLASH_Lock    stm32f4xx_hal_flash.o
    0x08002ae4   0x08002ae4   0x0000007c   Code   RO         4383    i.HAL_FLASH_Program  stm32f4xx_hal_flash.o
    0x08002b60   0x08002b60   0x0000002c   Code   RO         4385    i.HAL_FLASH_Unlock  stm32f4xx_hal_flash.o
    0x08002b8c   0x08002b8c   0x000001f0   Code   RO         4568    i.HAL_GPIO_Init     stm32f4xx_hal_gpio.o
    0x08002d7c   0x08002d7c   0x00000010   Code   RO         4571    i.HAL_GPIO_TogglePin  stm32f4xx_hal_gpio.o
    0x08002d8c   0x08002d8c   0x0000000a   Code   RO         4572    i.HAL_GPIO_WritePin  stm32f4xx_hal_gpio.o
    0x08002d96   0x08002d96   0x00000002   PAD
    0x08002d98   0x08002d98   0x0000000c   Code   RO         5100    i.HAL_GetTick       stm32f4xx_hal.o
    0x08002da4   0x08002da4   0x00000034   Code   RO          533    i.HAL_IncTick       drv_haltick.o
    0x08002dd8   0x08002dd8   0x00000034   Code   RO         5107    i.HAL_Init          stm32f4xx_hal.o
    0x08002e0c   0x08002e0c   0x00000074   Code   RO         3708    i.HAL_InitTick      stm32f4xx_hal_timebase_tim.o
    0x08002e80   0x08002e80   0x00000038   Code   RO         3684    i.HAL_MspInit       stm32f4xx_hal_msp.o
    0x08002eb8   0x08002eb8   0x0000001a   Code   RO         4957    i.HAL_NVIC_EnableIRQ  stm32f4xx_hal_cortex.o
    0x08002ed2   0x08002ed2   0x00000002   PAD
    0x08002ed4   0x08002ed4   0x00000040   Code   RO         4963    i.HAL_NVIC_SetPriority  stm32f4xx_hal_cortex.o
    0x08002f14   0x08002f14   0x00000024   Code   RO         4964    i.HAL_NVIC_SetPriorityGrouping  stm32f4xx_hal_cortex.o
    0x08002f38   0x08002f38   0x00000134   Code   RO         4214    i.HAL_RCC_ClockConfig  stm32f4xx_hal_rcc.o
    0x0800306c   0x0800306c   0x00000040   Code   RO         4218    i.HAL_RCC_GetClockConfig  stm32f4xx_hal_rcc.o
    0x080030ac   0x080030ac   0x00000020   Code   RO         4221    i.HAL_RCC_GetPCLK1Freq  stm32f4xx_hal_rcc.o
    0x080030cc   0x080030cc   0x00000020   Code   RO         4222    i.HAL_RCC_GetPCLK2Freq  stm32f4xx_hal_rcc.o
    0x080030ec   0x080030ec   0x00000064   Code   RO         4223    i.HAL_RCC_GetSysClockFreq  stm32f4xx_hal_rcc.o
    0x08003150   0x08003150   0x0000036c   Code   RO         4226    i.HAL_RCC_OscConfig  stm32f4xx_hal_rcc.o
    0x080034bc   0x080034bc   0x00000002   Code   RO         6525    i.HAL_TIMEx_BreakCallback  stm32f4xx_hal_tim_ex.o
    0x080034be   0x080034be   0x00000002   Code   RO         6526    i.HAL_TIMEx_CommutCallback  stm32f4xx_hal_tim_ex.o
    0x080034c0   0x080034c0   0x00000054   Code   RO         6528    i.HAL_TIMEx_ConfigBreakDeadTime  stm32f4xx_hal_tim_ex.o
    0x08003514   0x08003514   0x00000090   Code   RO         6544    i.HAL_TIMEx_MasterConfigSynchronization  stm32f4xx_hal_tim_ex.o
    0x080035a4   0x080035a4   0x0000005a   Code   RO         5821    i.HAL_TIM_Base_Init  stm32f4xx_hal_tim.o
    0x080035fe   0x080035fe   0x00000002   PAD
    0x08003600   0x08003600   0x00000044   Code   RO         3441    i.HAL_TIM_Base_MspInit  tim.o
    0x08003644   0x08003644   0x00000080   Code   RO         5826    i.HAL_TIM_Base_Start_IT  stm32f4xx_hal_tim.o
    0x080036c4   0x080036c4   0x000000dc   Code   RO         5830    i.HAL_TIM_ConfigClockSource  stm32f4xx_hal_tim.o
    0x080037a0   0x080037a0   0x00000002   Code   RO         5855    i.HAL_TIM_IC_CaptureCallback  stm32f4xx_hal_tim.o
    0x080037a2   0x080037a2   0x00000166   Code   RO         5869    i.HAL_TIM_IRQHandler  stm32f4xx_hal_tim.o
    0x08003908   0x08003908   0x00000084   Code   RO         3442    i.HAL_TIM_MspPostInit  tim.o
    0x0800398c   0x0800398c   0x00000002   Code   RO         5872    i.HAL_TIM_OC_DelayElapsedCallback  stm32f4xx_hal_tim.o
    0x0800398e   0x0800398e   0x000000cc   Code   RO         5893    i.HAL_TIM_PWM_ConfigChannel  stm32f4xx_hal_tim.o
    0x08003a5a   0x08003a5a   0x0000005a   Code   RO         5896    i.HAL_TIM_PWM_Init  stm32f4xx_hal_tim.o
    0x08003ab4   0x08003ab4   0x00000002   Code   RO         5898    i.HAL_TIM_PWM_MspInit  stm32f4xx_hal_tim.o
    0x08003ab6   0x08003ab6   0x00000002   Code   RO         5899    i.HAL_TIM_PWM_PulseFinishedCallback  stm32f4xx_hal_tim.o
    0x08003ab8   0x08003ab8   0x000000c8   Code   RO         5901    i.HAL_TIM_PWM_Start  stm32f4xx_hal_tim.o
    0x08003b80   0x08003b80   0x0000000e   Code   RO         3142    i.HAL_TIM_PeriodElapsedCallback  main.o
    0x08003b8e   0x08003b8e   0x00000002   Code   RO         5912    i.HAL_TIM_TriggerCallback  stm32f4xx_hal_tim.o
    0x08003b90   0x08003b90   0x00000002   Code   RO         6803    i.HAL_UARTEx_RxEventCallback  stm32f4xx_hal_uart.o
    0x08003b92   0x08003b92   0x00000002   Code   RO         6817    i.HAL_UART_ErrorCallback  stm32f4xx_hal_uart.o
    0x08003b94   0x08003b94   0x00000268   Code   RO         6820    i.HAL_UART_IRQHandler  stm32f4xx_hal_uart.o
    0x08003dfc   0x08003dfc   0x00000062   Code   RO         6821    i.HAL_UART_Init     stm32f4xx_hal_uart.o
    0x08003e5e   0x08003e5e   0x00000002   PAD
    0x08003e60   0x08003e60   0x0000030c   Code   RO         3495    i.HAL_UART_MspInit  usart.o
    0x0800416c   0x0800416c   0x00000002   Code   RO         6827    i.HAL_UART_RxCpltCallback  stm32f4xx_hal_uart.o
    0x0800416e   0x0800416e   0x00000002   PAD
    0x08004170   0x08004170   0x000000b2   Code   RO         6829    i.HAL_UART_Transmit  stm32f4xx_hal_uart.o
    0x08004222   0x08004222   0x00000002   PAD
    0x08004224   0x08004224   0x0000008c   Code   RO         6830    i.HAL_UART_Transmit_DMA  stm32f4xx_hal_uart.o
    0x080042b0   0x080042b0   0x00000002   Code   RO         6832    i.HAL_UART_TxCpltCallback  stm32f4xx_hal_uart.o
    0x080042b2   0x080042b2   0x00000002   Code   RO         6833    i.HAL_UART_TxHalfCpltCallback  stm32f4xx_hal_uart.o
    0x080042b4   0x080042b4   0x00000002   Code   RO         3563    i.HardFault_Handler  stm32f4xx_it.o
    0x080042b6   0x080042b6   0x00000002   PAD
    0x080042b8   0x080042b8   0x00000040   Code   RO          611    i.IIC_Ack           soft_iic.o
    0x080042f8   0x080042f8   0x00000040   Code   RO          612    i.IIC_NAck          soft_iic.o
    0x08004338   0x08004338   0x00000068   Code   RO          613    i.IIC_Read_Byte     soft_iic.o
    0x080043a0   0x080043a0   0x00000060   Code   RO          614    i.IIC_Send_Byte     soft_iic.o
    0x08004400   0x08004400   0x00000040   Code   RO          615    i.IIC_Start         soft_iic.o
    0x08004440   0x08004440   0x00000044   Code   RO          616    i.IIC_Stop          soft_iic.o
    0x08004484   0x08004484   0x00000054   Code   RO          617    i.IIC_Wait_Ack      soft_iic.o
    0x080044d8   0x080044d8   0x0000004c   Code   RO         1888    i.MPU_Read_Byte     bmi2_common.o
    0x08004524   0x08004524   0x00000060   Code   RO         1889    i.MPU_Read_all      bmi2_common.o
    0x08004584   0x08004584   0x00000064   Code   RO         3285    i.MX_ADC1_Init      adc.o
    0x080045e8   0x080045e8   0x00000048   Code   RO         3327    i.MX_CAN1_Init      can.o
    0x08004630   0x08004630   0x00000048   Code   RO         3328    i.MX_CAN2_Init      can.o
    0x08004678   0x08004678   0x0000003c   Code   RO         3376    i.MX_DAC_Init       dac.o
    0x080046b4   0x080046b4   0x0000007c   Code   RO         3416    i.MX_DMA_Init       dma.o
    0x08004730   0x08004730   0x00000080   Code   RO         3233    i.MX_FREERTOS_Init  freertos.o
    0x080047b0   0x080047b0   0x00000130   Code   RO         3209    i.MX_GPIO_Init      gpio.o
    0x080048e0   0x080048e0   0x000000cc   Code   RO         3443    i.MX_TIM1_Init      tim.o
    0x080049ac   0x080049ac   0x000000a8   Code   RO         3444    i.MX_TIM3_Init      tim.o
    0x08004a54   0x08004a54   0x00000038   Code   RO         3496    i.MX_UART4_Init     usart.o
    0x08004a8c   0x08004a8c   0x00000038   Code   RO         3497    i.MX_UART5_Init     usart.o
    0x08004ac4   0x08004ac4   0x00000038   Code   RO         3498    i.MX_USART1_UART_Init  usart.o
    0x08004afc   0x08004afc   0x0000003c   Code   RO         3499    i.MX_USART2_UART_Init  usart.o
    0x08004b38   0x08004b38   0x00000002   Code   RO         3564    i.MemManage_Handler  stm32f4xx_it.o
    0x08004b3a   0x08004b3a   0x00000002   Code   RO         3565    i.NMI_Handler       stm32f4xx_it.o
    0x08004b3c   0x08004b3c   0x00000038   Code   RO          332    i.PWM_Init          drv_tim.o
    0x08004b74   0x08004b74   0x0000000a   Code   RO         3025    i.RM3508_GetDataId  rm_protocol.o
    0x08004b7e   0x08004b7e   0x00000016   Code   RO         3026    i.RM3508_GetTxId    rm_protocol.o
    0x08004b94   0x08004b94   0x00000054   Code   RO          680    i.Set_accel         bmi.o
    0x08004be8   0x08004be8   0x00000058   Code   RO          681    i.Set_gyro          bmi.o
    0x08004c40   0x08004c40   0x00000024   Code   RO         2548    i.StartControlTask  control_task.o
    0x08004c64   0x08004c64   0x00000084   Code   RO         2508    i.StartMonitorTask  monitor_task.o
    0x08004ce8   0x08004ce8   0x0000003c   Code   RO         2579    i.StartSendTask     send_task.o
    0x08004d24   0x08004d24   0x0000009c   Code   RO         2464    i.StartSystemTask   system_task.o
    0x08004dc0   0x08004dc0   0x00000088   Code   RO         2609    i.StartrpMonitorTask  rp_monitor.o
    0x08004e48   0x08004e48   0x0000002c   Code   RO         8364    i.SysTick_Handler   port.o
    0x08004e74   0x08004e74   0x00000088   Code   RO         3143    i.SystemClock_Config  main.o
    0x08004efc   0x08004efc   0x0000001c   Code   RO         3898    i.SystemInit        system_stm32f4xx.o
    0x08004f18   0x08004f18   0x0000000c   Code   RO         3566    i.TIM2_IRQHandler   stm32f4xx_it.o
    0x08004f24   0x08004f24   0x000000c8   Code   RO         5914    i.TIM_Base_SetConfig  stm32f4xx_hal_tim.o
    0x08004fec   0x08004fec   0x0000001a   Code   RO         5915    i.TIM_CCxChannelCmd  stm32f4xx_hal_tim.o
    0x08005006   0x08005006   0x00000014   Code   RO         5925    i.TIM_ETR_SetConfig  stm32f4xx_hal_tim.o
    0x0800501a   0x0800501a   0x00000010   Code   RO         5926    i.TIM_ITRx_SetConfig  stm32f4xx_hal_tim.o
    0x0800502a   0x0800502a   0x00000002   PAD
    0x0800502c   0x0800502c   0x00000060   Code   RO         5927    i.TIM_OC1_SetConfig  stm32f4xx_hal_tim.o
    0x0800508c   0x0800508c   0x0000006c   Code   RO         5928    i.TIM_OC2_SetConfig  stm32f4xx_hal_tim.o
    0x080050f8   0x080050f8   0x00000068   Code   RO         5929    i.TIM_OC3_SetConfig  stm32f4xx_hal_tim.o
    0x08005160   0x08005160   0x00000050   Code   RO         5930    i.TIM_OC4_SetConfig  stm32f4xx_hal_tim.o
    0x080051b0   0x080051b0   0x00000022   Code   RO         5932    i.TIM_TI1_ConfigInputStage  stm32f4xx_hal_tim.o
    0x080051d2   0x080051d2   0x00000024   Code   RO         5934    i.TIM_TI2_ConfigInputStage  stm32f4xx_hal_tim.o
    0x080051f6   0x080051f6   0x00000002   PAD
    0x080051f8   0x080051f8   0x00000018   Code   RO         3567    i.UART4_IRQHandler  stm32f4xx_it.o
    0x08005210   0x08005210   0x00000018   Code   RO         3568    i.UART5_IRQHandler  stm32f4xx_it.o
    0x08005228   0x08005228   0x00000010   Code   RO         6834    i.UART_DMAAbortOnError  stm32f4xx_hal_uart.o
    0x08005238   0x08005238   0x0000004a   Code   RO         6835    i.UART_DMAError     stm32f4xx_hal_uart.o
    0x08005282   0x08005282   0x00000042   Code   RO         6840    i.UART_DMATransmitCplt  stm32f4xx_hal_uart.o
    0x080052c4   0x080052c4   0x0000000a   Code   RO         6842    i.UART_DMATxHalfCplt  stm32f4xx_hal_uart.o
    0x080052ce   0x080052ce   0x0000004e   Code   RO         6844    i.UART_EndRxTransfer  stm32f4xx_hal_uart.o
    0x0800531c   0x0800531c   0x0000001c   Code   RO         6845    i.UART_EndTxTransfer  stm32f4xx_hal_uart.o
    0x08005338   0x08005338   0x000000c0   Code   RO         6846    i.UART_Receive_IT   stm32f4xx_hal_uart.o
    0x080053f8   0x080053f8   0x0000010c   Code   RO         6847    i.UART_SetConfig    stm32f4xx_hal_uart.o
    0x08005504   0x08005504   0x00000078   Code   RO         6850    i.UART_WaitOnFlagUntilTimeout  stm32f4xx_hal_uart.o
    0x0800557c   0x0800557c   0x00000018   Code   RO         3569    i.USART1_IRQHandler  stm32f4xx_it.o
    0x08005594   0x08005594   0x00000038   Code   RO          371    i.USART1_Init       drv_uart.o
    0x080055cc   0x080055cc   0x00000004   Code   RO         2610    i.USART1_rxDataHandler  rp_monitor.o
    0x080055d0   0x080055d0   0x00000018   Code   RO         3570    i.USART2_IRQHandler  stm32f4xx_it.o
    0x080055e8   0x080055e8   0x0000003c   Code   RO          373    i.USART2_Init       drv_uart.o
    0x08005624   0x08005624   0x0000001c   Code   RO         2871    i.USART2_rxDataHandler  rc_protocol.o
    0x08005640   0x08005640   0x00000038   Code   RO          375    i.USART4_Init       drv_uart.o
    0x08005678   0x08005678   0x00000002   Code   RO          376    i.USART4_rxDataHandler  drv_uart.o
    0x0800567a   0x0800567a   0x00000002   PAD
    0x0800567c   0x0800567c   0x00000038   Code   RO          377    i.USART5_Init       drv_uart.o
    0x080056b4   0x080056b4   0x00000002   Code   RO          378    i.USART5_rxDataHandler  drv_uart.o
    0x080056b6   0x080056b6   0x00000032   Code   RO          379    i.USART_AddMsg      drv_uart.o
    0x080056e8   0x080056e8   0x00000064   Code   RO          380    i.USART_StartTx     drv_uart.o
    0x0800574c   0x0800574c   0x00000060   Code   RO          381    i.USART_StartTxDma  drv_uart.o
    0x080057ac   0x080057ac   0x00000002   Code   RO         3571    i.UsageFault_Handler  stm32f4xx_it.o
    0x080057ae   0x080057ae   0x00000030   Code   RO         8547    i.__ARM_fpclassify  m_wm.l(fpclassify.o)
    0x080057de   0x080057de   0x00000020   Code   RO         4970    i.__NVIC_SetPriority  stm32f4xx_hal_cortex.o
    0x080057fe   0x080057fe   0x00000002   PAD
    0x08005800   0x08005800   0x00000360   Code   RO         8440    i.__hardfp_asin     m_wm.l(asin.o)
    0x08005b60   0x08005b60   0x000002d8   Code   RO         8513    i.__hardfp_atan     m_wm.l(atan.o)
    0x08005e38   0x08005e38   0x000001f0   Code   RO         8454    i.__hardfp_atan2    m_wm.l(atan2.o)
    0x08006028   0x08006028   0x000000f8   Code   RO         8549    i.__kernel_poly     m_wm.l(poly.o)
    0x08006120   0x08006120   0x00000014   Code   RO         8528    i.__mathlib_dbl_infnan  m_wm.l(dunder.o)
    0x08006134   0x08006134   0x00000014   Code   RO         8529    i.__mathlib_dbl_infnan2  m_wm.l(dunder.o)
    0x08006148   0x08006148   0x00000020   Code   RO         8530    i.__mathlib_dbl_invalid  m_wm.l(dunder.o)
    0x08006168   0x08006168   0x00000020   Code   RO         8533    i.__mathlib_dbl_underflow  m_wm.l(dunder.o)
    0x08006188   0x08006188   0x0000000e   Code   RO         8612    i.__scatterload_copy  mc_w.l(handlers.o)
    0x08006196   0x08006196   0x00000002   Code   RO         8613    i.__scatterload_null  mc_w.l(handlers.o)
    0x08006198   0x08006198   0x0000000e   Code   RO         8614    i.__scatterload_zeroinit  mc_w.l(handlers.o)
    0x080061a6   0x080061a6   0x00000002   PAD
    0x080061a8   0x080061a8   0x0000000c   Code   RO         8586    i.__set_errno       mc_w.l(errno.o)
    0x080061b4   0x080061b4   0x00000010   Code   RO         8515    i.atan              m_wm.l(atan.o)
    0x080061c4   0x080061c4   0x00000078   Code   RO         2040    i.bmi270_init       bmi270.o
    0x0800623c   0x0800623c   0x00000002   Code   RO         1891    i.bmi2_error_codes_print_result  bmi2_common.o
    0x0800623e   0x0800623e   0x00000036   Code   RO          795    i.bmi2_extract_input_feat_config  bmi2.o
    0x08006274   0x08006274   0x000000a0   Code   RO          800    i.bmi2_get_feat_config  bmi2.o
    0x08006314   0x08006314   0x0000003c   Code   RO          807    i.bmi2_get_gyro_cross_sense  bmi2.o
    0x08006350   0x08006350   0x00000030   Code   RO          810    i.bmi2_get_internal_status  bmi2.o
    0x08006380   0x08006380   0x00000092   Code   RO          811    i.bmi2_get_regs     bmi2.o
    0x08006412   0x08006412   0x00000002   PAD
    0x08006414   0x08006414   0x0000023a   Code   RO          813    i.bmi2_get_sensor_config  bmi2.o
    0x0800664e   0x0800664e   0x000002de   Code   RO          814    i.bmi2_get_sensor_data  bmi2.o
    0x0800692c   0x0800692c   0x00000026   Code   RO          815    i.bmi2_get_status   bmi2.o
    0x08006952   0x08006952   0x00000002   PAD
    0x08006954   0x08006954   0x00000040   Code   RO         1892    i.bmi2_interface_selection  bmi2_common.o
    0x08006994   0x08006994   0x00000076   Code   RO          816    i.bmi2_map_data_int  bmi2.o
    0x08006a0a   0x08006a0a   0x00000002   PAD
    0x08006a0c   0x08006a0c   0x00000064   Code   RO          826    i.bmi2_sec_init     bmi2.o
    0x08006a70   0x08006a70   0x00000038   Code   RO          828    i.bmi2_sensor_enable  bmi2.o
    0x08006aa8   0x08006aa8   0x00000062   Code   RO          830    i.bmi2_set_adv_power_save  bmi2.o
    0x08006b0a   0x08006b0a   0x00000002   PAD
    0x08006b0c   0x08006b0c   0x0000009c   Code   RO          840    i.bmi2_set_regs     bmi2.o
    0x08006ba8   0x08006ba8   0x000001e6   Code   RO          842    i.bmi2_set_sensor_config  bmi2.o
    0x08006d8e   0x08006d8e   0x00000060   Code   RO          843    i.bmi2_soft_reset   bmi2.o
    0x08006dee   0x08006dee   0x00000056   Code   RO          847    i.bmi2_write_config_file  bmi2.o
    0x08006e44   0x08006e44   0x0000003e   Code   RO          850    i.cfg_error_status  bmi2.o
    0x08006e82   0x08006e82   0x00000048   Code   RO         2172    i.chassis_motor_check  chassis_motor.o
    0x08006eca   0x08006eca   0x00000022   Code   RO         2173    i.chassis_motor_heart_beat  chassis_motor.o
    0x08006eec   0x08006eec   0x0000003c   Code   RO         2174    i.chassis_motor_init  chassis_motor.o
    0x08006f28   0x08006f28   0x0000002c   Code   RO         2175    i.chassis_motor_update  chassis_motor.o
    0x08006f54   0x08006f54   0x00000030   Code   RO          851    i.check_boundary_val  bmi2.o
    0x08006f84   0x08006f84   0x0000001a   Code   RO          853    i.comp_gyro_cross_axis_sensitivity  bmi2.o
    0x08006f9e   0x08006f9e   0x000000dc   Code   RO          854    i.config_aux_interface  bmi2.o
    0x0800707a   0x0800707a   0x00000002   PAD
    0x0800707c   0x0800707c   0x00000018   Code   RO          535    i.delay_us          drv_haltick.o
    0x08007094   0x08007094   0x00000018   Code   RO          382    i.dma_m0_rxcplt_callback  drv_uart.o
    0x080070ac   0x080070ac   0x00000018   Code   RO          383    i.dma_m1_rxcplt_callback  drv_uart.o
    0x080070c4   0x080070c4   0x00000058   Code   RO         2509    i.event_notify      monitor_task.o
    0x0800711c   0x0800711c   0x00000036   Code   RO          861    i.extract_output_feat_config  bmi2.o
    0x08007152   0x08007152   0x00000018   Code   RO         8543    i.fabs              m_wm.l(fabs.o)
    0x0800716a   0x0800716a   0x00000002   PAD
    0x0800716c   0x0800716c   0x00000050   Code   RO         8479    i.free              mc_w.l(malloc.o)
    0x080071bc   0x080071bc   0x00000020   Code   RO          862    i.get_acc_gyr_data  bmi2.o
    0x080071dc   0x080071dc   0x0000004e   Code   RO          863    i.get_accel_config  bmi2.o
    0x0800722a   0x0800722a   0x00000068   Code   RO          864    i.get_accel_self_test_status  bmi2.o
    0x08007292   0x08007292   0x0000008a   Code   RO          865    i.get_any_motion_config  bmi2.o
    0x0800731c   0x0800731c   0x000000aa   Code   RO          866    i.get_aux_config    bmi2.o
    0x080073c6   0x080073c6   0x00000058   Code   RO          868    i.get_ext_sens_sync_config  bmi2.o
    0x0800741e   0x0800741e   0x00000086   Code   RO          869    i.get_flat_config   bmi2.o
    0x080074a4   0x080074a4   0x00000082   Code   RO          870    i.get_free_fall_det_config  bmi2.o
    0x08007526   0x08007526   0x00000058   Code   RO          871    i.get_glance_detect_config  bmi2.o
    0x0800757e   0x0800757e   0x0000005e   Code   RO          872    i.get_gyro_config   bmi2.o
    0x080075dc   0x080075dc   0x00000072   Code   RO          873    i.get_gyro_cross_sense  bmi2.o
    0x0800764e   0x0800764e   0x0000008a   Code   RO          874    i.get_gyro_gain_update_config  bmi2.o
    0x080076d8   0x080076d8   0x00000068   Code   RO          875    i.get_gyro_gain_update_status  bmi2.o
    0x08007740   0x08007740   0x000000a4   Code   RO          876    i.get_high_g_config  bmi2.o
    0x080077e4   0x080077e4   0x00000092   Code   RO          877    i.get_low_g_config  bmi2.o
    0x08007876   0x08007876   0x0000008a   Code   RO          879    i.get_no_motion_config  bmi2.o
    0x08007900   0x08007900   0x00000076   Code   RO          880    i.get_nvm_error_status  bmi2.o
    0x08007976   0x08007976   0x000000b4   Code   RO          881    i.get_ois_output    bmi2.o
    0x08007a2a   0x08007a2a   0x0000008c   Code   RO          882    i.get_orient_config  bmi2.o
    0x08007ab6   0x08007ab6   0x00000056   Code   RO          885    i.get_remapped_data  bmi2.o
    0x08007b0c   0x08007b0c   0x000000be   Code   RO          886    i.get_sig_motion_config  bmi2.o
    0x08007bca   0x08007bca   0x0000008a   Code   RO          888    i.get_step_config   bmi2.o
    0x08007c54   0x08007c54   0x000000aa   Code   RO          889    i.get_step_count_params_config  bmi2.o
    0x08007cfe   0x08007cfe   0x0000006e   Code   RO          890    i.get_step_counter_output  bmi2.o
    0x08007d6c   0x08007d6c   0x00000058   Code   RO          891    i.get_tilt_config   bmi2.o
    0x08007dc4   0x08007dc4   0x00000058   Code   RO          892    i.get_up_hold_to_wake_config  bmi2.o
    0x08007e1c   0x08007e1c   0x0000007c   Code   RO          894    i.get_wake_up_config  bmi2.o
    0x08007e98   0x08007e98   0x00000076   Code   RO          895    i.get_wrist_gest_config  bmi2.o
    0x08007f0e   0x08007f0e   0x0000008a   Code   RO          896    i.get_wrist_gest_w_config  bmi2.o
    0x08007f98   0x08007f98   0x0000008e   Code   RO          897    i.get_wrist_wear_wake_up_config  bmi2.o
    0x08008026   0x08008026   0x0000009c   Code   RO          898    i.get_wrist_wear_wake_up_wh_config  bmi2.o
    0x080080c2   0x080080c2   0x00000044   Code   RO         2133    i.imu_sensor_check  imu_sensor.o
    0x08008106   0x08008106   0x00000006   Code   RO         2134    i.imu_sensor_heart_beat  imu_sensor.o
    0x0800810c   0x0800810c   0x000000a0   Code   RO         2901    i.imu_sensor_init   imu_protocol.o
    0x080081ac   0x080081ac   0x0000005c   Code   RO         2902    i.imu_sensor_update  imu_protocol.o
    0x08008208   0x08008208   0x0000002c   Code   RO          682    i.inVSqrt           bmi.o
    0x08008234   0x08008234   0x00000026   Code   RO          683    i.lsb_to_dps        bmi.o
    0x0800825a   0x0800825a   0x00000002   PAD
    0x0800825c   0x0800825c   0x00000034   Code   RO          684    i.lsb_to_mps2       bmi.o
    0x08008290   0x08008290   0x0000004a   Code   RO         3144    i.main              main.o
    0x080082da   0x080082da   0x0000000c   Code   RO         7929    i.makeFreeRtosPriority  cmsis_os.o
    0x080082e6   0x080082e6   0x00000002   PAD
    0x080082e8   0x080082e8   0x0000006c   Code   RO         8480    i.malloc            mc_w.l(malloc.o)
    0x08008354   0x08008354   0x00000028   Code   RO          536    i.micros            drv_haltick.o
    0x0800837c   0x0800837c   0x00000018   Code   RO          900    i.null_ptr_check    bmi2.o
    0x08008394   0x08008394   0x0000000e   Code   RO         7931    i.osDelay           cmsis_os.o
    0x080083a2   0x080083a2   0x0000000a   Code   RO         7934    i.osKernelStart     cmsis_os.o
    0x080083ac   0x080083ac   0x00000054   Code   RO         7968    i.osThreadCreate    cmsis_os.o
    0x08008400   0x08008400   0x00000028   Code   RO         2677    i.pid_val_init      pid.o
    0x08008428   0x08008428   0x00000070   Code   RO         7611    i.prvAddCurrentTaskToDelayedList  tasks.o
    0x08008498   0x08008498   0x000000d0   Code   RO         7612    i.prvAddNewTaskToReadyList  tasks.o
    0x08008568   0x08008568   0x00000034   Code   RO         7613    i.prvDeleteTCB      tasks.o
    0x0800859c   0x0800859c   0x0000004c   Code   RO         8296    i.prvHeapInit       heap_4.o
    0x080085e8   0x080085e8   0x00000060   Code   RO         7614    i.prvIdleTask       tasks.o
    0x08008648   0x08008648   0x00000098   Code   RO         7615    i.prvInitialiseNewTask  tasks.o
    0x080086e0   0x080086e0   0x0000004c   Code   RO         8297    i.prvInsertBlockIntoFreeList  heap_4.o
    0x0800872c   0x0800872c   0x00000020   Code   RO         7616    i.prvResetNextTaskUnblockTime  tasks.o
    0x0800874c   0x0800874c   0x00000028   Code   RO         8365    i.prvTaskExitError  port.o
    0x08008774   0x08008774   0x000000dc   Code   RO         8298    i.pvPortMalloc      heap_4.o
    0x08008850   0x08008850   0x0000002c   Code   RO         8366    i.pxPortInitialiseStack  port.o
    0x0800887c   0x0800887c   0x00000024   Code   RO         2371    i.rc_copy_button    rc.o
    0x080088a0   0x080088a0   0x00000044   Code   RO         2372    i.rc_copy_switch    rc.o
